{
  "contractName": "DeliveryTracking",
  "abi": [
    {
      "inputs": [
        {
          "internalType": "address",
          "name": "orderRegistryAddress",
          "type": "address"
        }
      ],
      "stateMutability": "nonpayable",
      "type": "constructor"
    },
    {
      "anonymous": false,
      "inputs": [
        {
          "indexed": true,
          "internalType": "uint256",
          "name": "orderId",
          "type": "uint256"
        },
        {
          "indexed": true,
          "internalType": "address",
          "name": "actor",
          "type": "address"
        }
      ],
      "name": "DeliveredMarked",
      "type": "event"
    },
    {
      "anonymous": false,
      "inputs": [
        {
          "indexed": true,
          "internalType": "uint256",
          "name": "orderId",
          "type": "uint256"
        },
        {
          "indexed": true,
          "internalType": "address",
          "name": "actor",
          "type": "address"
        }
      ],
      "name": "DeliveryConfirmed",
      "type": "event"
    },
    {
      "anonymous": false,
      "inputs": [
        {
          "indexed": true,
          "internalType": "address",
          "name": "escrow",
          "type": "address"
        }
      ],
      "name": "EscrowAddressSet",
      "type": "event"
    },
    {
      "anonymous": false,
      "inputs": [
        {
          "indexed": true,
          "internalType": "uint256",
          "name": "orderId",
          "type": "uint256"
        },
        {
          "indexed": true,
          "internalType": "address",
          "name": "actor",
          "type": "address"
        }
      ],
      "name": "InTransitMarked",
      "type": "event"
    },
    {
      "anonymous": false,
      "inputs": [
        {
          "indexed": true,
          "internalType": "uint256",
          "name": "orderId",
          "type": "uint256"
        },
        {
          "indexed": true,
          "internalType": "address",
          "name": "actor",
          "type": "address"
        },
        {
          "indexed": false,
          "internalType": "string",
          "name": "trackingId",
          "type": "string"
        }
      ],
      "name": "ShipmentMarked",
      "type": "event"
    },
    {
      "inputs": [
        {
          "internalType": "uint256",
          "name": "",
          "type": "uint256"
        }
      ],
      "name": "deliveries",
      "outputs": [
        {
          "internalType": "enum DeliveryTracking.DeliveryStatus",
          "name": "status",
          "type": "uint8"
        },
        {
          "internalType": "string",
          "name": "trackingId",
          "type": "string"
        }
      ],
      "stateMutability": "view",
      "type": "function",
      "constant": true
    },
    {
      "inputs": [],
      "name": "escrowAddress",
      "outputs": [
        {
          "internalType": "address",
          "name": "",
          "type": "address"
        }
      ],
      "stateMutability": "view",
      "type": "function",
      "constant": true
    },
    {
      "inputs": [],
      "name": "orderRegistry",
      "outputs": [
        {
          "internalType": "contract OrderRegistry",
          "name": "",
          "type": "address"
        }
      ],
      "stateMutability": "view",
      "type": "function",
      "constant": true
    },
    {
      "inputs": [],
      "name": "owner",
      "outputs": [
        {
          "internalType": "address",
          "name": "",
          "type": "address"
        }
      ],
      "stateMutability": "view",
      "type": "function",
      "constant": true
    },
    {
      "inputs": [
        {
          "internalType": "address",
          "name": "escrow",
          "type": "address"
        }
      ],
      "name": "setEscrowAddress",
      "outputs": [],
      "stateMutability": "nonpayable",
      "type": "function"
    },
    {
      "inputs": [
        {
          "internalType": "uint256",
          "name": "orderId",
          "type": "uint256"
        },
        {
          "internalType": "string",
          "name": "trackingId",
          "type": "string"
        }
      ],
      "name": "markShipped",
      "outputs": [],
      "stateMutability": "nonpayable",
      "type": "function"
    },
    {
      "inputs": [
        {
          "internalType": "uint256",
          "name": "orderId",
          "type": "uint256"
        }
      ],
      "name": "markInTransit",
      "outputs": [],
      "stateMutability": "nonpayable",
      "type": "function"
    },
    {
      "inputs": [
        {
          "internalType": "uint256",
          "name": "orderId",
          "type": "uint256"
        }
      ],
      "name": "markDelivered",
      "outputs": [],
      "stateMutability": "nonpayable",
      "type": "function"
    },
    {
      "inputs": [
        {
          "internalType": "uint256",
          "name": "orderId",
          "type": "uint256"
        }
      ],
      "name": "confirmDelivery",
      "outputs": [],
      "stateMutability": "nonpayable",
      "type": "function"
    },
    {
      "inputs": [
        {
          "internalType": "uint256",
          "name": "orderId",
          "type": "uint256"
        },
        {
          "internalType": "string",
          "name": "trackingId",
          "type": "string"
        }
      ],
      "name": "advanceToDelivered",
      "outputs": [],
      "stateMutability": "nonpayable",
      "type": "function"
    },
    {
      "inputs": [
        {
          "internalType": "uint256",
          "name": "orderId",
          "type": "uint256"
        },
        {
          "internalType": "address",
          "name": "buyer",
          "type": "address"
        }
      ],
      "name": "confirmDeliveryByEscrow",
      "outputs": [],
      "stateMutability": "nonpayable",
      "type": "function"
    },
    {
      "inputs": [
        {
          "internalType": "uint256",
          "name": "orderId",
          "type": "uint256"
        }
      ],
      "name": "isConfirmed",
      "outputs": [
        {
          "internalType": "bool",
          "name": "",
          "type": "bool"
        }
      ],
      "stateMutability": "view",
      "type": "function",
      "constant": true
    }
  ],
  "bytecode": "0x60806040523480156200001157600080fd5b5060405162001ebf38038062001ebf833981810160405281019062000037919062000129565b806000806101000a81548173ffffffffffffffffffffffffffffffffffffffff021916908373ffffffffffffffffffffffffffffffffffffffff16021790555033600260006101000a81548173ffffffffffffffffffffffffffffffffffffffff021916908373ffffffffffffffffffffffffffffffffffffffff160217905550506200015b565b600080fd5b600073ffffffffffffffffffffffffffffffffffffffff82169050919050565b6000620000f182620000c4565b9050919050565b6200010381620000e4565b81146200010f57600080fd5b50565b6000815190506200012381620000f8565b92915050565b600060208284031215620001425762000141620000bf565b5b6000620001528482850162000112565b91505092915050565b611d54806200016b6000396000f3fe608060405234801561001057600080fd5b50600436106100b45760003560e01c8063b371564b11610071578063b371564b1461018e578063ddeb63b5146101ac578063eb826a5f146101c8578063f09c3ec3146101e4578063f8dac8d314610200578063fd84cb971461021c576100b4565b80630d5defa4146100b95780633a434240146100d75780635218d722146100f3578063784547a71461010f5780638da5cb5b1461013f578063a9e4a3241461015d575b600080fd5b6100c1610238565b6040516100ce919061131a565b60405180910390f35b6100f160048036038101906100ec91906113a1565b61025e565b005b61010d60048036038101906101089190611446565b6104d0565b005b610129600480360381019061012491906114a6565b61087d565b60405161013691906114ee565b60405180910390f35b6101476108d0565b604051610154919061131a565b60405180910390f35b610177600480360381019061017291906114a6565b6108f6565b604051610185929190611610565b60405180910390f35b6101966109af565b6040516101a3919061169f565b60405180910390f35b6101c660048036038101906101c191906116ba565b6109d3565b005b6101e260048036038101906101dd91906114a6565b610bea565b005b6101fe60048036038101906101f991906114a6565b610d94565b005b61021a60048036038101906102159190611446565b610f3f565b005b610236600480360381019061023191906114a6565b61112e565b005b600160009054906101000a900473ffffffffffffffffffffffffffffffffffffffff1681565b600160009054906101000a900473ffffffffffffffffffffffffffffffffffffffff1673ffffffffffffffffffffffffffffffffffffffff163373ffffffffffffffffffffffffffffffffffffffff16146102ee576040517f08c379a00000000000000000000000000000000000000000000000000000000081526004016102e590611733565b60405180910390fd5b60008054906101000a900473ffffffffffffffffffffffffffffffffffffffff1673ffffffffffffffffffffffffffffffffffffffff16635bf608b8836040518263ffffffff1660e01b81526004016103479190611762565b602060405180830381865afa158015610364573d6000803e3d6000fd5b505050506040513d601f19601f820116820180604052508101906103889190611792565b73ffffffffffffffffffffffffffffffffffffffff168173ffffffffffffffffffffffffffffffffffffffff16146103f5576040517f08c379a00000000000000000000000000000000000000000000000000000000081526004016103ec9061180b565b60405180910390fd5b6003600481111561040957610408611509565b5b6003600084815260200190815260200160002060000160009054906101000a900460ff16600481111561043f5761043e611509565b5b1461044957600080fd5b60046003600084815260200190815260200160002060000160006101000a81548160ff0219169083600481111561048357610482611509565b5b02179055508073ffffffffffffffffffffffffffffffffffffffff16827f64a783c6150854ae756454311c7625a965c757996ba8cc1a8c6205380f33725060405160405180910390a35050565b60008054906101000a900473ffffffffffffffffffffffffffffffffffffffff1673ffffffffffffffffffffffffffffffffffffffff1663d6a9de51846040518263ffffffff1660e01b81526004016105299190611762565b602060405180830381865afa158015610546573d6000803e3d6000fd5b505050506040513d601f19601f8201168201806040525081019061056a9190611792565b73ffffffffffffffffffffffffffffffffffffffff163373ffffffffffffffffffffffffffffffffffffffff16146105a157600080fd5b60006003600085815260200190815260200160002060000160009054906101000a900460ff169050600160048111156105dd576105dc611509565b5b8160048111156105f0576105ef611509565b5b10156107145760405180604001604052806001600481111561061557610614611509565b5b815260200184848080601f016020809104026020016040519081016040528093929190818152602001838380828437600081840152601f19601f820116905080830192505050505050508152506003600086815260200190815260200160002060008201518160000160006101000a81548160ff021916908360048111156106a05761069f611509565b5b021790555060208201518160010190816106ba9190611a5c565b509050503373ffffffffffffffffffffffffffffffffffffffff16847f17618667a974789c0664430f4c1f07d719a6a41eb6541a8d6024de9d417380268585604051610707929190611b6a565b60405180910390a3600190505b6001600481111561072857610727611509565b5b81600481111561073b5761073a611509565b5b036107c85760026003600086815260200190815260200160002060000160006101000a81548160ff0219169083600481111561077a57610779611509565b5b02179055503373ffffffffffffffffffffffffffffffffffffffff16847f992668d8856e18e6652d5c53d026feb92760c37acc7e9ee91dfb30a6e1f7913260405160405180910390a3600290505b600260048111156107dc576107db611509565b5b8160048111156107ef576107ee611509565b5b0361087757600380600086815260200190815260200160002060000160006101000a81548160ff0219169083600481111561082d5761082c611509565b5b02179055503373ffffffffffffffffffffffffffffffffffffffff16847f89654153675ed68ca391a59ba68a13bd6b2729e3a369f230139053b9f513fd8b60405160405180910390a35b50505050565b600060048081111561089257610891611509565b5b6003600084815260200190815260200160002060000160009054906101000a900460ff1660048111156108c8576108c7611509565b5b149050919050565b600260009054906101000a900473ffffffffffffffffffffffffffffffffffffffff1681565b60036020528060005260406000206000915090508060000160009054906101000a900460ff169080600101805461092c90611889565b80601f016020809104026020016040519081016040528092919081815260200182805461095890611889565b80156109a55780601f1061097a576101008083540402835291602001916109a5565b820191906000526020600020905b81548152906001019060200180831161098857829003601f168201915b5050505050905082565b60008054906101000a900473ffffffffffffffffffffffffffffffffffffffff1681565b600260009054906101000a900473ffffffffffffffffffffffffffffffffffffffff1673ffffffffffffffffffffffffffffffffffffffff163373ffffffffffffffffffffffffffffffffffffffff1614610a63576040517f08c379a0000000000000000000000000000000000000000000000000000000008152600401610a5a90611bda565b60405180910390fd5b600073ffffffffffffffffffffffffffffffffffffffff168173ffffffffffffffffffffffffffffffffffffffff1603610ad2576040517f08c379a0000000000000000000000000000000000000000000000000000000008152600401610ac990611c6c565b60405180910390fd5b600073ffffffffffffffffffffffffffffffffffffffff16600160009054906101000a900473ffffffffffffffffffffffffffffffffffffffff1673ffffffffffffffffffffffffffffffffffffffff1614610b63576040517f08c379a0000000000000000000000000000000000000000000000000000000008152600401610b5a90611cfe565b60405180910390fd5b80600160006101000a81548173ffffffffffffffffffffffffffffffffffffffff021916908373ffffffffffffffffffffffffffffffffffffffff1602179055508073ffffffffffffffffffffffffffffffffffffffff167f14229a64f0a7328601813f0f794bb1dbc59363f1ed61c2f957d00517e6140e1860405160405180910390a250565b60008054906101000a900473ffffffffffffffffffffffffffffffffffffffff1673ffffffffffffffffffffffffffffffffffffffff1663d6a9de51826040518263ffffffff1660e01b8152600401610c439190611762565b602060405180830381865afa158015610c60573d6000803e3d6000fd5b505050506040513d601f19601f82011682018060405250810190610c849190611792565b73ffffffffffffffffffffffffffffffffffffffff163373ffffffffffffffffffffffffffffffffffffffff1614610cbb57600080fd5b60026004811115610ccf57610cce611509565b5b6003600083815260200190815260200160002060000160009054906101000a900460ff166004811115610d0557610d04611509565b5b14610d0f57600080fd5b600380600083815260200190815260200160002060000160006101000a81548160ff02191690836004811115610d4857610d47611509565b5b02179055503373ffffffffffffffffffffffffffffffffffffffff16817f89654153675ed68ca391a59ba68a13bd6b2729e3a369f230139053b9f513fd8b60405160405180910390a350565b60008054906101000a900473ffffffffffffffffffffffffffffffffffffffff1673ffffffffffffffffffffffffffffffffffffffff1663d6a9de51826040518263ffffffff1660e01b8152600401610ded9190611762565b602060405180830381865afa158015610e0a573d6000803e3d6000fd5b505050506040513d601f19601f82011682018060405250810190610e2e9190611792565b73ffffffffffffffffffffffffffffffffffffffff163373ffffffffffffffffffffffffffffffffffffffff1614610e6557600080fd5b60016004811115610e7957610e78611509565b5b6003600083815260200190815260200160002060000160009054906101000a900460ff166004811115610eaf57610eae611509565b5b14610eb957600080fd5b60026003600083815260200190815260200160002060000160006101000a81548160ff02191690836004811115610ef357610ef2611509565b5b02179055503373ffffffffffffffffffffffffffffffffffffffff16817f992668d8856e18e6652d5c53d026feb92760c37acc7e9ee91dfb30a6e1f7913260405160405180910390a350565b60008054906101000a900473ffffffffffffffffffffffffffffffffffffffff1673ffffffffffffffffffffffffffffffffffffffff1663d6a9de51846040518263ffffffff1660e01b8152600401610f989190611762565b602060405180830381865afa158015610fb5573d6000803e3d6000fd5b505050506040513d601f19601f82011682018060405250810190610fd99190611792565b73ffffffffffffffffffffffffffffffffffffffff163373ffffffffffffffffffffffffffffffffffffffff161461101057600080fd5b60405180604001604052806001600481111561102f5761102e611509565b5b815260200183838080601f016020809104026020016040519081016040528093929190818152602001838380828437600081840152601f19601f820116905080830192505050505050508152506003600085815260200190815260200160002060008201518160000160006101000a81548160ff021916908360048111156110ba576110b9611509565b5b021790555060208201518160010190816110d49190611a5c565b509050503373ffffffffffffffffffffffffffffffffffffffff16837f17618667a974789c0664430f4c1f07d719a6a41eb6541a8d6024de9d417380268484604051611121929190611b6a565b60405180910390a3505050565b60008054906101000a900473ffffffffffffffffffffffffffffffffffffffff1673ffffffffffffffffffffffffffffffffffffffff16635bf608b8826040518263ffffffff1660e01b81526004016111879190611762565b602060405180830381865afa1580156111a4573d6000803e3d6000fd5b505050506040513d601f19601f820116820180604052508101906111c89190611792565b73ffffffffffffffffffffffffffffffffffffffff163373ffffffffffffffffffffffffffffffffffffffff16146111ff57600080fd5b6003600481111561121357611212611509565b5b6003600083815260200190815260200160002060000160009054906101000a900460ff16600481111561124957611248611509565b5b1461125357600080fd5b60046003600083815260200190815260200160002060000160006101000a81548160ff0219169083600481111561128d5761128c611509565b5b02179055503373ffffffffffffffffffffffffffffffffffffffff16817f64a783c6150854ae756454311c7625a965c757996ba8cc1a8c6205380f33725060405160405180910390a350565b600073ffffffffffffffffffffffffffffffffffffffff82169050919050565b6000611304826112d9565b9050919050565b611314816112f9565b82525050565b600060208201905061132f600083018461130b565b92915050565b600080fd5b600080fd5b6000819050919050565b6113528161133f565b811461135d57600080fd5b50565b60008135905061136f81611349565b92915050565b61137e816112f9565b811461138957600080fd5b50565b60008135905061139b81611375565b92915050565b600080604083850312156113b8576113b7611335565b5b60006113c685828601611360565b92505060206113d78582860161138c565b9150509250929050565b600080fd5b600080fd5b600080fd5b60008083601f840112611406576114056113e1565b5b8235905067ffffffffffffffff811115611423576114226113e6565b5b60208301915083600182028301111561143f5761143e6113eb565b5b9250929050565b60008060006040848603121561145f5761145e611335565b5b600061146d86828701611360565b935050602084013567ffffffffffffffff81111561148e5761148d61133a565b5b61149a868287016113f0565b92509250509250925092565b6000602082840312156114bc576114bb611335565b5b60006114ca84828501611360565b91505092915050565b60008115159050919050565b6114e8816114d3565b82525050565b600060208201905061150360008301846114df565b92915050565b7f4e487b7100000000000000000000000000000000000000000000000000000000600052602160045260246000fd5b6005811061154957611548611509565b5b50565b600081905061155a82611538565b919050565b600061156a8261154c565b9050919050565b61157a8161155f565b82525050565b600081519050919050565b600082825260208201905092915050565b60005b838110156115ba57808201518184015260208101905061159f565b60008484015250505050565b6000601f19601f8301169050919050565b60006115e282611580565b6115ec818561158b565b93506115fc81856020860161159c565b611605816115c6565b840191505092915050565b60006040820190506116256000830185611571565b818103602083015261163781846115d7565b90509392505050565b6000819050919050565b600061166561166061165b846112d9565b611640565b6112d9565b9050919050565b60006116778261164a565b9050919050565b60006116898261166c565b9050919050565b6116998161167e565b82525050565b60006020820190506116b46000830184611690565b92915050565b6000602082840312156116d0576116cf611335565b5b60006116de8482850161138c565b91505092915050565b7f44656c6976657279547261636b696e673a20657363726f77206f6e6c79000000600082015250565b600061171d601d8361158b565b9150611728826116e7565b602082019050919050565b6000602082019050818103600083015261174c81611710565b9050919050565b61175c8161133f565b82525050565b60006020820190506117776000830184611753565b92915050565b60008151905061178c81611375565b92915050565b6000602082840312156117a8576117a7611335565b5b60006117b68482850161177d565b91505092915050565b7f44656c6976657279547261636b696e673a206275796572206d69736d61746368600082015250565b60006117f560208361158b565b9150611800826117bf565b602082019050919050565b60006020820190508181036000830152611824816117e8565b9050919050565b7f4e487b7100000000000000000000000000000000000000000000000000000000600052604160045260246000fd5b7f4e487b7100000000000000000000000000000000000000000000000000000000600052602260045260246000fd5b600060028204905060018216806118a157607f821691505b6020821081036118b4576118b361185a565b5b50919050565b60008190508160005260206000209050919050565b60006020601f8301049050919050565b600082821b905092915050565b60006008830261191c7fffffffffffffffffffffffffffffffffffffffffffffffffffffffffffffffff826118df565b61192686836118df565b95508019841693508086168417925050509392505050565b600061195961195461194f8461133f565b611640565b61133f565b9050919050565b6000819050919050565b6119738361193e565b61198761197f82611960565b8484546118ec565b825550505050565b600090565b61199c61198f565b6119a781848461196a565b505050565b5b818110156119cb576119c0600082611994565b6001810190506119ad565b5050565b601f821115611a10576119e1816118ba565b6119ea846118cf565b810160208510156119f9578190505b611a0d611a05856118cf565b8301826119ac565b50505b505050565b600082821c905092915050565b6000611a3360001984600802611a15565b1980831691505092915050565b6000611a4c8383611a22565b9150826002028217905092915050565b611a6582611580565b67ffffffffffffffff811115611a7e57611a7d61182b565b5b611a888254611889565b611a938282856119cf565b600060209050601f831160018114611ac65760008415611ab4578287015190505b611abe8582611a40565b865550611b26565b601f198416611ad4866118ba565b60005b82811015611afc57848901518255600182019150602085019450602081019050611ad7565b86831015611b195784890151611b15601f891682611a22565b8355505b6001600288020188555050505b505050505050565b82818337600083830152505050565b6000611b49838561158b565b9350611b56838584611b2e565b611b5f836115c6565b840190509392505050565b60006020820190508181036000830152611b85818486611b3d565b90509392505050565b7f44656c6976657279547261636b696e673a206e6f74206f776e65720000000000600082015250565b6000611bc4601b8361158b565b9150611bcf82611b8e565b602082019050919050565b60006020820190508181036000830152611bf381611bb7565b9050919050565b7f44656c6976657279547261636b696e673a20657363726f77207265717569726560008201527f6400000000000000000000000000000000000000000000000000000000000000602082015250565b6000611c5660218361158b565b9150611c6182611bfa565b604082019050919050565b60006020820190508181036000830152611c8581611c49565b9050919050565b7f44656c6976657279547261636b696e673a20657363726f7720616c726561647960008201527f2073657400000000000000000000000000000000000000000000000000000000602082015250565b6000611ce860248361158b565b9150611cf382611c8c565b604082019050919050565b60006020820190508181036000830152611d1781611cdb565b905091905056fea264697066735822122014f82ad8cd07cd0476e3ce65d8cec125ff326115fbed5abe3589433ffa2e935364736f6c63430008130033",
  "immutableReferences": {},
  "source": "// SPDX-License-Identifier: MIT\r\npragma solidity ^0.8.19;\r\n\r\nimport \"./OrderRegistry.sol\";\r\n\r\ncontract DeliveryTracking {\n\n    OrderRegistry public orderRegistry;\n    address public escrowAddress;\n    address public owner;\n\r\n    enum DeliveryStatus {\r\n        Paid,\r\n        Shipped,\r\n        InTransit,\r\n        Delivered,\r\n        Confirmed\r\n    }\r\n\r\n    struct Delivery {\n        DeliveryStatus status;\n        string trackingId;\n    }\n\n    event ShipmentMarked(uint256 indexed orderId, address indexed actor, string trackingId);\n    event InTransitMarked(uint256 indexed orderId, address indexed actor);\n    event DeliveredMarked(uint256 indexed orderId, address indexed actor);\n    event DeliveryConfirmed(uint256 indexed orderId, address indexed actor);\n    event EscrowAddressSet(address indexed escrow);\n\n    mapping(uint256 => Delivery) public deliveries;\n\n    constructor(address orderRegistryAddress) {\n        orderRegistry = OrderRegistry(orderRegistryAddress);\n        owner = msg.sender;\n    }\n\n    modifier onlyOwner() {\n        require(msg.sender == owner, \"DeliveryTracking: not owner\");\n        _;\n    }\n\n    function setEscrowAddress(address escrow) external onlyOwner {\n        require(escrow != address(0), \"DeliveryTracking: escrow required\");\n        require(escrowAddress == address(0), \"DeliveryTracking: escrow already set\");\n        escrowAddress = escrow;\n        emit EscrowAddressSet(escrow);\n    }\n\n    function markShipped(uint256 orderId, string calldata trackingId) external {\n        require(msg.sender == orderRegistry.getSeller(orderId));\n\n        deliveries[orderId] = Delivery(\n            DeliveryStatus.Shipped,\n            trackingId\n        );\n\n        emit ShipmentMarked(orderId, msg.sender, trackingId);\n    }\n\r\n    function markInTransit(uint256 orderId) external {\n        require(msg.sender == orderRegistry.getSeller(orderId));\n        require(deliveries[orderId].status == DeliveryStatus.Shipped);\n\n        deliveries[orderId].status = DeliveryStatus.InTransit;\n        emit InTransitMarked(orderId, msg.sender);\n    }\n\r\n    function markDelivered(uint256 orderId) external {\n        require(msg.sender == orderRegistry.getSeller(orderId));\n        require(deliveries[orderId].status == DeliveryStatus.InTransit);\n\n        deliveries[orderId].status = DeliveryStatus.Delivered;\n        emit DeliveredMarked(orderId, msg.sender);\n    }\n\r\n    function confirmDelivery(uint256 orderId) external {\n        require(msg.sender == orderRegistry.getBuyer(orderId));\n        require(deliveries[orderId].status == DeliveryStatus.Delivered);\n\n        deliveries[orderId].status = DeliveryStatus.Confirmed;\n        emit DeliveryConfirmed(orderId, msg.sender);\n    }\n\n    function advanceToDelivered(uint256 orderId, string calldata trackingId) external {\n        require(msg.sender == orderRegistry.getSeller(orderId));\n\n        DeliveryStatus current = deliveries[orderId].status;\n        if (current < DeliveryStatus.Shipped) {\n            deliveries[orderId] = Delivery(\n                DeliveryStatus.Shipped,\n                trackingId\n            );\n            emit ShipmentMarked(orderId, msg.sender, trackingId);\n            current = DeliveryStatus.Shipped;\n        }\n        if (current == DeliveryStatus.Shipped) {\n            deliveries[orderId].status = DeliveryStatus.InTransit;\n            emit InTransitMarked(orderId, msg.sender);\n            current = DeliveryStatus.InTransit;\n        }\n        if (current == DeliveryStatus.InTransit) {\n            deliveries[orderId].status = DeliveryStatus.Delivered;\n            emit DeliveredMarked(orderId, msg.sender);\n        }\n    }\n\n    function confirmDeliveryByEscrow(uint256 orderId, address buyer) external {\n        require(msg.sender == escrowAddress, \"DeliveryTracking: escrow only\");\n        require(buyer == orderRegistry.getBuyer(orderId), \"DeliveryTracking: buyer mismatch\");\n        require(deliveries[orderId].status == DeliveryStatus.Delivered);\n\n        deliveries[orderId].status = DeliveryStatus.Confirmed;\n        emit DeliveryConfirmed(orderId, buyer);\n    }\n\r\n    function isConfirmed(uint256 orderId) external view returns (bool) {\r\n        return deliveries[orderId].status == DeliveryStatus.Confirmed;\r\n    }\r\n}\r\n",
  "sourcePath": "C:\\Users\\24002690\\Downloads\\C373_Team-2_FA-1 (2)\\C373_Team-2_FA-1\\contracts\\DeliveryTracking.sol",
  "compiler": {
    "name": "solc",
    "version": "0.8.19+commit.7dd6d404.Emscripten.clang"
  },
  "schemaVersion": "3.4.16",
  "updatedAt": "2026-01-30T07:16:05.464Z",
  "networkType": "ethereum",
  "devdoc": {
    "kind": "dev",
    "methods": {},
    "version": 1
  },
  "userdoc": {
    "kind": "user",
    "methods": {},
    "version": 1
  }
}