{
  "contractName": "DeliveryTracking",
  "abi": [
    {
      "inputs": [
        {
          "internalType": "address",
          "name": "orderRegistryAddress",
          "type": "address"
        }
      ],
      "stateMutability": "nonpayable",
      "type": "constructor"
    },
    {
      "anonymous": false,
      "inputs": [
        {
          "indexed": true,
          "internalType": "uint256",
          "name": "orderId",
          "type": "uint256"
        },
        {
          "indexed": true,
          "internalType": "address",
          "name": "actor",
          "type": "address"
        }
      ],
      "name": "DeliveredMarked",
      "type": "event"
    },
    {
      "anonymous": false,
      "inputs": [
        {
          "indexed": true,
          "internalType": "uint256",
          "name": "orderId",
          "type": "uint256"
        },
        {
          "indexed": true,
          "internalType": "address",
          "name": "actor",
          "type": "address"
        }
      ],
      "name": "DeliveryConfirmed",
      "type": "event"
    },
    {
      "anonymous": false,
      "inputs": [
        {
          "indexed": true,
          "internalType": "uint256",
          "name": "orderId",
          "type": "uint256"
        },
        {
          "indexed": true,
          "internalType": "address",
          "name": "actor",
          "type": "address"
        }
      ],
      "name": "InTransitMarked",
      "type": "event"
    },
    {
      "anonymous": false,
      "inputs": [
        {
          "indexed": true,
          "internalType": "uint256",
          "name": "orderId",
          "type": "uint256"
        },
        {
          "indexed": true,
          "internalType": "address",
          "name": "actor",
          "type": "address"
        },
        {
          "indexed": false,
          "internalType": "string",
          "name": "trackingId",
          "type": "string"
        }
      ],
      "name": "ShipmentMarked",
      "type": "event"
    },
    {
      "inputs": [
        {
          "internalType": "uint256",
          "name": "",
          "type": "uint256"
        }
      ],
      "name": "deliveries",
      "outputs": [
        {
          "internalType": "enum DeliveryTracking.DeliveryStatus",
          "name": "status",
          "type": "uint8"
        },
        {
          "internalType": "string",
          "name": "trackingId",
          "type": "string"
        }
      ],
      "stateMutability": "view",
      "type": "function",
      "constant": true
    },
    {
      "inputs": [],
      "name": "orderRegistry",
      "outputs": [
        {
          "internalType": "contract OrderRegistry",
          "name": "",
          "type": "address"
        }
      ],
      "stateMutability": "view",
      "type": "function",
      "constant": true
    },
    {
      "inputs": [
        {
          "internalType": "uint256",
          "name": "orderId",
          "type": "uint256"
        },
        {
          "internalType": "string",
          "name": "trackingId",
          "type": "string"
        }
      ],
      "name": "markShipped",
      "outputs": [],
      "stateMutability": "nonpayable",
      "type": "function"
    },
    {
      "inputs": [
        {
          "internalType": "uint256",
          "name": "orderId",
          "type": "uint256"
        }
      ],
      "name": "markInTransit",
      "outputs": [],
      "stateMutability": "nonpayable",
      "type": "function"
    },
    {
      "inputs": [
        {
          "internalType": "uint256",
          "name": "orderId",
          "type": "uint256"
        }
      ],
      "name": "markDelivered",
      "outputs": [],
      "stateMutability": "nonpayable",
      "type": "function"
    },
    {
      "inputs": [
        {
          "internalType": "uint256",
          "name": "orderId",
          "type": "uint256"
        }
      ],
      "name": "confirmDelivery",
      "outputs": [],
      "stateMutability": "nonpayable",
      "type": "function"
    },
    {
      "inputs": [
        {
          "internalType": "uint256",
          "name": "orderId",
          "type": "uint256"
        }
      ],
      "name": "isConfirmed",
      "outputs": [
        {
          "internalType": "bool",
          "name": "",
          "type": "bool"
        }
      ],
      "stateMutability": "view",
      "type": "function",
      "constant": true
    }
  ],
  "bytecode": "0x60806040523480156200001157600080fd5b5060405162001222380380620012228339818101604052810190620000379190620000e8565b806000806101000a81548173ffffffffffffffffffffffffffffffffffffffff021916908373ffffffffffffffffffffffffffffffffffffffff160217905550506200011a565b600080fd5b600073ffffffffffffffffffffffffffffffffffffffff82169050919050565b6000620000b08262000083565b9050919050565b620000c281620000a3565b8114620000ce57600080fd5b50565b600081519050620000e281620000b7565b92915050565b6000602082840312156200010157620001006200007e565b5b60006200011184828501620000d1565b91505092915050565b6110f8806200012a6000396000f3fe608060405234801561001057600080fd5b506004361061007d5760003560e01c8063eb826a5f1161005b578063eb826a5f14610101578063f09c3ec31461011d578063f8dac8d314610139578063fd84cb97146101555761007d565b8063784547a714610082578063a9e4a324146100b2578063b371564b146100e3575b600080fd5b61009c600480360381019061009791906109d1565b610171565b6040516100a99190610a19565b60405180910390f35b6100cc60048036038101906100c791906109d1565b6101c4565b6040516100da929190610b3b565b60405180910390f35b6100eb61027d565b6040516100f89190610bea565b60405180910390f35b61011b600480360381019061011691906109d1565b6102a1565b005b610137600480360381019061013291906109d1565b61044c565b005b610153600480360381019061014e9190610c6a565b6105f7565b005b61016f600480360381019061016a91906109d1565b6107e6565b005b600060048081111561018657610185610a34565b5b6001600084815260200190815260200160002060000160009054906101000a900460ff1660048111156101bc576101bb610a34565b5b149050919050565b60016020528060005260406000206000915090508060000160009054906101000a900460ff16908060010180546101fa90610cf9565b80601f016020809104026020016040519081016040528092919081815260200182805461022690610cf9565b80156102735780601f1061024857610100808354040283529160200191610273565b820191906000526020600020905b81548152906001019060200180831161025657829003601f168201915b5050505050905082565b60008054906101000a900473ffffffffffffffffffffffffffffffffffffffff1681565b60008054906101000a900473ffffffffffffffffffffffffffffffffffffffff1673ffffffffffffffffffffffffffffffffffffffff1663d6a9de51826040518263ffffffff1660e01b81526004016102fa9190610d39565b602060405180830381865afa158015610317573d6000803e3d6000fd5b505050506040513d601f19601f8201168201806040525081019061033b9190610d92565b73ffffffffffffffffffffffffffffffffffffffff163373ffffffffffffffffffffffffffffffffffffffff161461037257600080fd5b6002600481111561038657610385610a34565b5b6001600083815260200190815260200160002060000160009054906101000a900460ff1660048111156103bc576103bb610a34565b5b146103c657600080fd5b60036001600083815260200190815260200160002060000160006101000a81548160ff02191690836004811115610400576103ff610a34565b5b02179055503373ffffffffffffffffffffffffffffffffffffffff16817f89654153675ed68ca391a59ba68a13bd6b2729e3a369f230139053b9f513fd8b60405160405180910390a350565b60008054906101000a900473ffffffffffffffffffffffffffffffffffffffff1673ffffffffffffffffffffffffffffffffffffffff1663d6a9de51826040518263ffffffff1660e01b81526004016104a59190610d39565b602060405180830381865afa1580156104c2573d6000803e3d6000fd5b505050506040513d601f19601f820116820180604052508101906104e69190610d92565b73ffffffffffffffffffffffffffffffffffffffff163373ffffffffffffffffffffffffffffffffffffffff161461051d57600080fd5b6001600481111561053157610530610a34565b5b6001600083815260200190815260200160002060000160009054906101000a900460ff16600481111561056757610566610a34565b5b1461057157600080fd5b60026001600083815260200190815260200160002060000160006101000a81548160ff021916908360048111156105ab576105aa610a34565b5b02179055503373ffffffffffffffffffffffffffffffffffffffff16817f992668d8856e18e6652d5c53d026feb92760c37acc7e9ee91dfb30a6e1f7913260405160405180910390a350565b60008054906101000a900473ffffffffffffffffffffffffffffffffffffffff1673ffffffffffffffffffffffffffffffffffffffff1663d6a9de51846040518263ffffffff1660e01b81526004016106509190610d39565b602060405180830381865afa15801561066d573d6000803e3d6000fd5b505050506040513d601f19601f820116820180604052508101906106919190610d92565b73ffffffffffffffffffffffffffffffffffffffff163373ffffffffffffffffffffffffffffffffffffffff16146106c857600080fd5b6040518060400160405280600160048111156106e7576106e6610a34565b5b815260200183838080601f016020809104026020016040519081016040528093929190818152602001838380828437600081840152601f19601f820116905080830192505050505050508152506001600085815260200190815260200160002060008201518160000160006101000a81548160ff0219169083600481111561077257610771610a34565b5b0217905550602082015181600101908161078c9190610f90565b509050503373ffffffffffffffffffffffffffffffffffffffff16837f17618667a974789c0664430f4c1f07d719a6a41eb6541a8d6024de9d4173802684846040516107d992919061109e565b60405180910390a3505050565b60008054906101000a900473ffffffffffffffffffffffffffffffffffffffff1673ffffffffffffffffffffffffffffffffffffffff16635bf608b8826040518263ffffffff1660e01b815260040161083f9190610d39565b602060405180830381865afa15801561085c573d6000803e3d6000fd5b505050506040513d601f19601f820116820180604052508101906108809190610d92565b73ffffffffffffffffffffffffffffffffffffffff163373ffffffffffffffffffffffffffffffffffffffff16146108b757600080fd5b600360048111156108cb576108ca610a34565b5b6001600083815260200190815260200160002060000160009054906101000a900460ff16600481111561090157610900610a34565b5b1461090b57600080fd5b60046001600083815260200190815260200160002060000160006101000a81548160ff0219169083600481111561094557610944610a34565b5b02179055503373ffffffffffffffffffffffffffffffffffffffff16817f64a783c6150854ae756454311c7625a965c757996ba8cc1a8c6205380f33725060405160405180910390a350565b600080fd5b600080fd5b6000819050919050565b6109ae8161099b565b81146109b957600080fd5b50565b6000813590506109cb816109a5565b92915050565b6000602082840312156109e7576109e6610991565b5b60006109f5848285016109bc565b91505092915050565b60008115159050919050565b610a13816109fe565b82525050565b6000602082019050610a2e6000830184610a0a565b92915050565b7f4e487b7100000000000000000000000000000000000000000000000000000000600052602160045260246000fd5b60058110610a7457610a73610a34565b5b50565b6000819050610a8582610a63565b919050565b6000610a9582610a77565b9050919050565b610aa581610a8a565b82525050565b600081519050919050565b600082825260208201905092915050565b60005b83811015610ae5578082015181840152602081019050610aca565b60008484015250505050565b6000601f19601f8301169050919050565b6000610b0d82610aab565b610b178185610ab6565b9350610b27818560208601610ac7565b610b3081610af1565b840191505092915050565b6000604082019050610b506000830185610a9c565b8181036020830152610b628184610b02565b90509392505050565b600073ffffffffffffffffffffffffffffffffffffffff82169050919050565b6000819050919050565b6000610bb0610bab610ba684610b6b565b610b8b565b610b6b565b9050919050565b6000610bc282610b95565b9050919050565b6000610bd482610bb7565b9050919050565b610be481610bc9565b82525050565b6000602082019050610bff6000830184610bdb565b92915050565b600080fd5b600080fd5b600080fd5b60008083601f840112610c2a57610c29610c05565b5b8235905067ffffffffffffffff811115610c4757610c46610c0a565b5b602083019150836001820283011115610c6357610c62610c0f565b5b9250929050565b600080600060408486031215610c8357610c82610991565b5b6000610c91868287016109bc565b935050602084013567ffffffffffffffff811115610cb257610cb1610996565b5b610cbe86828701610c14565b92509250509250925092565b7f4e487b7100000000000000000000000000000000000000000000000000000000600052602260045260246000fd5b60006002820490506001821680610d1157607f821691505b602082108103610d2457610d23610cca565b5b50919050565b610d338161099b565b82525050565b6000602082019050610d4e6000830184610d2a565b92915050565b6000610d5f82610b6b565b9050919050565b610d6f81610d54565b8114610d7a57600080fd5b50565b600081519050610d8c81610d66565b92915050565b600060208284031215610da857610da7610991565b5b6000610db684828501610d7d565b91505092915050565b7f4e487b7100000000000000000000000000000000000000000000000000000000600052604160045260246000fd5b60008190508160005260206000209050919050565b60006020601f8301049050919050565b600082821b905092915050565b600060088302610e507fffffffffffffffffffffffffffffffffffffffffffffffffffffffffffffffff82610e13565b610e5a8683610e13565b95508019841693508086168417925050509392505050565b6000610e8d610e88610e838461099b565b610b8b565b61099b565b9050919050565b6000819050919050565b610ea783610e72565b610ebb610eb382610e94565b848454610e20565b825550505050565b600090565b610ed0610ec3565b610edb818484610e9e565b505050565b5b81811015610eff57610ef4600082610ec8565b600181019050610ee1565b5050565b601f821115610f4457610f1581610dee565b610f1e84610e03565b81016020851015610f2d578190505b610f41610f3985610e03565b830182610ee0565b50505b505050565b600082821c905092915050565b6000610f6760001984600802610f49565b1980831691505092915050565b6000610f808383610f56565b9150826002028217905092915050565b610f9982610aab565b67ffffffffffffffff811115610fb257610fb1610dbf565b5b610fbc8254610cf9565b610fc7828285610f03565b600060209050601f831160018114610ffa5760008415610fe8578287015190505b610ff28582610f74565b86555061105a565b601f19841661100886610dee565b60005b828110156110305784890151825560018201915060208501945060208101905061100b565b8683101561104d5784890151611049601f891682610f56565b8355505b6001600288020188555050505b505050505050565b82818337600083830152505050565b600061107d8385610ab6565b935061108a838584611062565b61109383610af1565b840190509392505050565b600060208201905081810360008301526110b9818486611071565b9050939250505056fea2646970667358221220851d8c8dcfda18238bc437b71a62daffa4f8112812441a727d5b3762d8c50cb964736f6c63430008130033",
  "immutableReferences": {},
  "source": "// SPDX-License-Identifier: MIT\r\npragma solidity ^0.8.19;\r\n\r\nimport \"./OrderRegistry.sol\";\r\n\r\ncontract DeliveryTracking {\n\r\n    OrderRegistry public orderRegistry;\r\n\r\n    enum DeliveryStatus {\r\n        Paid,\r\n        Shipped,\r\n        InTransit,\r\n        Delivered,\r\n        Confirmed\r\n    }\r\n\r\n    struct Delivery {\n        DeliveryStatus status;\n        string trackingId;\n    }\n\n    event ShipmentMarked(uint256 indexed orderId, address indexed actor, string trackingId);\n    event InTransitMarked(uint256 indexed orderId, address indexed actor);\n    event DeliveredMarked(uint256 indexed orderId, address indexed actor);\n    event DeliveryConfirmed(uint256 indexed orderId, address indexed actor);\n\n    mapping(uint256 => Delivery) public deliveries;\n\r\n    constructor(address orderRegistryAddress) {\r\n        orderRegistry = OrderRegistry(orderRegistryAddress);\r\n    }\r\n\r\n    function markShipped(uint256 orderId, string calldata trackingId) external {\n        require(msg.sender == orderRegistry.getSeller(orderId));\n\n        deliveries[orderId] = Delivery(\n            DeliveryStatus.Shipped,\n            trackingId\n        );\n\n        emit ShipmentMarked(orderId, msg.sender, trackingId);\n    }\n\r\n    function markInTransit(uint256 orderId) external {\n        require(msg.sender == orderRegistry.getSeller(orderId));\n        require(deliveries[orderId].status == DeliveryStatus.Shipped);\n\n        deliveries[orderId].status = DeliveryStatus.InTransit;\n        emit InTransitMarked(orderId, msg.sender);\n    }\n\r\n    function markDelivered(uint256 orderId) external {\n        require(msg.sender == orderRegistry.getSeller(orderId));\n        require(deliveries[orderId].status == DeliveryStatus.InTransit);\n\n        deliveries[orderId].status = DeliveryStatus.Delivered;\n        emit DeliveredMarked(orderId, msg.sender);\n    }\n\r\n    function confirmDelivery(uint256 orderId) external {\n        require(msg.sender == orderRegistry.getBuyer(orderId));\n        require(deliveries[orderId].status == DeliveryStatus.Delivered);\n\n        deliveries[orderId].status = DeliveryStatus.Confirmed;\n        emit DeliveryConfirmed(orderId, msg.sender);\n    }\n\r\n    function isConfirmed(uint256 orderId) external view returns (bool) {\r\n        return deliveries[orderId].status == DeliveryStatus.Confirmed;\r\n    }\r\n}\r\n",
  "sourcePath": "C:\\Users\\24002690\\Downloads\\C373_Team-2_FA-1 (2)\\C373_Team-2_FA-1\\contracts\\DeliveryTracking.sol",
  "compiler": {
    "name": "solc",
    "version": "0.8.19+commit.7dd6d404.Emscripten.clang"
  },
  "schemaVersion": "3.4.16",
  "updatedAt": "2026-01-29T09:10:04.821Z",
  "networkType": "ethereum",
  "devdoc": {
    "kind": "dev",
    "methods": {},
    "version": 1
  },
  "userdoc": {
    "kind": "user",
    "methods": {},
    "version": 1
  }
}