{
  "contractName": "DeliveryTracking",
  "abi": [
    {
      "inputs": [
        {
          "internalType": "address",
          "name": "orderRegistryAddress",
          "type": "address"
        }
      ],
      "stateMutability": "nonpayable",
      "type": "constructor"
    },
    {
      "inputs": [
        {
          "internalType": "uint256",
          "name": "",
          "type": "uint256"
        }
      ],
      "name": "deliveries",
      "outputs": [
        {
          "internalType": "enum DeliveryTracking.DeliveryStatus",
          "name": "status",
          "type": "uint8"
        },
        {
          "internalType": "string",
          "name": "trackingId",
          "type": "string"
        }
      ],
      "stateMutability": "view",
      "type": "function",
      "constant": true
    },
    {
      "inputs": [],
      "name": "orderRegistry",
      "outputs": [
        {
          "internalType": "contract OrderRegistry",
          "name": "",
          "type": "address"
        }
      ],
      "stateMutability": "view",
      "type": "function",
      "constant": true
    },
    {
      "inputs": [
        {
          "internalType": "uint256",
          "name": "orderId",
          "type": "uint256"
        },
        {
          "internalType": "string",
          "name": "trackingId",
          "type": "string"
        }
      ],
      "name": "markShipped",
      "outputs": [],
      "stateMutability": "nonpayable",
      "type": "function"
    },
    {
      "inputs": [
        {
          "internalType": "uint256",
          "name": "orderId",
          "type": "uint256"
        }
      ],
      "name": "markInTransit",
      "outputs": [],
      "stateMutability": "nonpayable",
      "type": "function"
    },
    {
      "inputs": [
        {
          "internalType": "uint256",
          "name": "orderId",
          "type": "uint256"
        }
      ],
      "name": "markDelivered",
      "outputs": [],
      "stateMutability": "nonpayable",
      "type": "function"
    },
    {
      "inputs": [
        {
          "internalType": "uint256",
          "name": "orderId",
          "type": "uint256"
        }
      ],
      "name": "confirmDelivery",
      "outputs": [],
      "stateMutability": "nonpayable",
      "type": "function"
    },
    {
      "inputs": [
        {
          "internalType": "uint256",
          "name": "orderId",
          "type": "uint256"
        }
      ],
      "name": "isConfirmed",
      "outputs": [
        {
          "internalType": "bool",
          "name": "",
          "type": "bool"
        }
      ],
      "stateMutability": "view",
      "type": "function",
      "constant": true
    }
  ],
  "bytecode": "0x60806040523480156200001157600080fd5b50604051620010a5380380620010a58339818101604052810190620000379190620000e8565b806000806101000a81548173ffffffffffffffffffffffffffffffffffffffff021916908373ffffffffffffffffffffffffffffffffffffffff160217905550506200011a565b600080fd5b600073ffffffffffffffffffffffffffffffffffffffff82169050919050565b6000620000b08262000083565b9050919050565b620000c281620000a3565b8114620000ce57600080fd5b50565b600081519050620000e281620000b7565b92915050565b6000602082840312156200010157620001006200007e565b5b60006200011184828501620000d1565b91505092915050565b610f7b806200012a6000396000f3fe608060405234801561001057600080fd5b506004361061007d5760003560e01c8063eb826a5f1161005b578063eb826a5f14610101578063f09c3ec31461011d578063f8dac8d314610139578063fd84cb97146101555761007d565b8063784547a714610082578063a9e4a324146100b2578063b371564b146100e3575b600080fd5b61009c600480360381019061009791906108b4565b610171565b6040516100a991906108fc565b60405180910390f35b6100cc60048036038101906100c791906108b4565b6101c4565b6040516100da929190610a1e565b60405180910390f35b6100eb61027d565b6040516100f89190610acd565b60405180910390f35b61011b600480360381019061011691906108b4565b6102a1565b005b610137600480360381019061013291906108b4565b610408565b005b610153600480360381019061014e9190610b4d565b61056f565b005b61016f600480360381019061016a91906108b4565b61070d565b005b600060048081111561018657610185610917565b5b6001600084815260200190815260200160002060000160009054906101000a900460ff1660048111156101bc576101bb610917565b5b149050919050565b60016020528060005260406000206000915090508060000160009054906101000a900460ff16908060010180546101fa90610bdc565b80601f016020809104026020016040519081016040528092919081815260200182805461022690610bdc565b80156102735780601f1061024857610100808354040283529160200191610273565b820191906000526020600020905b81548152906001019060200180831161025657829003601f168201915b5050505050905082565b60008054906101000a900473ffffffffffffffffffffffffffffffffffffffff1681565b60008054906101000a900473ffffffffffffffffffffffffffffffffffffffff1673ffffffffffffffffffffffffffffffffffffffff1663d6a9de51826040518263ffffffff1660e01b81526004016102fa9190610c1c565b602060405180830381865afa158015610317573d6000803e3d6000fd5b505050506040513d601f19601f8201168201806040525081019061033b9190610c75565b73ffffffffffffffffffffffffffffffffffffffff163373ffffffffffffffffffffffffffffffffffffffff161461037257600080fd5b6002600481111561038657610385610917565b5b6001600083815260200190815260200160002060000160009054906101000a900460ff1660048111156103bc576103bb610917565b5b146103c657600080fd5b60036001600083815260200190815260200160002060000160006101000a81548160ff02191690836004811115610400576103ff610917565b5b021790555050565b60008054906101000a900473ffffffffffffffffffffffffffffffffffffffff1673ffffffffffffffffffffffffffffffffffffffff1663d6a9de51826040518263ffffffff1660e01b81526004016104619190610c1c565b602060405180830381865afa15801561047e573d6000803e3d6000fd5b505050506040513d601f19601f820116820180604052508101906104a29190610c75565b73ffffffffffffffffffffffffffffffffffffffff163373ffffffffffffffffffffffffffffffffffffffff16146104d957600080fd5b600160048111156104ed576104ec610917565b5b6001600083815260200190815260200160002060000160009054906101000a900460ff16600481111561052357610522610917565b5b1461052d57600080fd5b60026001600083815260200190815260200160002060000160006101000a81548160ff0219169083600481111561056757610566610917565b5b021790555050565b60008054906101000a900473ffffffffffffffffffffffffffffffffffffffff1673ffffffffffffffffffffffffffffffffffffffff1663d6a9de51846040518263ffffffff1660e01b81526004016105c89190610c1c565b602060405180830381865afa1580156105e5573d6000803e3d6000fd5b505050506040513d601f19601f820116820180604052508101906106099190610c75565b73ffffffffffffffffffffffffffffffffffffffff163373ffffffffffffffffffffffffffffffffffffffff161461064057600080fd5b60405180604001604052806001600481111561065f5761065e610917565b5b815260200183838080601f016020809104026020016040519081016040528093929190818152602001838380828437600081840152601f19601f820116905080830192505050505050508152506001600085815260200190815260200160002060008201518160000160006101000a81548160ff021916908360048111156106ea576106e9610917565b5b021790555060208201518160010190816107049190610e73565b50905050505050565b60008054906101000a900473ffffffffffffffffffffffffffffffffffffffff1673ffffffffffffffffffffffffffffffffffffffff16635bf608b8826040518263ffffffff1660e01b81526004016107669190610c1c565b602060405180830381865afa158015610783573d6000803e3d6000fd5b505050506040513d601f19601f820116820180604052508101906107a79190610c75565b73ffffffffffffffffffffffffffffffffffffffff163373ffffffffffffffffffffffffffffffffffffffff16146107de57600080fd5b600360048111156107f2576107f1610917565b5b6001600083815260200190815260200160002060000160009054906101000a900460ff16600481111561082857610827610917565b5b1461083257600080fd5b60046001600083815260200190815260200160002060000160006101000a81548160ff0219169083600481111561086c5761086b610917565b5b021790555050565b600080fd5b600080fd5b6000819050919050565b6108918161087e565b811461089c57600080fd5b50565b6000813590506108ae81610888565b92915050565b6000602082840312156108ca576108c9610874565b5b60006108d88482850161089f565b91505092915050565b60008115159050919050565b6108f6816108e1565b82525050565b600060208201905061091160008301846108ed565b92915050565b7f4e487b7100000000000000000000000000000000000000000000000000000000600052602160045260246000fd5b6005811061095757610956610917565b5b50565b600081905061096882610946565b919050565b60006109788261095a565b9050919050565b6109888161096d565b82525050565b600081519050919050565b600082825260208201905092915050565b60005b838110156109c85780820151818401526020810190506109ad565b60008484015250505050565b6000601f19601f8301169050919050565b60006109f08261098e565b6109fa8185610999565b9350610a0a8185602086016109aa565b610a13816109d4565b840191505092915050565b6000604082019050610a33600083018561097f565b8181036020830152610a4581846109e5565b90509392505050565b600073ffffffffffffffffffffffffffffffffffffffff82169050919050565b6000819050919050565b6000610a93610a8e610a8984610a4e565b610a6e565b610a4e565b9050919050565b6000610aa582610a78565b9050919050565b6000610ab782610a9a565b9050919050565b610ac781610aac565b82525050565b6000602082019050610ae26000830184610abe565b92915050565b600080fd5b600080fd5b600080fd5b60008083601f840112610b0d57610b0c610ae8565b5b8235905067ffffffffffffffff811115610b2a57610b29610aed565b5b602083019150836001820283011115610b4657610b45610af2565b5b9250929050565b600080600060408486031215610b6657610b65610874565b5b6000610b748682870161089f565b935050602084013567ffffffffffffffff811115610b9557610b94610879565b5b610ba186828701610af7565b92509250509250925092565b7f4e487b7100000000000000000000000000000000000000000000000000000000600052602260045260246000fd5b60006002820490506001821680610bf457607f821691505b602082108103610c0757610c06610bad565b5b50919050565b610c168161087e565b82525050565b6000602082019050610c316000830184610c0d565b92915050565b6000610c4282610a4e565b9050919050565b610c5281610c37565b8114610c5d57600080fd5b50565b600081519050610c6f81610c49565b92915050565b600060208284031215610c8b57610c8a610874565b5b6000610c9984828501610c60565b91505092915050565b7f4e487b7100000000000000000000000000000000000000000000000000000000600052604160045260246000fd5b60008190508160005260206000209050919050565b60006020601f8301049050919050565b600082821b905092915050565b600060088302610d337fffffffffffffffffffffffffffffffffffffffffffffffffffffffffffffffff82610cf6565b610d3d8683610cf6565b95508019841693508086168417925050509392505050565b6000610d70610d6b610d668461087e565b610a6e565b61087e565b9050919050565b6000819050919050565b610d8a83610d55565b610d9e610d9682610d77565b848454610d03565b825550505050565b600090565b610db3610da6565b610dbe818484610d81565b505050565b5b81811015610de257610dd7600082610dab565b600181019050610dc4565b5050565b601f821115610e2757610df881610cd1565b610e0184610ce6565b81016020851015610e10578190505b610e24610e1c85610ce6565b830182610dc3565b50505b505050565b600082821c905092915050565b6000610e4a60001984600802610e2c565b1980831691505092915050565b6000610e638383610e39565b9150826002028217905092915050565b610e7c8261098e565b67ffffffffffffffff811115610e9557610e94610ca2565b5b610e9f8254610bdc565b610eaa828285610de6565b600060209050601f831160018114610edd5760008415610ecb578287015190505b610ed58582610e57565b865550610f3d565b601f198416610eeb86610cd1565b60005b82811015610f1357848901518255600182019150602085019450602081019050610eee565b86831015610f305784890151610f2c601f891682610e39565b8355505b6001600288020188555050505b50505050505056fea26469706673582212205ff639c1bc736003cd3d97bdc68efddfac8417085f51958b8d38ad068f46ce5464736f6c63430008130033",
  "immutableReferences": {},
  "source": "// SPDX-License-Identifier: MIT\r\npragma solidity ^0.8.19;\r\n\r\nimport \"./OrderRegistry.sol\";\r\n\r\ncontract DeliveryTracking {\r\n\r\n    OrderRegistry public orderRegistry;\r\n\r\n    enum DeliveryStatus {\r\n        Paid,\r\n        Shipped,\r\n        InTransit,\r\n        Delivered,\r\n        Confirmed\r\n    }\r\n\r\n    struct Delivery {\r\n        DeliveryStatus status;\r\n        string trackingId;\r\n    }\r\n\r\n    mapping(uint256 => Delivery) public deliveries;\r\n\r\n    constructor(address orderRegistryAddress) {\r\n        orderRegistry = OrderRegistry(orderRegistryAddress);\r\n    }\r\n\r\n    function markShipped(uint256 orderId, string calldata trackingId) external {\r\n        require(msg.sender == orderRegistry.getSeller(orderId));\r\n\r\n        deliveries[orderId] = Delivery(\r\n            DeliveryStatus.Shipped,\r\n            trackingId\r\n        );\r\n    }\r\n\r\n    function markInTransit(uint256 orderId) external {\r\n        require(msg.sender == orderRegistry.getSeller(orderId));\r\n        require(deliveries[orderId].status == DeliveryStatus.Shipped);\r\n\r\n        deliveries[orderId].status = DeliveryStatus.InTransit;\r\n    }\r\n\r\n    function markDelivered(uint256 orderId) external {\r\n        require(msg.sender == orderRegistry.getSeller(orderId));\r\n        require(deliveries[orderId].status == DeliveryStatus.InTransit);\r\n\r\n        deliveries[orderId].status = DeliveryStatus.Delivered;\r\n    }\r\n\r\n    function confirmDelivery(uint256 orderId) external {\r\n        require(msg.sender == orderRegistry.getBuyer(orderId));\r\n        require(deliveries[orderId].status == DeliveryStatus.Delivered);\r\n\r\n        deliveries[orderId].status = DeliveryStatus.Confirmed;\r\n    }\r\n\r\n    function isConfirmed(uint256 orderId) external view returns (bool) {\r\n        return deliveries[orderId].status == DeliveryStatus.Confirmed;\r\n    }\r\n}\r\n",
  "sourcePath": "C:\\Users\\24002690\\Downloads\\C373_Team-2_FA-1 (2)\\C373_Team-2_FA-1\\contracts\\DeliveryTracking.sol",
  "compiler": {
    "name": "solc",
    "version": "0.8.19+commit.7dd6d404.Emscripten.clang"
  },
  "schemaVersion": "3.4.16",
  "updatedAt": "2026-01-29T06:14:57.186Z",
  "networkType": "ethereum",
  "devdoc": {
    "kind": "dev",
    "methods": {},
    "version": 1
  },
  "userdoc": {
    "kind": "user",
    "methods": {},
    "version": 1
  }
}