{
  "contractName": "EscrowPayment",
  "abi": [
    {
      "inputs": [
        {
          "internalType": "address",
          "name": "reputationContract",
          "type": "address"
        }
      ],
      "stateMutability": "nonpayable",
      "type": "constructor"
    },
    {
      "anonymous": false,
      "inputs": [
        {
          "indexed": true,
          "internalType": "uint256",
          "name": "orderId",
          "type": "uint256"
        },
        {
          "indexed": true,
          "internalType": "address",
          "name": "buyer",
          "type": "address"
        }
      ],
      "name": "DeliveryConfirmed",
      "type": "event"
    },
    {
      "anonymous": false,
      "inputs": [
        {
          "indexed": true,
          "internalType": "uint256",
          "name": "orderId",
          "type": "uint256"
        },
        {
          "indexed": true,
          "internalType": "address",
          "name": "buyer",
          "type": "address"
        },
        {
          "indexed": true,
          "internalType": "address",
          "name": "seller",
          "type": "address"
        },
        {
          "indexed": false,
          "internalType": "uint256",
          "name": "amount",
          "type": "uint256"
        }
      ],
      "name": "OrderCreated",
      "type": "event"
    },
    {
      "anonymous": false,
      "inputs": [
        {
          "indexed": true,
          "internalType": "uint256",
          "name": "orderId",
          "type": "uint256"
        },
        {
          "indexed": true,
          "internalType": "address",
          "name": "seller",
          "type": "address"
        },
        {
          "indexed": false,
          "internalType": "uint256",
          "name": "amount",
          "type": "uint256"
        }
      ],
      "name": "PaymentReleased",
      "type": "event"
    },
    {
      "anonymous": false,
      "inputs": [
        {
          "indexed": true,
          "internalType": "uint256",
          "name": "orderId",
          "type": "uint256"
        },
        {
          "indexed": true,
          "internalType": "address",
          "name": "seller",
          "type": "address"
        },
        {
          "indexed": true,
          "internalType": "address",
          "name": "buyer",
          "type": "address"
        },
        {
          "indexed": false,
          "internalType": "uint8",
          "name": "stars",
          "type": "uint8"
        }
      ],
      "name": "RatingSubmitted",
      "type": "event"
    },
    {
      "anonymous": false,
      "inputs": [
        {
          "indexed": true,
          "internalType": "uint256",
          "name": "orderId",
          "type": "uint256"
        },
        {
          "indexed": true,
          "internalType": "address",
          "name": "seller",
          "type": "address"
        }
      ],
      "name": "ShipmentConfirmed",
      "type": "event"
    },
    {
      "inputs": [],
      "name": "nextOrderId",
      "outputs": [
        {
          "internalType": "uint256",
          "name": "",
          "type": "uint256"
        }
      ],
      "stateMutability": "view",
      "type": "function",
      "constant": true
    },
    {
      "inputs": [
        {
          "internalType": "uint256",
          "name": "",
          "type": "uint256"
        }
      ],
      "name": "orders",
      "outputs": [
        {
          "internalType": "address",
          "name": "buyer",
          "type": "address"
        },
        {
          "internalType": "address",
          "name": "seller",
          "type": "address"
        },
        {
          "internalType": "uint256",
          "name": "amount",
          "type": "uint256"
        },
        {
          "internalType": "bool",
          "name": "shipped",
          "type": "bool"
        },
        {
          "internalType": "bool",
          "name": "delivered",
          "type": "bool"
        },
        {
          "internalType": "bool",
          "name": "paidOut",
          "type": "bool"
        },
        {
          "internalType": "bool",
          "name": "rated",
          "type": "bool"
        }
      ],
      "stateMutability": "view",
      "type": "function",
      "constant": true
    },
    {
      "inputs": [],
      "name": "reputation",
      "outputs": [
        {
          "internalType": "contract ISellerReputation",
          "name": "",
          "type": "address"
        }
      ],
      "stateMutability": "view",
      "type": "function",
      "constant": true
    },
    {
      "inputs": [
        {
          "internalType": "address",
          "name": "seller",
          "type": "address"
        }
      ],
      "name": "createOrder",
      "outputs": [
        {
          "internalType": "uint256",
          "name": "orderId",
          "type": "uint256"
        }
      ],
      "stateMutability": "payable",
      "type": "function",
      "payable": true
    },
    {
      "inputs": [
        {
          "internalType": "uint256",
          "name": "orderId",
          "type": "uint256"
        }
      ],
      "name": "confirmShipment",
      "outputs": [],
      "stateMutability": "nonpayable",
      "type": "function"
    },
    {
      "inputs": [
        {
          "internalType": "uint256",
          "name": "orderId",
          "type": "uint256"
        }
      ],
      "name": "confirmDelivery",
      "outputs": [],
      "stateMutability": "nonpayable",
      "type": "function"
    },
    {
      "inputs": [
        {
          "internalType": "uint256",
          "name": "orderId",
          "type": "uint256"
        }
      ],
      "name": "releasePayment",
      "outputs": [],
      "stateMutability": "nonpayable",
      "type": "function"
    },
    {
      "inputs": [
        {
          "internalType": "uint256",
          "name": "orderId",
          "type": "uint256"
        },
        {
          "internalType": "uint8",
          "name": "stars",
          "type": "uint8"
        },
        {
          "internalType": "string",
          "name": "comment",
          "type": "string"
        }
      ],
      "name": "submitRating",
      "outputs": [],
      "stateMutability": "nonpayable",
      "type": "function"
    },
    {
      "inputs": [
        {
          "internalType": "uint256",
          "name": "orderId",
          "type": "uint256"
        }
      ],
      "name": "getOrder",
      "outputs": [
        {
          "internalType": "address",
          "name": "buyer",
          "type": "address"
        },
        {
          "internalType": "address",
          "name": "seller",
          "type": "address"
        },
        {
          "internalType": "uint256",
          "name": "amountWei",
          "type": "uint256"
        },
        {
          "internalType": "bool",
          "name": "shipped",
          "type": "bool"
        },
        {
          "internalType": "bool",
          "name": "delivered",
          "type": "bool"
        },
        {
          "internalType": "bool",
          "name": "paidOut",
          "type": "bool"
        },
        {
          "internalType": "bool",
          "name": "rated",
          "type": "bool"
        }
      ],
      "stateMutability": "view",
      "type": "function",
      "constant": true
    }
  ],
  "bytecode": "0x60806040523480156200001157600080fd5b5060405162001ebf38038062001ebf83398181016040528101906200003791906200015b565b600073ffffffffffffffffffffffffffffffffffffffff168173ffffffffffffffffffffffffffffffffffffffff1603620000a9576040517f08c379a0000000000000000000000000000000000000000000000000000000008152600401620000a090620001ee565b60405180910390fd5b80600260006101000a81548173ffffffffffffffffffffffffffffffffffffffff021916908373ffffffffffffffffffffffffffffffffffffffff1602179055505062000210565b600080fd5b600073ffffffffffffffffffffffffffffffffffffffff82169050919050565b60006200012382620000f6565b9050919050565b620001358162000116565b81146200014157600080fd5b50565b60008151905062000155816200012a565b92915050565b600060208284031215620001745762000173620000f1565b5b6000620001848482850162000144565b91505092915050565b600082825260208201905092915050565b7f496e76616c69642072657075746174696f6e2061646472657373000000000000600082015250565b6000620001d6601a836200018d565b9150620001e3826200019e565b602082019050919050565b600060208201905081810360008301526200020981620001c7565b9050919050565b611c9f80620002206000396000f3fe6080604052600436106100865760003560e01c8063c52164c611610059578063c52164c61461014b578063d09ef24114610176578063e0cb8e5f146101b9578063ea3774e3146101e2578063fd84cb971461021257610086565b80632a58b3301461008b57806388685cd9146100b6578063a85c38ef146100df578063af648e1214610122575b600080fd5b34801561009757600080fd5b506100a061023b565b6040516100ad919061115a565b60405180910390f35b3480156100c257600080fd5b506100dd60048036038101906100d891906111ab565b610241565b005b3480156100eb57600080fd5b50610106600480360381019061010191906111ab565b61050c565b6040516101199796959493929190611234565b60405180910390f35b34801561012e57600080fd5b5061014960048036038101906101449190611341565b6105c2565b005b34801561015757600080fd5b506101606108bf565b60405161016d9190611414565b60405180910390f35b34801561018257600080fd5b5061019d600480360381019061019891906111ab565b6108e5565b6040516101b09796959493929190611234565b60405180910390f35b3480156101c557600080fd5b506101e060048036038101906101db91906111ab565b610a70565b005b6101fc60048036038101906101f7919061145b565b610c69565b604051610209919061115a565b60405180910390f35b34801561021e57600080fd5b50610239600480360381019061023491906111ab565b610f3e565b005b60005481565b6000600160008381526020019081526020016000209050600081600201541161029f576040517f08c379a0000000000000000000000000000000000000000000000000000000008152600401610296906114e5565b60405180910390fd5b8060030160009054906101000a900460ff166102f0576040517f08c379a00000000000000000000000000000000000000000000000000000000081526004016102e790611551565b60405180910390fd5b8060030160019054906101000a900460ff16610341576040517f08c379a0000000000000000000000000000000000000000000000000000000008152600401610338906115bd565b60405180910390fd5b8060030160029054906101000a900460ff1615610393576040517f08c379a000000000000000000000000000000000000000000000000000000000815260040161038a90611629565b60405180910390fd5b60018160030160026101000a81548160ff0219169083151502179055506000816002015490506000826002018190555060008260010160009054906101000a900473ffffffffffffffffffffffffffffffffffffffff1673ffffffffffffffffffffffffffffffffffffffff168260405161040d9061167a565b60006040518083038185875af1925050503d806000811461044a576040519150601f19603f3d011682016040523d82523d6000602084013e61044f565b606091505b5050905080610493576040517f08c379a000000000000000000000000000000000000000000000000000000000815260040161048a906116db565b60405180910390fd5b8260010160009054906101000a900473ffffffffffffffffffffffffffffffffffffffff1673ffffffffffffffffffffffffffffffffffffffff16847f21d71db5be59bb9fa133895586b7404307dd33fb93b16db09dc6f1d9d7d231b0846040516104fe919061115a565b60405180910390a350505050565b60016020528060005260406000206000915090508060000160009054906101000a900473ffffffffffffffffffffffffffffffffffffffff16908060010160009054906101000a900473ffffffffffffffffffffffffffffffffffffffff16908060020154908060030160009054906101000a900460ff16908060030160019054906101000a900460ff16908060030160029054906101000a900460ff16908060030160039054906101000a900460ff16905087565b60006001600086815260200190815260200160002090503373ffffffffffffffffffffffffffffffffffffffff168160000160009054906101000a900473ffffffffffffffffffffffffffffffffffffffff1673ffffffffffffffffffffffffffffffffffffffff161461066b576040517f08c379a000000000000000000000000000000000000000000000000000000000815260040161066290611747565b60405180910390fd5b8060030160029054906101000a900460ff166106bc576040517f08c379a00000000000000000000000000000000000000000000000000000000081526004016106b3906117b3565b60405180910390fd5b8060030160039054906101000a900460ff161561070e576040517f08c379a00000000000000000000000000000000000000000000000000000000081526004016107059061181f565b60405180910390fd5b60018160030160036101000a81548160ff021916908315150217905550600260009054906101000a900473ffffffffffffffffffffffffffffffffffffffff1673ffffffffffffffffffffffffffffffffffffffff166310ceba4b868360010160009054906101000a900473ffffffffffffffffffffffffffffffffffffffff168460000160009054906101000a900473ffffffffffffffffffffffffffffffffffffffff168888886040518763ffffffff1660e01b81526004016107d89695949392919061189b565b600060405180830381600087803b1580156107f257600080fd5b505af1158015610806573d6000803e3d6000fd5b505050508060000160009054906101000a900473ffffffffffffffffffffffffffffffffffffffff1673ffffffffffffffffffffffffffffffffffffffff168160010160009054906101000a900473ffffffffffffffffffffffffffffffffffffffff1673ffffffffffffffffffffffffffffffffffffffff16867f1c77a158686639c60e48e2f63ec680c6dfd55fdebf1a1d34b6ad59eee1f28610876040516108b091906118f7565b60405180910390a45050505050565b600260009054906101000a900473ffffffffffffffffffffffffffffffffffffffff1681565b600080600080600080600080600160008a81526020019081526020016000206040518060e00160405290816000820160009054906101000a900473ffffffffffffffffffffffffffffffffffffffff1673ffffffffffffffffffffffffffffffffffffffff1673ffffffffffffffffffffffffffffffffffffffff1681526020016001820160009054906101000a900473ffffffffffffffffffffffffffffffffffffffff1673ffffffffffffffffffffffffffffffffffffffff1673ffffffffffffffffffffffffffffffffffffffff168152602001600282015481526020016003820160009054906101000a900460ff161515151581526020016003820160019054906101000a900460ff161515151581526020016003820160029054906101000a900460ff161515151581526020016003820160039054906101000a900460ff1615151515815250509050806000015181602001518260400151836060015184608001518560a001518660c00151975097509750975097509750975050919395979092949650565b60006001600083815260200190815260200160002090503373ffffffffffffffffffffffffffffffffffffffff168160010160009054906101000a900473ffffffffffffffffffffffffffffffffffffffff1673ffffffffffffffffffffffffffffffffffffffff1614610b19576040517f08c379a0000000000000000000000000000000000000000000000000000000008152600401610b109061195e565b60405180910390fd5b6000816002015411610b60576040517f08c379a0000000000000000000000000000000000000000000000000000000008152600401610b57906114e5565b60405180910390fd5b8060030160009054906101000a900460ff1615610bb2576040517f08c379a0000000000000000000000000000000000000000000000000000000008152600401610ba9906119ca565b60405180910390fd5b8060030160029054906101000a900460ff1615610c04576040517f08c379a0000000000000000000000000000000000000000000000000000000008152600401610bfb90611629565b60405180910390fd5b60018160030160006101000a81548160ff0219169083151502179055503373ffffffffffffffffffffffffffffffffffffffff16827f682c8a4fab89a425b973af64172cc6363b99285e49c35b15f3ed2601e454151d60405160405180910390a35050565b60008073ffffffffffffffffffffffffffffffffffffffff168273ffffffffffffffffffffffffffffffffffffffff1603610cd9576040517f08c379a0000000000000000000000000000000000000000000000000000000008152600401610cd090611a36565b60405180910390fd5b60003411610d1c576040517f08c379a0000000000000000000000000000000000000000000000000000000008152600401610d1390611aa2565b60405180910390fd5b60005490506001600080828254610d339190611af1565b925050819055506040518060e001604052803373ffffffffffffffffffffffffffffffffffffffff1681526020018373ffffffffffffffffffffffffffffffffffffffff168152602001348152602001600015158152602001600015158152602001600015158152602001600015158152506001600083815260200190815260200160002060008201518160000160006101000a81548173ffffffffffffffffffffffffffffffffffffffff021916908373ffffffffffffffffffffffffffffffffffffffff16021790555060208201518160010160006101000a81548173ffffffffffffffffffffffffffffffffffffffff021916908373ffffffffffffffffffffffffffffffffffffffff1602179055506040820151816002015560608201518160030160006101000a81548160ff02191690831515021790555060808201518160030160016101000a81548160ff02191690831515021790555060a08201518160030160026101000a81548160ff02191690831515021790555060c08201518160030160036101000a81548160ff0219169083151502179055509050508173ffffffffffffffffffffffffffffffffffffffff163373ffffffffffffffffffffffffffffffffffffffff16827ff9e17940e547201709f9aaacdec8ab3566601c60d8f5affb54f74b79b0b50b1334604051610f31919061115a565b60405180910390a4919050565b60006001600083815260200190815260200160002090503373ffffffffffffffffffffffffffffffffffffffff168160000160009054906101000a900473ffffffffffffffffffffffffffffffffffffffff1673ffffffffffffffffffffffffffffffffffffffff1614610fe7576040517f08c379a0000000000000000000000000000000000000000000000000000000008152600401610fde90611b71565b60405180910390fd5b8060030160009054906101000a900460ff16611038576040517f08c379a000000000000000000000000000000000000000000000000000000000815260040161102f90611bdd565b60405180910390fd5b8060030160019054906101000a900460ff161561108a576040517f08c379a000000000000000000000000000000000000000000000000000000000815260040161108190611c49565b60405180910390fd5b8060030160029054906101000a900460ff16156110dc576040517f08c379a00000000000000000000000000000000000000000000000000000000081526004016110d390611629565b60405180910390fd5b60018160030160016101000a81548160ff0219169083151502179055503373ffffffffffffffffffffffffffffffffffffffff16827f64a783c6150854ae756454311c7625a965c757996ba8cc1a8c6205380f33725060405160405180910390a35050565b6000819050919050565b61115481611141565b82525050565b600060208201905061116f600083018461114b565b92915050565b600080fd5b600080fd5b61118881611141565b811461119357600080fd5b50565b6000813590506111a58161117f565b92915050565b6000602082840312156111c1576111c0611175565b5b60006111cf84828501611196565b91505092915050565b600073ffffffffffffffffffffffffffffffffffffffff82169050919050565b6000611203826111d8565b9050919050565b611213816111f8565b82525050565b60008115159050919050565b61122e81611219565b82525050565b600060e082019050611249600083018a61120a565b611256602083018961120a565b611263604083018861114b565b6112706060830187611225565b61127d6080830186611225565b61128a60a0830185611225565b61129760c0830184611225565b98975050505050505050565b600060ff82169050919050565b6112b9816112a3565b81146112c457600080fd5b50565b6000813590506112d6816112b0565b92915050565b600080fd5b600080fd5b600080fd5b60008083601f840112611301576113006112dc565b5b8235905067ffffffffffffffff81111561131e5761131d6112e1565b5b60208301915083600182028301111561133a576113396112e6565b5b9250929050565b6000806000806060858703121561135b5761135a611175565b5b600061136987828801611196565b945050602061137a878288016112c7565b935050604085013567ffffffffffffffff81111561139b5761139a61117a565b5b6113a7878288016112eb565b925092505092959194509250565b6000819050919050565b60006113da6113d56113d0846111d8565b6113b5565b6111d8565b9050919050565b60006113ec826113bf565b9050919050565b60006113fe826113e1565b9050919050565b61140e816113f3565b82525050565b60006020820190506114296000830184611405565b92915050565b611438816111f8565b811461144357600080fd5b50565b6000813590506114558161142f565b92915050565b60006020828403121561147157611470611175565b5b600061147f84828501611446565b91505092915050565b600082825260208201905092915050565b7f4f72646572206e6f7420666f756e640000000000000000000000000000000000600082015250565b60006114cf600f83611488565b91506114da82611499565b602082019050919050565b600060208201905081810360008301526114fe816114c2565b9050919050565b7f536869706d656e74206e6f7420636f6e6669726d656400000000000000000000600082015250565b600061153b601683611488565b915061154682611505565b602082019050919050565b6000602082019050818103600083015261156a8161152e565b9050919050565b7f44656c6976657279206e6f7420636f6e6669726d656400000000000000000000600082015250565b60006115a7601683611488565b91506115b282611571565b602082019050919050565b600060208201905081810360008301526115d68161159a565b9050919050565b7f416c726561647920706169640000000000000000000000000000000000000000600082015250565b6000611613600c83611488565b915061161e826115dd565b602082019050919050565b6000602082019050818103600083015261164281611606565b9050919050565b600081905092915050565b50565b6000611664600083611649565b915061166f82611654565b600082019050919050565b600061168582611657565b9150819050919050565b7f5472616e73666572206661696c65640000000000000000000000000000000000600082015250565b60006116c5600f83611488565b91506116d08261168f565b602082019050919050565b600060208201905081810360008301526116f4816116b8565b9050919050565b7f4f6e6c792062757965722063616e207261746500000000000000000000000000600082015250565b6000611731601383611488565b915061173c826116fb565b602082019050919050565b6000602082019050818103600083015261176081611724565b9050919050565b7f5061796d656e74206e6f742072656c6561736564207965740000000000000000600082015250565b600061179d601883611488565b91506117a882611767565b602082019050919050565b600060208201905081810360008301526117cc81611790565b9050919050565b7f416c726561647920726174656400000000000000000000000000000000000000600082015250565b6000611809600d83611488565b9150611814826117d3565b602082019050919050565b60006020820190508181036000830152611838816117fc565b9050919050565b611848816112a3565b82525050565b82818337600083830152505050565b6000601f19601f8301169050919050565b600061187a8385611488565b935061188783858461184e565b6118908361185d565b840190509392505050565b600060a0820190506118b0600083018961114b565b6118bd602083018861120a565b6118ca604083018761120a565b6118d7606083018661183f565b81810360808301526118ea81848661186e565b9050979650505050505050565b600060208201905061190c600083018461183f565b92915050565b7f4f6e6c792073656c6c65722063616e20636f6e6669726d000000000000000000600082015250565b6000611948601783611488565b915061195382611912565b602082019050919050565b600060208201905081810360008301526119778161193b565b9050919050565b7f416c726561647920736869707065640000000000000000000000000000000000600082015250565b60006119b4600f83611488565b91506119bf8261197e565b602082019050919050565b600060208201905081810360008301526119e3816119a7565b9050919050565b7f496e76616c69642073656c6c6572000000000000000000000000000000000000600082015250565b6000611a20600e83611488565b9150611a2b826119ea565b602082019050919050565b60006020820190508181036000830152611a4f81611a13565b9050919050565b7f4d757374206465706f7369742045544800000000000000000000000000000000600082015250565b6000611a8c601083611488565b9150611a9782611a56565b602082019050919050565b60006020820190508181036000830152611abb81611a7f565b9050919050565b7f4e487b7100000000000000000000000000000000000000000000000000000000600052601160045260246000fd5b6000611afc82611141565b9150611b0783611141565b9250828201905080821115611b1f57611b1e611ac2565b5b92915050565b7f4f6e6c792062757965722063616e20636f6e6669726d00000000000000000000600082015250565b6000611b5b601683611488565b9150611b6682611b25565b602082019050919050565b60006020820190508181036000830152611b8a81611b4e565b9050919050565b7f4e6f742073686970706564207965740000000000000000000000000000000000600082015250565b6000611bc7600f83611488565b9150611bd282611b91565b602082019050919050565b60006020820190508181036000830152611bf681611bba565b9050919050565b7f416c726561647920636f6e6669726d6564000000000000000000000000000000600082015250565b6000611c33601183611488565b9150611c3e82611bfd565b602082019050919050565b60006020820190508181036000830152611c6281611c26565b905091905056fea26469706673582212205338828156a2c84f993b345b7bca3372e6db9a6f2ebae46f4cf748d3f58153d964736f6c63430008130033",
  "immutableReferences": {},
  "source": "// SPDX-License-Identifier: MIT\r\npragma solidity ^0.8.19;\r\n\r\n/*\r\n  EscrowPayment\r\n  - Buyer creates order + deposits ETH into escrow\r\n  - Buyer confirms delivery -> escrow releases ETH to seller\r\n  - After release, buyer can submit rating (stored in SellerReputation)\r\n*/\r\n\r\ninterface ISellerReputation {\r\n    function recordRating(\r\n        uint256 orderId,\r\n        address seller,\r\n        address buyer,\r\n        uint8 stars,\r\n        string calldata comment\r\n    ) external;\r\n}\r\n\r\ncontract EscrowPayment {\r\n    struct Order {\r\n        address buyer;\r\n        address seller;\r\n        uint256 amount;     // ETH in wei\r\n        bool shipped;\r\n        bool delivered;\r\n        bool paidOut;\r\n        bool rated;\r\n    }\r\n\r\n    uint256 public nextOrderId;\r\n    mapping(uint256 => Order) public orders;\r\n\r\n    ISellerReputation public reputation;\r\n\r\n    event OrderCreated(uint256 indexed orderId, address indexed buyer, address indexed seller, uint256 amount);\r\n    event ShipmentConfirmed(uint256 indexed orderId, address indexed seller);\r\n    event DeliveryConfirmed(uint256 indexed orderId, address indexed buyer);\r\n    event PaymentReleased(uint256 indexed orderId, address indexed seller, uint256 amount);\r\n    event RatingSubmitted(uint256 indexed orderId, address indexed seller, address indexed buyer, uint8 stars);\r\n\r\n    constructor(address reputationContract) {\r\n        require(reputationContract != address(0), \"Invalid reputation address\");\r\n        reputation = ISellerReputation(reputationContract);\r\n    }\r\n\r\n    // 1) Buyer creates an order and deposits ETH into escrow\r\n    function createOrder(address seller) external payable returns (uint256 orderId) {\r\n        require(seller != address(0), \"Invalid seller\");\r\n        require(msg.value > 0, \"Must deposit ETH\");\r\n\r\n        orderId = nextOrderId;\r\n        nextOrderId += 1;\r\n\r\n        orders[orderId] = Order({\r\n            buyer: msg.sender,\r\n            seller: seller,\r\n            amount: msg.value,\r\n            shipped: false,\r\n            delivered: false,\r\n            paidOut: false,\r\n            rated: false\r\n        });\r\n\r\n        emit OrderCreated(orderId, msg.sender, seller, msg.value);\r\n    }\r\n\r\n    // 2) Seller confirms shipment\r\n    function confirmShipment(uint256 orderId) external {\r\n        Order storage o = orders[orderId];\r\n        require(o.seller == msg.sender, \"Only seller can confirm\");\r\n        require(o.amount > 0, \"Order not found\");\r\n        require(!o.shipped, \"Already shipped\");\r\n        require(!o.paidOut, \"Already paid\");\r\n\r\n        o.shipped = true;\r\n        emit ShipmentConfirmed(orderId, msg.sender);\r\n    }\r\n\r\n    // 3) Buyer confirms delivery\r\n    function confirmDelivery(uint256 orderId) external {\r\n        Order storage o = orders[orderId];\r\n        require(o.buyer == msg.sender, \"Only buyer can confirm\");\r\n        require(o.shipped, \"Not shipped yet\");\r\n        require(!o.delivered, \"Already confirmed\");\r\n        require(!o.paidOut, \"Already paid\");\r\n\r\n        o.delivered = true;\r\n        emit DeliveryConfirmed(orderId, msg.sender);\r\n    }\r\n\r\n    // 4) Release payment to seller (can be triggered by buyer or seller after delivery confirmed)\r\n    function releasePayment(uint256 orderId) external {\r\n        Order storage o = orders[orderId];\r\n        require(o.amount > 0, \"Order not found\");\r\n        require(o.shipped, \"Shipment not confirmed\");\r\n        require(o.delivered, \"Delivery not confirmed\");\r\n        require(!o.paidOut, \"Already paid\");\r\n\r\n        // Checks-effects-interactions\r\n        o.paidOut = true;\r\n        uint256 amt = o.amount;\r\n        o.amount = 0;\r\n\r\n        (bool ok, ) = payable(o.seller).call{value: amt}(\"\");\r\n        require(ok, \"Transfer failed\");\r\n\r\n        emit PaymentReleased(orderId, o.seller, amt);\r\n    }\r\n\r\n    // 5) Buyer submits rating ONLY after payout (this prevents fake reviews)\r\n    function submitRating(uint256 orderId, uint8 stars, string calldata comment) external {\r\n        Order storage o = orders[orderId];\r\n        require(o.buyer == msg.sender, \"Only buyer can rate\");\r\n        require(o.paidOut, \"Payment not released yet\");\r\n        require(!o.rated, \"Already rated\");\r\n\r\n        o.rated = true;\r\n\r\n        // Record rating in Reputation contract (verified by escrow)\r\n        reputation.recordRating(orderId, o.seller, o.buyer, stars, comment);\r\n\r\n        emit RatingSubmitted(orderId, o.seller, o.buyer, stars);\r\n    }\r\n\r\n    // Helper: view order basic status\r\n    function getOrder(uint256 orderId)\r\n        external\r\n        view\r\n        returns (address buyer, address seller, uint256 amountWei, bool shipped, bool delivered, bool paidOut, bool rated)\r\n    {\r\n        Order memory o = orders[orderId];\r\n        return (o.buyer, o.seller, o.amount, o.shipped, o.delivered, o.paidOut, o.rated);\r\n    }\r\n}\r\n",
  "sourcePath": "C:\\Users\\07kkj\\OneDrive\\RP Y2S2\\C373 Distributed Ledger Technology Solutioning\\FA\\C373_Team-2_FA-1\\contracts\\EscrowPayment.sol",
  "compiler": {
    "name": "solc",
    "version": "0.8.19+commit.7dd6d404.Emscripten.clang"
  },
  "schemaVersion": "3.4.16",
  "updatedAt": "2026-01-20T11:25:36.519Z",
  "networkType": "ethereum",
  "devdoc": {
    "kind": "dev",
    "methods": {},
    "version": 1
  },
  "userdoc": {
    "kind": "user",
    "methods": {},
    "version": 1
  }
}