{
  "contractName": "EscrowPayment",
  "abi": [
    {
      "inputs": [
        {
          "internalType": "address",
          "name": "reputationContract",
          "type": "address"
        }
      ],
      "stateMutability": "nonpayable",
      "type": "constructor"
    },
    {
      "anonymous": false,
      "inputs": [
        {
          "indexed": true,
          "internalType": "address",
          "name": "account",
          "type": "address"
        },
        {
          "indexed": false,
          "internalType": "string",
          "name": "name",
          "type": "string"
        },
        {
          "indexed": false,
          "internalType": "string",
          "name": "email",
          "type": "string"
        },
        {
          "indexed": false,
          "internalType": "string",
          "name": "phone",
          "type": "string"
        }
      ],
      "name": "BuyerVerified",
      "type": "event"
    },
    {
      "anonymous": false,
      "inputs": [
        {
          "indexed": true,
          "internalType": "uint256",
          "name": "orderId",
          "type": "uint256"
        },
        {
          "indexed": true,
          "internalType": "address",
          "name": "buyer",
          "type": "address"
        }
      ],
      "name": "DeliveryConfirmed",
      "type": "event"
    },
    {
      "anonymous": false,
      "inputs": [
        {
          "indexed": true,
          "internalType": "uint256",
          "name": "orderId",
          "type": "uint256"
        },
        {
          "indexed": true,
          "internalType": "address",
          "name": "buyer",
          "type": "address"
        },
        {
          "indexed": false,
          "internalType": "bytes32",
          "name": "docHash",
          "type": "bytes32"
        }
      ],
      "name": "DocumentNotarized",
      "type": "event"
    },
    {
      "anonymous": false,
      "inputs": [
        {
          "indexed": true,
          "internalType": "uint256",
          "name": "orderId",
          "type": "uint256"
        },
        {
          "indexed": true,
          "internalType": "address",
          "name": "buyer",
          "type": "address"
        },
        {
          "indexed": true,
          "internalType": "address",
          "name": "seller",
          "type": "address"
        },
        {
          "indexed": false,
          "internalType": "uint256",
          "name": "productId",
          "type": "uint256"
        },
        {
          "indexed": false,
          "internalType": "uint256",
          "name": "qty",
          "type": "uint256"
        },
        {
          "indexed": false,
          "internalType": "uint256",
          "name": "unitPriceWei",
          "type": "uint256"
        },
        {
          "indexed": false,
          "internalType": "uint256",
          "name": "amount",
          "type": "uint256"
        }
      ],
      "name": "OrderCreated",
      "type": "event"
    },
    {
      "anonymous": false,
      "inputs": [
        {
          "indexed": true,
          "internalType": "uint256",
          "name": "orderId",
          "type": "uint256"
        },
        {
          "indexed": true,
          "internalType": "address",
          "name": "seller",
          "type": "address"
        },
        {
          "indexed": false,
          "internalType": "uint256",
          "name": "amount",
          "type": "uint256"
        }
      ],
      "name": "PaymentReleased",
      "type": "event"
    },
    {
      "anonymous": false,
      "inputs": [
        {
          "indexed": true,
          "internalType": "address",
          "name": "buyer",
          "type": "address"
        },
        {
          "indexed": true,
          "internalType": "uint256",
          "name": "productId",
          "type": "uint256"
        },
        {
          "indexed": false,
          "internalType": "uint256",
          "name": "qty",
          "type": "uint256"
        },
        {
          "indexed": false,
          "internalType": "uint256",
          "name": "unitPriceWei",
          "type": "uint256"
        },
        {
          "indexed": false,
          "internalType": "bytes32",
          "name": "orderHash",
          "type": "bytes32"
        },
        {
          "indexed": false,
          "internalType": "uint256",
          "name": "timestamp",
          "type": "uint256"
        }
      ],
      "name": "PurchaseNotarized",
      "type": "event"
    },
    {
      "anonymous": false,
      "inputs": [
        {
          "indexed": true,
          "internalType": "uint256",
          "name": "orderId",
          "type": "uint256"
        },
        {
          "indexed": true,
          "internalType": "address",
          "name": "seller",
          "type": "address"
        },
        {
          "indexed": true,
          "internalType": "address",
          "name": "buyer",
          "type": "address"
        },
        {
          "indexed": false,
          "internalType": "uint8",
          "name": "stars",
          "type": "uint8"
        }
      ],
      "name": "RatingSubmitted",
      "type": "event"
    },
    {
      "anonymous": false,
      "inputs": [
        {
          "indexed": true,
          "internalType": "address",
          "name": "account",
          "type": "address"
        },
        {
          "indexed": false,
          "internalType": "string",
          "name": "name",
          "type": "string"
        },
        {
          "indexed": false,
          "internalType": "string",
          "name": "email",
          "type": "string"
        },
        {
          "indexed": false,
          "internalType": "string",
          "name": "phone",
          "type": "string"
        }
      ],
      "name": "SellerVerified",
      "type": "event"
    },
    {
      "anonymous": false,
      "inputs": [
        {
          "indexed": true,
          "internalType": "uint256",
          "name": "orderId",
          "type": "uint256"
        },
        {
          "indexed": true,
          "internalType": "address",
          "name": "seller",
          "type": "address"
        }
      ],
      "name": "ShipmentConfirmed",
      "type": "event"
    },
    {
      "inputs": [],
      "name": "nextOrderId",
      "outputs": [
        {
          "internalType": "uint256",
          "name": "",
          "type": "uint256"
        }
      ],
      "stateMutability": "view",
      "type": "function",
      "constant": true
    },
    {
      "inputs": [
        {
          "internalType": "bytes32",
          "name": "",
          "type": "bytes32"
        }
      ],
      "name": "orderHashBuyer",
      "outputs": [
        {
          "internalType": "address",
          "name": "",
          "type": "address"
        }
      ],
      "stateMutability": "view",
      "type": "function",
      "constant": true
    },
    {
      "inputs": [
        {
          "internalType": "bytes32",
          "name": "",
          "type": "bytes32"
        }
      ],
      "name": "orderHashTimestamp",
      "outputs": [
        {
          "internalType": "uint256",
          "name": "",
          "type": "uint256"
        }
      ],
      "stateMutability": "view",
      "type": "function",
      "constant": true
    },
    {
      "inputs": [
        {
          "internalType": "uint256",
          "name": "",
          "type": "uint256"
        }
      ],
      "name": "orders",
      "outputs": [
        {
          "internalType": "address",
          "name": "buyer",
          "type": "address"
        },
        {
          "internalType": "address",
          "name": "seller",
          "type": "address"
        },
        {
          "internalType": "uint256",
          "name": "productId",
          "type": "uint256"
        },
        {
          "internalType": "uint256",
          "name": "qty",
          "type": "uint256"
        },
        {
          "internalType": "uint256",
          "name": "unitPriceWei",
          "type": "uint256"
        },
        {
          "internalType": "uint256",
          "name": "amount",
          "type": "uint256"
        },
        {
          "internalType": "bool",
          "name": "shipped",
          "type": "bool"
        },
        {
          "internalType": "bool",
          "name": "delivered",
          "type": "bool"
        },
        {
          "internalType": "bool",
          "name": "paidOut",
          "type": "bool"
        },
        {
          "internalType": "bool",
          "name": "rated",
          "type": "bool"
        },
        {
          "internalType": "bytes32",
          "name": "proofHash",
          "type": "bytes32"
        },
        {
          "internalType": "uint256",
          "name": "proofTimestamp",
          "type": "uint256"
        }
      ],
      "stateMutability": "view",
      "type": "function",
      "constant": true
    },
    {
      "inputs": [],
      "name": "reputation",
      "outputs": [
        {
          "internalType": "contract ISellerReputation",
          "name": "",
          "type": "address"
        }
      ],
      "stateMutability": "view",
      "type": "function",
      "constant": true
    },
    {
      "inputs": [
        {
          "internalType": "string",
          "name": "name",
          "type": "string"
        },
        {
          "internalType": "string",
          "name": "email",
          "type": "string"
        },
        {
          "internalType": "string",
          "name": "phone",
          "type": "string"
        }
      ],
      "name": "verifySeller",
      "outputs": [],
      "stateMutability": "nonpayable",
      "type": "function"
    },
    {
      "inputs": [
        {
          "internalType": "string",
          "name": "name",
          "type": "string"
        },
        {
          "internalType": "string",
          "name": "email",
          "type": "string"
        },
        {
          "internalType": "string",
          "name": "phone",
          "type": "string"
        }
      ],
      "name": "verifyBuyer",
      "outputs": [],
      "stateMutability": "nonpayable",
      "type": "function"
    },
    {
      "inputs": [
        {
          "internalType": "address",
          "name": "account",
          "type": "address"
        }
      ],
      "name": "isSellerVerified",
      "outputs": [
        {
          "internalType": "bool",
          "name": "",
          "type": "bool"
        }
      ],
      "stateMutability": "view",
      "type": "function",
      "constant": true
    },
    {
      "inputs": [
        {
          "internalType": "address",
          "name": "account",
          "type": "address"
        }
      ],
      "name": "isBuyerVerified",
      "outputs": [
        {
          "internalType": "bool",
          "name": "",
          "type": "bool"
        }
      ],
      "stateMutability": "view",
      "type": "function",
      "constant": true
    },
    {
      "inputs": [
        {
          "internalType": "address",
          "name": "account",
          "type": "address"
        }
      ],
      "name": "getVerification",
      "outputs": [
        {
          "internalType": "bool",
          "name": "sellerVerified",
          "type": "bool"
        },
        {
          "internalType": "bool",
          "name": "buyerVerified",
          "type": "bool"
        },
        {
          "internalType": "string",
          "name": "name",
          "type": "string"
        },
        {
          "internalType": "string",
          "name": "email",
          "type": "string"
        },
        {
          "internalType": "string",
          "name": "phone",
          "type": "string"
        }
      ],
      "stateMutability": "view",
      "type": "function",
      "constant": true
    },
    {
      "inputs": [
        {
          "internalType": "uint256",
          "name": "productId",
          "type": "uint256"
        },
        {
          "internalType": "uint256",
          "name": "qty",
          "type": "uint256"
        },
        {
          "internalType": "uint256",
          "name": "unitPriceWei",
          "type": "uint256"
        }
      ],
      "name": "createOrder",
      "outputs": [
        {
          "internalType": "uint256",
          "name": "orderId",
          "type": "uint256"
        }
      ],
      "stateMutability": "payable",
      "type": "function",
      "payable": true
    },
    {
      "inputs": [
        {
          "internalType": "uint256",
          "name": "orderId",
          "type": "uint256"
        }
      ],
      "name": "confirmShipment",
      "outputs": [],
      "stateMutability": "nonpayable",
      "type": "function"
    },
    {
      "inputs": [
        {
          "internalType": "uint256",
          "name": "orderId",
          "type": "uint256"
        }
      ],
      "name": "confirmDelivery",
      "outputs": [],
      "stateMutability": "nonpayable",
      "type": "function"
    },
    {
      "inputs": [
        {
          "internalType": "uint256",
          "name": "orderId",
          "type": "uint256"
        }
      ],
      "name": "releasePayment",
      "outputs": [],
      "stateMutability": "nonpayable",
      "type": "function"
    },
    {
      "inputs": [
        {
          "internalType": "uint256",
          "name": "orderId",
          "type": "uint256"
        },
        {
          "internalType": "uint8",
          "name": "stars",
          "type": "uint8"
        },
        {
          "internalType": "string",
          "name": "comment",
          "type": "string"
        }
      ],
      "name": "submitRating",
      "outputs": [],
      "stateMutability": "nonpayable",
      "type": "function"
    },
    {
      "inputs": [
        {
          "internalType": "uint256",
          "name": "orderId",
          "type": "uint256"
        },
        {
          "internalType": "bytes32",
          "name": "docHash",
          "type": "bytes32"
        }
      ],
      "name": "notarizeDelivery",
      "outputs": [],
      "stateMutability": "nonpayable",
      "type": "function"
    },
    {
      "inputs": [
        {
          "internalType": "bytes32",
          "name": "orderHash",
          "type": "bytes32"
        },
        {
          "internalType": "uint256",
          "name": "productId",
          "type": "uint256"
        },
        {
          "internalType": "uint256",
          "name": "qty",
          "type": "uint256"
        },
        {
          "internalType": "uint256",
          "name": "unitPriceWei",
          "type": "uint256"
        }
      ],
      "name": "notarizePurchase",
      "outputs": [],
      "stateMutability": "nonpayable",
      "type": "function"
    },
    {
      "inputs": [
        {
          "internalType": "uint256",
          "name": "orderId",
          "type": "uint256"
        }
      ],
      "name": "getOrder",
      "outputs": [
        {
          "internalType": "address",
          "name": "buyer",
          "type": "address"
        },
        {
          "internalType": "address",
          "name": "seller",
          "type": "address"
        },
        {
          "internalType": "uint256",
          "name": "productId",
          "type": "uint256"
        },
        {
          "internalType": "uint256",
          "name": "qty",
          "type": "uint256"
        },
        {
          "internalType": "uint256",
          "name": "unitPriceWei",
          "type": "uint256"
        },
        {
          "internalType": "uint256",
          "name": "amountWei",
          "type": "uint256"
        },
        {
          "internalType": "bool",
          "name": "shipped",
          "type": "bool"
        },
        {
          "internalType": "bool",
          "name": "delivered",
          "type": "bool"
        },
        {
          "internalType": "bool",
          "name": "paidOut",
          "type": "bool"
        },
        {
          "internalType": "bool",
          "name": "rated",
          "type": "bool"
        },
        {
          "internalType": "bytes32",
          "name": "proofHash",
          "type": "bytes32"
        },
        {
          "internalType": "uint256",
          "name": "proofTimestamp",
          "type": "uint256"
        }
      ],
      "stateMutability": "view",
      "type": "function",
      "constant": true
    },
    {
      "inputs": [
        {
          "internalType": "address",
          "name": "buyer",
          "type": "address"
        }
      ],
      "name": "getBuyerOrders",
      "outputs": [
        {
          "internalType": "uint256[]",
          "name": "",
          "type": "uint256[]"
        }
      ],
      "stateMutability": "view",
      "type": "function",
      "constant": true
    },
    {
      "inputs": [
        {
          "internalType": "address",
          "name": "seller",
          "type": "address"
        }
      ],
      "name": "getSellerOrders",
      "outputs": [
        {
          "internalType": "uint256[]",
          "name": "",
          "type": "uint256[]"
        }
      ],
      "stateMutability": "view",
      "type": "function",
      "constant": true
    }
  ],
  "bytecode": "0x60806040523480156200001157600080fd5b5060405162003e6c38038062003e6c83398181016040528101906200003791906200015b565b600073ffffffffffffffffffffffffffffffffffffffff168173ffffffffffffffffffffffffffffffffffffffff1603620000a9576040517f08c379a0000000000000000000000000000000000000000000000000000000008152600401620000a090620001ee565b60405180910390fd5b80600760006101000a81548173ffffffffffffffffffffffffffffffffffffffff021916908373ffffffffffffffffffffffffffffffffffffffff1602179055505062000210565b600080fd5b600073ffffffffffffffffffffffffffffffffffffffff82169050919050565b60006200012382620000f6565b9050919050565b620001358162000116565b81146200014157600080fd5b50565b60008151905062000155816200012a565b92915050565b600060208284031215620001745762000173620000f1565b5b6000620001848482850162000144565b91505092915050565b600082825260208201905092915050565b7f496e76616c69642072657075746174696f6e2061646472657373000000000000600082015250565b6000620001d6601a836200018d565b9150620001e3826200019e565b602082019050919050565b600060208201905081810360008301526200020981620001c7565b9050919050565b613c4c80620002206000396000f3fe60806040526004361061011f5760003560e01c8063a85c38ef116100a0578063d5b5a96011610064578063d5b5a9601461043c578063e0cb8e5f14610479578063e36e7f89146104a2578063e4cbac40146104cb578063fd84cb97146105085761011f565b8063a85c38ef1461032f578063af648e1214610377578063c52164c6146103a0578063d07a623d146103cb578063d09ef241146103f45761011f565b80637fc9592d116100e75780637fc9592d1461022f57806388685cd9146102705780639d6c740414610299578063a1ba444d146102c2578063a45f2ebc146102f25761011f565b806307dddcff146101245780632a58b33014610161578063374bda331461018c578063377c460d146101b557806362fff361146101f2575b600080fd5b34801561013057600080fd5b5061014b60048036038101906101469190612382565b610531565b60405161015891906123c8565b60405180910390f35b34801561016d57600080fd5b50610176610549565b60405161018391906123c8565b60405180910390f35b34801561019857600080fd5b506101b360048036038101906101ae9190612448565b61054f565b005b3480156101c157600080fd5b506101dc60048036038101906101d7919061255a565b61065a565b6040516101e991906125a2565b60405180910390f35b3480156101fe57600080fd5b506102196004803603810190610214919061255a565b6106b3565b60405161022691906125a2565b60405180910390f35b34801561023b57600080fd5b506102566004803603810190610251919061255a565b61070c565b60405161026795949392919061264d565b60405180910390f35b34801561027c57600080fd5b50610297600480360381019061029291906126e1565b61097b565b005b3480156102a557600080fd5b506102c060048036038101906102bb919061270e565b610cd9565b005b6102dc60048036038101906102d79190612775565b610ecd565b6040516102e991906123c8565b60405180910390f35b3480156102fe57600080fd5b506103196004803603810190610314919061255a565b6112db565b6040516103269190612886565b60405180910390f35b34801561033b57600080fd5b50610356600480360381019061035191906126e1565b611372565b60405161036e9c9b9a999897969594939291906128c6565b60405180910390f35b34801561038357600080fd5b5061039e600480360381019061039991906129b9565b611446565b005b3480156103ac57600080fd5b506103b5611743565b6040516103c29190612a8c565b60405180910390f35b3480156103d757600080fd5b506103f260048036038101906103ed9190612aa7565b611769565b005b34801561040057600080fd5b5061041b600480360381019061041691906126e1565b611957565b6040516104339c9b9a999897969594939291906128c6565b60405180910390f35b34801561044857600080fd5b50610463600480360381019061045e9190612382565b611b48565b6040516104709190612ae7565b60405180910390f35b34801561048557600080fd5b506104a0600480360381019061049b91906126e1565b611b7b565b005b3480156104ae57600080fd5b506104c960048036038101906104c49190612448565b611ec3565b005b3480156104d757600080fd5b506104f260048036038101906104ed919061255a565b611fce565b6040516104ff9190612886565b60405180910390f35b34801561051457600080fd5b5061052f600480360381019061052a91906126e1565b612065565b005b60066020528060005260406000206000915090505481565b60005481565b61055d868686868686612268565b6000600460003373ffffffffffffffffffffffffffffffffffffffff1673ffffffffffffffffffffffffffffffffffffffff168152602001908152602001600020905086868260010191826105b3929190612d3e565b5084848260020191826105c7929190612d3e565b5082828260030191826105db929190612d3e565b5060018160000160016101000a81548160ff0219169083151502179055503373ffffffffffffffffffffffffffffffffffffffff167f3d5e611a26d6d9a70eaa719533f044b37e2f65e6230a631508935cb0b4a500fd88888888888860405161064996959493929190612e4a565b60405180910390a250505050505050565b6000600460008373ffffffffffffffffffffffffffffffffffffffff1673ffffffffffffffffffffffffffffffffffffffff16815260200190815260200160002060000160009054906101000a900460ff169050919050565b6000600460008373ffffffffffffffffffffffffffffffffffffffff1673ffffffffffffffffffffffffffffffffffffffff16815260200190815260200160002060000160019054906101000a900460ff169050919050565b60008060608060606000600460008873ffffffffffffffffffffffffffffffffffffffff1673ffffffffffffffffffffffffffffffffffffffff1681526020019081526020016000206040518060a00160405290816000820160009054906101000a900460ff161515151581526020016000820160019054906101000a900460ff161515151581526020016001820180546107a690612b6b565b80601f01602080910402602001604051908101604052809291908181526020018280546107d290612b6b565b801561081f5780601f106107f45761010080835404028352916020019161081f565b820191906000526020600020905b81548152906001019060200180831161080257829003601f168201915b5050505050815260200160028201805461083890612b6b565b80601f016020809104026020016040519081016040528092919081815260200182805461086490612b6b565b80156108b15780601f10610886576101008083540402835291602001916108b1565b820191906000526020600020905b81548152906001019060200180831161089457829003601f168201915b505050505081526020016003820180546108ca90612b6b565b80601f01602080910402602001604051908101604052809291908181526020018280546108f690612b6b565b80156109435780601f1061091857610100808354040283529160200191610943565b820191906000526020600020905b81548152906001019060200180831161092657829003601f168201915b505050505081525050905080600001518160200151826040015183606001518460800151955095509550955095505091939590929450565b600060016000838152602001908152602001600020905060008160050154116109d9576040517f08c379a00000000000000000000000000000000000000000000000000000000081526004016109d090612ee8565b60405180910390fd5b8060060160009054906101000a900460ff16610a2a576040517f08c379a0000000000000000000000000000000000000000000000000000000008152600401610a2190612f54565b60405180910390fd5b8060060160019054906101000a900460ff16610a7b576040517f08c379a0000000000000000000000000000000000000000000000000000000008152600401610a7290612fc0565b60405180910390fd5b600073ffffffffffffffffffffffffffffffffffffffff168160010160009054906101000a900473ffffffffffffffffffffffffffffffffffffffff1673ffffffffffffffffffffffffffffffffffffffff1603610b0e576040517f08c379a0000000000000000000000000000000000000000000000000000000008152600401610b059061302c565b60405180910390fd5b8060060160029054906101000a900460ff1615610b60576040517f08c379a0000000000000000000000000000000000000000000000000000000008152600401610b5790613098565b60405180910390fd5b60018160060160026101000a81548160ff0219169083151502179055506000816005015490506000826005018190555060008260010160009054906101000a900473ffffffffffffffffffffffffffffffffffffffff1673ffffffffffffffffffffffffffffffffffffffff1682604051610bda906130e9565b60006040518083038185875af1925050503d8060008114610c17576040519150601f19603f3d011682016040523d82523d6000602084013e610c1c565b606091505b5050905080610c60576040517f08c379a0000000000000000000000000000000000000000000000000000000008152600401610c579061314a565b60405180910390fd5b8260010160009054906101000a900473ffffffffffffffffffffffffffffffffffffffff1673ffffffffffffffffffffffffffffffffffffffff16847f21d71db5be59bb9fa133895586b7404307dd33fb93b16db09dc6f1d9d7d231b084604051610ccb91906123c8565b60405180910390a350505050565b610ce2336106b3565b610d21576040517f08c379a0000000000000000000000000000000000000000000000000000000008152600401610d18906131b6565b60405180910390fd5b6000801b8403610d66576040517f08c379a0000000000000000000000000000000000000000000000000000000008152600401610d5d90613222565b60405180910390fd5b600073ffffffffffffffffffffffffffffffffffffffff166005600086815260200190815260200160002060009054906101000a900473ffffffffffffffffffffffffffffffffffffffff1673ffffffffffffffffffffffffffffffffffffffff1614610e08576040517f08c379a0000000000000000000000000000000000000000000000000000000008152600401610dff9061328e565b60405180910390fd5b336005600086815260200190815260200160002060006101000a81548173ffffffffffffffffffffffffffffffffffffffff021916908373ffffffffffffffffffffffffffffffffffffffff160217905550426006600086815260200190815260200160002081905550823373ffffffffffffffffffffffffffffffffffffffff167fa2e21d60fb26efa99c3b243e0323a45f443f2e31b6fa01e638e02eb29d68e5c984848842604051610ebf94939291906132ae565b60405180910390a350505050565b6000610ed8336106b3565b610f17576040517f08c379a0000000000000000000000000000000000000000000000000000000008152600401610f0e906131b6565b60405180910390fd5b60008311610f5a576040517f08c379a0000000000000000000000000000000000000000000000000000000008152600401610f519061333f565b60405180910390fd5b60008211610f9d576040517f08c379a0000000000000000000000000000000000000000000000000000000008152600401610f94906133ab565b60405180910390fd5b60008284610fab91906133fa565b9050803414610fef576040517f08c379a0000000000000000000000000000000000000000000000000000000008152600401610fe690613488565b60405180910390fd5b6000549150600160008082825461100691906134a8565b925050819055506040518061018001604052803373ffffffffffffffffffffffffffffffffffffffff168152602001600073ffffffffffffffffffffffffffffffffffffffff1681526020018681526020018581526020018481526020013481526020016000151581526020016000151581526020016000151581526020016000151581526020016000801b815260200160008152506001600084815260200190815260200160002060008201518160000160006101000a81548173ffffffffffffffffffffffffffffffffffffffff021916908373ffffffffffffffffffffffffffffffffffffffff16021790555060208201518160010160006101000a81548173ffffffffffffffffffffffffffffffffffffffff021916908373ffffffffffffffffffffffffffffffffffffffff16021790555060408201518160020155606082015181600301556080820151816004015560a0820151816005015560c08201518160060160006101000a81548160ff02191690831515021790555060e08201518160060160016101000a81548160ff0219169083151502179055506101008201518160060160026101000a81548160ff0219169083151502179055506101208201518160060160036101000a81548160ff02191690831515021790555061014082015181600701556101608201518160080155905050600260003373ffffffffffffffffffffffffffffffffffffffff1673ffffffffffffffffffffffffffffffffffffffff168152602001908152602001600020829080600181540180825580915050600190039060005260206000200160009091909190915055600073ffffffffffffffffffffffffffffffffffffffff163373ffffffffffffffffffffffffffffffffffffffff16837f97731a95ce5dd1802ada2af380a14fd8e47563e47aa4335a4a418317176eb8ed888888346040516112cb94939291906134dc565b60405180910390a4509392505050565b6060600260008373ffffffffffffffffffffffffffffffffffffffff1673ffffffffffffffffffffffffffffffffffffffff16815260200190815260200160002080548060200260200160405190810160405280929190818152602001828054801561136657602002820191906000526020600020905b815481526020019060010190808311611352575b50505050509050919050565b60016020528060005260406000206000915090508060000160009054906101000a900473ffffffffffffffffffffffffffffffffffffffff16908060010160009054906101000a900473ffffffffffffffffffffffffffffffffffffffff16908060020154908060030154908060040154908060050154908060060160009054906101000a900460ff16908060060160019054906101000a900460ff16908060060160029054906101000a900460ff16908060060160039054906101000a900460ff1690806007015490806008015490508c565b60006001600086815260200190815260200160002090503373ffffffffffffffffffffffffffffffffffffffff168160000160009054906101000a900473ffffffffffffffffffffffffffffffffffffffff1673ffffffffffffffffffffffffffffffffffffffff16146114ef576040517f08c379a00000000000000000000000000000000000000000000000000000000081526004016114e69061356d565b60405180910390fd5b8060060160029054906101000a900460ff16611540576040517f08c379a0000000000000000000000000000000000000000000000000000000008152600401611537906135d9565b60405180910390fd5b8060060160039054906101000a900460ff1615611592576040517f08c379a000000000000000000000000000000000000000000000000000000000815260040161158990613645565b60405180910390fd5b60018160060160036101000a81548160ff021916908315150217905550600760009054906101000a900473ffffffffffffffffffffffffffffffffffffffff1673ffffffffffffffffffffffffffffffffffffffff166310ceba4b868360010160009054906101000a900473ffffffffffffffffffffffffffffffffffffffff168460000160009054906101000a900473ffffffffffffffffffffffffffffffffffffffff168888886040518763ffffffff1660e01b815260040161165c96959493929190613674565b600060405180830381600087803b15801561167657600080fd5b505af115801561168a573d6000803e3d6000fd5b505050508060000160009054906101000a900473ffffffffffffffffffffffffffffffffffffffff1673ffffffffffffffffffffffffffffffffffffffff168160010160009054906101000a900473ffffffffffffffffffffffffffffffffffffffff1673ffffffffffffffffffffffffffffffffffffffff16867f1c77a158686639c60e48e2f63ec680c6dfd55fdebf1a1d34b6ad59eee1f286108760405161173491906136d0565b60405180910390a45050505050565b600760009054906101000a900473ffffffffffffffffffffffffffffffffffffffff1681565b60006001600084815260200190815260200160002090503373ffffffffffffffffffffffffffffffffffffffff168160000160009054906101000a900473ffffffffffffffffffffffffffffffffffffffff1673ffffffffffffffffffffffffffffffffffffffff1614611812576040517f08c379a000000000000000000000000000000000000000000000000000000000815260040161180990613737565b60405180910390fd5b8060060160019054906101000a900460ff16611863576040517f08c379a000000000000000000000000000000000000000000000000000000000815260040161185a90612fc0565b60405180910390fd5b6000801b82036118a8576040517f08c379a000000000000000000000000000000000000000000000000000000000815260040161189f906137a3565b60405180910390fd5b6000801b8160070154146118f1576040517f08c379a00000000000000000000000000000000000000000000000000000000081526004016118e89061380f565b60405180910390fd5b8181600701819055504281600801819055503373ffffffffffffffffffffffffffffffffffffffff16837f4c302e0450961000fc9893b36e9a7a65a4a458e3b5903af10b216ad12b85de188460405161194a919061382f565b60405180910390a3505050565b6000806000806000806000806000806000806000600160008f8152602001908152602001600020604051806101800160405290816000820160009054906101000a900473ffffffffffffffffffffffffffffffffffffffff1673ffffffffffffffffffffffffffffffffffffffff1673ffffffffffffffffffffffffffffffffffffffff1681526020016001820160009054906101000a900473ffffffffffffffffffffffffffffffffffffffff1673ffffffffffffffffffffffffffffffffffffffff1673ffffffffffffffffffffffffffffffffffffffff168152602001600282015481526020016003820154815260200160048201548152602001600582015481526020016006820160009054906101000a900460ff161515151581526020016006820160019054906101000a900460ff161515151581526020016006820160029054906101000a900460ff161515151581526020016006820160039054906101000a900460ff16151515158152602001600782015481526020016008820154815250509050806000015181602001518260400151836060015184608001518560a001518660c001518760e001518861010001518961012001518a61014001518b61016001519c509c509c509c509c509c509c509c509c509c509c509c505091939597999b5091939597999b565b60056020528060005260406000206000915054906101000a900473ffffffffffffffffffffffffffffffffffffffff1681565b60006001600083815260200190815260200160002090506000816005015411611bd9576040517f08c379a0000000000000000000000000000000000000000000000000000000008152600401611bd090612ee8565b60405180910390fd5b8060060160009054906101000a900460ff1615611c2b576040517f08c379a0000000000000000000000000000000000000000000000000000000008152600401611c2290613896565b60405180910390fd5b8060060160029054906101000a900460ff1615611c7d576040517f08c379a0000000000000000000000000000000000000000000000000000000008152600401611c7490613098565b60405180910390fd5b611c863361065a565b611cc5576040517f08c379a0000000000000000000000000000000000000000000000000000000008152600401611cbc90613902565b60405180910390fd5b600073ffffffffffffffffffffffffffffffffffffffff168160010160009054906101000a900473ffffffffffffffffffffffffffffffffffffffff1673ffffffffffffffffffffffffffffffffffffffff1603611dcb57338160010160006101000a81548173ffffffffffffffffffffffffffffffffffffffff021916908373ffffffffffffffffffffffffffffffffffffffff160217905550600360003373ffffffffffffffffffffffffffffffffffffffff1673ffffffffffffffffffffffffffffffffffffffff168152602001908152602001600020829080600181540180825580915050600190039060005260206000200160009091909190915055611e5e565b3373ffffffffffffffffffffffffffffffffffffffff168160010160009054906101000a900473ffffffffffffffffffffffffffffffffffffffff1673ffffffffffffffffffffffffffffffffffffffff1614611e5d576040517f08c379a0000000000000000000000000000000000000000000000000000000008152600401611e549061396e565b60405180910390fd5b5b60018160060160006101000a81548160ff0219169083151502179055503373ffffffffffffffffffffffffffffffffffffffff16827f682c8a4fab89a425b973af64172cc6363b99285e49c35b15f3ed2601e454151d60405160405180910390a35050565b611ed1868686868686612268565b6000600460003373ffffffffffffffffffffffffffffffffffffffff1673ffffffffffffffffffffffffffffffffffffffff16815260200190815260200160002090508686826001019182611f27929190612d3e565b508484826002019182611f3b929190612d3e565b508282826003019182611f4f929190612d3e565b5060018160000160006101000a81548160ff0219169083151502179055503373ffffffffffffffffffffffffffffffffffffffff167f4451c362675a9ffa2eb1b50d055bdcbbf66d78ca9060c2e62bdf15e03ac8bb73888888888888604051611fbd96959493929190612e4a565b60405180910390a250505050505050565b6060600360008373ffffffffffffffffffffffffffffffffffffffff1673ffffffffffffffffffffffffffffffffffffffff16815260200190815260200160002080548060200260200160405190810160405280929190818152602001828054801561205957602002820191906000526020600020905b815481526020019060010190808311612045575b50505050509050919050565b60006001600083815260200190815260200160002090503373ffffffffffffffffffffffffffffffffffffffff168160000160009054906101000a900473ffffffffffffffffffffffffffffffffffffffff1673ffffffffffffffffffffffffffffffffffffffff161461210e576040517f08c379a0000000000000000000000000000000000000000000000000000000008152600401612105906139da565b60405180910390fd5b8060060160009054906101000a900460ff1661215f576040517f08c379a000000000000000000000000000000000000000000000000000000000815260040161215690613a46565b60405180910390fd5b8060060160019054906101000a900460ff16156121b1576040517f08c379a00000000000000000000000000000000000000000000000000000000081526004016121a890613ab2565b60405180910390fd5b8060060160029054906101000a900460ff1615612203576040517f08c379a00000000000000000000000000000000000000000000000000000000081526004016121fa90613098565b60405180910390fd5b60018160060160016101000a81548160ff0219169083151502179055503373ffffffffffffffffffffffffffffffffffffffff16827f64a783c6150854ae756454311c7625a965c757996ba8cc1a8c6205380f33725060405160405180910390a35050565b600086869050116122ae576040517f08c379a00000000000000000000000000000000000000000000000000000000081526004016122a590613b1e565b60405180910390fd5b600084849050116122f4576040517f08c379a00000000000000000000000000000000000000000000000000000000081526004016122eb90613b8a565b60405180910390fd5b6000828290501161233a576040517f08c379a000000000000000000000000000000000000000000000000000000000815260040161233190613bf6565b60405180910390fd5b505050505050565b600080fd5b600080fd5b6000819050919050565b61235f8161234c565b811461236a57600080fd5b50565b60008135905061237c81612356565b92915050565b60006020828403121561239857612397612342565b5b60006123a68482850161236d565b91505092915050565b6000819050919050565b6123c2816123af565b82525050565b60006020820190506123dd60008301846123b9565b92915050565b600080fd5b600080fd5b600080fd5b60008083601f840112612408576124076123e3565b5b8235905067ffffffffffffffff811115612425576124246123e8565b5b602083019150836001820283011115612441576124406123ed565b5b9250929050565b6000806000806000806060878903121561246557612464612342565b5b600087013567ffffffffffffffff81111561248357612482612347565b5b61248f89828a016123f2565b9650965050602087013567ffffffffffffffff8111156124b2576124b1612347565b5b6124be89828a016123f2565b9450945050604087013567ffffffffffffffff8111156124e1576124e0612347565b5b6124ed89828a016123f2565b92509250509295509295509295565b600073ffffffffffffffffffffffffffffffffffffffff82169050919050565b6000612527826124fc565b9050919050565b6125378161251c565b811461254257600080fd5b50565b6000813590506125548161252e565b92915050565b6000602082840312156125705761256f612342565b5b600061257e84828501612545565b91505092915050565b60008115159050919050565b61259c81612587565b82525050565b60006020820190506125b76000830184612593565b92915050565b600081519050919050565b600082825260208201905092915050565b60005b838110156125f75780820151818401526020810190506125dc565b60008484015250505050565b6000601f19601f8301169050919050565b600061261f826125bd565b61262981856125c8565b93506126398185602086016125d9565b61264281612603565b840191505092915050565b600060a0820190506126626000830188612593565b61266f6020830187612593565b81810360408301526126818186612614565b905081810360608301526126958185612614565b905081810360808301526126a98184612614565b90509695505050505050565b6126be816123af565b81146126c957600080fd5b50565b6000813590506126db816126b5565b92915050565b6000602082840312156126f7576126f6612342565b5b6000612705848285016126cc565b91505092915050565b6000806000806080858703121561272857612727612342565b5b60006127368782880161236d565b9450506020612747878288016126cc565b9350506040612758878288016126cc565b9250506060612769878288016126cc565b91505092959194509250565b60008060006060848603121561278e5761278d612342565b5b600061279c868287016126cc565b93505060206127ad868287016126cc565b92505060406127be868287016126cc565b9150509250925092565b600081519050919050565b600082825260208201905092915050565b6000819050602082019050919050565b6127fd816123af565b82525050565b600061280f83836127f4565b60208301905092915050565b6000602082019050919050565b6000612833826127c8565b61283d81856127d3565b9350612848836127e4565b8060005b838110156128795781516128608882612803565b975061286b8361281b565b92505060018101905061284c565b5085935050505092915050565b600060208201905081810360008301526128a08184612828565b905092915050565b6128b18161251c565b82525050565b6128c08161234c565b82525050565b6000610180820190506128dc600083018f6128a8565b6128e9602083018e6128a8565b6128f6604083018d6123b9565b612903606083018c6123b9565b612910608083018b6123b9565b61291d60a083018a6123b9565b61292a60c0830189612593565b61293760e0830188612593565b612945610100830187612593565b612953610120830186612593565b6129616101408301856128b7565b61296f6101608301846123b9565b9d9c50505050505050505050505050565b600060ff82169050919050565b61299681612980565b81146129a157600080fd5b50565b6000813590506129b38161298d565b92915050565b600080600080606085870312156129d3576129d2612342565b5b60006129e1878288016126cc565b94505060206129f2878288016129a4565b935050604085013567ffffffffffffffff811115612a1357612a12612347565b5b612a1f878288016123f2565b925092505092959194509250565b6000819050919050565b6000612a52612a4d612a48846124fc565b612a2d565b6124fc565b9050919050565b6000612a6482612a37565b9050919050565b6000612a7682612a59565b9050919050565b612a8681612a6b565b82525050565b6000602082019050612aa16000830184612a7d565b92915050565b60008060408385031215612abe57612abd612342565b5b6000612acc858286016126cc565b9250506020612add8582860161236d565b9150509250929050565b6000602082019050612afc60008301846128a8565b92915050565b600082905092915050565b7f4e487b7100000000000000000000000000000000000000000000000000000000600052604160045260246000fd5b7f4e487b7100000000000000000000000000000000000000000000000000000000600052602260045260246000fd5b60006002820490506001821680612b8357607f821691505b602082108103612b9657612b95612b3c565b5b50919050565b60008190508160005260206000209050919050565b60006020601f8301049050919050565b600082821b905092915050565b600060088302612bfe7fffffffffffffffffffffffffffffffffffffffffffffffffffffffffffffffff82612bc1565b612c088683612bc1565b95508019841693508086168417925050509392505050565b6000612c3b612c36612c31846123af565b612a2d565b6123af565b9050919050565b6000819050919050565b612c5583612c20565b612c69612c6182612c42565b848454612bce565b825550505050565b600090565b612c7e612c71565b612c89818484612c4c565b505050565b5b81811015612cad57612ca2600082612c76565b600181019050612c8f565b5050565b601f821115612cf257612cc381612b9c565b612ccc84612bb1565b81016020851015612cdb578190505b612cef612ce785612bb1565b830182612c8e565b50505b505050565b600082821c905092915050565b6000612d1560001984600802612cf7565b1980831691505092915050565b6000612d2e8383612d04565b9150826002028217905092915050565b612d488383612b02565b67ffffffffffffffff811115612d6157612d60612b0d565b5b612d6b8254612b6b565b612d76828285612cb1565b6000601f831160018114612da55760008415612d93578287013590505b612d9d8582612d22565b865550612e05565b601f198416612db386612b9c565b60005b82811015612ddb57848901358255600182019150602085019450602081019050612db6565b86831015612df85784890135612df4601f891682612d04565b8355505b6001600288020188555050505b50505050505050565b82818337600083830152505050565b6000612e2983856125c8565b9350612e36838584612e0e565b612e3f83612603565b840190509392505050565b60006060820190508181036000830152612e6581888a612e1d565b90508181036020830152612e7a818688612e1d565b90508181036040830152612e8f818486612e1d565b9050979650505050505050565b7f4f72646572206e6f7420666f756e640000000000000000000000000000000000600082015250565b6000612ed2600f836125c8565b9150612edd82612e9c565b602082019050919050565b60006020820190508181036000830152612f0181612ec5565b9050919050565b7f536869706d656e74206e6f7420636f6e6669726d656400000000000000000000600082015250565b6000612f3e6016836125c8565b9150612f4982612f08565b602082019050919050565b60006020820190508181036000830152612f6d81612f31565b9050919050565b7f44656c6976657279206e6f7420636f6e6669726d656400000000000000000000600082015250565b6000612faa6016836125c8565b9150612fb582612f74565b602082019050919050565b60006020820190508181036000830152612fd981612f9d565b9050919050565b7f53656c6c6572206e6f7420736574000000000000000000000000000000000000600082015250565b6000613016600e836125c8565b915061302182612fe0565b602082019050919050565b6000602082019050818103600083015261304581613009565b9050919050565b7f416c726561647920706169640000000000000000000000000000000000000000600082015250565b6000613082600c836125c8565b915061308d8261304c565b602082019050919050565b600060208201905081810360008301526130b181613075565b9050919050565b600081905092915050565b50565b60006130d36000836130b8565b91506130de826130c3565b600082019050919050565b60006130f4826130c6565b9150819050919050565b7f5472616e73666572206661696c65640000000000000000000000000000000000600082015250565b6000613134600f836125c8565b915061313f826130fe565b602082019050919050565b6000602082019050818103600083015261316381613127565b9050919050565b7f4275796572206e6f742076657269666965640000000000000000000000000000600082015250565b60006131a06012836125c8565b91506131ab8261316a565b602082019050919050565b600060208201905081810360008301526131cf81613193565b9050919050565b7f496e76616c696420686173680000000000000000000000000000000000000000600082015250565b600061320c600c836125c8565b9150613217826131d6565b602082019050919050565b6000602082019050818103600083015261323b816131ff565b9050919050565b7f4861736820616c7265616479206e6f746172697a656400000000000000000000600082015250565b60006132786016836125c8565b915061328382613242565b602082019050919050565b600060208201905081810360008301526132a78161326b565b9050919050565b60006080820190506132c360008301876123b9565b6132d060208301866123b9565b6132dd60408301856128b7565b6132ea60608301846123b9565b95945050505050565b7f5175616e74697479206d757374206265203e2030000000000000000000000000600082015250565b60006133296014836125c8565b9150613334826132f3565b602082019050919050565b600060208201905081810360008301526133588161331c565b9050919050565b7f556e6974207072696365206d757374206265203e203000000000000000000000600082015250565b60006133956016836125c8565b91506133a08261335f565b602082019050919050565b600060208201905081810360008301526133c481613388565b9050919050565b7f4e487b7100000000000000000000000000000000000000000000000000000000600052601160045260246000fd5b6000613405826123af565b9150613410836123af565b925082820261341e816123af565b91508282048414831517613435576134346133cb565b5b5092915050565b7f496e636f7272656374207061796d656e7420616d6f756e740000000000000000600082015250565b60006134726018836125c8565b915061347d8261343c565b602082019050919050565b600060208201905081810360008301526134a181613465565b9050919050565b60006134b3826123af565b91506134be836123af565b92508282019050808211156134d6576134d56133cb565b5b92915050565b60006080820190506134f160008301876123b9565b6134fe60208301866123b9565b61350b60408301856123b9565b61351860608301846123b9565b95945050505050565b7f4f6e6c792062757965722063616e207261746500000000000000000000000000600082015250565b60006135576013836125c8565b915061356282613521565b602082019050919050565b600060208201905081810360008301526135868161354a565b9050919050565b7f5061796d656e74206e6f742072656c6561736564207965740000000000000000600082015250565b60006135c36018836125c8565b91506135ce8261358d565b602082019050919050565b600060208201905081810360008301526135f2816135b6565b9050919050565b7f416c726561647920726174656400000000000000000000000000000000000000600082015250565b600061362f600d836125c8565b915061363a826135f9565b602082019050919050565b6000602082019050818103600083015261365e81613622565b9050919050565b61366e81612980565b82525050565b600060a08201905061368960008301896123b9565b61369660208301886128a8565b6136a360408301876128a8565b6136b06060830186613665565b81810360808301526136c3818486612e1d565b9050979650505050505050565b60006020820190506136e56000830184613665565b92915050565b7f4f6e6c792062757965722063616e206e6f746172697a65000000000000000000600082015250565b60006137216017836125c8565b915061372c826136eb565b602082019050919050565b6000602082019050818103600083015261375081613714565b9050919050565b7f496e76616c696420646f63756d656e7420686173680000000000000000000000600082015250565b600061378d6015836125c8565b915061379882613757565b602082019050919050565b600060208201905081810360008301526137bc81613780565b9050919050565b7f416c7265616479206e6f746172697a6564000000000000000000000000000000600082015250565b60006137f96011836125c8565b9150613804826137c3565b602082019050919050565b60006020820190508181036000830152613828816137ec565b9050919050565b600060208201905061384460008301846128b7565b92915050565b7f416c726561647920736869707065640000000000000000000000000000000000600082015250565b6000613880600f836125c8565b915061388b8261384a565b602082019050919050565b600060208201905081810360008301526138af81613873565b9050919050565b7f53656c6c6572206e6f7420766572696669656400000000000000000000000000600082015250565b60006138ec6013836125c8565b91506138f7826138b6565b602082019050919050565b6000602082019050818103600083015261391b816138df565b9050919050565b7f4f6e6c792073656c6c65722063616e20636f6e6669726d000000000000000000600082015250565b60006139586017836125c8565b915061396382613922565b602082019050919050565b600060208201905081810360008301526139878161394b565b9050919050565b7f4f6e6c792062757965722063616e20636f6e6669726d00000000000000000000600082015250565b60006139c46016836125c8565b91506139cf8261398e565b602082019050919050565b600060208201905081810360008301526139f3816139b7565b9050919050565b7f4e6f742073686970706564207965740000000000000000000000000000000000600082015250565b6000613a30600f836125c8565b9150613a3b826139fa565b602082019050919050565b60006020820190508181036000830152613a5f81613a23565b9050919050565b7f416c726561647920636f6e6669726d6564000000000000000000000000000000600082015250565b6000613a9c6011836125c8565b9150613aa782613a66565b602082019050919050565b60006020820190508181036000830152613acb81613a8f565b9050919050565b7f4e616d6520726571756972656400000000000000000000000000000000000000600082015250565b6000613b08600d836125c8565b9150613b1382613ad2565b602082019050919050565b60006020820190508181036000830152613b3781613afb565b9050919050565b7f456d61696c207265717569726564000000000000000000000000000000000000600082015250565b6000613b74600e836125c8565b9150613b7f82613b3e565b602082019050919050565b60006020820190508181036000830152613ba381613b67565b9050919050565b7f50686f6e65207265717569726564000000000000000000000000000000000000600082015250565b6000613be0600e836125c8565b9150613beb82613baa565b602082019050919050565b60006020820190508181036000830152613c0f81613bd3565b905091905056fea2646970667358221220ae959caebde37e2f4a000dd185a8557bbeed7f598f4fd8b0e29fca6d4d6efcf164736f6c63430008130033",
  "immutableReferences": {},
  "source": "// SPDX-License-Identifier: MIT\r\npragma solidity ^0.8.19;\r\n\r\n/*\r\n  EscrowPayment\r\n  - Buyer creates order + deposits ETH into escrow\r\n  - Seller confirms shipment\r\n  - Buyer confirms delivery -> escrow releases ETH to seller\r\n  - After release, buyer can submit rating (stored in SellerReputation)\r\n*/\r\n\r\ninterface ISellerReputation {\r\n    function recordRating(\r\n        uint256 orderId,\r\n        address seller,\r\n        address buyer,\r\n        uint8 stars,\r\n        string calldata comment\r\n    ) external;\r\n}\r\n\r\ncontract EscrowPayment {\r\n    struct UserVerification {\r\n        bool sellerVerified;\r\n        bool buyerVerified;\r\n        string name;\r\n        string email;\r\n        string phone;\r\n    }\r\n\r\n    struct Order {\r\n        address buyer;\r\n        address seller;\r\n        uint256 productId;\r\n        uint256 qty;\r\n        uint256 unitPriceWei;\r\n        uint256 amount;     // ETH in wei\r\n        bool shipped;\r\n        bool delivered;\r\n        bool paidOut;\r\n        bool rated;\r\n        bytes32 proofHash;\r\n        uint256 proofTimestamp;\r\n    }\r\n\r\n    uint256 public nextOrderId;\r\n    mapping(uint256 => Order) public orders;\r\n    mapping(address => uint256[]) private buyerOrders;\r\n    mapping(address => uint256[]) private sellerOrders;\r\n    mapping(address => UserVerification) private verifications;\r\n    mapping(bytes32 => address) public orderHashBuyer;\r\n    mapping(bytes32 => uint256) public orderHashTimestamp;\r\n\r\n    ISellerReputation public reputation;\r\n\r\n    event OrderCreated(\r\n        uint256 indexed orderId,\r\n        address indexed buyer,\r\n        address indexed seller,\r\n        uint256 productId,\r\n        uint256 qty,\r\n        uint256 unitPriceWei,\r\n        uint256 amount\r\n    );\r\n    event ShipmentConfirmed(uint256 indexed orderId, address indexed seller);\r\n    event DeliveryConfirmed(uint256 indexed orderId, address indexed buyer);\r\n    event PaymentReleased(uint256 indexed orderId, address indexed seller, uint256 amount);\r\n    event RatingSubmitted(uint256 indexed orderId, address indexed seller, address indexed buyer, uint8 stars);\r\n    event DocumentNotarized(uint256 indexed orderId, address indexed buyer, bytes32 docHash);\r\n    event PurchaseNotarized(\r\n        address indexed buyer,\r\n        uint256 indexed productId,\r\n        uint256 qty,\r\n        uint256 unitPriceWei,\r\n        bytes32 orderHash,\r\n        uint256 timestamp\r\n    );\r\n    event SellerVerified(address indexed account, string name, string email, string phone);\r\n    event BuyerVerified(address indexed account, string name, string email, string phone);\r\n\r\n    constructor(address reputationContract) {\r\n        require(reputationContract != address(0), \"Invalid reputation address\");\r\n        reputation = ISellerReputation(reputationContract);\r\n    }\r\n\r\n    // --- Verification ---\r\n    function _requireBasicInfo(\r\n        string calldata name,\r\n        string calldata email,\r\n        string calldata phone\r\n    ) internal pure {\r\n        require(bytes(name).length > 0, \"Name required\");\r\n        require(bytes(email).length > 0, \"Email required\");\r\n        require(bytes(phone).length > 0, \"Phone required\");\r\n    }\r\n\r\n    function verifySeller(\r\n        string calldata name,\r\n        string calldata email,\r\n        string calldata phone\r\n    ) external {\r\n        _requireBasicInfo(name, email, phone);\r\n        UserVerification storage info = verifications[msg.sender];\r\n        info.name = name;\r\n        info.email = email;\r\n        info.phone = phone;\r\n        info.sellerVerified = true;\r\n        emit SellerVerified(msg.sender, name, email, phone);\r\n    }\r\n\r\n    function verifyBuyer(\r\n        string calldata name,\r\n        string calldata email,\r\n        string calldata phone\r\n    ) external {\r\n        _requireBasicInfo(name, email, phone);\r\n        UserVerification storage info = verifications[msg.sender];\r\n        info.name = name;\r\n        info.email = email;\r\n        info.phone = phone;\r\n        info.buyerVerified = true;\r\n        emit BuyerVerified(msg.sender, name, email, phone);\r\n    }\r\n\r\n    function isSellerVerified(address account) public view returns (bool) {\r\n        return verifications[account].sellerVerified;\r\n    }\r\n\r\n    function isBuyerVerified(address account) public view returns (bool) {\r\n        return verifications[account].buyerVerified;\r\n    }\r\n\r\n    function getVerification(address account)\r\n        external\r\n        view\r\n        returns (\r\n            bool sellerVerified,\r\n            bool buyerVerified,\r\n            string memory name,\r\n            string memory email,\r\n            string memory phone\r\n        )\r\n    {\r\n        UserVerification memory info = verifications[account];\r\n        return (info.sellerVerified, info.buyerVerified, info.name, info.email, info.phone);\r\n    }\r\n\r\n    // 1) Buyer creates an order and deposits ETH into escrow\r\n    function createOrder(\r\n        uint256 productId,\r\n        uint256 qty,\r\n        uint256 unitPriceWei\r\n    ) external payable returns (uint256 orderId) {\r\n        require(isBuyerVerified(msg.sender), \"Buyer not verified\");\r\n        require(qty > 0, \"Quantity must be > 0\");\r\n        require(unitPriceWei > 0, \"Unit price must be > 0\");\r\n        uint256 expected = qty * unitPriceWei;\r\n        require(msg.value == expected, \"Incorrect payment amount\");\r\n\r\n        orderId = nextOrderId;\r\n        nextOrderId += 1;\r\n\r\n        orders[orderId] = Order({\r\n            buyer: msg.sender,\r\n            seller: address(0),\r\n            productId: productId,\r\n            qty: qty,\r\n            unitPriceWei: unitPriceWei,\r\n            amount: msg.value,\r\n            shipped: false,\r\n            delivered: false,\r\n            paidOut: false,\r\n            rated: false,\r\n            proofHash: bytes32(0),\r\n            proofTimestamp: 0\r\n        });\r\n\r\n        buyerOrders[msg.sender].push(orderId);\r\n\r\n        emit OrderCreated(orderId, msg.sender, address(0), productId, qty, unitPriceWei, msg.value);\r\n    }\r\n\r\n    // 2) Seller confirms shipment\r\n    function confirmShipment(uint256 orderId) external {\r\n        Order storage o = orders[orderId];\r\n        require(o.amount > 0, \"Order not found\");\r\n        require(!o.shipped, \"Already shipped\");\r\n        require(!o.paidOut, \"Already paid\");\r\n        require(isSellerVerified(msg.sender), \"Seller not verified\");\r\n\r\n        if (o.seller == address(0)) {\r\n            o.seller = msg.sender;\r\n            sellerOrders[msg.sender].push(orderId);\r\n        } else {\r\n            require(o.seller == msg.sender, \"Only seller can confirm\");\r\n        }\r\n        o.shipped = true;\r\n        emit ShipmentConfirmed(orderId, msg.sender);\r\n    }\r\n\r\n    // 3) Buyer confirms delivery\r\n    function confirmDelivery(uint256 orderId) external {\r\n        Order storage o = orders[orderId];\r\n        require(o.buyer == msg.sender, \"Only buyer can confirm\");\r\n        require(o.shipped, \"Not shipped yet\");\r\n        require(!o.delivered, \"Already confirmed\");\r\n        require(!o.paidOut, \"Already paid\");\r\n\r\n        o.delivered = true;\r\n        emit DeliveryConfirmed(orderId, msg.sender);\r\n    }\r\n\r\n    // 4) Release payment to seller (can be triggered by buyer or seller after delivery confirmed)\r\n    function releasePayment(uint256 orderId) external {\r\n        Order storage o = orders[orderId];\r\n        require(o.amount > 0, \"Order not found\");\r\n        require(o.shipped, \"Shipment not confirmed\");\r\n        require(o.delivered, \"Delivery not confirmed\");\r\n        require(o.seller != address(0), \"Seller not set\");\r\n        require(!o.paidOut, \"Already paid\");\r\n\r\n        // Checks-effects-interactions\r\n        o.paidOut = true;\r\n        uint256 amt = o.amount;\r\n        o.amount = 0;\r\n\r\n        (bool ok, ) = payable(o.seller).call{value: amt}(\"\");\r\n        require(ok, \"Transfer failed\");\r\n\r\n        emit PaymentReleased(orderId, o.seller, amt);\r\n    }\r\n\r\n    // 5) Buyer submits rating ONLY after payout (this prevents fake reviews)\r\n    function submitRating(uint256 orderId, uint8 stars, string calldata comment) external {\r\n        Order storage o = orders[orderId];\r\n        require(o.buyer == msg.sender, \"Only buyer can rate\");\r\n        require(o.paidOut, \"Payment not released yet\");\r\n        require(!o.rated, \"Already rated\");\r\n\r\n        o.rated = true;\r\n\r\n        reputation.recordRating(orderId, o.seller, o.buyer, stars, comment);\r\n\r\n        emit RatingSubmitted(orderId, o.seller, o.buyer, stars);\r\n    }\r\n\r\n    // 6) Buyer notarizes proof of delivery with a document hash\r\n    function notarizeDelivery(uint256 orderId, bytes32 docHash) external {\r\n        Order storage o = orders[orderId];\r\n        require(o.buyer == msg.sender, \"Only buyer can notarize\");\r\n        require(o.delivered, \"Delivery not confirmed\");\r\n        require(docHash != bytes32(0), \"Invalid document hash\");\r\n        require(o.proofHash == bytes32(0), \"Already notarized\");\r\n\r\n        o.proofHash = docHash;\r\n        o.proofTimestamp = block.timestamp;\r\n        emit DocumentNotarized(orderId, msg.sender, docHash);\r\n    }\r\n\r\n    // 7) Buyer notarizes a purchase receipt hash (proof of purchase)\r\n    function notarizePurchase(\r\n        bytes32 orderHash,\r\n        uint256 productId,\r\n        uint256 qty,\r\n        uint256 unitPriceWei\r\n    ) external {\r\n        require(isBuyerVerified(msg.sender), \"Buyer not verified\");\r\n        require(orderHash != bytes32(0), \"Invalid hash\");\r\n        require(orderHashBuyer[orderHash] == address(0), \"Hash already notarized\");\r\n        orderHashBuyer[orderHash] = msg.sender;\r\n        orderHashTimestamp[orderHash] = block.timestamp;\r\n        emit PurchaseNotarized(msg.sender, productId, qty, unitPriceWei, orderHash, block.timestamp);\r\n    }\r\n\r\n    // Helper: view order basic status\r\n    function getOrder(uint256 orderId)\r\n        external\r\n        view\r\n        returns (\r\n            address buyer,\r\n            address seller,\r\n            uint256 productId,\r\n            uint256 qty,\r\n            uint256 unitPriceWei,\r\n            uint256 amountWei,\r\n            bool shipped,\r\n            bool delivered,\r\n            bool paidOut,\r\n            bool rated,\r\n            bytes32 proofHash,\r\n            uint256 proofTimestamp\r\n        )\r\n    {\r\n        Order memory o = orders[orderId];\r\n        return (\r\n            o.buyer,\r\n            o.seller,\r\n            o.productId,\r\n            o.qty,\r\n            o.unitPriceWei,\r\n            o.amount,\r\n            o.shipped,\r\n            o.delivered,\r\n            o.paidOut,\r\n            o.rated,\r\n            o.proofHash,\r\n            o.proofTimestamp\r\n        );\r\n    }\r\n\r\n    function getBuyerOrders(address buyer) external view returns (uint256[] memory) {\r\n        return buyerOrders[buyer];\r\n    }\r\n\r\n    function getSellerOrders(address seller) external view returns (uint256[] memory) {\r\n        return sellerOrders[seller];\r\n    }\r\n}\r\n",
  "sourcePath": "C:\\Users\\24009059\\OneDrive - Republic Polytechnic\\Desktop\\C373FA_C004_T2_24009059_RaphaelaLee\\C373_Team-2_FA\\contracts\\EscrowPayment.sol",
  "compiler": {
    "name": "solc",
    "version": "0.8.19+commit.7dd6d404.Emscripten.clang"
  },
  "schemaVersion": "3.4.16",
  "updatedAt": "2026-01-28T07:41:17.783Z",
  "networkType": "ethereum",
  "devdoc": {
    "kind": "dev",
    "methods": {},
    "version": 1
  },
  "userdoc": {
    "kind": "user",
    "methods": {},
    "version": 1
  }
}