{
  "contractName": "EscrowPayment",
  "abi": [
    {
      "inputs": [
        {
          "internalType": "address",
          "name": "reputationContract",
          "type": "address"
        }
      ],
      "stateMutability": "nonpayable",
      "type": "constructor"
    },
    {
      "anonymous": false,
      "inputs": [
        {
          "indexed": true,
          "internalType": "uint256",
          "name": "orderId",
          "type": "uint256"
        },
        {
          "indexed": true,
          "internalType": "address",
          "name": "buyer",
          "type": "address"
        }
      ],
      "name": "DeliveryConfirmed",
      "type": "event"
    },
    {
      "anonymous": false,
      "inputs": [
        {
          "indexed": true,
          "internalType": "uint256",
          "name": "orderId",
          "type": "uint256"
        },
        {
          "indexed": true,
          "internalType": "address",
          "name": "buyer",
          "type": "address"
        },
        {
          "indexed": true,
          "internalType": "address",
          "name": "seller",
          "type": "address"
        },
        {
          "indexed": false,
          "internalType": "uint256",
          "name": "productId",
          "type": "uint256"
        },
        {
          "indexed": false,
          "internalType": "uint256",
          "name": "qty",
          "type": "uint256"
        },
        {
          "indexed": false,
          "internalType": "uint256",
          "name": "unitPriceWei",
          "type": "uint256"
        },
        {
          "indexed": false,
          "internalType": "uint256",
          "name": "amount",
          "type": "uint256"
        }
      ],
      "name": "OrderCreated",
      "type": "event"
    },
    {
      "anonymous": false,
      "inputs": [
        {
          "indexed": true,
          "internalType": "uint256",
          "name": "orderId",
          "type": "uint256"
        },
        {
          "indexed": true,
          "internalType": "address",
          "name": "seller",
          "type": "address"
        },
        {
          "indexed": false,
          "internalType": "uint256",
          "name": "amount",
          "type": "uint256"
        }
      ],
      "name": "PaymentReleased",
      "type": "event"
    },
    {
      "anonymous": false,
      "inputs": [
        {
          "indexed": true,
          "internalType": "uint256",
          "name": "orderId",
          "type": "uint256"
        },
        {
          "indexed": true,
          "internalType": "address",
          "name": "seller",
          "type": "address"
        },
        {
          "indexed": true,
          "internalType": "address",
          "name": "buyer",
          "type": "address"
        },
        {
          "indexed": false,
          "internalType": "uint8",
          "name": "stars",
          "type": "uint8"
        }
      ],
      "name": "RatingSubmitted",
      "type": "event"
    },
    {
      "anonymous": false,
      "inputs": [
        {
          "indexed": true,
          "internalType": "uint256",
          "name": "orderId",
          "type": "uint256"
        },
        {
          "indexed": true,
          "internalType": "address",
          "name": "seller",
          "type": "address"
        }
      ],
      "name": "ShipmentConfirmed",
      "type": "event"
    },
    {
      "inputs": [],
      "name": "nextOrderId",
      "outputs": [
        {
          "internalType": "uint256",
          "name": "",
          "type": "uint256"
        }
      ],
      "stateMutability": "view",
      "type": "function",
      "constant": true
    },
    {
      "inputs": [
        {
          "internalType": "uint256",
          "name": "",
          "type": "uint256"
        }
      ],
      "name": "orders",
      "outputs": [
        {
          "internalType": "address",
          "name": "buyer",
          "type": "address"
        },
        {
          "internalType": "address",
          "name": "seller",
          "type": "address"
        },
        {
          "internalType": "uint256",
          "name": "productId",
          "type": "uint256"
        },
        {
          "internalType": "uint256",
          "name": "qty",
          "type": "uint256"
        },
        {
          "internalType": "uint256",
          "name": "unitPriceWei",
          "type": "uint256"
        },
        {
          "internalType": "uint256",
          "name": "amount",
          "type": "uint256"
        },
        {
          "internalType": "bool",
          "name": "shipped",
          "type": "bool"
        },
        {
          "internalType": "bool",
          "name": "delivered",
          "type": "bool"
        },
        {
          "internalType": "bool",
          "name": "paidOut",
          "type": "bool"
        },
        {
          "internalType": "bool",
          "name": "rated",
          "type": "bool"
        }
      ],
      "stateMutability": "view",
      "type": "function",
      "constant": true
    },
    {
      "inputs": [],
      "name": "reputation",
      "outputs": [
        {
          "internalType": "contract ISellerReputation",
          "name": "",
          "type": "address"
        }
      ],
      "stateMutability": "view",
      "type": "function",
      "constant": true
    },
    {
      "inputs": [
        {
          "internalType": "address",
          "name": "seller",
          "type": "address"
        },
        {
          "internalType": "uint256",
          "name": "productId",
          "type": "uint256"
        },
        {
          "internalType": "uint256",
          "name": "qty",
          "type": "uint256"
        },
        {
          "internalType": "uint256",
          "name": "unitPriceWei",
          "type": "uint256"
        }
      ],
      "name": "createOrder",
      "outputs": [
        {
          "internalType": "uint256",
          "name": "orderId",
          "type": "uint256"
        }
      ],
      "stateMutability": "payable",
      "type": "function",
      "payable": true
    },
    {
      "inputs": [
        {
          "internalType": "uint256",
          "name": "orderId",
          "type": "uint256"
        }
      ],
      "name": "confirmShipment",
      "outputs": [],
      "stateMutability": "nonpayable",
      "type": "function"
    },
    {
      "inputs": [
        {
          "internalType": "uint256",
          "name": "orderId",
          "type": "uint256"
        }
      ],
      "name": "confirmDelivery",
      "outputs": [],
      "stateMutability": "nonpayable",
      "type": "function"
    },
    {
      "inputs": [
        {
          "internalType": "uint256",
          "name": "orderId",
          "type": "uint256"
        }
      ],
      "name": "releasePayment",
      "outputs": [],
      "stateMutability": "nonpayable",
      "type": "function"
    },
    {
      "inputs": [
        {
          "internalType": "uint256",
          "name": "orderId",
          "type": "uint256"
        },
        {
          "internalType": "uint8",
          "name": "stars",
          "type": "uint8"
        },
        {
          "internalType": "string",
          "name": "comment",
          "type": "string"
        }
      ],
      "name": "submitRating",
      "outputs": [],
      "stateMutability": "nonpayable",
      "type": "function"
    },
    {
      "inputs": [
        {
          "internalType": "uint256",
          "name": "orderId",
          "type": "uint256"
        }
      ],
      "name": "getOrder",
      "outputs": [
        {
          "internalType": "address",
          "name": "buyer",
          "type": "address"
        },
        {
          "internalType": "address",
          "name": "seller",
          "type": "address"
        },
        {
          "internalType": "uint256",
          "name": "productId",
          "type": "uint256"
        },
        {
          "internalType": "uint256",
          "name": "qty",
          "type": "uint256"
        },
        {
          "internalType": "uint256",
          "name": "unitPriceWei",
          "type": "uint256"
        },
        {
          "internalType": "uint256",
          "name": "amountWei",
          "type": "uint256"
        },
        {
          "internalType": "bool",
          "name": "shipped",
          "type": "bool"
        },
        {
          "internalType": "bool",
          "name": "delivered",
          "type": "bool"
        },
        {
          "internalType": "bool",
          "name": "paidOut",
          "type": "bool"
        },
        {
          "internalType": "bool",
          "name": "rated",
          "type": "bool"
        }
      ],
      "stateMutability": "view",
      "type": "function",
      "constant": true
    },
    {
      "inputs": [
        {
          "internalType": "address",
          "name": "buyer",
          "type": "address"
        }
      ],
      "name": "getBuyerOrders",
      "outputs": [
        {
          "internalType": "uint256[]",
          "name": "",
          "type": "uint256[]"
        }
      ],
      "stateMutability": "view",
      "type": "function",
      "constant": true
    },
    {
      "inputs": [
        {
          "internalType": "address",
          "name": "seller",
          "type": "address"
        }
      ],
      "name": "getSellerOrders",
      "outputs": [
        {
          "internalType": "uint256[]",
          "name": "",
          "type": "uint256[]"
        }
      ],
      "stateMutability": "view",
      "type": "function",
      "constant": true
    }
  ],
  "bytecode": "0x60806040523480156200001157600080fd5b50604051620025433803806200254383398181016040528101906200003791906200015b565b600073ffffffffffffffffffffffffffffffffffffffff168173ffffffffffffffffffffffffffffffffffffffff1603620000a9576040517f08c379a0000000000000000000000000000000000000000000000000000000008152600401620000a090620001ee565b60405180910390fd5b80600460006101000a81548173ffffffffffffffffffffffffffffffffffffffff021916908373ffffffffffffffffffffffffffffffffffffffff1602179055505062000210565b600080fd5b600073ffffffffffffffffffffffffffffffffffffffff82169050919050565b60006200012382620000f6565b9050919050565b620001358162000116565b81146200014157600080fd5b50565b60008151905062000155816200012a565b92915050565b600060208284031215620001745762000173620000f1565b5b6000620001848482850162000144565b91505092915050565b600082825260208201905092915050565b7f496e76616c69642072657075746174696f6e2061646472657373000000000000600082015250565b6000620001d6601a836200018d565b9150620001e3826200019e565b602082019050919050565b600060208201905081810360008301526200020981620001c7565b9050919050565b61232380620002206000396000f3fe60806040526004361061009c5760003560e01c8063af648e1211610064578063af648e12146101a8578063c52164c6146101d1578063d09ef241146101fc578063e0cb8e5f14610242578063e4cbac401461026b578063fd84cb97146102a85761009c565b80632a58b330146100a15780636f652e1a146100cc57806388685cd9146100fc578063a45f2ebc14610125578063a85c38ef14610162575b600080fd5b3480156100ad57600080fd5b506100b66102d1565b6040516100c3919061150b565b60405180910390f35b6100e660048036038101906100e191906115ba565b6102d7565b6040516100f3919061150b565b60405180910390f35b34801561010857600080fd5b50610123600480360381019061011e9190611621565b61074a565b005b34801561013157600080fd5b5061014c6004803603810190610147919061164e565b610a15565b6040516101599190611739565b60405180910390f35b34801561016e57600080fd5b5061018960048036038101906101849190611621565b610aac565b60405161019f9a99989796959493929190611785565b60405180910390f35b3480156101b457600080fd5b506101cf60048036038101906101ca91906118bf565b610b74565b005b3480156101dd57600080fd5b506101e6610e71565b6040516101f39190611992565b60405180910390f35b34801561020857600080fd5b50610223600480360381019061021e9190611621565b610e97565b6040516102399a99989796959493929190611785565b60405180910390f35b34801561024e57600080fd5b5061026960048036038101906102649190611621565b61105f565b005b34801561027757600080fd5b50610292600480360381019061028d919061164e565b611258565b60405161029f9190611739565b60405180910390f35b3480156102b457600080fd5b506102cf60048036038101906102ca9190611621565b6112ef565b005b60005481565b60008073ffffffffffffffffffffffffffffffffffffffff168573ffffffffffffffffffffffffffffffffffffffff1603610347576040517f08c379a000000000000000000000000000000000000000000000000000000000815260040161033e90611a0a565b60405180910390fd5b6000831161038a576040517f08c379a000000000000000000000000000000000000000000000000000000000815260040161038190611a76565b60405180910390fd5b600082116103cd576040517f08c379a00000000000000000000000000000000000000000000000000000000081526004016103c490611ae2565b60405180910390fd5b600082846103db9190611b31565b905080341461041f576040517f08c379a000000000000000000000000000000000000000000000000000000000815260040161041690611bbf565b60405180910390fd5b600054915060016000808282546104369190611bdf565b925050819055506040518061014001604052803373ffffffffffffffffffffffffffffffffffffffff1681526020018773ffffffffffffffffffffffffffffffffffffffff168152602001868152602001858152602001848152602001348152602001600015158152602001600015158152602001600015158152602001600015158152506001600084815260200190815260200160002060008201518160000160006101000a81548173ffffffffffffffffffffffffffffffffffffffff021916908373ffffffffffffffffffffffffffffffffffffffff16021790555060208201518160010160006101000a81548173ffffffffffffffffffffffffffffffffffffffff021916908373ffffffffffffffffffffffffffffffffffffffff16021790555060408201518160020155606082015181600301556080820151816004015560a0820151816005015560c08201518160060160006101000a81548160ff02191690831515021790555060e08201518160060160016101000a81548160ff0219169083151502179055506101008201518160060160026101000a81548160ff0219169083151502179055506101208201518160060160036101000a81548160ff021916908315150217905550905050600260003373ffffffffffffffffffffffffffffffffffffffff1673ffffffffffffffffffffffffffffffffffffffff168152602001908152602001600020829080600181540180825580915050600190039060005260206000200160009091909190915055600360008773ffffffffffffffffffffffffffffffffffffffff1673ffffffffffffffffffffffffffffffffffffffff1681526020019081526020016000208290806001815401808255809150506001900390600052602060002001600090919091909150558573ffffffffffffffffffffffffffffffffffffffff163373ffffffffffffffffffffffffffffffffffffffff16837f97731a95ce5dd1802ada2af380a14fd8e47563e47aa4335a4a418317176eb8ed888888346040516107399493929190611c13565b60405180910390a450949350505050565b600060016000838152602001908152602001600020905060008160050154116107a8576040517f08c379a000000000000000000000000000000000000000000000000000000000815260040161079f90611ca4565b60405180910390fd5b8060060160009054906101000a900460ff166107f9576040517f08c379a00000000000000000000000000000000000000000000000000000000081526004016107f090611d10565b60405180910390fd5b8060060160019054906101000a900460ff1661084a576040517f08c379a000000000000000000000000000000000000000000000000000000000815260040161084190611d7c565b60405180910390fd5b8060060160029054906101000a900460ff161561089c576040517f08c379a000000000000000000000000000000000000000000000000000000000815260040161089390611de8565b60405180910390fd5b60018160060160026101000a81548160ff0219169083151502179055506000816005015490506000826005018190555060008260010160009054906101000a900473ffffffffffffffffffffffffffffffffffffffff1673ffffffffffffffffffffffffffffffffffffffff168260405161091690611e39565b60006040518083038185875af1925050503d8060008114610953576040519150601f19603f3d011682016040523d82523d6000602084013e610958565b606091505b505090508061099c576040517f08c379a000000000000000000000000000000000000000000000000000000000815260040161099390611e9a565b60405180910390fd5b8260010160009054906101000a900473ffffffffffffffffffffffffffffffffffffffff1673ffffffffffffffffffffffffffffffffffffffff16847f21d71db5be59bb9fa133895586b7404307dd33fb93b16db09dc6f1d9d7d231b084604051610a07919061150b565b60405180910390a350505050565b6060600260008373ffffffffffffffffffffffffffffffffffffffff1673ffffffffffffffffffffffffffffffffffffffff168152602001908152602001600020805480602002602001604051908101604052809291908181526020018280548015610aa057602002820191906000526020600020905b815481526020019060010190808311610a8c575b50505050509050919050565b60016020528060005260406000206000915090508060000160009054906101000a900473ffffffffffffffffffffffffffffffffffffffff16908060010160009054906101000a900473ffffffffffffffffffffffffffffffffffffffff16908060020154908060030154908060040154908060050154908060060160009054906101000a900460ff16908060060160019054906101000a900460ff16908060060160029054906101000a900460ff16908060060160039054906101000a900460ff1690508a565b60006001600086815260200190815260200160002090503373ffffffffffffffffffffffffffffffffffffffff168160000160009054906101000a900473ffffffffffffffffffffffffffffffffffffffff1673ffffffffffffffffffffffffffffffffffffffff1614610c1d576040517f08c379a0000000000000000000000000000000000000000000000000000000008152600401610c1490611f06565b60405180910390fd5b8060060160029054906101000a900460ff16610c6e576040517f08c379a0000000000000000000000000000000000000000000000000000000008152600401610c6590611f72565b60405180910390fd5b8060060160039054906101000a900460ff1615610cc0576040517f08c379a0000000000000000000000000000000000000000000000000000000008152600401610cb790611fde565b60405180910390fd5b60018160060160036101000a81548160ff021916908315150217905550600460009054906101000a900473ffffffffffffffffffffffffffffffffffffffff1673ffffffffffffffffffffffffffffffffffffffff166310ceba4b868360010160009054906101000a900473ffffffffffffffffffffffffffffffffffffffff168460000160009054906101000a900473ffffffffffffffffffffffffffffffffffffffff168888886040518763ffffffff1660e01b8152600401610d8a9695949392919061205a565b600060405180830381600087803b158015610da457600080fd5b505af1158015610db8573d6000803e3d6000fd5b505050508060000160009054906101000a900473ffffffffffffffffffffffffffffffffffffffff1673ffffffffffffffffffffffffffffffffffffffff168160010160009054906101000a900473ffffffffffffffffffffffffffffffffffffffff1673ffffffffffffffffffffffffffffffffffffffff16867f1c77a158686639c60e48e2f63ec680c6dfd55fdebf1a1d34b6ad59eee1f2861087604051610e6291906120b6565b60405180910390a45050505050565b600460009054906101000a900473ffffffffffffffffffffffffffffffffffffffff1681565b6000806000806000806000806000806000600160008d8152602001908152602001600020604051806101400160405290816000820160009054906101000a900473ffffffffffffffffffffffffffffffffffffffff1673ffffffffffffffffffffffffffffffffffffffff1673ffffffffffffffffffffffffffffffffffffffff1681526020016001820160009054906101000a900473ffffffffffffffffffffffffffffffffffffffff1673ffffffffffffffffffffffffffffffffffffffff1673ffffffffffffffffffffffffffffffffffffffff168152602001600282015481526020016003820154815260200160048201548152602001600582015481526020016006820160009054906101000a900460ff161515151581526020016006820160019054906101000a900460ff161515151581526020016006820160029054906101000a900460ff161515151581526020016006820160039054906101000a900460ff1615151515815250509050806000015181602001518260400151836060015184608001518560a001518660c001518760e001518861010001518961012001519a509a509a509a509a509a509a509a509a509a50509193959799509193959799565b60006001600083815260200190815260200160002090503373ffffffffffffffffffffffffffffffffffffffff168160010160009054906101000a900473ffffffffffffffffffffffffffffffffffffffff1673ffffffffffffffffffffffffffffffffffffffff1614611108576040517f08c379a00000000000000000000000000000000000000000000000000000000081526004016110ff9061211d565b60405180910390fd5b600081600501541161114f576040517f08c379a000000000000000000000000000000000000000000000000000000000815260040161114690611ca4565b60405180910390fd5b8060060160009054906101000a900460ff16156111a1576040517f08c379a000000000000000000000000000000000000000000000000000000000815260040161119890612189565b60405180910390fd5b8060060160029054906101000a900460ff16156111f3576040517f08c379a00000000000000000000000000000000000000000000000000000000081526004016111ea90611de8565b60405180910390fd5b60018160060160006101000a81548160ff0219169083151502179055503373ffffffffffffffffffffffffffffffffffffffff16827f682c8a4fab89a425b973af64172cc6363b99285e49c35b15f3ed2601e454151d60405160405180910390a35050565b6060600360008373ffffffffffffffffffffffffffffffffffffffff1673ffffffffffffffffffffffffffffffffffffffff1681526020019081526020016000208054806020026020016040519081016040528092919081815260200182805480156112e357602002820191906000526020600020905b8154815260200190600101908083116112cf575b50505050509050919050565b60006001600083815260200190815260200160002090503373ffffffffffffffffffffffffffffffffffffffff168160000160009054906101000a900473ffffffffffffffffffffffffffffffffffffffff1673ffffffffffffffffffffffffffffffffffffffff1614611398576040517f08c379a000000000000000000000000000000000000000000000000000000000815260040161138f906121f5565b60405180910390fd5b8060060160009054906101000a900460ff166113e9576040517f08c379a00000000000000000000000000000000000000000000000000000000081526004016113e090612261565b60405180910390fd5b8060060160019054906101000a900460ff161561143b576040517f08c379a0000000000000000000000000000000000000000000000000000000008152600401611432906122cd565b60405180910390fd5b8060060160029054906101000a900460ff161561148d576040517f08c379a000000000000000000000000000000000000000000000000000000000815260040161148490611de8565b60405180910390fd5b60018160060160016101000a81548160ff0219169083151502179055503373ffffffffffffffffffffffffffffffffffffffff16827f64a783c6150854ae756454311c7625a965c757996ba8cc1a8c6205380f33725060405160405180910390a35050565b6000819050919050565b611505816114f2565b82525050565b600060208201905061152060008301846114fc565b92915050565b600080fd5b600080fd5b600073ffffffffffffffffffffffffffffffffffffffff82169050919050565b600061155b82611530565b9050919050565b61156b81611550565b811461157657600080fd5b50565b60008135905061158881611562565b92915050565b611597816114f2565b81146115a257600080fd5b50565b6000813590506115b48161158e565b92915050565b600080600080608085870312156115d4576115d3611526565b5b60006115e287828801611579565b94505060206115f3878288016115a5565b9350506040611604878288016115a5565b9250506060611615878288016115a5565b91505092959194509250565b60006020828403121561163757611636611526565b5b6000611645848285016115a5565b91505092915050565b60006020828403121561166457611663611526565b5b600061167284828501611579565b91505092915050565b600081519050919050565b600082825260208201905092915050565b6000819050602082019050919050565b6116b0816114f2565b82525050565b60006116c283836116a7565b60208301905092915050565b6000602082019050919050565b60006116e68261167b565b6116f08185611686565b93506116fb83611697565b8060005b8381101561172c57815161171388826116b6565b975061171e836116ce565b9250506001810190506116ff565b5085935050505092915050565b6000602082019050818103600083015261175381846116db565b905092915050565b61176481611550565b82525050565b60008115159050919050565b61177f8161176a565b82525050565b60006101408201905061179b600083018d61175b565b6117a8602083018c61175b565b6117b5604083018b6114fc565b6117c2606083018a6114fc565b6117cf60808301896114fc565b6117dc60a08301886114fc565b6117e960c0830187611776565b6117f660e0830186611776565b611804610100830185611776565b611812610120830184611776565b9b9a5050505050505050505050565b600060ff82169050919050565b61183781611821565b811461184257600080fd5b50565b6000813590506118548161182e565b92915050565b600080fd5b600080fd5b600080fd5b60008083601f84011261187f5761187e61185a565b5b8235905067ffffffffffffffff81111561189c5761189b61185f565b5b6020830191508360018202830111156118b8576118b7611864565b5b9250929050565b600080600080606085870312156118d9576118d8611526565b5b60006118e7878288016115a5565b94505060206118f887828801611845565b935050604085013567ffffffffffffffff8111156119195761191861152b565b5b61192587828801611869565b925092505092959194509250565b6000819050919050565b600061195861195361194e84611530565b611933565b611530565b9050919050565b600061196a8261193d565b9050919050565b600061197c8261195f565b9050919050565b61198c81611971565b82525050565b60006020820190506119a76000830184611983565b92915050565b600082825260208201905092915050565b7f496e76616c69642073656c6c6572000000000000000000000000000000000000600082015250565b60006119f4600e836119ad565b91506119ff826119be565b602082019050919050565b60006020820190508181036000830152611a23816119e7565b9050919050565b7f5175616e74697479206d757374206265203e2030000000000000000000000000600082015250565b6000611a606014836119ad565b9150611a6b82611a2a565b602082019050919050565b60006020820190508181036000830152611a8f81611a53565b9050919050565b7f556e6974207072696365206d757374206265203e203000000000000000000000600082015250565b6000611acc6016836119ad565b9150611ad782611a96565b602082019050919050565b60006020820190508181036000830152611afb81611abf565b9050919050565b7f4e487b7100000000000000000000000000000000000000000000000000000000600052601160045260246000fd5b6000611b3c826114f2565b9150611b47836114f2565b9250828202611b55816114f2565b91508282048414831517611b6c57611b6b611b02565b5b5092915050565b7f496e636f7272656374207061796d656e7420616d6f756e740000000000000000600082015250565b6000611ba96018836119ad565b9150611bb482611b73565b602082019050919050565b60006020820190508181036000830152611bd881611b9c565b9050919050565b6000611bea826114f2565b9150611bf5836114f2565b9250828201905080821115611c0d57611c0c611b02565b5b92915050565b6000608082019050611c2860008301876114fc565b611c3560208301866114fc565b611c4260408301856114fc565b611c4f60608301846114fc565b95945050505050565b7f4f72646572206e6f7420666f756e640000000000000000000000000000000000600082015250565b6000611c8e600f836119ad565b9150611c9982611c58565b602082019050919050565b60006020820190508181036000830152611cbd81611c81565b9050919050565b7f536869706d656e74206e6f7420636f6e6669726d656400000000000000000000600082015250565b6000611cfa6016836119ad565b9150611d0582611cc4565b602082019050919050565b60006020820190508181036000830152611d2981611ced565b9050919050565b7f44656c6976657279206e6f7420636f6e6669726d656400000000000000000000600082015250565b6000611d666016836119ad565b9150611d7182611d30565b602082019050919050565b60006020820190508181036000830152611d9581611d59565b9050919050565b7f416c726561647920706169640000000000000000000000000000000000000000600082015250565b6000611dd2600c836119ad565b9150611ddd82611d9c565b602082019050919050565b60006020820190508181036000830152611e0181611dc5565b9050919050565b600081905092915050565b50565b6000611e23600083611e08565b9150611e2e82611e13565b600082019050919050565b6000611e4482611e16565b9150819050919050565b7f5472616e73666572206661696c65640000000000000000000000000000000000600082015250565b6000611e84600f836119ad565b9150611e8f82611e4e565b602082019050919050565b60006020820190508181036000830152611eb381611e77565b9050919050565b7f4f6e6c792062757965722063616e207261746500000000000000000000000000600082015250565b6000611ef06013836119ad565b9150611efb82611eba565b602082019050919050565b60006020820190508181036000830152611f1f81611ee3565b9050919050565b7f5061796d656e74206e6f742072656c6561736564207965740000000000000000600082015250565b6000611f5c6018836119ad565b9150611f6782611f26565b602082019050919050565b60006020820190508181036000830152611f8b81611f4f565b9050919050565b7f416c726561647920726174656400000000000000000000000000000000000000600082015250565b6000611fc8600d836119ad565b9150611fd382611f92565b602082019050919050565b60006020820190508181036000830152611ff781611fbb565b9050919050565b61200781611821565b82525050565b82818337600083830152505050565b6000601f19601f8301169050919050565b600061203983856119ad565b935061204683858461200d565b61204f8361201c565b840190509392505050565b600060a08201905061206f60008301896114fc565b61207c602083018861175b565b612089604083018761175b565b6120966060830186611ffe565b81810360808301526120a981848661202d565b9050979650505050505050565b60006020820190506120cb6000830184611ffe565b92915050565b7f4f6e6c792073656c6c65722063616e20636f6e6669726d000000000000000000600082015250565b60006121076017836119ad565b9150612112826120d1565b602082019050919050565b60006020820190508181036000830152612136816120fa565b9050919050565b7f416c726561647920736869707065640000000000000000000000000000000000600082015250565b6000612173600f836119ad565b915061217e8261213d565b602082019050919050565b600060208201905081810360008301526121a281612166565b9050919050565b7f4f6e6c792062757965722063616e20636f6e6669726d00000000000000000000600082015250565b60006121df6016836119ad565b91506121ea826121a9565b602082019050919050565b6000602082019050818103600083015261220e816121d2565b9050919050565b7f4e6f742073686970706564207965740000000000000000000000000000000000600082015250565b600061224b600f836119ad565b915061225682612215565b602082019050919050565b6000602082019050818103600083015261227a8161223e565b9050919050565b7f416c726561647920636f6e6669726d6564000000000000000000000000000000600082015250565b60006122b76011836119ad565b91506122c282612281565b602082019050919050565b600060208201905081810360008301526122e6816122aa565b905091905056fea26469706673582212202fb5e6d72b359c1cfddbfa29887ed3a2b3b8872f7adba08d276ebaab1c9d396564736f6c63430008130033",
  "immutableReferences": {},
  "source": "// SPDX-License-Identifier: MIT\r\npragma solidity ^0.8.19;\r\n\r\n/*\r\n  EscrowPayment\r\n  - Buyer creates order + deposits ETH into escrow\r\n  - Seller confirms shipment\r\n  - Buyer confirms delivery -> escrow releases ETH to seller\r\n  - After release, buyer can submit rating (stored in SellerReputation)\r\n*/\r\n\r\ninterface ISellerReputation {\r\n    function recordRating(\r\n        uint256 orderId,\r\n        address seller,\r\n        address buyer,\r\n        uint8 stars,\r\n        string calldata comment\r\n    ) external;\r\n}\r\n\r\ncontract EscrowPayment {\r\n    struct Order {\r\n        address buyer;\r\n        address seller;\r\n        uint256 productId;\r\n        uint256 qty;\r\n        uint256 unitPriceWei;\r\n        uint256 amount;     // ETH in wei\r\n        bool shipped;\r\n        bool delivered;\r\n        bool paidOut;\r\n        bool rated;\r\n    }\r\n\r\n    uint256 public nextOrderId;\r\n    mapping(uint256 => Order) public orders;\r\n    mapping(address => uint256[]) private buyerOrders;\r\n    mapping(address => uint256[]) private sellerOrders;\r\n\r\n    ISellerReputation public reputation;\r\n\r\n    event OrderCreated(\r\n        uint256 indexed orderId,\r\n        address indexed buyer,\r\n        address indexed seller,\r\n        uint256 productId,\r\n        uint256 qty,\r\n        uint256 unitPriceWei,\r\n        uint256 amount\r\n    );\r\n    event ShipmentConfirmed(uint256 indexed orderId, address indexed seller);\r\n    event DeliveryConfirmed(uint256 indexed orderId, address indexed buyer);\r\n    event PaymentReleased(uint256 indexed orderId, address indexed seller, uint256 amount);\r\n    event RatingSubmitted(uint256 indexed orderId, address indexed seller, address indexed buyer, uint8 stars);\r\n\r\n    constructor(address reputationContract) {\r\n        require(reputationContract != address(0), \"Invalid reputation address\");\r\n        reputation = ISellerReputation(reputationContract);\r\n    }\r\n\r\n    // 1) Buyer creates an order and deposits ETH into escrow\r\n    function createOrder(\r\n        address seller,\r\n        uint256 productId,\r\n        uint256 qty,\r\n        uint256 unitPriceWei\r\n    ) external payable returns (uint256 orderId) {\r\n        require(seller != address(0), \"Invalid seller\");\r\n        require(qty > 0, \"Quantity must be > 0\");\r\n        require(unitPriceWei > 0, \"Unit price must be > 0\");\r\n        uint256 expected = qty * unitPriceWei;\r\n        require(msg.value == expected, \"Incorrect payment amount\");\r\n\r\n        orderId = nextOrderId;\r\n        nextOrderId += 1;\r\n\r\n        orders[orderId] = Order({\r\n            buyer: msg.sender,\r\n            seller: seller,\r\n            productId: productId,\r\n            qty: qty,\r\n            unitPriceWei: unitPriceWei,\r\n            amount: msg.value,\r\n            shipped: false,\r\n            delivered: false,\r\n            paidOut: false,\r\n            rated: false\r\n        });\r\n\r\n        buyerOrders[msg.sender].push(orderId);\r\n        sellerOrders[seller].push(orderId);\r\n\r\n        emit OrderCreated(orderId, msg.sender, seller, productId, qty, unitPriceWei, msg.value);\r\n    }\r\n\r\n    // 2) Seller confirms shipment\r\n    function confirmShipment(uint256 orderId) external {\r\n        Order storage o = orders[orderId];\r\n        require(o.seller == msg.sender, \"Only seller can confirm\");\r\n        require(o.amount > 0, \"Order not found\");\r\n        require(!o.shipped, \"Already shipped\");\r\n        require(!o.paidOut, \"Already paid\");\r\n\r\n        o.shipped = true;\r\n        emit ShipmentConfirmed(orderId, msg.sender);\r\n    }\r\n\r\n    // 3) Buyer confirms delivery\r\n    function confirmDelivery(uint256 orderId) external {\r\n        Order storage o = orders[orderId];\r\n        require(o.buyer == msg.sender, \"Only buyer can confirm\");\r\n        require(o.shipped, \"Not shipped yet\");\r\n        require(!o.delivered, \"Already confirmed\");\r\n        require(!o.paidOut, \"Already paid\");\r\n\r\n        o.delivered = true;\r\n        emit DeliveryConfirmed(orderId, msg.sender);\r\n    }\r\n\r\n    // 4) Release payment to seller (can be triggered by buyer or seller after delivery confirmed)\r\n    function releasePayment(uint256 orderId) external {\r\n        Order storage o = orders[orderId];\r\n        require(o.amount > 0, \"Order not found\");\r\n        require(o.shipped, \"Shipment not confirmed\");\r\n        require(o.delivered, \"Delivery not confirmed\");\r\n        require(!o.paidOut, \"Already paid\");\r\n\r\n        // Checks-effects-interactions\r\n        o.paidOut = true;\r\n        uint256 amt = o.amount;\r\n        o.amount = 0;\r\n\r\n        (bool ok, ) = payable(o.seller).call{value: amt}(\"\");\r\n        require(ok, \"Transfer failed\");\r\n\r\n        emit PaymentReleased(orderId, o.seller, amt);\r\n    }\r\n\r\n    // 5) Buyer submits rating ONLY after payout (this prevents fake reviews)\r\n    function submitRating(uint256 orderId, uint8 stars, string calldata comment) external {\r\n        Order storage o = orders[orderId];\r\n        require(o.buyer == msg.sender, \"Only buyer can rate\");\r\n        require(o.paidOut, \"Payment not released yet\");\r\n        require(!o.rated, \"Already rated\");\r\n\r\n        o.rated = true;\r\n\r\n        reputation.recordRating(orderId, o.seller, o.buyer, stars, comment);\r\n\r\n        emit RatingSubmitted(orderId, o.seller, o.buyer, stars);\r\n    }\r\n\r\n    // Helper: view order basic status\r\n    function getOrder(uint256 orderId)\r\n        external\r\n        view\r\n        returns (\r\n            address buyer,\r\n            address seller,\r\n            uint256 productId,\r\n            uint256 qty,\r\n            uint256 unitPriceWei,\r\n            uint256 amountWei,\r\n            bool shipped,\r\n            bool delivered,\r\n            bool paidOut,\r\n            bool rated\r\n        )\r\n    {\r\n        Order memory o = orders[orderId];\r\n        return (\r\n            o.buyer,\r\n            o.seller,\r\n            o.productId,\r\n            o.qty,\r\n            o.unitPriceWei,\r\n            o.amount,\r\n            o.shipped,\r\n            o.delivered,\r\n            o.paidOut,\r\n            o.rated\r\n        );\r\n    }\r\n\r\n    function getBuyerOrders(address buyer) external view returns (uint256[] memory) {\r\n        return buyerOrders[buyer];\r\n    }\r\n\r\n    function getSellerOrders(address seller) external view returns (uint256[] memory) {\r\n        return sellerOrders[seller];\r\n    }\r\n}\r\n",
  "sourcePath": "C:\\Users\\24048278\\C373Projects\\RaphFAproject\\C373_Team-2_FA\\contracts\\EscrowPayment.sol",
  "compiler": {
    "name": "solc",
    "version": "0.8.19+commit.7dd6d404.Emscripten.clang"
  },
  "schemaVersion": "3.4.16",
  "updatedAt": "2026-01-22T12:52:41.765Z",
  "networkType": "ethereum",
  "devdoc": {
    "kind": "dev",
    "methods": {},
    "version": 1
  },
  "userdoc": {
    "kind": "user",
    "methods": {},
    "version": 1
  }
}