{
  "contractName": "EscrowPayment",
  "abi": [
    {
      "inputs": [
        {
          "internalType": "address",
          "name": "reputationContract",
          "type": "address"
        }
      ],
      "stateMutability": "nonpayable",
      "type": "constructor"
    },
    {
      "anonymous": false,
      "inputs": [
        {
          "indexed": true,
          "internalType": "address",
          "name": "account",
          "type": "address"
        },
        {
          "indexed": false,
          "internalType": "string",
          "name": "name",
          "type": "string"
        },
        {
          "indexed": false,
          "internalType": "string",
          "name": "email",
          "type": "string"
        },
        {
          "indexed": false,
          "internalType": "string",
          "name": "phone",
          "type": "string"
        }
      ],
      "name": "BuyerVerified",
      "type": "event"
    },
    {
      "anonymous": false,
      "inputs": [
        {
          "indexed": true,
          "internalType": "uint256",
          "name": "orderId",
          "type": "uint256"
        },
        {
          "indexed": true,
          "internalType": "address",
          "name": "buyer",
          "type": "address"
        }
      ],
      "name": "DeliveryConfirmed",
      "type": "event"
    },
    {
      "anonymous": false,
      "inputs": [
        {
          "indexed": true,
          "internalType": "uint256",
          "name": "orderId",
          "type": "uint256"
        },
        {
          "indexed": true,
          "internalType": "address",
          "name": "buyer",
          "type": "address"
        },
        {
          "indexed": true,
          "internalType": "address",
          "name": "seller",
          "type": "address"
        },
        {
          "indexed": false,
          "internalType": "uint256",
          "name": "productId",
          "type": "uint256"
        },
        {
          "indexed": false,
          "internalType": "uint256",
          "name": "qty",
          "type": "uint256"
        },
        {
          "indexed": false,
          "internalType": "uint256",
          "name": "unitPriceWei",
          "type": "uint256"
        },
        {
          "indexed": false,
          "internalType": "uint256",
          "name": "amount",
          "type": "uint256"
        }
      ],
      "name": "OrderCreated",
      "type": "event"
    },
    {
      "anonymous": false,
      "inputs": [
        {
          "indexed": true,
          "internalType": "uint256",
          "name": "orderId",
          "type": "uint256"
        },
        {
          "indexed": true,
          "internalType": "address",
          "name": "seller",
          "type": "address"
        },
        {
          "indexed": false,
          "internalType": "uint256",
          "name": "amount",
          "type": "uint256"
        }
      ],
      "name": "PaymentReleased",
      "type": "event"
    },
    {
      "anonymous": false,
      "inputs": [
        {
          "indexed": true,
          "internalType": "uint256",
          "name": "orderId",
          "type": "uint256"
        },
        {
          "indexed": true,
          "internalType": "address",
          "name": "seller",
          "type": "address"
        },
        {
          "indexed": true,
          "internalType": "address",
          "name": "buyer",
          "type": "address"
        },
        {
          "indexed": false,
          "internalType": "uint8",
          "name": "stars",
          "type": "uint8"
        }
      ],
      "name": "RatingSubmitted",
      "type": "event"
    },
    {
      "anonymous": false,
      "inputs": [
        {
          "indexed": true,
          "internalType": "address",
          "name": "account",
          "type": "address"
        },
        {
          "indexed": false,
          "internalType": "string",
          "name": "name",
          "type": "string"
        },
        {
          "indexed": false,
          "internalType": "string",
          "name": "email",
          "type": "string"
        },
        {
          "indexed": false,
          "internalType": "string",
          "name": "phone",
          "type": "string"
        }
      ],
      "name": "SellerVerified",
      "type": "event"
    },
    {
      "anonymous": false,
      "inputs": [
        {
          "indexed": true,
          "internalType": "uint256",
          "name": "orderId",
          "type": "uint256"
        },
        {
          "indexed": true,
          "internalType": "address",
          "name": "seller",
          "type": "address"
        }
      ],
      "name": "ShipmentConfirmed",
      "type": "event"
    },
    {
      "inputs": [],
      "name": "nextOrderId",
      "outputs": [
        {
          "internalType": "uint256",
          "name": "",
          "type": "uint256"
        }
      ],
      "stateMutability": "view",
      "type": "function"
    },
    {
      "inputs": [
        {
          "internalType": "uint256",
          "name": "",
          "type": "uint256"
        }
      ],
      "name": "orders",
      "outputs": [
        {
          "internalType": "address",
          "name": "buyer",
          "type": "address"
        },
        {
          "internalType": "address",
          "name": "seller",
          "type": "address"
        },
        {
          "internalType": "uint256",
          "name": "productId",
          "type": "uint256"
        },
        {
          "internalType": "uint256",
          "name": "qty",
          "type": "uint256"
        },
        {
          "internalType": "uint256",
          "name": "unitPriceWei",
          "type": "uint256"
        },
        {
          "internalType": "uint256",
          "name": "amount",
          "type": "uint256"
        },
        {
          "internalType": "bool",
          "name": "shipped",
          "type": "bool"
        },
        {
          "internalType": "bool",
          "name": "delivered",
          "type": "bool"
        },
        {
          "internalType": "bool",
          "name": "paidOut",
          "type": "bool"
        },
        {
          "internalType": "bool",
          "name": "rated",
          "type": "bool"
        }
      ],
      "stateMutability": "view",
      "type": "function"
    },
    {
      "inputs": [],
      "name": "reputation",
      "outputs": [
        {
          "internalType": "contract ISellerReputation",
          "name": "",
          "type": "address"
        }
      ],
      "stateMutability": "view",
      "type": "function"
    },
    {
      "inputs": [
        {
          "internalType": "string",
          "name": "name",
          "type": "string"
        },
        {
          "internalType": "string",
          "name": "email",
          "type": "string"
        },
        {
          "internalType": "string",
          "name": "phone",
          "type": "string"
        }
      ],
      "name": "verifySeller",
      "outputs": [],
      "stateMutability": "nonpayable",
      "type": "function"
    },
    {
      "inputs": [
        {
          "internalType": "string",
          "name": "name",
          "type": "string"
        },
        {
          "internalType": "string",
          "name": "email",
          "type": "string"
        },
        {
          "internalType": "string",
          "name": "phone",
          "type": "string"
        }
      ],
      "name": "verifyBuyer",
      "outputs": [],
      "stateMutability": "nonpayable",
      "type": "function"
    },
    {
      "inputs": [
        {
          "internalType": "address",
          "name": "account",
          "type": "address"
        }
      ],
      "name": "isSellerVerified",
      "outputs": [
        {
          "internalType": "bool",
          "name": "",
          "type": "bool"
        }
      ],
      "stateMutability": "view",
      "type": "function"
    },
    {
      "inputs": [
        {
          "internalType": "address",
          "name": "account",
          "type": "address"
        }
      ],
      "name": "isBuyerVerified",
      "outputs": [
        {
          "internalType": "bool",
          "name": "",
          "type": "bool"
        }
      ],
      "stateMutability": "view",
      "type": "function"
    },
    {
      "inputs": [
        {
          "internalType": "address",
          "name": "account",
          "type": "address"
        }
      ],
      "name": "getVerification",
      "outputs": [
        {
          "internalType": "bool",
          "name": "sellerVerified",
          "type": "bool"
        },
        {
          "internalType": "bool",
          "name": "buyerVerified",
          "type": "bool"
        },
        {
          "internalType": "string",
          "name": "name",
          "type": "string"
        },
        {
          "internalType": "string",
          "name": "email",
          "type": "string"
        },
        {
          "internalType": "string",
          "name": "phone",
          "type": "string"
        }
      ],
      "stateMutability": "view",
      "type": "function"
    },
    {
      "inputs": [
        {
          "internalType": "uint256",
          "name": "productId",
          "type": "uint256"
        },
        {
          "internalType": "uint256",
          "name": "qty",
          "type": "uint256"
        },
        {
          "internalType": "uint256",
          "name": "unitPriceWei",
          "type": "uint256"
        }
      ],
      "name": "createOrder",
      "outputs": [
        {
          "internalType": "uint256",
          "name": "orderId",
          "type": "uint256"
        }
      ],
      "stateMutability": "payable",
      "type": "function"
    },
    {
      "inputs": [
        {
          "internalType": "uint256",
          "name": "orderId",
          "type": "uint256"
        }
      ],
      "name": "confirmShipment",
      "outputs": [],
      "stateMutability": "nonpayable",
      "type": "function"
    },
    {
      "inputs": [
        {
          "internalType": "uint256",
          "name": "orderId",
          "type": "uint256"
        }
      ],
      "name": "confirmDelivery",
      "outputs": [],
      "stateMutability": "nonpayable",
      "type": "function"
    },
    {
      "inputs": [
        {
          "internalType": "uint256",
          "name": "orderId",
          "type": "uint256"
        }
      ],
      "name": "releasePayment",
      "outputs": [],
      "stateMutability": "nonpayable",
      "type": "function"
    },
    {
      "inputs": [
        {
          "internalType": "uint256",
          "name": "orderId",
          "type": "uint256"
        },
        {
          "internalType": "uint8",
          "name": "stars",
          "type": "uint8"
        },
        {
          "internalType": "string",
          "name": "comment",
          "type": "string"
        }
      ],
      "name": "submitRating",
      "outputs": [],
      "stateMutability": "nonpayable",
      "type": "function"
    },
    {
      "inputs": [
        {
          "internalType": "uint256",
          "name": "orderId",
          "type": "uint256"
        }
      ],
      "name": "getOrder",
      "outputs": [
        {
          "internalType": "address",
          "name": "buyer",
          "type": "address"
        },
        {
          "internalType": "address",
          "name": "seller",
          "type": "address"
        },
        {
          "internalType": "uint256",
          "name": "productId",
          "type": "uint256"
        },
        {
          "internalType": "uint256",
          "name": "qty",
          "type": "uint256"
        },
        {
          "internalType": "uint256",
          "name": "unitPriceWei",
          "type": "uint256"
        },
        {
          "internalType": "uint256",
          "name": "amountWei",
          "type": "uint256"
        },
        {
          "internalType": "bool",
          "name": "shipped",
          "type": "bool"
        },
        {
          "internalType": "bool",
          "name": "delivered",
          "type": "bool"
        },
        {
          "internalType": "bool",
          "name": "paidOut",
          "type": "bool"
        },
        {
          "internalType": "bool",
          "name": "rated",
          "type": "bool"
        }
      ],
      "stateMutability": "view",
      "type": "function"
    },
    {
      "inputs": [
        {
          "internalType": "address",
          "name": "buyer",
          "type": "address"
        }
      ],
      "name": "getBuyerOrders",
      "outputs": [
        {
          "internalType": "uint256[]",
          "name": "",
          "type": "uint256[]"
        }
      ],
      "stateMutability": "view",
      "type": "function"
    },
    {
      "inputs": [
        {
          "internalType": "address",
          "name": "seller",
          "type": "address"
        }
      ],
      "name": "getSellerOrders",
      "outputs": [
        {
          "internalType": "uint256[]",
          "name": "",
          "type": "uint256[]"
        }
      ],
      "stateMutability": "view",
      "type": "function"
    }
  ],
  "bytecode": "0x60806040523480156200001157600080fd5b506040516200351a3803806200351a83398181016040528101906200003791906200015b565b600073ffffffffffffffffffffffffffffffffffffffff168173ffffffffffffffffffffffffffffffffffffffff1603620000a9576040517f08c379a0000000000000000000000000000000000000000000000000000000008152600401620000a090620001ee565b60405180910390fd5b80600560006101000a81548173ffffffffffffffffffffffffffffffffffffffff021916908373ffffffffffffffffffffffffffffffffffffffff1602179055505062000210565b600080fd5b600073ffffffffffffffffffffffffffffffffffffffff82169050919050565b60006200012382620000f6565b9050919050565b620001358162000116565b81146200014157600080fd5b50565b60008151905062000155816200012a565b92915050565b600060208284031215620001745762000173620000f1565b5b6000620001848482850162000144565b91505092915050565b600082825260208201905092915050565b7f496e76616c69642072657075746174696f6e2061646472657373000000000000600082015250565b6000620001d6601a836200018d565b9150620001e3826200019e565b602082019050919050565b600060208201905081810360008301526200020981620001c7565b9050919050565b6132fa80620002206000396000f3fe6080604052600436106100f35760003560e01c8063a85c38ef1161008a578063e0cb8e5f11610059578063e0cb8e5f1461037d578063e36e7f89146103a6578063e4cbac40146103cf578063fd84cb971461040c576100f3565b8063a85c38ef1461029d578063af648e12146102e3578063c52164c61461030c578063d09ef24114610337576100f3565b80637fc9592d116100c65780637fc9592d146101c657806388685cd914610207578063a1ba444d14610230578063a45f2ebc14610260576100f3565b80632a58b330146100f8578063374bda3314610123578063377c460d1461014c57806362fff36114610189575b600080fd5b34801561010457600080fd5b5061010d610435565b60405161011a9190611dd7565b60405180910390f35b34801561012f57600080fd5b5061014a60048036038101906101459190611e61565b61043b565b005b34801561015857600080fd5b50610173600480360381019061016e9190611f73565b610546565b6040516101809190611fbb565b60405180910390f35b34801561019557600080fd5b506101b060048036038101906101ab9190611f73565b61059f565b6040516101bd9190611fbb565b60405180910390f35b3480156101d257600080fd5b506101ed60048036038101906101e89190611f73565b6105f8565b6040516101fe959493929190612066565b60405180910390f35b34801561021357600080fd5b5061022e600480360381019061022991906120fa565b610867565b005b61024a60048036038101906102459190612127565b610bc5565b6040516102579190611dd7565b60405180910390f35b34801561026c57600080fd5b5061028760048036038101906102829190611f73565b610fad565b6040516102949190612238565b60405180910390f35b3480156102a957600080fd5b506102c460048036038101906102bf91906120fa565b611044565b6040516102da9a99989796959493929190612269565b60405180910390f35b3480156102ef57600080fd5b5061030a6004803603810190610305919061233e565b61110c565b005b34801561031857600080fd5b50610321611409565b60405161032e9190612411565b60405180910390f35b34801561034357600080fd5b5061035e600480360381019061035991906120fa565b61142f565b6040516103749a99989796959493929190612269565b60405180910390f35b34801561038957600080fd5b506103a4600480360381019061039f91906120fa565b6115f7565b005b3480156103b257600080fd5b506103cd60048036038101906103c89190611e61565b61193f565b005b3480156103db57600080fd5b506103f660048036038101906103f19190611f73565b611a4a565b6040516104039190612238565b60405180910390f35b34801561041857600080fd5b50610433600480360381019061042e91906120fa565b611ae1565b005b60005481565b610449868686868686611ce4565b6000600460003373ffffffffffffffffffffffffffffffffffffffff1673ffffffffffffffffffffffffffffffffffffffff1681526020019081526020016000209050868682600101918261049f929190612668565b5084848260020191826104b3929190612668565b5082828260030191826104c7929190612668565b5060018160000160016101000a81548160ff0219169083151502179055503373ffffffffffffffffffffffffffffffffffffffff167f3d5e611a26d6d9a70eaa719533f044b37e2f65e6230a631508935cb0b4a500fd88888888888860405161053596959493929190612774565b60405180910390a250505050505050565b6000600460008373ffffffffffffffffffffffffffffffffffffffff1673ffffffffffffffffffffffffffffffffffffffff16815260200190815260200160002060000160009054906101000a900460ff169050919050565b6000600460008373ffffffffffffffffffffffffffffffffffffffff1673ffffffffffffffffffffffffffffffffffffffff16815260200190815260200160002060000160019054906101000a900460ff169050919050565b60008060608060606000600460008873ffffffffffffffffffffffffffffffffffffffff1673ffffffffffffffffffffffffffffffffffffffff1681526020019081526020016000206040518060a00160405290816000820160009054906101000a900460ff161515151581526020016000820160019054906101000a900460ff1615151515815260200160018201805461069290612495565b80601f01602080910402602001604051908101604052809291908181526020018280546106be90612495565b801561070b5780601f106106e05761010080835404028352916020019161070b565b820191906000526020600020905b8154815290600101906020018083116106ee57829003601f168201915b5050505050815260200160028201805461072490612495565b80601f016020809104026020016040519081016040528092919081815260200182805461075090612495565b801561079d5780601f106107725761010080835404028352916020019161079d565b820191906000526020600020905b81548152906001019060200180831161078057829003601f168201915b505050505081526020016003820180546107b690612495565b80601f01602080910402602001604051908101604052809291908181526020018280546107e290612495565b801561082f5780601f106108045761010080835404028352916020019161082f565b820191906000526020600020905b81548152906001019060200180831161081257829003601f168201915b505050505081525050905080600001518160200151826040015183606001518460800151955095509550955095505091939590929450565b600060016000838152602001908152602001600020905060008160050154116108c5576040517f08c379a00000000000000000000000000000000000000000000000000000000081526004016108bc90612812565b60405180910390fd5b8060060160009054906101000a900460ff16610916576040517f08c379a000000000000000000000000000000000000000000000000000000000815260040161090d9061287e565b60405180910390fd5b8060060160019054906101000a900460ff16610967576040517f08c379a000000000000000000000000000000000000000000000000000000000815260040161095e906128ea565b60405180910390fd5b600073ffffffffffffffffffffffffffffffffffffffff168160010160009054906101000a900473ffffffffffffffffffffffffffffffffffffffff1673ffffffffffffffffffffffffffffffffffffffff16036109fa576040517f08c379a00000000000000000000000000000000000000000000000000000000081526004016109f190612956565b60405180910390fd5b8060060160029054906101000a900460ff1615610a4c576040517f08c379a0000000000000000000000000000000000000000000000000000000008152600401610a43906129c2565b60405180910390fd5b60018160060160026101000a81548160ff0219169083151502179055506000816005015490506000826005018190555060008260010160009054906101000a900473ffffffffffffffffffffffffffffffffffffffff1673ffffffffffffffffffffffffffffffffffffffff1682604051610ac690612a13565b60006040518083038185875af1925050503d8060008114610b03576040519150601f19603f3d011682016040523d82523d6000602084013e610b08565b606091505b5050905080610b4c576040517f08c379a0000000000000000000000000000000000000000000000000000000008152600401610b4390612a74565b60405180910390fd5b8260010160009054906101000a900473ffffffffffffffffffffffffffffffffffffffff1673ffffffffffffffffffffffffffffffffffffffff16847f21d71db5be59bb9fa133895586b7404307dd33fb93b16db09dc6f1d9d7d231b084604051610bb79190611dd7565b60405180910390a350505050565b6000610bd03361059f565b610c0f576040517f08c379a0000000000000000000000000000000000000000000000000000000008152600401610c0690612ae0565b60405180910390fd5b60008311610c52576040517f08c379a0000000000000000000000000000000000000000000000000000000008152600401610c4990612b4c565b60405180910390fd5b60008211610c95576040517f08c379a0000000000000000000000000000000000000000000000000000000008152600401610c8c90612bb8565b60405180910390fd5b60008284610ca39190612c07565b9050803414610ce7576040517f08c379a0000000000000000000000000000000000000000000000000000000008152600401610cde90612c95565b60405180910390fd5b60005491506001600080828254610cfe9190612cb5565b925050819055506040518061014001604052803373ffffffffffffffffffffffffffffffffffffffff168152602001600073ffffffffffffffffffffffffffffffffffffffff168152602001868152602001858152602001848152602001348152602001600015158152602001600015158152602001600015158152602001600015158152506001600084815260200190815260200160002060008201518160000160006101000a81548173ffffffffffffffffffffffffffffffffffffffff021916908373ffffffffffffffffffffffffffffffffffffffff16021790555060208201518160010160006101000a81548173ffffffffffffffffffffffffffffffffffffffff021916908373ffffffffffffffffffffffffffffffffffffffff16021790555060408201518160020155606082015181600301556080820151816004015560a0820151816005015560c08201518160060160006101000a81548160ff02191690831515021790555060e08201518160060160016101000a81548160ff0219169083151502179055506101008201518160060160026101000a81548160ff0219169083151502179055506101208201518160060160036101000a81548160ff021916908315150217905550905050600260003373ffffffffffffffffffffffffffffffffffffffff1673ffffffffffffffffffffffffffffffffffffffff168152602001908152602001600020829080600181540180825580915050600190039060005260206000200160009091909190915055600073ffffffffffffffffffffffffffffffffffffffff163373ffffffffffffffffffffffffffffffffffffffff16837f97731a95ce5dd1802ada2af380a14fd8e47563e47aa4335a4a418317176eb8ed88888834604051610f9d9493929190612ce9565b60405180910390a4509392505050565b6060600260008373ffffffffffffffffffffffffffffffffffffffff1673ffffffffffffffffffffffffffffffffffffffff16815260200190815260200160002080548060200260200160405190810160405280929190818152602001828054801561103857602002820191906000526020600020905b815481526020019060010190808311611024575b50505050509050919050565b60016020528060005260406000206000915090508060000160009054906101000a900473ffffffffffffffffffffffffffffffffffffffff16908060010160009054906101000a900473ffffffffffffffffffffffffffffffffffffffff16908060020154908060030154908060040154908060050154908060060160009054906101000a900460ff16908060060160019054906101000a900460ff16908060060160029054906101000a900460ff16908060060160039054906101000a900460ff1690508a565b60006001600086815260200190815260200160002090503373ffffffffffffffffffffffffffffffffffffffff168160000160009054906101000a900473ffffffffffffffffffffffffffffffffffffffff1673ffffffffffffffffffffffffffffffffffffffff16146111b5576040517f08c379a00000000000000000000000000000000000000000000000000000000081526004016111ac90612d7a565b60405180910390fd5b8060060160029054906101000a900460ff16611206576040517f08c379a00000000000000000000000000000000000000000000000000000000081526004016111fd90612de6565b60405180910390fd5b8060060160039054906101000a900460ff1615611258576040517f08c379a000000000000000000000000000000000000000000000000000000000815260040161124f90612e52565b60405180910390fd5b60018160060160036101000a81548160ff021916908315150217905550600560009054906101000a900473ffffffffffffffffffffffffffffffffffffffff1673ffffffffffffffffffffffffffffffffffffffff166310ceba4b868360010160009054906101000a900473ffffffffffffffffffffffffffffffffffffffff168460000160009054906101000a900473ffffffffffffffffffffffffffffffffffffffff168888886040518763ffffffff1660e01b815260040161132296959493929190612e81565b600060405180830381600087803b15801561133c57600080fd5b505af1158015611350573d6000803e3d6000fd5b505050508060000160009054906101000a900473ffffffffffffffffffffffffffffffffffffffff1673ffffffffffffffffffffffffffffffffffffffff168160010160009054906101000a900473ffffffffffffffffffffffffffffffffffffffff1673ffffffffffffffffffffffffffffffffffffffff16867f1c77a158686639c60e48e2f63ec680c6dfd55fdebf1a1d34b6ad59eee1f28610876040516113fa9190612edd565b60405180910390a45050505050565b600560009054906101000a900473ffffffffffffffffffffffffffffffffffffffff1681565b6000806000806000806000806000806000600160008d8152602001908152602001600020604051806101400160405290816000820160009054906101000a900473ffffffffffffffffffffffffffffffffffffffff1673ffffffffffffffffffffffffffffffffffffffff1673ffffffffffffffffffffffffffffffffffffffff1681526020016001820160009054906101000a900473ffffffffffffffffffffffffffffffffffffffff1673ffffffffffffffffffffffffffffffffffffffff1673ffffffffffffffffffffffffffffffffffffffff168152602001600282015481526020016003820154815260200160048201548152602001600582015481526020016006820160009054906101000a900460ff161515151581526020016006820160019054906101000a900460ff161515151581526020016006820160029054906101000a900460ff161515151581526020016006820160039054906101000a900460ff1615151515815250509050806000015181602001518260400151836060015184608001518560a001518660c001518760e001518861010001518961012001519a509a509a509a509a509a509a509a509a509a50509193959799509193959799565b60006001600083815260200190815260200160002090506000816005015411611655576040517f08c379a000000000000000000000000000000000000000000000000000000000815260040161164c90612812565b60405180910390fd5b8060060160009054906101000a900460ff16156116a7576040517f08c379a000000000000000000000000000000000000000000000000000000000815260040161169e90612f44565b60405180910390fd5b8060060160029054906101000a900460ff16156116f9576040517f08c379a00000000000000000000000000000000000000000000000000000000081526004016116f0906129c2565b60405180910390fd5b61170233610546565b611741576040517f08c379a000000000000000000000000000000000000000000000000000000000815260040161173890612fb0565b60405180910390fd5b600073ffffffffffffffffffffffffffffffffffffffff168160010160009054906101000a900473ffffffffffffffffffffffffffffffffffffffff1673ffffffffffffffffffffffffffffffffffffffff160361184757338160010160006101000a81548173ffffffffffffffffffffffffffffffffffffffff021916908373ffffffffffffffffffffffffffffffffffffffff160217905550600360003373ffffffffffffffffffffffffffffffffffffffff1673ffffffffffffffffffffffffffffffffffffffff1681526020019081526020016000208290806001815401808255809150506001900390600052602060002001600090919091909150556118da565b3373ffffffffffffffffffffffffffffffffffffffff168160010160009054906101000a900473ffffffffffffffffffffffffffffffffffffffff1673ffffffffffffffffffffffffffffffffffffffff16146118d9576040517f08c379a00000000000000000000000000000000000000000000000000000000081526004016118d09061301c565b60405180910390fd5b5b60018160060160006101000a81548160ff0219169083151502179055503373ffffffffffffffffffffffffffffffffffffffff16827f682c8a4fab89a425b973af64172cc6363b99285e49c35b15f3ed2601e454151d60405160405180910390a35050565b61194d868686868686611ce4565b6000600460003373ffffffffffffffffffffffffffffffffffffffff1673ffffffffffffffffffffffffffffffffffffffff168152602001908152602001600020905086868260010191826119a3929190612668565b5084848260020191826119b7929190612668565b5082828260030191826119cb929190612668565b5060018160000160006101000a81548160ff0219169083151502179055503373ffffffffffffffffffffffffffffffffffffffff167f4451c362675a9ffa2eb1b50d055bdcbbf66d78ca9060c2e62bdf15e03ac8bb73888888888888604051611a3996959493929190612774565b60405180910390a250505050505050565b6060600360008373ffffffffffffffffffffffffffffffffffffffff1673ffffffffffffffffffffffffffffffffffffffff168152602001908152602001600020805480602002602001604051908101604052809291908181526020018280548015611ad557602002820191906000526020600020905b815481526020019060010190808311611ac1575b50505050509050919050565b60006001600083815260200190815260200160002090503373ffffffffffffffffffffffffffffffffffffffff168160000160009054906101000a900473ffffffffffffffffffffffffffffffffffffffff1673ffffffffffffffffffffffffffffffffffffffff1614611b8a576040517f08c379a0000000000000000000000000000000000000000000000000000000008152600401611b8190613088565b60405180910390fd5b8060060160009054906101000a900460ff16611bdb576040517f08c379a0000000000000000000000000000000000000000000000000000000008152600401611bd2906130f4565b60405180910390fd5b8060060160019054906101000a900460ff1615611c2d576040517f08c379a0000000000000000000000000000000000000000000000000000000008152600401611c2490613160565b60405180910390fd5b8060060160029054906101000a900460ff1615611c7f576040517f08c379a0000000000000000000000000000000000000000000000000000000008152600401611c76906129c2565b60405180910390fd5b60018160060160016101000a81548160ff0219169083151502179055503373ffffffffffffffffffffffffffffffffffffffff16827f64a783c6150854ae756454311c7625a965c757996ba8cc1a8c6205380f33725060405160405180910390a35050565b60008686905011611d2a576040517f08c379a0000000000000000000000000000000000000000000000000000000008152600401611d21906131cc565b60405180910390fd5b60008484905011611d70576040517f08c379a0000000000000000000000000000000000000000000000000000000008152600401611d6790613238565b60405180910390fd5b60008282905011611db6576040517f08c379a0000000000000000000000000000000000000000000000000000000008152600401611dad906132a4565b60405180910390fd5b505050505050565b6000819050919050565b611dd181611dbe565b82525050565b6000602082019050611dec6000830184611dc8565b92915050565b600080fd5b600080fd5b600080fd5b600080fd5b600080fd5b60008083601f840112611e2157611e20611dfc565b5b8235905067ffffffffffffffff811115611e3e57611e3d611e01565b5b602083019150836001820283011115611e5a57611e59611e06565b5b9250929050565b60008060008060008060608789031215611e7e57611e7d611df2565b5b600087013567ffffffffffffffff811115611e9c57611e9b611df7565b5b611ea889828a01611e0b565b9650965050602087013567ffffffffffffffff811115611ecb57611eca611df7565b5b611ed789828a01611e0b565b9450945050604087013567ffffffffffffffff811115611efa57611ef9611df7565b5b611f0689828a01611e0b565b92509250509295509295509295565b600073ffffffffffffffffffffffffffffffffffffffff82169050919050565b6000611f4082611f15565b9050919050565b611f5081611f35565b8114611f5b57600080fd5b50565b600081359050611f6d81611f47565b92915050565b600060208284031215611f8957611f88611df2565b5b6000611f9784828501611f5e565b91505092915050565b60008115159050919050565b611fb581611fa0565b82525050565b6000602082019050611fd06000830184611fac565b92915050565b600081519050919050565b600082825260208201905092915050565b60005b83811015612010578082015181840152602081019050611ff5565b60008484015250505050565b6000601f19601f8301169050919050565b600061203882611fd6565b6120428185611fe1565b9350612052818560208601611ff2565b61205b8161201c565b840191505092915050565b600060a08201905061207b6000830188611fac565b6120886020830187611fac565b818103604083015261209a818661202d565b905081810360608301526120ae818561202d565b905081810360808301526120c2818461202d565b90509695505050505050565b6120d781611dbe565b81146120e257600080fd5b50565b6000813590506120f4816120ce565b92915050565b6000602082840312156121105761210f611df2565b5b600061211e848285016120e5565b91505092915050565b6000806000606084860312156121405761213f611df2565b5b600061214e868287016120e5565b935050602061215f868287016120e5565b9250506040612170868287016120e5565b9150509250925092565b600081519050919050565b600082825260208201905092915050565b6000819050602082019050919050565b6121af81611dbe565b82525050565b60006121c183836121a6565b60208301905092915050565b6000602082019050919050565b60006121e58261217a565b6121ef8185612185565b93506121fa83612196565b8060005b8381101561222b57815161221288826121b5565b975061221d836121cd565b9250506001810190506121fe565b5085935050505092915050565b6000602082019050818103600083015261225281846121da565b905092915050565b61226381611f35565b82525050565b60006101408201905061227f600083018d61225a565b61228c602083018c61225a565b612299604083018b611dc8565b6122a6606083018a611dc8565b6122b36080830189611dc8565b6122c060a0830188611dc8565b6122cd60c0830187611fac565b6122da60e0830186611fac565b6122e8610100830185611fac565b6122f6610120830184611fac565b9b9a5050505050505050505050565b600060ff82169050919050565b61231b81612305565b811461232657600080fd5b50565b60008135905061233881612312565b92915050565b6000806000806060858703121561235857612357611df2565b5b6000612366878288016120e5565b945050602061237787828801612329565b935050604085013567ffffffffffffffff81111561239857612397611df7565b5b6123a487828801611e0b565b925092505092959194509250565b6000819050919050565b60006123d76123d26123cd84611f15565b6123b2565b611f15565b9050919050565b60006123e9826123bc565b9050919050565b60006123fb826123de565b9050919050565b61240b816123f0565b82525050565b60006020820190506124266000830184612402565b92915050565b600082905092915050565b7f4e487b7100000000000000000000000000000000000000000000000000000000600052604160045260246000fd5b7f4e487b7100000000000000000000000000000000000000000000000000000000600052602260045260246000fd5b600060028204905060018216806124ad57607f821691505b6020821081036124c0576124bf612466565b5b50919050565b60008190508160005260206000209050919050565b60006020601f8301049050919050565b600082821b905092915050565b6000600883026125287fffffffffffffffffffffffffffffffffffffffffffffffffffffffffffffffff826124eb565b61253286836124eb565b95508019841693508086168417925050509392505050565b600061256561256061255b84611dbe565b6123b2565b611dbe565b9050919050565b6000819050919050565b61257f8361254a565b61259361258b8261256c565b8484546124f8565b825550505050565b600090565b6125a861259b565b6125b3818484612576565b505050565b5b818110156125d7576125cc6000826125a0565b6001810190506125b9565b5050565b601f82111561261c576125ed816124c6565b6125f6846124db565b81016020851015612605578190505b612619612611856124db565b8301826125b8565b50505b505050565b600082821c905092915050565b600061263f60001984600802612621565b1980831691505092915050565b6000612658838361262e565b9150826002028217905092915050565b612672838361242c565b67ffffffffffffffff81111561268b5761268a612437565b5b6126958254612495565b6126a08282856125db565b6000601f8311600181146126cf57600084156126bd578287013590505b6126c7858261264c565b86555061272f565b601f1984166126dd866124c6565b60005b82811015612705578489013582556001820191506020850194506020810190506126e0565b86831015612722578489013561271e601f89168261262e565b8355505b6001600288020188555050505b50505050505050565b82818337600083830152505050565b60006127538385611fe1565b9350612760838584612738565b6127698361201c565b840190509392505050565b6000606082019050818103600083015261278f81888a612747565b905081810360208301526127a4818688612747565b905081810360408301526127b9818486612747565b9050979650505050505050565b7f4f72646572206e6f7420666f756e640000000000000000000000000000000000600082015250565b60006127fc600f83611fe1565b9150612807826127c6565b602082019050919050565b6000602082019050818103600083015261282b816127ef565b9050919050565b7f536869706d656e74206e6f7420636f6e6669726d656400000000000000000000600082015250565b6000612868601683611fe1565b915061287382612832565b602082019050919050565b600060208201905081810360008301526128978161285b565b9050919050565b7f44656c6976657279206e6f7420636f6e6669726d656400000000000000000000600082015250565b60006128d4601683611fe1565b91506128df8261289e565b602082019050919050565b60006020820190508181036000830152612903816128c7565b9050919050565b7f53656c6c6572206e6f7420736574000000000000000000000000000000000000600082015250565b6000612940600e83611fe1565b915061294b8261290a565b602082019050919050565b6000602082019050818103600083015261296f81612933565b9050919050565b7f416c726561647920706169640000000000000000000000000000000000000000600082015250565b60006129ac600c83611fe1565b91506129b782612976565b602082019050919050565b600060208201905081810360008301526129db8161299f565b9050919050565b600081905092915050565b50565b60006129fd6000836129e2565b9150612a08826129ed565b600082019050919050565b6000612a1e826129f0565b9150819050919050565b7f5472616e73666572206661696c65640000000000000000000000000000000000600082015250565b6000612a5e600f83611fe1565b9150612a6982612a28565b602082019050919050565b60006020820190508181036000830152612a8d81612a51565b9050919050565b7f4275796572206e6f742076657269666965640000000000000000000000000000600082015250565b6000612aca601283611fe1565b9150612ad582612a94565b602082019050919050565b60006020820190508181036000830152612af981612abd565b9050919050565b7f5175616e74697479206d757374206265203e2030000000000000000000000000600082015250565b6000612b36601483611fe1565b9150612b4182612b00565b602082019050919050565b60006020820190508181036000830152612b6581612b29565b9050919050565b7f556e6974207072696365206d757374206265203e203000000000000000000000600082015250565b6000612ba2601683611fe1565b9150612bad82612b6c565b602082019050919050565b60006020820190508181036000830152612bd181612b95565b9050919050565b7f4e487b7100000000000000000000000000000000000000000000000000000000600052601160045260246000fd5b6000612c1282611dbe565b9150612c1d83611dbe565b9250828202612c2b81611dbe565b91508282048414831517612c4257612c41612bd8565b5b5092915050565b7f496e636f7272656374207061796d656e7420616d6f756e740000000000000000600082015250565b6000612c7f601883611fe1565b9150612c8a82612c49565b602082019050919050565b60006020820190508181036000830152612cae81612c72565b9050919050565b6000612cc082611dbe565b9150612ccb83611dbe565b9250828201905080821115612ce357612ce2612bd8565b5b92915050565b6000608082019050612cfe6000830187611dc8565b612d0b6020830186611dc8565b612d186040830185611dc8565b612d256060830184611dc8565b95945050505050565b7f4f6e6c792062757965722063616e207261746500000000000000000000000000600082015250565b6000612d64601383611fe1565b9150612d6f82612d2e565b602082019050919050565b60006020820190508181036000830152612d9381612d57565b9050919050565b7f5061796d656e74206e6f742072656c6561736564207965740000000000000000600082015250565b6000612dd0601883611fe1565b9150612ddb82612d9a565b602082019050919050565b60006020820190508181036000830152612dff81612dc3565b9050919050565b7f416c726561647920726174656400000000000000000000000000000000000000600082015250565b6000612e3c600d83611fe1565b9150612e4782612e06565b602082019050919050565b60006020820190508181036000830152612e6b81612e2f565b9050919050565b612e7b81612305565b82525050565b600060a082019050612e966000830189611dc8565b612ea3602083018861225a565b612eb0604083018761225a565b612ebd6060830186612e72565b8181036080830152612ed0818486612747565b9050979650505050505050565b6000602082019050612ef26000830184612e72565b92915050565b7f416c726561647920736869707065640000000000000000000000000000000000600082015250565b6000612f2e600f83611fe1565b9150612f3982612ef8565b602082019050919050565b60006020820190508181036000830152612f5d81612f21565b9050919050565b7f53656c6c6572206e6f7420766572696669656400000000000000000000000000600082015250565b6000612f9a601383611fe1565b9150612fa582612f64565b602082019050919050565b60006020820190508181036000830152612fc981612f8d565b9050919050565b7f4f6e6c792073656c6c65722063616e20636f6e6669726d000000000000000000600082015250565b6000613006601783611fe1565b915061301182612fd0565b602082019050919050565b6000602082019050818103600083015261303581612ff9565b9050919050565b7f4f6e6c792062757965722063616e20636f6e6669726d00000000000000000000600082015250565b6000613072601683611fe1565b915061307d8261303c565b602082019050919050565b600060208201905081810360008301526130a181613065565b9050919050565b7f4e6f742073686970706564207965740000000000000000000000000000000000600082015250565b60006130de600f83611fe1565b91506130e9826130a8565b602082019050919050565b6000602082019050818103600083015261310d816130d1565b9050919050565b7f416c726561647920636f6e6669726d6564000000000000000000000000000000600082015250565b600061314a601183611fe1565b915061315582613114565b602082019050919050565b600060208201905081810360008301526131798161313d565b9050919050565b7f4e616d6520726571756972656400000000000000000000000000000000000000600082015250565b60006131b6600d83611fe1565b91506131c182613180565b602082019050919050565b600060208201905081810360008301526131e5816131a9565b9050919050565b7f456d61696c207265717569726564000000000000000000000000000000000000600082015250565b6000613222600e83611fe1565b915061322d826131ec565b602082019050919050565b6000602082019050818103600083015261325181613215565b9050919050565b7f50686f6e65207265717569726564000000000000000000000000000000000000600082015250565b600061328e600e83611fe1565b915061329982613258565b602082019050919050565b600060208201905081810360008301526132bd81613281565b905091905056fea2646970667358221220f52e9e583e389e6e54e0e541ddfddf4c8d135abbc0dd41c5d163e34bf4fee68e64736f6c63430008130033",
  "immutableReferences": {},
  "source": "// SPDX-License-Identifier: MIT\r\npragma solidity ^0.8.19;\r\n\r\n/*\r\n  EscrowPayment\r\n  - Buyer creates order + deposits ETH into escrow\r\n  - Seller confirms shipment\r\n  - Buyer confirms delivery -> escrow releases ETH to seller\r\n  - After release, buyer can submit rating (stored in SellerReputation)\r\n*/\r\n\r\ninterface ISellerReputation {\r\n    function recordRating(\r\n        uint256 orderId,\r\n        address seller,\r\n        address buyer,\r\n        uint8 stars,\r\n        string calldata comment\r\n    ) external;\r\n}\r\n\r\ncontract EscrowPayment {\r\n    struct UserVerification {\r\n        bool sellerVerified;\r\n        bool buyerVerified;\r\n        string name;\r\n        string email;\r\n        string phone;\r\n    }\r\n\r\n    struct Order {\r\n        address buyer;\r\n        address seller;\r\n        uint256 productId;\r\n        uint256 qty;\r\n        uint256 unitPriceWei;\r\n        uint256 amount;     // ETH in wei\r\n        bool shipped;\r\n        bool delivered;\r\n        bool paidOut;\r\n        bool rated;\r\n    }\r\n\r\n    uint256 public nextOrderId;\r\n    mapping(uint256 => Order) public orders;\r\n    mapping(address => uint256[]) private buyerOrders;\r\n    mapping(address => uint256[]) private sellerOrders;\r\n    mapping(address => UserVerification) private verifications;\r\n\r\n    ISellerReputation public reputation;\r\n\r\n    event OrderCreated(\r\n        uint256 indexed orderId,\r\n        address indexed buyer,\r\n        address indexed seller,\r\n        uint256 productId,\r\n        uint256 qty,\r\n        uint256 unitPriceWei,\r\n        uint256 amount\r\n    );\r\n    event ShipmentConfirmed(uint256 indexed orderId, address indexed seller);\r\n    event DeliveryConfirmed(uint256 indexed orderId, address indexed buyer);\r\n    event PaymentReleased(uint256 indexed orderId, address indexed seller, uint256 amount);\r\n    event RatingSubmitted(uint256 indexed orderId, address indexed seller, address indexed buyer, uint8 stars);\r\n    event SellerVerified(address indexed account, string name, string email, string phone);\r\n    event BuyerVerified(address indexed account, string name, string email, string phone);\r\n\r\n    constructor(address reputationContract) {\r\n        require(reputationContract != address(0), \"Invalid reputation address\");\r\n        reputation = ISellerReputation(reputationContract);\r\n    }\r\n\r\n    // --- Verification ---\r\n    function _requireBasicInfo(\r\n        string calldata name,\r\n        string calldata email,\r\n        string calldata phone\r\n    ) internal pure {\r\n        require(bytes(name).length > 0, \"Name required\");\r\n        require(bytes(email).length > 0, \"Email required\");\r\n        require(bytes(phone).length > 0, \"Phone required\");\r\n    }\r\n\r\n    function verifySeller(\r\n        string calldata name,\r\n        string calldata email,\r\n        string calldata phone\r\n    ) external {\r\n        _requireBasicInfo(name, email, phone);\r\n        UserVerification storage info = verifications[msg.sender];\r\n        info.name = name;\r\n        info.email = email;\r\n        info.phone = phone;\r\n        info.sellerVerified = true;\r\n        emit SellerVerified(msg.sender, name, email, phone);\r\n    }\r\n\r\n    function verifyBuyer(\r\n        string calldata name,\r\n        string calldata email,\r\n        string calldata phone\r\n    ) external {\r\n        _requireBasicInfo(name, email, phone);\r\n        UserVerification storage info = verifications[msg.sender];\r\n        info.name = name;\r\n        info.email = email;\r\n        info.phone = phone;\r\n        info.buyerVerified = true;\r\n        emit BuyerVerified(msg.sender, name, email, phone);\r\n    }\r\n\r\n    function isSellerVerified(address account) public view returns (bool) {\r\n        return verifications[account].sellerVerified;\r\n    }\r\n\r\n    function isBuyerVerified(address account) public view returns (bool) {\r\n        return verifications[account].buyerVerified;\r\n    }\r\n\r\n    function getVerification(address account)\r\n        external\r\n        view\r\n        returns (\r\n            bool sellerVerified,\r\n            bool buyerVerified,\r\n            string memory name,\r\n            string memory email,\r\n            string memory phone\r\n        )\r\n    {\r\n        UserVerification memory info = verifications[account];\r\n        return (info.sellerVerified, info.buyerVerified, info.name, info.email, info.phone);\r\n    }\r\n\r\n    // 1) Buyer creates an order and deposits ETH into escrow\r\n    function createOrder(\r\n        uint256 productId,\r\n        uint256 qty,\r\n        uint256 unitPriceWei\r\n    ) external payable returns (uint256 orderId) {\r\n        require(isBuyerVerified(msg.sender), \"Buyer not verified\");\r\n        require(qty > 0, \"Quantity must be > 0\");\r\n        require(unitPriceWei > 0, \"Unit price must be > 0\");\r\n        uint256 expected = qty * unitPriceWei;\r\n        require(msg.value == expected, \"Incorrect payment amount\");\r\n\r\n        orderId = nextOrderId;\r\n        nextOrderId += 1;\r\n\r\n        orders[orderId] = Order({\r\n            buyer: msg.sender,\r\n            seller: address(0),\r\n            productId: productId,\r\n            qty: qty,\r\n            unitPriceWei: unitPriceWei,\r\n            amount: msg.value,\r\n            shipped: false,\r\n            delivered: false,\r\n            paidOut: false,\r\n            rated: false\r\n        });\r\n\r\n        buyerOrders[msg.sender].push(orderId);\r\n\r\n        emit OrderCreated(orderId, msg.sender, address(0), productId, qty, unitPriceWei, msg.value);\r\n    }\r\n\r\n    // 2) Seller confirms shipment\r\n    function confirmShipment(uint256 orderId) external {\r\n        Order storage o = orders[orderId];\r\n        require(o.amount > 0, \"Order not found\");\r\n        require(!o.shipped, \"Already shipped\");\r\n        require(!o.paidOut, \"Already paid\");\r\n        require(isSellerVerified(msg.sender), \"Seller not verified\");\r\n\r\n        if (o.seller == address(0)) {\r\n            o.seller = msg.sender;\r\n            sellerOrders[msg.sender].push(orderId);\r\n        } else {\r\n            require(o.seller == msg.sender, \"Only seller can confirm\");\r\n        }\r\n        o.shipped = true;\r\n        emit ShipmentConfirmed(orderId, msg.sender);\r\n    }\r\n\r\n    // 3) Buyer confirms delivery\r\n    function confirmDelivery(uint256 orderId) external {\r\n        Order storage o = orders[orderId];\r\n        require(o.buyer == msg.sender, \"Only buyer can confirm\");\r\n        require(o.shipped, \"Not shipped yet\");\r\n        require(!o.delivered, \"Already confirmed\");\r\n        require(!o.paidOut, \"Already paid\");\r\n\r\n        o.delivered = true;\r\n        emit DeliveryConfirmed(orderId, msg.sender);\r\n    }\r\n\r\n    // 4) Release payment to seller (can be triggered by buyer or seller after delivery confirmed)\r\n    function releasePayment(uint256 orderId) external {\r\n        Order storage o = orders[orderId];\r\n        require(o.amount > 0, \"Order not found\");\r\n        require(o.shipped, \"Shipment not confirmed\");\r\n        require(o.delivered, \"Delivery not confirmed\");\r\n        require(o.seller != address(0), \"Seller not set\");\r\n        require(!o.paidOut, \"Already paid\");\r\n\r\n        // Checks-effects-interactions\r\n        o.paidOut = true;\r\n        uint256 amt = o.amount;\r\n        o.amount = 0;\r\n\r\n        (bool ok, ) = payable(o.seller).call{value: amt}(\"\");\r\n        require(ok, \"Transfer failed\");\r\n\r\n        emit PaymentReleased(orderId, o.seller, amt);\r\n    }\r\n\r\n    // 5) Buyer submits rating ONLY after payout (this prevents fake reviews)\r\n    function submitRating(uint256 orderId, uint8 stars, string calldata comment) external {\r\n        Order storage o = orders[orderId];\r\n        require(o.buyer == msg.sender, \"Only buyer can rate\");\r\n        require(o.paidOut, \"Payment not released yet\");\r\n        require(!o.rated, \"Already rated\");\r\n\r\n        o.rated = true;\r\n\r\n        reputation.recordRating(orderId, o.seller, o.buyer, stars, comment);\r\n\r\n        emit RatingSubmitted(orderId, o.seller, o.buyer, stars);\r\n    }\r\n\r\n    // Helper: view order basic status\r\n    function getOrder(uint256 orderId)\r\n        external\r\n        view\r\n        returns (\r\n            address buyer,\r\n            address seller,\r\n            uint256 productId,\r\n            uint256 qty,\r\n            uint256 unitPriceWei,\r\n            uint256 amountWei,\r\n            bool shipped,\r\n            bool delivered,\r\n            bool paidOut,\r\n            bool rated\r\n        )\r\n    {\r\n        Order memory o = orders[orderId];\r\n        return (\r\n            o.buyer,\r\n            o.seller,\r\n            o.productId,\r\n            o.qty,\r\n            o.unitPriceWei,\r\n            o.amount,\r\n            o.shipped,\r\n            o.delivered,\r\n            o.paidOut,\r\n            o.rated\r\n        );\r\n    }\r\n\r\n    function getBuyerOrders(address buyer) external view returns (uint256[] memory) {\r\n        return buyerOrders[buyer];\r\n    }\r\n\r\n    function getSellerOrders(address seller) external view returns (uint256[] memory) {\r\n        return sellerOrders[seller];\r\n    }\r\n}\r\n",
  "sourcePath": "C:\\Users\\07kkj\\OneDrive\\RP Y2S2\\C373 Distributed Ledger Technology Solutioning\\FA\\C373_Team-2_FA-1\\contracts\\EscrowPayment.sol",
  "compiler": {
    "name": "solc",
    "version": "0.8.19+commit.7dd6d404.Emscripten.clang"
  },
  "schemaVersion": "3.4.16",
  "updatedAt": "2026-01-25T06:47:57.731Z",
  "devdoc": {
    "kind": "dev",
    "methods": {},
    "version": 1
  },
  "userdoc": {
    "kind": "user",
    "methods": {},
    "version": 1
  }
}