{
  "contractName": "EscrowPayment",
  "abi": [
    {
      "inputs": [
        {
          "internalType": "address",
          "name": "reputationContract",
          "type": "address"
        }
      ],
      "stateMutability": "nonpayable",
      "type": "constructor"
    },
    {
      "anonymous": false,
      "inputs": [
        {
          "indexed": true,
          "internalType": "uint256",
          "name": "orderId",
          "type": "uint256"
        },
        {
          "indexed": true,
          "internalType": "address",
          "name": "buyer",
          "type": "address"
        }
      ],
      "name": "DeliveryConfirmed",
      "type": "event"
    },
    {
      "anonymous": false,
      "inputs": [
        {
          "indexed": true,
          "internalType": "uint256",
          "name": "orderId",
          "type": "uint256"
        },
        {
          "indexed": true,
          "internalType": "address",
          "name": "buyer",
          "type": "address"
        },
        {
          "indexed": true,
          "internalType": "address",
          "name": "seller",
          "type": "address"
        },
        {
          "indexed": false,
          "internalType": "uint256",
          "name": "productId",
          "type": "uint256"
        },
        {
          "indexed": false,
          "internalType": "uint256",
          "name": "qty",
          "type": "uint256"
        },
        {
          "indexed": false,
          "internalType": "uint256",
          "name": "unitPriceWei",
          "type": "uint256"
        },
        {
          "indexed": false,
          "internalType": "uint256",
          "name": "amount",
          "type": "uint256"
        }
      ],
      "name": "OrderCreated",
      "type": "event"
    },
    {
      "anonymous": false,
      "inputs": [
        {
          "indexed": true,
          "internalType": "uint256",
          "name": "orderId",
          "type": "uint256"
        },
        {
          "indexed": true,
          "internalType": "address",
          "name": "seller",
          "type": "address"
        },
        {
          "indexed": false,
          "internalType": "uint256",
          "name": "amount",
          "type": "uint256"
        }
      ],
      "name": "PaymentReleased",
      "type": "event"
    },
    {
      "anonymous": false,
      "inputs": [
        {
          "indexed": true,
          "internalType": "uint256",
          "name": "orderId",
          "type": "uint256"
        },
        {
          "indexed": true,
          "internalType": "address",
          "name": "seller",
          "type": "address"
        },
        {
          "indexed": true,
          "internalType": "address",
          "name": "buyer",
          "type": "address"
        },
        {
          "indexed": false,
          "internalType": "uint8",
          "name": "stars",
          "type": "uint8"
        }
      ],
      "name": "RatingSubmitted",
      "type": "event"
    },
    {
      "anonymous": false,
      "inputs": [
        {
          "indexed": true,
          "internalType": "uint256",
          "name": "orderId",
          "type": "uint256"
        },
        {
          "indexed": true,
          "internalType": "address",
          "name": "seller",
          "type": "address"
        }
      ],
      "name": "ShipmentConfirmed",
      "type": "event"
    },
    {
      "inputs": [],
      "name": "nextOrderId",
      "outputs": [
        {
          "internalType": "uint256",
          "name": "",
          "type": "uint256"
        }
      ],
      "stateMutability": "view",
      "type": "function",
      "constant": true
    },
    {
      "inputs": [
        {
          "internalType": "uint256",
          "name": "",
          "type": "uint256"
        }
      ],
      "name": "orders",
      "outputs": [
        {
          "internalType": "address",
          "name": "buyer",
          "type": "address"
        },
        {
          "internalType": "address",
          "name": "seller",
          "type": "address"
        },
        {
          "internalType": "uint256",
          "name": "productId",
          "type": "uint256"
        },
        {
          "internalType": "uint256",
          "name": "qty",
          "type": "uint256"
        },
        {
          "internalType": "uint256",
          "name": "unitPriceWei",
          "type": "uint256"
        },
        {
          "internalType": "uint256",
          "name": "amount",
          "type": "uint256"
        },
        {
          "internalType": "bool",
          "name": "shipped",
          "type": "bool"
        },
        {
          "internalType": "bool",
          "name": "delivered",
          "type": "bool"
        },
        {
          "internalType": "bool",
          "name": "paidOut",
          "type": "bool"
        },
        {
          "internalType": "bool",
          "name": "rated",
          "type": "bool"
        }
      ],
      "stateMutability": "view",
      "type": "function",
      "constant": true
    },
    {
      "inputs": [],
      "name": "reputation",
      "outputs": [
        {
          "internalType": "contract ISellerReputation",
          "name": "",
          "type": "address"
        }
      ],
      "stateMutability": "view",
      "type": "function",
      "constant": true
    },
    {
      "inputs": [
        {
          "internalType": "uint256",
          "name": "productId",
          "type": "uint256"
        },
        {
          "internalType": "uint256",
          "name": "qty",
          "type": "uint256"
        },
        {
          "internalType": "uint256",
          "name": "unitPriceWei",
          "type": "uint256"
        }
      ],
      "name": "createOrder",
      "outputs": [
        {
          "internalType": "uint256",
          "name": "orderId",
          "type": "uint256"
        }
      ],
      "stateMutability": "payable",
      "type": "function",
      "payable": true
    },
    {
      "inputs": [
        {
          "internalType": "uint256",
          "name": "orderId",
          "type": "uint256"
        }
      ],
      "name": "confirmShipment",
      "outputs": [],
      "stateMutability": "nonpayable",
      "type": "function"
    },
    {
      "inputs": [
        {
          "internalType": "uint256",
          "name": "orderId",
          "type": "uint256"
        }
      ],
      "name": "confirmDelivery",
      "outputs": [],
      "stateMutability": "nonpayable",
      "type": "function"
    },
    {
      "inputs": [
        {
          "internalType": "uint256",
          "name": "orderId",
          "type": "uint256"
        }
      ],
      "name": "releasePayment",
      "outputs": [],
      "stateMutability": "nonpayable",
      "type": "function"
    },
    {
      "inputs": [
        {
          "internalType": "uint256",
          "name": "orderId",
          "type": "uint256"
        },
        {
          "internalType": "uint8",
          "name": "stars",
          "type": "uint8"
        },
        {
          "internalType": "string",
          "name": "comment",
          "type": "string"
        }
      ],
      "name": "submitRating",
      "outputs": [],
      "stateMutability": "nonpayable",
      "type": "function"
    },
    {
      "inputs": [
        {
          "internalType": "uint256",
          "name": "orderId",
          "type": "uint256"
        }
      ],
      "name": "getOrder",
      "outputs": [
        {
          "internalType": "address",
          "name": "buyer",
          "type": "address"
        },
        {
          "internalType": "address",
          "name": "seller",
          "type": "address"
        },
        {
          "internalType": "uint256",
          "name": "productId",
          "type": "uint256"
        },
        {
          "internalType": "uint256",
          "name": "qty",
          "type": "uint256"
        },
        {
          "internalType": "uint256",
          "name": "unitPriceWei",
          "type": "uint256"
        },
        {
          "internalType": "uint256",
          "name": "amountWei",
          "type": "uint256"
        },
        {
          "internalType": "bool",
          "name": "shipped",
          "type": "bool"
        },
        {
          "internalType": "bool",
          "name": "delivered",
          "type": "bool"
        },
        {
          "internalType": "bool",
          "name": "paidOut",
          "type": "bool"
        },
        {
          "internalType": "bool",
          "name": "rated",
          "type": "bool"
        }
      ],
      "stateMutability": "view",
      "type": "function",
      "constant": true
    },
    {
      "inputs": [
        {
          "internalType": "address",
          "name": "buyer",
          "type": "address"
        }
      ],
      "name": "getBuyerOrders",
      "outputs": [
        {
          "internalType": "uint256[]",
          "name": "",
          "type": "uint256[]"
        }
      ],
      "stateMutability": "view",
      "type": "function",
      "constant": true
    },
    {
      "inputs": [
        {
          "internalType": "address",
          "name": "seller",
          "type": "address"
        }
      ],
      "name": "getSellerOrders",
      "outputs": [
        {
          "internalType": "uint256[]",
          "name": "",
          "type": "uint256[]"
        }
      ],
      "stateMutability": "view",
      "type": "function",
      "constant": true
    }
  ],
  "bytecode": "0x60806040523480156200001157600080fd5b50604051620025f5380380620025f583398181016040528101906200003791906200015b565b600073ffffffffffffffffffffffffffffffffffffffff168173ffffffffffffffffffffffffffffffffffffffff1603620000a9576040517f08c379a0000000000000000000000000000000000000000000000000000000008152600401620000a090620001ee565b60405180910390fd5b80600460006101000a81548173ffffffffffffffffffffffffffffffffffffffff021916908373ffffffffffffffffffffffffffffffffffffffff1602179055505062000210565b600080fd5b600073ffffffffffffffffffffffffffffffffffffffff82169050919050565b60006200012382620000f6565b9050919050565b620001358162000116565b81146200014157600080fd5b50565b60008151905062000155816200012a565b92915050565b600060208284031215620001745762000173620000f1565b5b6000620001848482850162000144565b91505092915050565b600082825260208201905092915050565b7f496e76616c69642072657075746174696f6e2061646472657373000000000000600082015250565b6000620001d6601a836200018d565b9150620001e3826200019e565b602082019050919050565b600060208201905081810360008301526200020981620001c7565b9050919050565b6123d580620002206000396000f3fe60806040526004361061009c5760003560e01c8063af648e1211610064578063af648e12146101a8578063c52164c6146101d1578063d09ef241146101fc578063e0cb8e5f14610242578063e4cbac401461026b578063fd84cb97146102a85761009c565b80632a58b330146100a157806388685cd9146100cc578063a1ba444d146100f5578063a45f2ebc14610125578063a85c38ef14610162575b600080fd5b3480156100ad57600080fd5b506100b66102d1565b6040516100c391906115d1565b60405180910390f35b3480156100d857600080fd5b506100f360048036038101906100ee9190611622565b6102d7565b005b61010f600480360381019061010a919061164f565b610635565b60405161011c91906115d1565b60405180910390f35b34801561013157600080fd5b5061014c60048036038101906101479190611700565b6109d4565b60405161015991906117eb565b60405180910390f35b34801561016e57600080fd5b5061018960048036038101906101849190611622565b610a6b565b60405161019f9a99989796959493929190611837565b60405180910390f35b3480156101b457600080fd5b506101cf60048036038101906101ca9190611971565b610b33565b005b3480156101dd57600080fd5b506101e6610e30565b6040516101f39190611a44565b60405180910390f35b34801561020857600080fd5b50610223600480360381019061021e9190611622565b610e56565b6040516102399a99989796959493929190611837565b60405180910390f35b34801561024e57600080fd5b5061026960048036038101906102649190611622565b61101e565b005b34801561027757600080fd5b50610292600480360381019061028d9190611700565b61131e565b60405161029f91906117eb565b60405180910390f35b3480156102b457600080fd5b506102cf60048036038101906102ca9190611622565b6113b5565b005b60005481565b60006001600083815260200190815260200160002090506000816005015411610335576040517f08c379a000000000000000000000000000000000000000000000000000000000815260040161032c90611abc565b60405180910390fd5b8060060160009054906101000a900460ff16610386576040517f08c379a000000000000000000000000000000000000000000000000000000000815260040161037d90611b28565b60405180910390fd5b8060060160019054906101000a900460ff166103d7576040517f08c379a00000000000000000000000000000000000000000000000000000000081526004016103ce90611b94565b60405180910390fd5b600073ffffffffffffffffffffffffffffffffffffffff168160010160009054906101000a900473ffffffffffffffffffffffffffffffffffffffff1673ffffffffffffffffffffffffffffffffffffffff160361046a576040517f08c379a000000000000000000000000000000000000000000000000000000000815260040161046190611c00565b60405180910390fd5b8060060160029054906101000a900460ff16156104bc576040517f08c379a00000000000000000000000000000000000000000000000000000000081526004016104b390611c6c565b60405180910390fd5b60018160060160026101000a81548160ff0219169083151502179055506000816005015490506000826005018190555060008260010160009054906101000a900473ffffffffffffffffffffffffffffffffffffffff1673ffffffffffffffffffffffffffffffffffffffff168260405161053690611cbd565b60006040518083038185875af1925050503d8060008114610573576040519150601f19603f3d011682016040523d82523d6000602084013e610578565b606091505b50509050806105bc576040517f08c379a00000000000000000000000000000000000000000000000000000000081526004016105b390611d1e565b60405180910390fd5b8260010160009054906101000a900473ffffffffffffffffffffffffffffffffffffffff1673ffffffffffffffffffffffffffffffffffffffff16847f21d71db5be59bb9fa133895586b7404307dd33fb93b16db09dc6f1d9d7d231b08460405161062791906115d1565b60405180910390a350505050565b6000808311610679576040517f08c379a000000000000000000000000000000000000000000000000000000000815260040161067090611d8a565b60405180910390fd5b600082116106bc576040517f08c379a00000000000000000000000000000000000000000000000000000000081526004016106b390611df6565b60405180910390fd5b600082846106ca9190611e45565b905080341461070e576040517f08c379a000000000000000000000000000000000000000000000000000000000815260040161070590611ed3565b60405180910390fd5b600054915060016000808282546107259190611ef3565b925050819055506040518061014001604052803373ffffffffffffffffffffffffffffffffffffffff168152602001600073ffffffffffffffffffffffffffffffffffffffff168152602001868152602001858152602001848152602001348152602001600015158152602001600015158152602001600015158152602001600015158152506001600084815260200190815260200160002060008201518160000160006101000a81548173ffffffffffffffffffffffffffffffffffffffff021916908373ffffffffffffffffffffffffffffffffffffffff16021790555060208201518160010160006101000a81548173ffffffffffffffffffffffffffffffffffffffff021916908373ffffffffffffffffffffffffffffffffffffffff16021790555060408201518160020155606082015181600301556080820151816004015560a0820151816005015560c08201518160060160006101000a81548160ff02191690831515021790555060e08201518160060160016101000a81548160ff0219169083151502179055506101008201518160060160026101000a81548160ff0219169083151502179055506101208201518160060160036101000a81548160ff021916908315150217905550905050600260003373ffffffffffffffffffffffffffffffffffffffff1673ffffffffffffffffffffffffffffffffffffffff168152602001908152602001600020829080600181540180825580915050600190039060005260206000200160009091909190915055600073ffffffffffffffffffffffffffffffffffffffff163373ffffffffffffffffffffffffffffffffffffffff16837f97731a95ce5dd1802ada2af380a14fd8e47563e47aa4335a4a418317176eb8ed888888346040516109c49493929190611f27565b60405180910390a4509392505050565b6060600260008373ffffffffffffffffffffffffffffffffffffffff1673ffffffffffffffffffffffffffffffffffffffff168152602001908152602001600020805480602002602001604051908101604052809291908181526020018280548015610a5f57602002820191906000526020600020905b815481526020019060010190808311610a4b575b50505050509050919050565b60016020528060005260406000206000915090508060000160009054906101000a900473ffffffffffffffffffffffffffffffffffffffff16908060010160009054906101000a900473ffffffffffffffffffffffffffffffffffffffff16908060020154908060030154908060040154908060050154908060060160009054906101000a900460ff16908060060160019054906101000a900460ff16908060060160029054906101000a900460ff16908060060160039054906101000a900460ff1690508a565b60006001600086815260200190815260200160002090503373ffffffffffffffffffffffffffffffffffffffff168160000160009054906101000a900473ffffffffffffffffffffffffffffffffffffffff1673ffffffffffffffffffffffffffffffffffffffff1614610bdc576040517f08c379a0000000000000000000000000000000000000000000000000000000008152600401610bd390611fb8565b60405180910390fd5b8060060160029054906101000a900460ff16610c2d576040517f08c379a0000000000000000000000000000000000000000000000000000000008152600401610c2490612024565b60405180910390fd5b8060060160039054906101000a900460ff1615610c7f576040517f08c379a0000000000000000000000000000000000000000000000000000000008152600401610c7690612090565b60405180910390fd5b60018160060160036101000a81548160ff021916908315150217905550600460009054906101000a900473ffffffffffffffffffffffffffffffffffffffff1673ffffffffffffffffffffffffffffffffffffffff166310ceba4b868360010160009054906101000a900473ffffffffffffffffffffffffffffffffffffffff168460000160009054906101000a900473ffffffffffffffffffffffffffffffffffffffff168888886040518763ffffffff1660e01b8152600401610d499695949392919061210c565b600060405180830381600087803b158015610d6357600080fd5b505af1158015610d77573d6000803e3d6000fd5b505050508060000160009054906101000a900473ffffffffffffffffffffffffffffffffffffffff1673ffffffffffffffffffffffffffffffffffffffff168160010160009054906101000a900473ffffffffffffffffffffffffffffffffffffffff1673ffffffffffffffffffffffffffffffffffffffff16867f1c77a158686639c60e48e2f63ec680c6dfd55fdebf1a1d34b6ad59eee1f2861087604051610e219190612168565b60405180910390a45050505050565b600460009054906101000a900473ffffffffffffffffffffffffffffffffffffffff1681565b6000806000806000806000806000806000600160008d8152602001908152602001600020604051806101400160405290816000820160009054906101000a900473ffffffffffffffffffffffffffffffffffffffff1673ffffffffffffffffffffffffffffffffffffffff1673ffffffffffffffffffffffffffffffffffffffff1681526020016001820160009054906101000a900473ffffffffffffffffffffffffffffffffffffffff1673ffffffffffffffffffffffffffffffffffffffff1673ffffffffffffffffffffffffffffffffffffffff168152602001600282015481526020016003820154815260200160048201548152602001600582015481526020016006820160009054906101000a900460ff161515151581526020016006820160019054906101000a900460ff161515151581526020016006820160029054906101000a900460ff161515151581526020016006820160039054906101000a900460ff1615151515815250509050806000015181602001518260400151836060015184608001518560a001518660c001518760e001518861010001518961012001519a509a509a509a509a509a509a509a509a509a50509193959799509193959799565b6000600160008381526020019081526020016000209050600081600501541161107c576040517f08c379a000000000000000000000000000000000000000000000000000000000815260040161107390611abc565b60405180910390fd5b8060060160009054906101000a900460ff16156110ce576040517f08c379a00000000000000000000000000000000000000000000000000000000081526004016110c5906121cf565b60405180910390fd5b8060060160029054906101000a900460ff1615611120576040517f08c379a000000000000000000000000000000000000000000000000000000000815260040161111790611c6c565b60405180910390fd5b600073ffffffffffffffffffffffffffffffffffffffff168160010160009054906101000a900473ffffffffffffffffffffffffffffffffffffffff1673ffffffffffffffffffffffffffffffffffffffff160361122657338160010160006101000a81548173ffffffffffffffffffffffffffffffffffffffff021916908373ffffffffffffffffffffffffffffffffffffffff160217905550600360003373ffffffffffffffffffffffffffffffffffffffff1673ffffffffffffffffffffffffffffffffffffffff1681526020019081526020016000208290806001815401808255809150506001900390600052602060002001600090919091909150556112b9565b3373ffffffffffffffffffffffffffffffffffffffff168160010160009054906101000a900473ffffffffffffffffffffffffffffffffffffffff1673ffffffffffffffffffffffffffffffffffffffff16146112b8576040517f08c379a00000000000000000000000000000000000000000000000000000000081526004016112af9061223b565b60405180910390fd5b5b60018160060160006101000a81548160ff0219169083151502179055503373ffffffffffffffffffffffffffffffffffffffff16827f682c8a4fab89a425b973af64172cc6363b99285e49c35b15f3ed2601e454151d60405160405180910390a35050565b6060600360008373ffffffffffffffffffffffffffffffffffffffff1673ffffffffffffffffffffffffffffffffffffffff1681526020019081526020016000208054806020026020016040519081016040528092919081815260200182805480156113a957602002820191906000526020600020905b815481526020019060010190808311611395575b50505050509050919050565b60006001600083815260200190815260200160002090503373ffffffffffffffffffffffffffffffffffffffff168160000160009054906101000a900473ffffffffffffffffffffffffffffffffffffffff1673ffffffffffffffffffffffffffffffffffffffff161461145e576040517f08c379a0000000000000000000000000000000000000000000000000000000008152600401611455906122a7565b60405180910390fd5b8060060160009054906101000a900460ff166114af576040517f08c379a00000000000000000000000000000000000000000000000000000000081526004016114a690612313565b60405180910390fd5b8060060160019054906101000a900460ff1615611501576040517f08c379a00000000000000000000000000000000000000000000000000000000081526004016114f89061237f565b60405180910390fd5b8060060160029054906101000a900460ff1615611553576040517f08c379a000000000000000000000000000000000000000000000000000000000815260040161154a90611c6c565b60405180910390fd5b60018160060160016101000a81548160ff0219169083151502179055503373ffffffffffffffffffffffffffffffffffffffff16827f64a783c6150854ae756454311c7625a965c757996ba8cc1a8c6205380f33725060405160405180910390a35050565b6000819050919050565b6115cb816115b8565b82525050565b60006020820190506115e660008301846115c2565b92915050565b600080fd5b600080fd5b6115ff816115b8565b811461160a57600080fd5b50565b60008135905061161c816115f6565b92915050565b600060208284031215611638576116376115ec565b5b60006116468482850161160d565b91505092915050565b600080600060608486031215611668576116676115ec565b5b60006116768682870161160d565b93505060206116878682870161160d565b92505060406116988682870161160d565b9150509250925092565b600073ffffffffffffffffffffffffffffffffffffffff82169050919050565b60006116cd826116a2565b9050919050565b6116dd816116c2565b81146116e857600080fd5b50565b6000813590506116fa816116d4565b92915050565b600060208284031215611716576117156115ec565b5b6000611724848285016116eb565b91505092915050565b600081519050919050565b600082825260208201905092915050565b6000819050602082019050919050565b611762816115b8565b82525050565b60006117748383611759565b60208301905092915050565b6000602082019050919050565b60006117988261172d565b6117a28185611738565b93506117ad83611749565b8060005b838110156117de5781516117c58882611768565b97506117d083611780565b9250506001810190506117b1565b5085935050505092915050565b60006020820190508181036000830152611805818461178d565b905092915050565b611816816116c2565b82525050565b60008115159050919050565b6118318161181c565b82525050565b60006101408201905061184d600083018d61180d565b61185a602083018c61180d565b611867604083018b6115c2565b611874606083018a6115c2565b61188160808301896115c2565b61188e60a08301886115c2565b61189b60c0830187611828565b6118a860e0830186611828565b6118b6610100830185611828565b6118c4610120830184611828565b9b9a5050505050505050505050565b600060ff82169050919050565b6118e9816118d3565b81146118f457600080fd5b50565b600081359050611906816118e0565b92915050565b600080fd5b600080fd5b600080fd5b60008083601f8401126119315761193061190c565b5b8235905067ffffffffffffffff81111561194e5761194d611911565b5b60208301915083600182028301111561196a57611969611916565b5b9250929050565b6000806000806060858703121561198b5761198a6115ec565b5b60006119998782880161160d565b94505060206119aa878288016118f7565b935050604085013567ffffffffffffffff8111156119cb576119ca6115f1565b5b6119d78782880161191b565b925092505092959194509250565b6000819050919050565b6000611a0a611a05611a00846116a2565b6119e5565b6116a2565b9050919050565b6000611a1c826119ef565b9050919050565b6000611a2e82611a11565b9050919050565b611a3e81611a23565b82525050565b6000602082019050611a596000830184611a35565b92915050565b600082825260208201905092915050565b7f4f72646572206e6f7420666f756e640000000000000000000000000000000000600082015250565b6000611aa6600f83611a5f565b9150611ab182611a70565b602082019050919050565b60006020820190508181036000830152611ad581611a99565b9050919050565b7f536869706d656e74206e6f7420636f6e6669726d656400000000000000000000600082015250565b6000611b12601683611a5f565b9150611b1d82611adc565b602082019050919050565b60006020820190508181036000830152611b4181611b05565b9050919050565b7f44656c6976657279206e6f7420636f6e6669726d656400000000000000000000600082015250565b6000611b7e601683611a5f565b9150611b8982611b48565b602082019050919050565b60006020820190508181036000830152611bad81611b71565b9050919050565b7f53656c6c6572206e6f7420736574000000000000000000000000000000000000600082015250565b6000611bea600e83611a5f565b9150611bf582611bb4565b602082019050919050565b60006020820190508181036000830152611c1981611bdd565b9050919050565b7f416c726561647920706169640000000000000000000000000000000000000000600082015250565b6000611c56600c83611a5f565b9150611c6182611c20565b602082019050919050565b60006020820190508181036000830152611c8581611c49565b9050919050565b600081905092915050565b50565b6000611ca7600083611c8c565b9150611cb282611c97565b600082019050919050565b6000611cc882611c9a565b9150819050919050565b7f5472616e73666572206661696c65640000000000000000000000000000000000600082015250565b6000611d08600f83611a5f565b9150611d1382611cd2565b602082019050919050565b60006020820190508181036000830152611d3781611cfb565b9050919050565b7f5175616e74697479206d757374206265203e2030000000000000000000000000600082015250565b6000611d74601483611a5f565b9150611d7f82611d3e565b602082019050919050565b60006020820190508181036000830152611da381611d67565b9050919050565b7f556e6974207072696365206d757374206265203e203000000000000000000000600082015250565b6000611de0601683611a5f565b9150611deb82611daa565b602082019050919050565b60006020820190508181036000830152611e0f81611dd3565b9050919050565b7f4e487b7100000000000000000000000000000000000000000000000000000000600052601160045260246000fd5b6000611e50826115b8565b9150611e5b836115b8565b9250828202611e69816115b8565b91508282048414831517611e8057611e7f611e16565b5b5092915050565b7f496e636f7272656374207061796d656e7420616d6f756e740000000000000000600082015250565b6000611ebd601883611a5f565b9150611ec882611e87565b602082019050919050565b60006020820190508181036000830152611eec81611eb0565b9050919050565b6000611efe826115b8565b9150611f09836115b8565b9250828201905080821115611f2157611f20611e16565b5b92915050565b6000608082019050611f3c60008301876115c2565b611f4960208301866115c2565b611f5660408301856115c2565b611f6360608301846115c2565b95945050505050565b7f4f6e6c792062757965722063616e207261746500000000000000000000000000600082015250565b6000611fa2601383611a5f565b9150611fad82611f6c565b602082019050919050565b60006020820190508181036000830152611fd181611f95565b9050919050565b7f5061796d656e74206e6f742072656c6561736564207965740000000000000000600082015250565b600061200e601883611a5f565b915061201982611fd8565b602082019050919050565b6000602082019050818103600083015261203d81612001565b9050919050565b7f416c726561647920726174656400000000000000000000000000000000000000600082015250565b600061207a600d83611a5f565b915061208582612044565b602082019050919050565b600060208201905081810360008301526120a98161206d565b9050919050565b6120b9816118d3565b82525050565b82818337600083830152505050565b6000601f19601f8301169050919050565b60006120eb8385611a5f565b93506120f88385846120bf565b612101836120ce565b840190509392505050565b600060a08201905061212160008301896115c2565b61212e602083018861180d565b61213b604083018761180d565b61214860608301866120b0565b818103608083015261215b8184866120df565b9050979650505050505050565b600060208201905061217d60008301846120b0565b92915050565b7f416c726561647920736869707065640000000000000000000000000000000000600082015250565b60006121b9600f83611a5f565b91506121c482612183565b602082019050919050565b600060208201905081810360008301526121e8816121ac565b9050919050565b7f4f6e6c792073656c6c65722063616e20636f6e6669726d000000000000000000600082015250565b6000612225601783611a5f565b9150612230826121ef565b602082019050919050565b6000602082019050818103600083015261225481612218565b9050919050565b7f4f6e6c792062757965722063616e20636f6e6669726d00000000000000000000600082015250565b6000612291601683611a5f565b915061229c8261225b565b602082019050919050565b600060208201905081810360008301526122c081612284565b9050919050565b7f4e6f742073686970706564207965740000000000000000000000000000000000600082015250565b60006122fd600f83611a5f565b9150612308826122c7565b602082019050919050565b6000602082019050818103600083015261232c816122f0565b9050919050565b7f416c726561647920636f6e6669726d6564000000000000000000000000000000600082015250565b6000612369601183611a5f565b915061237482612333565b602082019050919050565b600060208201905081810360008301526123988161235c565b905091905056fea2646970667358221220fbd3c7b3b2094b94d57b48896ff6035f763c7e5ce3e9047dcd7b6a91545045c264736f6c63430008130033",
  "immutableReferences": {},
  "source": "// SPDX-License-Identifier: MIT\r\npragma solidity ^0.8.19;\r\n\r\n/*\r\n  EscrowPayment\r\n  - Buyer creates order + deposits ETH into escrow\r\n  - Seller confirms shipment\r\n  - Buyer confirms delivery -> escrow releases ETH to seller\r\n  - After release, buyer can submit rating (stored in SellerReputation)\r\n*/\r\n\r\ninterface ISellerReputation {\r\n    function recordRating(\r\n        uint256 orderId,\r\n        address seller,\r\n        address buyer,\r\n        uint8 stars,\r\n        string calldata comment\r\n    ) external;\r\n}\r\n\r\ncontract EscrowPayment {\r\n    struct Order {\r\n        address buyer;\r\n        address seller;\r\n        uint256 productId;\r\n        uint256 qty;\r\n        uint256 unitPriceWei;\r\n        uint256 amount;     // ETH in wei\r\n        bool shipped;\r\n        bool delivered;\r\n        bool paidOut;\r\n        bool rated;\r\n    }\r\n\r\n    uint256 public nextOrderId;\r\n    mapping(uint256 => Order) public orders;\r\n    mapping(address => uint256[]) private buyerOrders;\r\n    mapping(address => uint256[]) private sellerOrders;\r\n\r\n    ISellerReputation public reputation;\r\n\r\n    event OrderCreated(\r\n        uint256 indexed orderId,\r\n        address indexed buyer,\r\n        address indexed seller,\r\n        uint256 productId,\r\n        uint256 qty,\r\n        uint256 unitPriceWei,\r\n        uint256 amount\r\n    );\r\n    event ShipmentConfirmed(uint256 indexed orderId, address indexed seller);\r\n    event DeliveryConfirmed(uint256 indexed orderId, address indexed buyer);\r\n    event PaymentReleased(uint256 indexed orderId, address indexed seller, uint256 amount);\r\n    event RatingSubmitted(uint256 indexed orderId, address indexed seller, address indexed buyer, uint8 stars);\r\n\r\n    constructor(address reputationContract) {\r\n        require(reputationContract != address(0), \"Invalid reputation address\");\r\n        reputation = ISellerReputation(reputationContract);\r\n    }\r\n\r\n    // 1) Buyer creates an order and deposits ETH into escrow\n    function createOrder(\n        uint256 productId,\n        uint256 qty,\n        uint256 unitPriceWei\n    ) external payable returns (uint256 orderId) {\n        require(qty > 0, \"Quantity must be > 0\");\n        require(unitPriceWei > 0, \"Unit price must be > 0\");\n        uint256 expected = qty * unitPriceWei;\n        require(msg.value == expected, \"Incorrect payment amount\");\n\r\n        orderId = nextOrderId;\r\n        nextOrderId += 1;\r\n\r\n        orders[orderId] = Order({\n            buyer: msg.sender,\n            seller: address(0),\n            productId: productId,\n            qty: qty,\n            unitPriceWei: unitPriceWei,\n            amount: msg.value,\n            shipped: false,\r\n            delivered: false,\r\n            paidOut: false,\r\n            rated: false\r\n        });\r\n\r\n        buyerOrders[msg.sender].push(orderId);\n\n        emit OrderCreated(orderId, msg.sender, address(0), productId, qty, unitPriceWei, msg.value);\n    }\n\r\n    // 2) Seller confirms shipment\r\n    function confirmShipment(uint256 orderId) external {\n        Order storage o = orders[orderId];\n        require(o.amount > 0, \"Order not found\");\n        require(!o.shipped, \"Already shipped\");\n        require(!o.paidOut, \"Already paid\");\n\n        if (o.seller == address(0)) {\n            o.seller = msg.sender;\n            sellerOrders[msg.sender].push(orderId);\n        } else {\n            require(o.seller == msg.sender, \"Only seller can confirm\");\n        }\n        o.shipped = true;\n        emit ShipmentConfirmed(orderId, msg.sender);\n    }\n\r\n    // 3) Buyer confirms delivery\r\n    function confirmDelivery(uint256 orderId) external {\r\n        Order storage o = orders[orderId];\r\n        require(o.buyer == msg.sender, \"Only buyer can confirm\");\r\n        require(o.shipped, \"Not shipped yet\");\r\n        require(!o.delivered, \"Already confirmed\");\r\n        require(!o.paidOut, \"Already paid\");\r\n\r\n        o.delivered = true;\r\n        emit DeliveryConfirmed(orderId, msg.sender);\r\n    }\r\n\r\n    // 4) Release payment to seller (can be triggered by buyer or seller after delivery confirmed)\r\n    function releasePayment(uint256 orderId) external {\n        Order storage o = orders[orderId];\n        require(o.amount > 0, \"Order not found\");\n        require(o.shipped, \"Shipment not confirmed\");\n        require(o.delivered, \"Delivery not confirmed\");\n        require(o.seller != address(0), \"Seller not set\");\n        require(!o.paidOut, \"Already paid\");\n\r\n        // Checks-effects-interactions\r\n        o.paidOut = true;\r\n        uint256 amt = o.amount;\r\n        o.amount = 0;\r\n\r\n        (bool ok, ) = payable(o.seller).call{value: amt}(\"\");\r\n        require(ok, \"Transfer failed\");\r\n\r\n        emit PaymentReleased(orderId, o.seller, amt);\r\n    }\r\n\r\n    // 5) Buyer submits rating ONLY after payout (this prevents fake reviews)\r\n    function submitRating(uint256 orderId, uint8 stars, string calldata comment) external {\r\n        Order storage o = orders[orderId];\r\n        require(o.buyer == msg.sender, \"Only buyer can rate\");\r\n        require(o.paidOut, \"Payment not released yet\");\r\n        require(!o.rated, \"Already rated\");\r\n\r\n        o.rated = true;\r\n\r\n        reputation.recordRating(orderId, o.seller, o.buyer, stars, comment);\r\n\r\n        emit RatingSubmitted(orderId, o.seller, o.buyer, stars);\r\n    }\r\n\r\n    // Helper: view order basic status\r\n    function getOrder(uint256 orderId)\r\n        external\r\n        view\r\n        returns (\r\n            address buyer,\r\n            address seller,\r\n            uint256 productId,\r\n            uint256 qty,\r\n            uint256 unitPriceWei,\r\n            uint256 amountWei,\r\n            bool shipped,\r\n            bool delivered,\r\n            bool paidOut,\r\n            bool rated\r\n        )\r\n    {\r\n        Order memory o = orders[orderId];\r\n        return (\r\n            o.buyer,\r\n            o.seller,\r\n            o.productId,\r\n            o.qty,\r\n            o.unitPriceWei,\r\n            o.amount,\r\n            o.shipped,\r\n            o.delivered,\r\n            o.paidOut,\r\n            o.rated\r\n        );\r\n    }\r\n\r\n    function getBuyerOrders(address buyer) external view returns (uint256[] memory) {\r\n        return buyerOrders[buyer];\r\n    }\r\n\r\n    function getSellerOrders(address seller) external view returns (uint256[] memory) {\r\n        return sellerOrders[seller];\r\n    }\r\n}\r\n",
  "sourcePath": "C:\\Users\\24048278\\C373Projects\\RaphFAproject\\C373_Team-2_FA\\contracts\\EscrowPayment.sol",
  "compiler": {
    "name": "solc",
    "version": "0.8.19+commit.7dd6d404.Emscripten.clang"
  },
  "schemaVersion": "3.4.16",
  "updatedAt": "2026-01-22T14:24:37.270Z",
  "networkType": "ethereum",
  "devdoc": {
    "kind": "dev",
    "methods": {},
    "version": 1
  },
  "userdoc": {
    "kind": "user",
    "methods": {},
    "version": 1
  }
}