{
  "contractName": "EscrowPayment",
  "abi": [
    {
      "inputs": [
        {
          "internalType": "address",
          "name": "reputationContract",
          "type": "address"
        }
      ],
      "stateMutability": "nonpayable",
      "type": "constructor"
    },
    {
      "anonymous": false,
      "inputs": [
        {
          "indexed": true,
          "internalType": "uint256",
          "name": "orderId",
          "type": "uint256"
        },
        {
          "indexed": true,
          "internalType": "address",
          "name": "buyer",
          "type": "address"
        }
      ],
      "name": "DeliveryConfirmed",
      "type": "event"
    },
    {
      "anonymous": false,
      "inputs": [
        {
          "indexed": true,
          "internalType": "uint256",
          "name": "orderId",
          "type": "uint256"
        },
        {
          "indexed": true,
          "internalType": "address",
          "name": "buyer",
          "type": "address"
        },
        {
          "indexed": true,
          "internalType": "address",
          "name": "seller",
          "type": "address"
        },
        {
          "indexed": false,
          "internalType": "uint256",
          "name": "amount",
          "type": "uint256"
        }
      ],
      "name": "OrderCreated",
      "type": "event"
    },
    {
      "anonymous": false,
      "inputs": [
        {
          "indexed": true,
          "internalType": "uint256",
          "name": "orderId",
          "type": "uint256"
        },
        {
          "indexed": true,
          "internalType": "address",
          "name": "seller",
          "type": "address"
        },
        {
          "indexed": false,
          "internalType": "uint256",
          "name": "amount",
          "type": "uint256"
        }
      ],
      "name": "PaymentReleased",
      "type": "event"
    },
    {
      "anonymous": false,
      "inputs": [
        {
          "indexed": true,
          "internalType": "uint256",
          "name": "orderId",
          "type": "uint256"
        },
        {
          "indexed": true,
          "internalType": "address",
          "name": "seller",
          "type": "address"
        },
        {
          "indexed": true,
          "internalType": "address",
          "name": "buyer",
          "type": "address"
        },
        {
          "indexed": false,
          "internalType": "uint8",
          "name": "stars",
          "type": "uint8"
        }
      ],
      "name": "RatingSubmitted",
      "type": "event"
    },
    {
      "inputs": [],
      "name": "nextOrderId",
      "outputs": [
        {
          "internalType": "uint256",
          "name": "",
          "type": "uint256"
        }
      ],
      "stateMutability": "view",
      "type": "function",
      "constant": true
    },
    {
      "inputs": [
        {
          "internalType": "uint256",
          "name": "",
          "type": "uint256"
        }
      ],
      "name": "orders",
      "outputs": [
        {
          "internalType": "address",
          "name": "buyer",
          "type": "address"
        },
        {
          "internalType": "address",
          "name": "seller",
          "type": "address"
        },
        {
          "internalType": "uint256",
          "name": "amount",
          "type": "uint256"
        },
        {
          "internalType": "bool",
          "name": "delivered",
          "type": "bool"
        },
        {
          "internalType": "bool",
          "name": "paidOut",
          "type": "bool"
        },
        {
          "internalType": "bool",
          "name": "rated",
          "type": "bool"
        }
      ],
      "stateMutability": "view",
      "type": "function",
      "constant": true
    },
    {
      "inputs": [],
      "name": "reputation",
      "outputs": [
        {
          "internalType": "contract ISellerReputation",
          "name": "",
          "type": "address"
        }
      ],
      "stateMutability": "view",
      "type": "function",
      "constant": true
    },
    {
      "inputs": [
        {
          "internalType": "address",
          "name": "seller",
          "type": "address"
        }
      ],
      "name": "createOrder",
      "outputs": [
        {
          "internalType": "uint256",
          "name": "orderId",
          "type": "uint256"
        }
      ],
      "stateMutability": "payable",
      "type": "function",
      "payable": true
    },
    {
      "inputs": [
        {
          "internalType": "uint256",
          "name": "orderId",
          "type": "uint256"
        }
      ],
      "name": "confirmDelivery",
      "outputs": [],
      "stateMutability": "nonpayable",
      "type": "function"
    },
    {
      "inputs": [
        {
          "internalType": "uint256",
          "name": "orderId",
          "type": "uint256"
        }
      ],
      "name": "releasePayment",
      "outputs": [],
      "stateMutability": "nonpayable",
      "type": "function"
    },
    {
      "inputs": [
        {
          "internalType": "uint256",
          "name": "orderId",
          "type": "uint256"
        },
        {
          "internalType": "uint8",
          "name": "stars",
          "type": "uint8"
        },
        {
          "internalType": "string",
          "name": "comment",
          "type": "string"
        }
      ],
      "name": "submitRating",
      "outputs": [],
      "stateMutability": "nonpayable",
      "type": "function"
    },
    {
      "inputs": [
        {
          "internalType": "uint256",
          "name": "orderId",
          "type": "uint256"
        }
      ],
      "name": "getOrder",
      "outputs": [
        {
          "internalType": "address",
          "name": "buyer",
          "type": "address"
        },
        {
          "internalType": "address",
          "name": "seller",
          "type": "address"
        },
        {
          "internalType": "uint256",
          "name": "amountWei",
          "type": "uint256"
        },
        {
          "internalType": "bool",
          "name": "delivered",
          "type": "bool"
        },
        {
          "internalType": "bool",
          "name": "paidOut",
          "type": "bool"
        },
        {
          "internalType": "bool",
          "name": "rated",
          "type": "bool"
        }
      ],
      "stateMutability": "view",
      "type": "function",
      "constant": true
    }
  ],
  "bytecode": "0x60806040523480156200001157600080fd5b50604051620019cf380380620019cf83398181016040528101906200003791906200015b565b600073ffffffffffffffffffffffffffffffffffffffff168173ffffffffffffffffffffffffffffffffffffffff1603620000a9576040517f08c379a0000000000000000000000000000000000000000000000000000000008152600401620000a090620001ee565b60405180910390fd5b80600260006101000a81548173ffffffffffffffffffffffffffffffffffffffff021916908373ffffffffffffffffffffffffffffffffffffffff1602179055505062000210565b600080fd5b600073ffffffffffffffffffffffffffffffffffffffff82169050919050565b60006200012382620000f6565b9050919050565b620001358162000116565b81146200014157600080fd5b50565b60008151905062000155816200012a565b92915050565b600060208284031215620001745762000173620000f1565b5b6000620001848482850162000144565b91505092915050565b600082825260208201905092915050565b7f496e76616c69642072657075746174696f6e2061646472657373000000000000600082015250565b6000620001d6601a836200018d565b9150620001e3826200019e565b602082019050919050565b600060208201905081810360008301526200020981620001c7565b9050919050565b6117af80620002206000396000f3fe60806040526004361061007b5760003560e01c8063c52164c61161004e578063c52164c61461013f578063d09ef2411461016a578063ea3774e3146101ac578063fd84cb97146101dc5761007b565b80632a58b3301461008057806388685cd9146100ab578063a85c38ef146100d4578063af648e1214610116575b600080fd5b34801561008c57600080fd5b50610095610205565b6040516100a29190610e28565b60405180910390f35b3480156100b757600080fd5b506100d260048036038101906100cd9190610e79565b61020b565b005b3480156100e057600080fd5b506100fb60048036038101906100f69190610e79565b610485565b60405161010d96959493929190610f02565b60405180910390f35b34801561012257600080fd5b5061013d60048036038101906101389190611001565b610528565b005b34801561014b57600080fd5b50610154610825565b60405161016191906110d4565b60405180910390f35b34801561017657600080fd5b50610191600480360381019061018c9190610e79565b61084b565b6040516101a396959493929190610f02565b60405180910390f35b6101c660048036038101906101c1919061111b565b6109b1565b6040516101d39190610e28565b60405180910390f35b3480156101e857600080fd5b5061020360048036038101906101fe9190610e79565b610c5d565b005b60005481565b60006001600083815260200190815260200160002090506000816002015411610269576040517f08c379a0000000000000000000000000000000000000000000000000000000008152600401610260906111a5565b60405180910390fd5b8060030160009054906101000a900460ff166102ba576040517f08c379a00000000000000000000000000000000000000000000000000000000081526004016102b190611211565b60405180910390fd5b8060030160019054906101000a900460ff161561030c576040517f08c379a00000000000000000000000000000000000000000000000000000000081526004016103039061127d565b60405180910390fd5b60018160030160016101000a81548160ff0219169083151502179055506000816002015490506000826002018190555060008260010160009054906101000a900473ffffffffffffffffffffffffffffffffffffffff1673ffffffffffffffffffffffffffffffffffffffff1682604051610386906112ce565b60006040518083038185875af1925050503d80600081146103c3576040519150601f19603f3d011682016040523d82523d6000602084013e6103c8565b606091505b505090508061040c576040517f08c379a00000000000000000000000000000000000000000000000000000000081526004016104039061132f565b60405180910390fd5b8260010160009054906101000a900473ffffffffffffffffffffffffffffffffffffffff1673ffffffffffffffffffffffffffffffffffffffff16847f21d71db5be59bb9fa133895586b7404307dd33fb93b16db09dc6f1d9d7d231b0846040516104779190610e28565b60405180910390a350505050565b60016020528060005260406000206000915090508060000160009054906101000a900473ffffffffffffffffffffffffffffffffffffffff16908060010160009054906101000a900473ffffffffffffffffffffffffffffffffffffffff16908060020154908060030160009054906101000a900460ff16908060030160019054906101000a900460ff16908060030160029054906101000a900460ff16905086565b60006001600086815260200190815260200160002090503373ffffffffffffffffffffffffffffffffffffffff168160000160009054906101000a900473ffffffffffffffffffffffffffffffffffffffff1673ffffffffffffffffffffffffffffffffffffffff16146105d1576040517f08c379a00000000000000000000000000000000000000000000000000000000081526004016105c89061139b565b60405180910390fd5b8060030160019054906101000a900460ff16610622576040517f08c379a000000000000000000000000000000000000000000000000000000000815260040161061990611407565b60405180910390fd5b8060030160029054906101000a900460ff1615610674576040517f08c379a000000000000000000000000000000000000000000000000000000000815260040161066b90611473565b60405180910390fd5b60018160030160026101000a81548160ff021916908315150217905550600260009054906101000a900473ffffffffffffffffffffffffffffffffffffffff1673ffffffffffffffffffffffffffffffffffffffff166310ceba4b868360010160009054906101000a900473ffffffffffffffffffffffffffffffffffffffff168460000160009054906101000a900473ffffffffffffffffffffffffffffffffffffffff168888886040518763ffffffff1660e01b815260040161073e969594939291906114ef565b600060405180830381600087803b15801561075857600080fd5b505af115801561076c573d6000803e3d6000fd5b505050508060000160009054906101000a900473ffffffffffffffffffffffffffffffffffffffff1673ffffffffffffffffffffffffffffffffffffffff168160010160009054906101000a900473ffffffffffffffffffffffffffffffffffffffff1673ffffffffffffffffffffffffffffffffffffffff16867f1c77a158686639c60e48e2f63ec680c6dfd55fdebf1a1d34b6ad59eee1f2861087604051610816919061154b565b60405180910390a45050505050565b600260009054906101000a900473ffffffffffffffffffffffffffffffffffffffff1681565b6000806000806000806000600160008981526020019081526020016000206040518060c00160405290816000820160009054906101000a900473ffffffffffffffffffffffffffffffffffffffff1673ffffffffffffffffffffffffffffffffffffffff1673ffffffffffffffffffffffffffffffffffffffff1681526020016001820160009054906101000a900473ffffffffffffffffffffffffffffffffffffffff1673ffffffffffffffffffffffffffffffffffffffff1673ffffffffffffffffffffffffffffffffffffffff168152602001600282015481526020016003820160009054906101000a900460ff161515151581526020016003820160019054906101000a900460ff161515151581526020016003820160029054906101000a900460ff1615151515815250509050806000015181602001518260400151836060015184608001518560a001519650965096509650965096505091939550919395565b60008073ffffffffffffffffffffffffffffffffffffffff168273ffffffffffffffffffffffffffffffffffffffff1603610a21576040517f08c379a0000000000000000000000000000000000000000000000000000000008152600401610a18906115b2565b60405180910390fd5b60003411610a64576040517f08c379a0000000000000000000000000000000000000000000000000000000008152600401610a5b9061161e565b60405180910390fd5b60005490506001600080828254610a7b919061166d565b925050819055506040518060c001604052803373ffffffffffffffffffffffffffffffffffffffff1681526020018373ffffffffffffffffffffffffffffffffffffffff168152602001348152602001600015158152602001600015158152602001600015158152506001600083815260200190815260200160002060008201518160000160006101000a81548173ffffffffffffffffffffffffffffffffffffffff021916908373ffffffffffffffffffffffffffffffffffffffff16021790555060208201518160010160006101000a81548173ffffffffffffffffffffffffffffffffffffffff021916908373ffffffffffffffffffffffffffffffffffffffff1602179055506040820151816002015560608201518160030160006101000a81548160ff02191690831515021790555060808201518160030160016101000a81548160ff02191690831515021790555060a08201518160030160026101000a81548160ff0219169083151502179055509050508173ffffffffffffffffffffffffffffffffffffffff163373ffffffffffffffffffffffffffffffffffffffff16827ff9e17940e547201709f9aaacdec8ab3566601c60d8f5affb54f74b79b0b50b1334604051610c509190610e28565b60405180910390a4919050565b60006001600083815260200190815260200160002090503373ffffffffffffffffffffffffffffffffffffffff168160000160009054906101000a900473ffffffffffffffffffffffffffffffffffffffff1673ffffffffffffffffffffffffffffffffffffffff1614610d06576040517f08c379a0000000000000000000000000000000000000000000000000000000008152600401610cfd906116ed565b60405180910390fd5b8060030160009054906101000a900460ff1615610d58576040517f08c379a0000000000000000000000000000000000000000000000000000000008152600401610d4f90611759565b60405180910390fd5b8060030160019054906101000a900460ff1615610daa576040517f08c379a0000000000000000000000000000000000000000000000000000000008152600401610da19061127d565b60405180910390fd5b60018160030160006101000a81548160ff0219169083151502179055503373ffffffffffffffffffffffffffffffffffffffff16827f64a783c6150854ae756454311c7625a965c757996ba8cc1a8c6205380f33725060405160405180910390a35050565b6000819050919050565b610e2281610e0f565b82525050565b6000602082019050610e3d6000830184610e19565b92915050565b600080fd5b600080fd5b610e5681610e0f565b8114610e6157600080fd5b50565b600081359050610e7381610e4d565b92915050565b600060208284031215610e8f57610e8e610e43565b5b6000610e9d84828501610e64565b91505092915050565b600073ffffffffffffffffffffffffffffffffffffffff82169050919050565b6000610ed182610ea6565b9050919050565b610ee181610ec6565b82525050565b60008115159050919050565b610efc81610ee7565b82525050565b600060c082019050610f176000830189610ed8565b610f246020830188610ed8565b610f316040830187610e19565b610f3e6060830186610ef3565b610f4b6080830185610ef3565b610f5860a0830184610ef3565b979650505050505050565b600060ff82169050919050565b610f7981610f63565b8114610f8457600080fd5b50565b600081359050610f9681610f70565b92915050565b600080fd5b600080fd5b600080fd5b60008083601f840112610fc157610fc0610f9c565b5b8235905067ffffffffffffffff811115610fde57610fdd610fa1565b5b602083019150836001820283011115610ffa57610ff9610fa6565b5b9250929050565b6000806000806060858703121561101b5761101a610e43565b5b600061102987828801610e64565b945050602061103a87828801610f87565b935050604085013567ffffffffffffffff81111561105b5761105a610e48565b5b61106787828801610fab565b925092505092959194509250565b6000819050919050565b600061109a61109561109084610ea6565b611075565b610ea6565b9050919050565b60006110ac8261107f565b9050919050565b60006110be826110a1565b9050919050565b6110ce816110b3565b82525050565b60006020820190506110e960008301846110c5565b92915050565b6110f881610ec6565b811461110357600080fd5b50565b600081359050611115816110ef565b92915050565b60006020828403121561113157611130610e43565b5b600061113f84828501611106565b91505092915050565b600082825260208201905092915050565b7f4f72646572206e6f7420666f756e640000000000000000000000000000000000600082015250565b600061118f600f83611148565b915061119a82611159565b602082019050919050565b600060208201905081810360008301526111be81611182565b9050919050565b7f44656c6976657279206e6f7420636f6e6669726d656400000000000000000000600082015250565b60006111fb601683611148565b9150611206826111c5565b602082019050919050565b6000602082019050818103600083015261122a816111ee565b9050919050565b7f416c726561647920706169640000000000000000000000000000000000000000600082015250565b6000611267600c83611148565b915061127282611231565b602082019050919050565b600060208201905081810360008301526112968161125a565b9050919050565b600081905092915050565b50565b60006112b860008361129d565b91506112c3826112a8565b600082019050919050565b60006112d9826112ab565b9150819050919050565b7f5472616e73666572206661696c65640000000000000000000000000000000000600082015250565b6000611319600f83611148565b9150611324826112e3565b602082019050919050565b600060208201905081810360008301526113488161130c565b9050919050565b7f4f6e6c792062757965722063616e207261746500000000000000000000000000600082015250565b6000611385601383611148565b91506113908261134f565b602082019050919050565b600060208201905081810360008301526113b481611378565b9050919050565b7f5061796d656e74206e6f742072656c6561736564207965740000000000000000600082015250565b60006113f1601883611148565b91506113fc826113bb565b602082019050919050565b60006020820190508181036000830152611420816113e4565b9050919050565b7f416c726561647920726174656400000000000000000000000000000000000000600082015250565b600061145d600d83611148565b915061146882611427565b602082019050919050565b6000602082019050818103600083015261148c81611450565b9050919050565b61149c81610f63565b82525050565b82818337600083830152505050565b6000601f19601f8301169050919050565b60006114ce8385611148565b93506114db8385846114a2565b6114e4836114b1565b840190509392505050565b600060a0820190506115046000830189610e19565b6115116020830188610ed8565b61151e6040830187610ed8565b61152b6060830186611493565b818103608083015261153e8184866114c2565b9050979650505050505050565b60006020820190506115606000830184611493565b92915050565b7f496e76616c69642073656c6c6572000000000000000000000000000000000000600082015250565b600061159c600e83611148565b91506115a782611566565b602082019050919050565b600060208201905081810360008301526115cb8161158f565b9050919050565b7f4d757374206465706f7369742045544800000000000000000000000000000000600082015250565b6000611608601083611148565b9150611613826115d2565b602082019050919050565b60006020820190508181036000830152611637816115fb565b9050919050565b7f4e487b7100000000000000000000000000000000000000000000000000000000600052601160045260246000fd5b600061167882610e0f565b915061168383610e0f565b925082820190508082111561169b5761169a61163e565b5b92915050565b7f4f6e6c792062757965722063616e20636f6e6669726d00000000000000000000600082015250565b60006116d7601683611148565b91506116e2826116a1565b602082019050919050565b60006020820190508181036000830152611706816116ca565b9050919050565b7f416c726561647920636f6e6669726d6564000000000000000000000000000000600082015250565b6000611743601183611148565b915061174e8261170d565b602082019050919050565b6000602082019050818103600083015261177281611736565b905091905056fea26469706673582212206ea963386b028e868c46ee4b0032360a4e662eb425a91a2e83beb0150ddd0d5464736f6c63430008130033",
  "immutableReferences": {},
  "source": "// SPDX-License-Identifier: MIT\r\npragma solidity ^0.8.19;\r\n\r\n/*\r\n  EscrowPayment\r\n  - Buyer creates order + deposits ETH into escrow\r\n  - Buyer confirms delivery -> escrow releases ETH to seller\r\n  - After release, buyer can submit rating (stored in SellerReputation)\r\n*/\r\n\r\ninterface ISellerReputation {\r\n    function recordRating(\r\n        uint256 orderId,\r\n        address seller,\r\n        address buyer,\r\n        uint8 stars,\r\n        string calldata comment\r\n    ) external;\r\n}\r\n\r\ncontract EscrowPayment {\r\n    struct Order {\r\n        address buyer;\r\n        address seller;\r\n        uint256 amount;     // ETH in wei\r\n        bool delivered;\r\n        bool paidOut;\r\n        bool rated;\r\n    }\r\n\r\n    uint256 public nextOrderId;\r\n    mapping(uint256 => Order) public orders;\r\n\r\n    ISellerReputation public reputation;\r\n\r\n    event OrderCreated(uint256 indexed orderId, address indexed buyer, address indexed seller, uint256 amount);\r\n    event DeliveryConfirmed(uint256 indexed orderId, address indexed buyer);\r\n    event PaymentReleased(uint256 indexed orderId, address indexed seller, uint256 amount);\r\n    event RatingSubmitted(uint256 indexed orderId, address indexed seller, address indexed buyer, uint8 stars);\r\n\r\n    constructor(address reputationContract) {\r\n        require(reputationContract != address(0), \"Invalid reputation address\");\r\n        reputation = ISellerReputation(reputationContract);\r\n    }\r\n\r\n    // 1) Buyer creates an order and deposits ETH into escrow\r\n    function createOrder(address seller) external payable returns (uint256 orderId) {\r\n        require(seller != address(0), \"Invalid seller\");\r\n        require(msg.value > 0, \"Must deposit ETH\");\r\n\r\n        orderId = nextOrderId;\r\n        nextOrderId += 1;\r\n\r\n        orders[orderId] = Order({\r\n            buyer: msg.sender,\r\n            seller: seller,\r\n            amount: msg.value,\r\n            delivered: false,\r\n            paidOut: false,\r\n            rated: false\r\n        });\r\n\r\n        emit OrderCreated(orderId, msg.sender, seller, msg.value);\r\n    }\r\n\r\n    // 2) Buyer confirms delivery\r\n    function confirmDelivery(uint256 orderId) external {\r\n        Order storage o = orders[orderId];\r\n        require(o.buyer == msg.sender, \"Only buyer can confirm\");\r\n        require(!o.delivered, \"Already confirmed\");\r\n        require(!o.paidOut, \"Already paid\");\r\n\r\n        o.delivered = true;\r\n        emit DeliveryConfirmed(orderId, msg.sender);\r\n    }\r\n\r\n    // 3) Release payment to seller (can be triggered by buyer or seller after delivery confirmed)\r\n    function releasePayment(uint256 orderId) external {\r\n        Order storage o = orders[orderId];\r\n        require(o.amount > 0, \"Order not found\");\r\n        require(o.delivered, \"Delivery not confirmed\");\r\n        require(!o.paidOut, \"Already paid\");\r\n\r\n        // Checks-effects-interactions\r\n        o.paidOut = true;\r\n        uint256 amt = o.amount;\r\n        o.amount = 0;\r\n\r\n        (bool ok, ) = payable(o.seller).call{value: amt}(\"\");\r\n        require(ok, \"Transfer failed\");\r\n\r\n        emit PaymentReleased(orderId, o.seller, amt);\r\n    }\r\n\r\n    // 4) Buyer submits rating ONLY after payout (this prevents fake reviews)\r\n    function submitRating(uint256 orderId, uint8 stars, string calldata comment) external {\r\n        Order storage o = orders[orderId];\r\n        require(o.buyer == msg.sender, \"Only buyer can rate\");\r\n        require(o.paidOut, \"Payment not released yet\");\r\n        require(!o.rated, \"Already rated\");\r\n\r\n        o.rated = true;\r\n\r\n        // Record rating in Reputation contract (verified by escrow)\r\n        reputation.recordRating(orderId, o.seller, o.buyer, stars, comment);\r\n\r\n        emit RatingSubmitted(orderId, o.seller, o.buyer, stars);\r\n    }\r\n\r\n    // Helper: view order basic status\r\n    function getOrder(uint256 orderId)\r\n        external\r\n        view\r\n        returns (address buyer, address seller, uint256 amountWei, bool delivered, bool paidOut, bool rated)\r\n    {\r\n        Order memory o = orders[orderId];\r\n        return (o.buyer, o.seller, o.amount, o.delivered, o.paidOut, o.rated);\r\n    }\r\n}\r\n",
  "sourcePath": "C:\\C373Projects\\C373_FA_Final\\contracts\\EscrowPayment.sol",
  "compiler": {
    "name": "solc",
    "version": "0.8.19+commit.7dd6d404.Emscripten.clang"
  },
  "schemaVersion": "3.4.16",
  "updatedAt": "2026-01-18T08:51:14.207Z",
  "networkType": "ethereum",
  "devdoc": {
    "kind": "dev",
    "methods": {},
    "version": 1
  },
  "userdoc": {
    "kind": "user",
    "methods": {},
    "version": 1
  }
}