{
  "contractName": "MarketplaceListing",
  "abi": [
    {
      "inputs": [],
      "stateMutability": "nonpayable",
      "type": "constructor"
    },
    {
      "anonymous": false,
      "inputs": [
        {
          "indexed": true,
          "internalType": "uint256",
          "name": "productId",
          "type": "uint256"
        },
        {
          "indexed": true,
          "internalType": "address",
          "name": "seller",
          "type": "address"
        },
        {
          "indexed": false,
          "internalType": "string",
          "name": "name",
          "type": "string"
        },
        {
          "indexed": false,
          "internalType": "string",
          "name": "category",
          "type": "string"
        },
        {
          "indexed": false,
          "internalType": "string",
          "name": "description",
          "type": "string"
        },
        {
          "indexed": false,
          "internalType": "uint256",
          "name": "priceWei",
          "type": "uint256"
        },
        {
          "indexed": false,
          "internalType": "string",
          "name": "imageUrl",
          "type": "string"
        },
        {
          "indexed": false,
          "internalType": "uint256",
          "name": "timestamp",
          "type": "uint256"
        }
      ],
      "name": "ProductAdded",
      "type": "event"
    },
    {
      "inputs": [
        {
          "internalType": "uint256",
          "name": "",
          "type": "uint256"
        }
      ],
      "name": "listings",
      "outputs": [
        {
          "internalType": "address",
          "name": "seller",
          "type": "address"
        },
        {
          "internalType": "string",
          "name": "name",
          "type": "string"
        },
        {
          "internalType": "string",
          "name": "category",
          "type": "string"
        },
        {
          "internalType": "string",
          "name": "description",
          "type": "string"
        },
        {
          "internalType": "string",
          "name": "imageUrl",
          "type": "string"
        },
        {
          "internalType": "uint256",
          "name": "priceWei",
          "type": "uint256"
        },
        {
          "internalType": "bool",
          "name": "active",
          "type": "bool"
        },
        {
          "internalType": "uint256",
          "name": "createdAt",
          "type": "uint256"
        }
      ],
      "stateMutability": "view",
      "type": "function",
      "constant": true
    },
    {
      "inputs": [],
      "name": "nextListingId",
      "outputs": [
        {
          "internalType": "uint256",
          "name": "",
          "type": "uint256"
        }
      ],
      "stateMutability": "view",
      "type": "function",
      "constant": true
    },
    {
      "inputs": [
        {
          "internalType": "string",
          "name": "name",
          "type": "string"
        },
        {
          "internalType": "string",
          "name": "category",
          "type": "string"
        },
        {
          "internalType": "string",
          "name": "description",
          "type": "string"
        },
        {
          "internalType": "string",
          "name": "imageUrl",
          "type": "string"
        },
        {
          "internalType": "uint256",
          "name": "priceWei",
          "type": "uint256"
        }
      ],
      "name": "addProduct",
      "outputs": [],
      "stateMutability": "nonpayable",
      "type": "function"
    },
    {
      "inputs": [
        {
          "internalType": "string",
          "name": "name",
          "type": "string"
        },
        {
          "internalType": "string",
          "name": "category",
          "type": "string"
        },
        {
          "internalType": "string",
          "name": "shortDesc",
          "type": "string"
        },
        {
          "internalType": "string",
          "name": "fullDesc",
          "type": "string"
        },
        {
          "internalType": "string",
          "name": "image",
          "type": "string"
        },
        {
          "internalType": "uint256",
          "name": "priceWei",
          "type": "uint256"
        }
      ],
      "name": "createListing",
      "outputs": [],
      "stateMutability": "nonpayable",
      "type": "function"
    },
    {
      "inputs": [
        {
          "internalType": "uint256",
          "name": "listingId",
          "type": "uint256"
        }
      ],
      "name": "getSeller",
      "outputs": [
        {
          "internalType": "address",
          "name": "",
          "type": "address"
        }
      ],
      "stateMutability": "view",
      "type": "function",
      "constant": true
    },
    {
      "inputs": [
        {
          "internalType": "uint256",
          "name": "listingId",
          "type": "uint256"
        }
      ],
      "name": "getPrice",
      "outputs": [
        {
          "internalType": "uint256",
          "name": "",
          "type": "uint256"
        }
      ],
      "stateMutability": "view",
      "type": "function",
      "constant": true
    },
    {
      "inputs": [
        {
          "internalType": "uint256",
          "name": "listingId",
          "type": "uint256"
        }
      ],
      "name": "isActive",
      "outputs": [
        {
          "internalType": "bool",
          "name": "",
          "type": "bool"
        }
      ],
      "stateMutability": "view",
      "type": "function",
      "constant": true
    }
  ],
  "bytecode": "0x608060405234801561001057600080fd5b50600160008190555061129c806100286000396000f3fe608060405234801561001057600080fd5b506004361061007d5760003560e01c8063d6a9de511161005b578063d6a9de51146100ec578063de74e57b1461011c578063e757223014610153578063f60dd56f146101835761007d565b806325dfbfba1461008257806382afd23b1461009e578063aaccf1ec146100ce575b600080fd5b61009c600480360381019061009791906109cd565b61019f565b005b6100b860048036038101906100b39190610ac9565b6102c7565b6040516100c59190610b11565b60405180910390f35b6100d66102f4565b6040516100e39190610b3b565b60405180910390f35b61010660048036038101906101019190610ac9565b6102fa565b6040516101139190610b97565b60405180910390f35b61013660048036038101906101319190610ac9565b61033a565b60405161014a989796959493929190610c42565b60405180910390f35b61016d60048036038101906101689190610ac9565b6105cf565b60405161017a9190610b3b565b60405180910390f35b61019d60048036038101906101989190610cdc565b6105ef565b005b6102bc89898080601f016020809104026020016040519081016040528093929190818152602001838380828437600081840152601f19601f8201169050808301925050505050505088888080601f016020809104026020016040519081016040528093929190818152602001838380828437600081840152601f19601f8201169050808301925050505050505087878080601f016020809104026020016040519081016040528093929190818152602001838380828437600081840152601f19601f8201169050808301925050505050505086868080601f016020809104026020016040519081016040528093929190818152602001838380828437600081840152601f19601f8201169050808301925050505050505085610731565b505050505050505050565b60006001600083815260200190815260200160002060060160009054906101000a900460ff169050919050565b60005481565b60006001600083815260200190815260200160002060000160009054906101000a900473ffffffffffffffffffffffffffffffffffffffff169050919050565b60016020528060005260406000206000915090508060000160009054906101000a900473ffffffffffffffffffffffffffffffffffffffff169080600101805461038390610e3c565b80601f01602080910402602001604051908101604052809291908181526020018280546103af90610e3c565b80156103fc5780601f106103d1576101008083540402835291602001916103fc565b820191906000526020600020905b8154815290600101906020018083116103df57829003601f168201915b50505050509080600201805461041190610e3c565b80601f016020809104026020016040519081016040528092919081815260200182805461043d90610e3c565b801561048a5780601f1061045f5761010080835404028352916020019161048a565b820191906000526020600020905b81548152906001019060200180831161046d57829003601f168201915b50505050509080600301805461049f90610e3c565b80601f01602080910402602001604051908101604052809291908181526020018280546104cb90610e3c565b80156105185780601f106104ed57610100808354040283529160200191610518565b820191906000526020600020905b8154815290600101906020018083116104fb57829003601f168201915b50505050509080600401805461052d90610e3c565b80601f016020809104026020016040519081016040528092919081815260200182805461055990610e3c565b80156105a65780601f1061057b576101008083540402835291602001916105a6565b820191906000526020600020905b81548152906001019060200180831161058957829003601f168201915b5050505050908060050154908060060160009054906101000a900460ff16908060070154905088565b600060016000838152602001908152602001600020600501549050919050565b6000808686905011610602578787610605565b85855b8080601f016020809104026020016040519081016040528093929190818152602001838380828437600081840152601f19601f8201169050808301925050505050505090506107238c8c8080601f016020809104026020016040519081016040528093929190818152602001838380828437600081840152601f19601f820116905080830192505050505050508b8b8080601f016020809104026020016040519081016040528093929190818152602001838380828437600081840152601f19601f820116905080830192505050505050508387878080601f016020809104026020016040519081016040528093929190818152602001838380828437600081840152601f19601f8201169050808301925050505050505086610731565b505050505050505050505050565b60008111610774576040517f08c379a000000000000000000000000000000000000000000000000000000000815260040161076b90610eb9565b60405180910390fd5b6040518061010001604052803373ffffffffffffffffffffffffffffffffffffffff16815260200186815260200185815260200184815260200183815260200182815260200160011515815260200142815250600160008054815260200190815260200160002060008201518160000160006101000a81548173ffffffffffffffffffffffffffffffffffffffff021916908373ffffffffffffffffffffffffffffffffffffffff160217905550602082015181600101908161083791906110b4565b50604082015181600201908161084d91906110b4565b50606082015181600301908161086391906110b4565b50608082015181600401908161087991906110b4565b5060a0820151816005015560c08201518160060160006101000a81548160ff02191690831515021790555060e082015181600701559050503373ffffffffffffffffffffffffffffffffffffffff166000547fe29038cac4e511b262dc6d59c911c68b8e5c64b0bb4ab0522af412d2de4f46a487878786884260405161090496959493929190611186565b60405180910390a3600160005461091b9190611232565b6000819055505050505050565b600080fd5b600080fd5b600080fd5b600080fd5b600080fd5b60008083601f84011261095757610956610932565b5b8235905067ffffffffffffffff81111561097457610973610937565b5b6020830191508360018202830111156109905761098f61093c565b5b9250929050565b6000819050919050565b6109aa81610997565b81146109b557600080fd5b50565b6000813590506109c7816109a1565b92915050565b600080600080600080600080600060a08a8c0312156109ef576109ee610928565b5b60008a013567ffffffffffffffff811115610a0d57610a0c61092d565b5b610a198c828d01610941565b995099505060208a013567ffffffffffffffff811115610a3c57610a3b61092d565b5b610a488c828d01610941565b975097505060408a013567ffffffffffffffff811115610a6b57610a6a61092d565b5b610a778c828d01610941565b955095505060608a013567ffffffffffffffff811115610a9a57610a9961092d565b5b610aa68c828d01610941565b93509350506080610ab98c828d016109b8565b9150509295985092959850929598565b600060208284031215610adf57610ade610928565b5b6000610aed848285016109b8565b91505092915050565b60008115159050919050565b610b0b81610af6565b82525050565b6000602082019050610b266000830184610b02565b92915050565b610b3581610997565b82525050565b6000602082019050610b506000830184610b2c565b92915050565b600073ffffffffffffffffffffffffffffffffffffffff82169050919050565b6000610b8182610b56565b9050919050565b610b9181610b76565b82525050565b6000602082019050610bac6000830184610b88565b92915050565b600081519050919050565b600082825260208201905092915050565b60005b83811015610bec578082015181840152602081019050610bd1565b60008484015250505050565b6000601f19601f8301169050919050565b6000610c1482610bb2565b610c1e8185610bbd565b9350610c2e818560208601610bce565b610c3781610bf8565b840191505092915050565b600061010082019050610c58600083018b610b88565b8181036020830152610c6a818a610c09565b90508181036040830152610c7e8189610c09565b90508181036060830152610c928188610c09565b90508181036080830152610ca68187610c09565b9050610cb560a0830186610b2c565b610cc260c0830185610b02565b610ccf60e0830184610b2c565b9998505050505050505050565b600080600080600080600080600080600060c08c8e031215610d0157610d00610928565b5b60008c013567ffffffffffffffff811115610d1f57610d1e61092d565b5b610d2b8e828f01610941565b9b509b505060208c013567ffffffffffffffff811115610d4e57610d4d61092d565b5b610d5a8e828f01610941565b995099505060408c013567ffffffffffffffff811115610d7d57610d7c61092d565b5b610d898e828f01610941565b975097505060608c013567ffffffffffffffff811115610dac57610dab61092d565b5b610db88e828f01610941565b955095505060808c013567ffffffffffffffff811115610ddb57610dda61092d565b5b610de78e828f01610941565b935093505060a0610dfa8e828f016109b8565b9150509295989b509295989b9093969950565b7f4e487b7100000000000000000000000000000000000000000000000000000000600052602260045260246000fd5b60006002820490506001821680610e5457607f821691505b602082108103610e6757610e66610e0d565b5b50919050565b7f5072696365207265717569726564000000000000000000000000000000000000600082015250565b6000610ea3600e83610bbd565b9150610eae82610e6d565b602082019050919050565b60006020820190508181036000830152610ed281610e96565b9050919050565b7f4e487b7100000000000000000000000000000000000000000000000000000000600052604160045260246000fd5b60008190508160005260206000209050919050565b60006020601f8301049050919050565b600082821b905092915050565b600060088302610f6a7fffffffffffffffffffffffffffffffffffffffffffffffffffffffffffffffff82610f2d565b610f748683610f2d565b95508019841693508086168417925050509392505050565b6000819050919050565b6000610fb1610fac610fa784610997565b610f8c565b610997565b9050919050565b6000819050919050565b610fcb83610f96565b610fdf610fd782610fb8565b848454610f3a565b825550505050565b600090565b610ff4610fe7565b610fff818484610fc2565b505050565b5b8181101561102357611018600082610fec565b600181019050611005565b5050565b601f8211156110685761103981610f08565b61104284610f1d565b81016020851015611051578190505b61106561105d85610f1d565b830182611004565b50505b505050565b600082821c905092915050565b600061108b6000198460080261106d565b1980831691505092915050565b60006110a4838361107a565b9150826002028217905092915050565b6110bd82610bb2565b67ffffffffffffffff8111156110d6576110d5610ed9565b5b6110e08254610e3c565b6110eb828285611027565b600060209050601f83116001811461111e576000841561110c578287015190505b6111168582611098565b86555061117e565b601f19841661112c86610f08565b60005b828110156111545784890151825560018201915060208501945060208101905061112f565b86831015611171578489015161116d601f89168261107a565b8355505b6001600288020188555050505b505050505050565b600060c08201905081810360008301526111a08189610c09565b905081810360208301526111b48188610c09565b905081810360408301526111c88187610c09565b90506111d76060830186610b2c565b81810360808301526111e98185610c09565b90506111f860a0830184610b2c565b979650505050505050565b7f4e487b7100000000000000000000000000000000000000000000000000000000600052601160045260246000fd5b600061123d82610997565b915061124883610997565b92508282019050808211156112605761125f611203565b5b9291505056fea2646970667358221220aba8e932450bd7409102caa2d9f46ce1f4203e7549daf2b6b6ebedb9cd68a4ef64736f6c63430008130033",
  "immutableReferences": {},
  "source": "// SPDX-License-Identifier: MIT\r\npragma solidity ^0.8.19;\r\n\r\ncontract MarketplaceListing {\n\n    struct Listing {\n        address seller;\n        string name;\n        string category;\n        string description;\n        string imageUrl;\n        uint256 priceWei;\n        bool active;\n        uint256 createdAt;\n    }\n\n    uint256 public nextListingId;\n    mapping(uint256 => Listing) public listings;\n\n    event ProductAdded(\n        uint256 indexed productId,\n        address indexed seller,\n        string name,\n        string category,\n        string description,\n        uint256 priceWei,\n        string imageUrl,\n        uint256 timestamp\n    );\n\n    constructor() {\n        nextListingId = 1;\n    }\n\n    function addProduct(\n        string calldata name,\n        string calldata category,\n        string calldata description,\n        string calldata imageUrl,\n        uint256 priceWei\n    ) external {\n        _addProduct(name, category, description, imageUrl, priceWei);\n    }\n\n    function _addProduct(\n        string memory name,\n        string memory category,\n        string memory description,\n        string memory imageUrl,\n        uint256 priceWei\n    ) internal {\n        require(priceWei > 0, \"Price required\");\n\n        listings[nextListingId] = Listing(\n            msg.sender,\n            name,\n            category,\n            description,\n            imageUrl,\n            priceWei,\n            true,\n            block.timestamp\n        );\n\n        emit ProductAdded(\n            nextListingId,\n            msg.sender,\n            name,\n            category,\n            description,\n            priceWei,\n            imageUrl,\n            block.timestamp\n        );\n\n        nextListingId = nextListingId + 1;\n    }\n\n    function createListing(\n        string calldata name,\n        string calldata category,\n        string calldata shortDesc,\n        string calldata fullDesc,\n        string calldata image,\n        uint256 priceWei\n    ) external {\n        string memory description = bytes(fullDesc).length > 0 ? fullDesc : shortDesc;\n        _addProduct(name, category, description, image, priceWei);\n    }\n\r\n    function getSeller(uint256 listingId) external view returns (address) {\r\n        return listings[listingId].seller;\r\n    }\r\n\r\n    function getPrice(uint256 listingId) external view returns (uint256) {\r\n        return listings[listingId].priceWei;\r\n    }\r\n\r\n    function isActive(uint256 listingId) external view returns (bool) {\n        return listings[listingId].active;\n    }\n}\n",
  "sourcePath": "C:\\Users\\24002690\\Downloads\\C373_Team-2_FA-1 (2)\\C373_Team-2_FA-1\\contracts\\MarketplaceListing.sol",
  "compiler": {
    "name": "solc",
    "version": "0.8.19+commit.7dd6d404.Emscripten.clang"
  },
  "schemaVersion": "3.4.16",
  "updatedAt": "2026-01-29T06:14:57.175Z",
  "networkType": "ethereum",
  "devdoc": {
    "kind": "dev",
    "methods": {},
    "version": 1
  },
  "userdoc": {
    "kind": "user",
    "methods": {},
    "version": 1
  }
}