{
  "contractName": "MarketplaceListing",
  "abi": [
    {
      "inputs": [],
      "stateMutability": "nonpayable",
      "type": "constructor"
    },
    {
      "anonymous": false,
      "inputs": [
        {
          "indexed": true,
          "internalType": "uint256",
          "name": "listingId",
          "type": "uint256"
        },
        {
          "indexed": true,
          "internalType": "address",
          "name": "seller",
          "type": "address"
        },
        {
          "indexed": false,
          "internalType": "uint256",
          "name": "priceWei",
          "type": "uint256"
        },
        {
          "indexed": false,
          "internalType": "uint256",
          "name": "timestamp",
          "type": "uint256"
        }
      ],
      "name": "ListingCreated",
      "type": "event"
    },
    {
      "anonymous": false,
      "inputs": [
        {
          "indexed": true,
          "internalType": "uint256",
          "name": "productId",
          "type": "uint256"
        },
        {
          "indexed": true,
          "internalType": "address",
          "name": "seller",
          "type": "address"
        },
        {
          "indexed": false,
          "internalType": "string",
          "name": "name",
          "type": "string"
        },
        {
          "indexed": false,
          "internalType": "string",
          "name": "category",
          "type": "string"
        },
        {
          "indexed": false,
          "internalType": "string",
          "name": "description",
          "type": "string"
        },
        {
          "indexed": false,
          "internalType": "uint256",
          "name": "priceWei",
          "type": "uint256"
        },
        {
          "indexed": false,
          "internalType": "string",
          "name": "imageUrl",
          "type": "string"
        },
        {
          "indexed": false,
          "internalType": "uint256",
          "name": "timestamp",
          "type": "uint256"
        }
      ],
      "name": "ProductAdded",
      "type": "event"
    },
    {
      "inputs": [
        {
          "internalType": "uint256",
          "name": "",
          "type": "uint256"
        }
      ],
      "name": "listings",
      "outputs": [
        {
          "internalType": "address",
          "name": "seller",
          "type": "address"
        },
        {
          "internalType": "string",
          "name": "name",
          "type": "string"
        },
        {
          "internalType": "string",
          "name": "category",
          "type": "string"
        },
        {
          "internalType": "string",
          "name": "description",
          "type": "string"
        },
        {
          "internalType": "string",
          "name": "imageUrl",
          "type": "string"
        },
        {
          "internalType": "uint256",
          "name": "priceWei",
          "type": "uint256"
        },
        {
          "internalType": "bool",
          "name": "active",
          "type": "bool"
        },
        {
          "internalType": "uint256",
          "name": "createdAt",
          "type": "uint256"
        }
      ],
      "stateMutability": "view",
      "type": "function"
    },
    {
      "inputs": [],
      "name": "nextListingId",
      "outputs": [
        {
          "internalType": "uint256",
          "name": "",
          "type": "uint256"
        }
      ],
      "stateMutability": "view",
      "type": "function"
    },
    {
      "inputs": [
        {
          "internalType": "string",
          "name": "name",
          "type": "string"
        },
        {
          "internalType": "string",
          "name": "category",
          "type": "string"
        },
        {
          "internalType": "string",
          "name": "description",
          "type": "string"
        },
        {
          "internalType": "string",
          "name": "imageUrl",
          "type": "string"
        },
        {
          "internalType": "uint256",
          "name": "priceWei",
          "type": "uint256"
        }
      ],
      "name": "addProduct",
      "outputs": [],
      "stateMutability": "nonpayable",
      "type": "function"
    },
    {
      "inputs": [
        {
          "internalType": "string",
          "name": "name",
          "type": "string"
        },
        {
          "internalType": "string",
          "name": "category",
          "type": "string"
        },
        {
          "internalType": "string",
          "name": "shortDesc",
          "type": "string"
        },
        {
          "internalType": "string",
          "name": "fullDesc",
          "type": "string"
        },
        {
          "internalType": "string",
          "name": "image",
          "type": "string"
        },
        {
          "internalType": "uint256",
          "name": "priceWei",
          "type": "uint256"
        }
      ],
      "name": "createListing",
      "outputs": [],
      "stateMutability": "nonpayable",
      "type": "function"
    },
    {
      "inputs": [
        {
          "internalType": "uint256",
          "name": "listingId",
          "type": "uint256"
        }
      ],
      "name": "getSeller",
      "outputs": [
        {
          "internalType": "address",
          "name": "",
          "type": "address"
        }
      ],
      "stateMutability": "view",
      "type": "function"
    },
    {
      "inputs": [
        {
          "internalType": "uint256",
          "name": "listingId",
          "type": "uint256"
        }
      ],
      "name": "getPrice",
      "outputs": [
        {
          "internalType": "uint256",
          "name": "",
          "type": "uint256"
        }
      ],
      "stateMutability": "view",
      "type": "function"
    },
    {
      "inputs": [
        {
          "internalType": "uint256",
          "name": "listingId",
          "type": "uint256"
        }
      ],
      "name": "isActive",
      "outputs": [
        {
          "internalType": "bool",
          "name": "",
          "type": "bool"
        }
      ],
      "stateMutability": "view",
      "type": "function"
    }
  ],
  "bytecode": "0x608060405234801561001057600080fd5b506001600081905550611318806100286000396000f3fe608060405234801561001057600080fd5b506004361061007d5760003560e01c8063d6a9de511161005b578063d6a9de51146100ec578063de74e57b1461011c578063e757223014610153578063f60dd56f146101835761007d565b806325dfbfba1461008257806382afd23b1461009e578063aaccf1ec146100ce575b600080fd5b61009c60048036038101906100979190610a20565b61019f565b005b6100b860048036038101906100b39190610b1c565b6102c7565b6040516100c59190610b64565b60405180910390f35b6100d66102f4565b6040516100e39190610b8e565b60405180910390f35b61010660048036038101906101019190610b1c565b6102fa565b6040516101139190610bea565b60405180910390f35b61013660048036038101906101319190610b1c565b61033a565b60405161014a989796959493929190610c95565b60405180910390f35b61016d60048036038101906101689190610b1c565b6105cf565b60405161017a9190610b8e565b60405180910390f35b61019d60048036038101906101989190610d2f565b6105ef565b005b6102bc89898080601f016020809104026020016040519081016040528093929190818152602001838380828437600081840152601f19601f8201169050808301925050505050505088888080601f016020809104026020016040519081016040528093929190818152602001838380828437600081840152601f19601f8201169050808301925050505050505087878080601f016020809104026020016040519081016040528093929190818152602001838380828437600081840152601f19601f8201169050808301925050505050505086868080601f016020809104026020016040519081016040528093929190818152602001838380828437600081840152601f19601f8201169050808301925050505050505085610731565b505050505050505050565b60006001600083815260200190815260200160002060060160009054906101000a900460ff169050919050565b60005481565b60006001600083815260200190815260200160002060000160009054906101000a900473ffffffffffffffffffffffffffffffffffffffff169050919050565b60016020528060005260406000206000915090508060000160009054906101000a900473ffffffffffffffffffffffffffffffffffffffff169080600101805461038390610e8f565b80601f01602080910402602001604051908101604052809291908181526020018280546103af90610e8f565b80156103fc5780601f106103d1576101008083540402835291602001916103fc565b820191906000526020600020905b8154815290600101906020018083116103df57829003601f168201915b50505050509080600201805461041190610e8f565b80601f016020809104026020016040519081016040528092919081815260200182805461043d90610e8f565b801561048a5780601f1061045f5761010080835404028352916020019161048a565b820191906000526020600020905b81548152906001019060200180831161046d57829003601f168201915b50505050509080600301805461049f90610e8f565b80601f01602080910402602001604051908101604052809291908181526020018280546104cb90610e8f565b80156105185780601f106104ed57610100808354040283529160200191610518565b820191906000526020600020905b8154815290600101906020018083116104fb57829003601f168201915b50505050509080600401805461052d90610e8f565b80601f016020809104026020016040519081016040528092919081815260200182805461055990610e8f565b80156105a65780601f1061057b576101008083540402835291602001916105a6565b820191906000526020600020905b81548152906001019060200180831161058957829003601f168201915b5050505050908060050154908060060160009054906101000a900460ff16908060070154905088565b600060016000838152602001908152602001600020600501549050919050565b6000808686905011610602578787610605565b85855b8080601f016020809104026020016040519081016040528093929190818152602001838380828437600081840152601f19601f8201169050808301925050505050505090506107238c8c8080601f016020809104026020016040519081016040528093929190818152602001838380828437600081840152601f19601f820116905080830192505050505050508b8b8080601f016020809104026020016040519081016040528093929190818152602001838380828437600081840152601f19601f820116905080830192505050505050508387878080601f016020809104026020016040519081016040528093929190818152602001838380828437600081840152601f19601f8201169050808301925050505050505086610731565b505050505050505050505050565b60008111610774576040517f08c379a000000000000000000000000000000000000000000000000000000000815260040161076b90610f0c565b60405180910390fd5b6040518061010001604052803373ffffffffffffffffffffffffffffffffffffffff16815260200186815260200185815260200184815260200183815260200182815260200160011515815260200142815250600160008054815260200190815260200160002060008201518160000160006101000a81548173ffffffffffffffffffffffffffffffffffffffff021916908373ffffffffffffffffffffffffffffffffffffffff16021790555060208201518160010190816108379190611107565b50604082015181600201908161084d9190611107565b5060608201518160030190816108639190611107565b5060808201518160040190816108799190611107565b5060a0820151816005015560c08201518160060160006101000a81548160ff02191690831515021790555060e082015181600701559050503373ffffffffffffffffffffffffffffffffffffffff166000547fe29038cac4e511b262dc6d59c911c68b8e5c64b0bb4ab0522af412d2de4f46a4878787868842604051610904969594939291906111d9565b60405180910390a33373ffffffffffffffffffffffffffffffffffffffff166000547f12dc294b81a709d694b1337a350a12a00076c19a77a25aab67a5f0c07e0f164d8342604051610957929190611256565b60405180910390a3600160005461096e91906112ae565b6000819055505050505050565b600080fd5b600080fd5b600080fd5b600080fd5b600080fd5b60008083601f8401126109aa576109a9610985565b5b8235905067ffffffffffffffff8111156109c7576109c661098a565b5b6020830191508360018202830111156109e3576109e261098f565b5b9250929050565b6000819050919050565b6109fd816109ea565b8114610a0857600080fd5b50565b600081359050610a1a816109f4565b92915050565b600080600080600080600080600060a08a8c031215610a4257610a4161097b565b5b60008a013567ffffffffffffffff811115610a6057610a5f610980565b5b610a6c8c828d01610994565b995099505060208a013567ffffffffffffffff811115610a8f57610a8e610980565b5b610a9b8c828d01610994565b975097505060408a013567ffffffffffffffff811115610abe57610abd610980565b5b610aca8c828d01610994565b955095505060608a013567ffffffffffffffff811115610aed57610aec610980565b5b610af98c828d01610994565b93509350506080610b0c8c828d01610a0b565b9150509295985092959850929598565b600060208284031215610b3257610b3161097b565b5b6000610b4084828501610a0b565b91505092915050565b60008115159050919050565b610b5e81610b49565b82525050565b6000602082019050610b796000830184610b55565b92915050565b610b88816109ea565b82525050565b6000602082019050610ba36000830184610b7f565b92915050565b600073ffffffffffffffffffffffffffffffffffffffff82169050919050565b6000610bd482610ba9565b9050919050565b610be481610bc9565b82525050565b6000602082019050610bff6000830184610bdb565b92915050565b600081519050919050565b600082825260208201905092915050565b60005b83811015610c3f578082015181840152602081019050610c24565b60008484015250505050565b6000601f19601f8301169050919050565b6000610c6782610c05565b610c718185610c10565b9350610c81818560208601610c21565b610c8a81610c4b565b840191505092915050565b600061010082019050610cab600083018b610bdb565b8181036020830152610cbd818a610c5c565b90508181036040830152610cd18189610c5c565b90508181036060830152610ce58188610c5c565b90508181036080830152610cf98187610c5c565b9050610d0860a0830186610b7f565b610d1560c0830185610b55565b610d2260e0830184610b7f565b9998505050505050505050565b600080600080600080600080600080600060c08c8e031215610d5457610d5361097b565b5b60008c013567ffffffffffffffff811115610d7257610d71610980565b5b610d7e8e828f01610994565b9b509b505060208c013567ffffffffffffffff811115610da157610da0610980565b5b610dad8e828f01610994565b995099505060408c013567ffffffffffffffff811115610dd057610dcf610980565b5b610ddc8e828f01610994565b975097505060608c013567ffffffffffffffff811115610dff57610dfe610980565b5b610e0b8e828f01610994565b955095505060808c013567ffffffffffffffff811115610e2e57610e2d610980565b5b610e3a8e828f01610994565b935093505060a0610e4d8e828f01610a0b565b9150509295989b509295989b9093969950565b7f4e487b7100000000000000000000000000000000000000000000000000000000600052602260045260246000fd5b60006002820490506001821680610ea757607f821691505b602082108103610eba57610eb9610e60565b5b50919050565b7f5072696365207265717569726564000000000000000000000000000000000000600082015250565b6000610ef6600e83610c10565b9150610f0182610ec0565b602082019050919050565b60006020820190508181036000830152610f2581610ee9565b9050919050565b7f4e487b7100000000000000000000000000000000000000000000000000000000600052604160045260246000fd5b60008190508160005260206000209050919050565b60006020601f8301049050919050565b600082821b905092915050565b600060088302610fbd7fffffffffffffffffffffffffffffffffffffffffffffffffffffffffffffffff82610f80565b610fc78683610f80565b95508019841693508086168417925050509392505050565b6000819050919050565b6000611004610fff610ffa846109ea565b610fdf565b6109ea565b9050919050565b6000819050919050565b61101e83610fe9565b61103261102a8261100b565b848454610f8d565b825550505050565b600090565b61104761103a565b611052818484611015565b505050565b5b818110156110765761106b60008261103f565b600181019050611058565b5050565b601f8211156110bb5761108c81610f5b565b61109584610f70565b810160208510156110a4578190505b6110b86110b085610f70565b830182611057565b50505b505050565b600082821c905092915050565b60006110de600019846008026110c0565b1980831691505092915050565b60006110f783836110cd565b9150826002028217905092915050565b61111082610c05565b67ffffffffffffffff81111561112957611128610f2c565b5b6111338254610e8f565b61113e82828561107a565b600060209050601f831160018114611171576000841561115f578287015190505b61116985826110eb565b8655506111d1565b601f19841661117f86610f5b565b60005b828110156111a757848901518255600182019150602085019450602081019050611182565b868310156111c457848901516111c0601f8916826110cd565b8355505b6001600288020188555050505b505050505050565b600060c08201905081810360008301526111f38189610c5c565b905081810360208301526112078188610c5c565b9050818103604083015261121b8187610c5c565b905061122a6060830186610b7f565b818103608083015261123c8185610c5c565b905061124b60a0830184610b7f565b979650505050505050565b600060408201905061126b6000830185610b7f565b6112786020830184610b7f565b9392505050565b7f4e487b7100000000000000000000000000000000000000000000000000000000600052601160045260246000fd5b60006112b9826109ea565b91506112c4836109ea565b92508282019050808211156112dc576112db61127f565b5b9291505056fea2646970667358221220e02a50d7d907ce63d6c44244c96d218aa7559505e02093e2ecb5db5ccce3f79d64736f6c63430008130033",
  "immutableReferences": {},
  "source": "// SPDX-License-Identifier: MIT\r\npragma solidity ^0.8.19;\r\n\r\ncontract MarketplaceListing {\r\n\r\n    struct Listing {\r\n        address seller;\r\n        string name;\r\n        string category;\r\n        string description;\r\n        string imageUrl;\r\n        uint256 priceWei;\r\n        bool active;\r\n        uint256 createdAt;\r\n    }\r\n\r\n    uint256 public nextListingId;\r\n    mapping(uint256 => Listing) public listings;\r\n\r\n    event ProductAdded(\r\n        uint256 indexed productId,\r\n        address indexed seller,\r\n        string name,\r\n        string category,\r\n        string description,\r\n        uint256 priceWei,\r\n        string imageUrl,\r\n        uint256 timestamp\r\n    );\r\n    event ListingCreated(\r\n        uint256 indexed listingId,\r\n        address indexed seller,\r\n        uint256 priceWei,\r\n        uint256 timestamp\r\n    );\r\n\r\n    constructor() {\r\n        nextListingId = 1;\r\n    }\r\n\r\n    function addProduct(\r\n        string calldata name,\r\n        string calldata category,\r\n        string calldata description,\r\n        string calldata imageUrl,\r\n        uint256 priceWei\r\n    ) external {\r\n        _addProduct(name, category, description, imageUrl, priceWei);\r\n    }\r\n\r\n    function _addProduct(\r\n        string memory name,\r\n        string memory category,\r\n        string memory description,\r\n        string memory imageUrl,\r\n        uint256 priceWei\r\n    ) internal {\r\n        require(priceWei > 0, \"Price required\");\r\n\r\n        listings[nextListingId] = Listing(\r\n            msg.sender,\r\n            name,\r\n            category,\r\n            description,\r\n            imageUrl,\r\n            priceWei,\r\n            true,\r\n            block.timestamp\r\n        );\r\n\r\n        emit ProductAdded(\r\n            nextListingId,\r\n            msg.sender,\r\n            name,\r\n            category,\r\n            description,\r\n            priceWei,\r\n            imageUrl,\r\n            block.timestamp\r\n        );\r\n        emit ListingCreated(\r\n            nextListingId,\r\n            msg.sender,\r\n            priceWei,\r\n            block.timestamp\r\n        );\r\n\r\n        nextListingId = nextListingId + 1;\r\n    }\r\n\r\n    function createListing(\r\n        string calldata name,\r\n        string calldata category,\r\n        string calldata shortDesc,\r\n        string calldata fullDesc,\r\n        string calldata image,\r\n        uint256 priceWei\r\n    ) external {\r\n        string memory description = bytes(fullDesc).length > 0 ? fullDesc : shortDesc;\r\n        _addProduct(name, category, description, image, priceWei);\r\n    }\r\n\r\n    function getSeller(uint256 listingId) external view returns (address) {\r\n        return listings[listingId].seller;\r\n    }\r\n\r\n    function getPrice(uint256 listingId) external view returns (uint256) {\r\n        return listings[listingId].priceWei;\r\n    }\r\n\r\n    function isActive(uint256 listingId) external view returns (bool) {\r\n        return listings[listingId].active;\r\n    }\r\n}\r\n",
  "sourcePath": "C:\\Users\\07kkj\\OneDrive\\RP Y2S2\\C373 Distributed Ledger Technology Solutioning\\FA\\C373_Team-2_FA-1\\contracts\\MarketplaceListing.sol",
  "compiler": {
    "name": "solc",
    "version": "0.8.19+commit.7dd6d404.Emscripten.clang"
  },
  "schemaVersion": "3.4.16",
  "updatedAt": "2026-01-30T09:30:52.740Z",
  "devdoc": {
    "kind": "dev",
    "methods": {},
    "version": 1
  },
  "userdoc": {
    "kind": "user",
    "methods": {},
    "version": 1
  }
}