{
  "contractName": "Notarization",
  "abi": [
    {
      "inputs": [
        {
          "internalType": "address",
          "name": "orderRegistryAddress",
          "type": "address"
        }
      ],
      "stateMutability": "nonpayable",
      "type": "constructor"
    },
    {
      "anonymous": false,
      "inputs": [
        {
          "indexed": true,
          "internalType": "uint256",
          "name": "orderId",
          "type": "uint256"
        },
        {
          "indexed": false,
          "internalType": "bytes32",
          "name": "hash",
          "type": "bytes32"
        },
        {
          "indexed": false,
          "internalType": "uint256",
          "name": "timestamp",
          "type": "uint256"
        }
      ],
      "name": "DeliveryNotarized",
      "type": "event"
    },
    {
      "anonymous": false,
      "inputs": [
        {
          "indexed": true,
          "internalType": "uint256",
          "name": "orderId",
          "type": "uint256"
        },
        {
          "indexed": false,
          "internalType": "bytes32",
          "name": "hash",
          "type": "bytes32"
        },
        {
          "indexed": false,
          "internalType": "uint256",
          "name": "timestamp",
          "type": "uint256"
        }
      ],
      "name": "PurchaseNotarized",
      "type": "event"
    },
    {
      "anonymous": false,
      "inputs": [
        {
          "indexed": true,
          "internalType": "uint256",
          "name": "orderId",
          "type": "uint256"
        },
        {
          "indexed": false,
          "internalType": "bytes32",
          "name": "hash",
          "type": "bytes32"
        },
        {
          "indexed": false,
          "internalType": "uint256",
          "name": "timestamp",
          "type": "uint256"
        }
      ],
      "name": "ShipmentNotarized",
      "type": "event"
    },
    {
      "inputs": [
        {
          "internalType": "uint256",
          "name": "",
          "type": "uint256"
        }
      ],
      "name": "deliveryNotarized",
      "outputs": [
        {
          "internalType": "bytes32",
          "name": "hash",
          "type": "bytes32"
        },
        {
          "internalType": "uint256",
          "name": "timestamp",
          "type": "uint256"
        }
      ],
      "stateMutability": "view",
      "type": "function"
    },
    {
      "inputs": [],
      "name": "orderRegistry",
      "outputs": [
        {
          "internalType": "contract OrderRegistry",
          "name": "",
          "type": "address"
        }
      ],
      "stateMutability": "view",
      "type": "function"
    },
    {
      "inputs": [
        {
          "internalType": "uint256",
          "name": "",
          "type": "uint256"
        }
      ],
      "name": "purchaseNotarized",
      "outputs": [
        {
          "internalType": "bytes32",
          "name": "hash",
          "type": "bytes32"
        },
        {
          "internalType": "uint256",
          "name": "timestamp",
          "type": "uint256"
        }
      ],
      "stateMutability": "view",
      "type": "function"
    },
    {
      "inputs": [
        {
          "internalType": "uint256",
          "name": "",
          "type": "uint256"
        }
      ],
      "name": "shipmentNotarized",
      "outputs": [
        {
          "internalType": "bytes32",
          "name": "hash",
          "type": "bytes32"
        },
        {
          "internalType": "uint256",
          "name": "timestamp",
          "type": "uint256"
        }
      ],
      "stateMutability": "view",
      "type": "function"
    },
    {
      "inputs": [
        {
          "internalType": "uint256",
          "name": "orderId",
          "type": "uint256"
        },
        {
          "internalType": "bytes32",
          "name": "hash",
          "type": "bytes32"
        }
      ],
      "name": "notarizePurchase",
      "outputs": [],
      "stateMutability": "nonpayable",
      "type": "function"
    },
    {
      "inputs": [
        {
          "internalType": "uint256",
          "name": "orderId",
          "type": "uint256"
        },
        {
          "internalType": "bytes32",
          "name": "hash",
          "type": "bytes32"
        }
      ],
      "name": "notarizeShipment",
      "outputs": [],
      "stateMutability": "nonpayable",
      "type": "function"
    },
    {
      "inputs": [
        {
          "internalType": "uint256",
          "name": "orderId",
          "type": "uint256"
        },
        {
          "internalType": "bytes32",
          "name": "hash",
          "type": "bytes32"
        }
      ],
      "name": "notarizeDelivery",
      "outputs": [],
      "stateMutability": "nonpayable",
      "type": "function"
    },
    {
      "inputs": [
        {
          "internalType": "uint256",
          "name": "orderId",
          "type": "uint256"
        }
      ],
      "name": "verifyPurchase",
      "outputs": [
        {
          "internalType": "bytes32",
          "name": "hash",
          "type": "bytes32"
        },
        {
          "internalType": "uint256",
          "name": "timestamp",
          "type": "uint256"
        }
      ],
      "stateMutability": "view",
      "type": "function"
    },
    {
      "inputs": [
        {
          "internalType": "uint256",
          "name": "orderId",
          "type": "uint256"
        }
      ],
      "name": "verifyShipment",
      "outputs": [
        {
          "internalType": "bytes32",
          "name": "hash",
          "type": "bytes32"
        },
        {
          "internalType": "uint256",
          "name": "timestamp",
          "type": "uint256"
        }
      ],
      "stateMutability": "view",
      "type": "function"
    },
    {
      "inputs": [
        {
          "internalType": "uint256",
          "name": "orderId",
          "type": "uint256"
        }
      ],
      "name": "verifyDelivery",
      "outputs": [
        {
          "internalType": "bytes32",
          "name": "hash",
          "type": "bytes32"
        },
        {
          "internalType": "uint256",
          "name": "timestamp",
          "type": "uint256"
        }
      ],
      "stateMutability": "view",
      "type": "function"
    }
  ],
  "bytecode": "0x60806040523480156200001157600080fd5b506040516200121c3803806200121c83398181016040528101906200003791906200015a565b600073ffffffffffffffffffffffffffffffffffffffff168173ffffffffffffffffffffffffffffffffffffffff1603620000a9576040517f08c379a0000000000000000000000000000000000000000000000000000000008152600401620000a090620001ed565b60405180910390fd5b806000806101000a81548173ffffffffffffffffffffffffffffffffffffffff021916908373ffffffffffffffffffffffffffffffffffffffff160217905550506200020f565b600080fd5b600073ffffffffffffffffffffffffffffffffffffffff82169050919050565b60006200012282620000f5565b9050919050565b620001348162000115565b81146200014057600080fd5b50565b600081519050620001548162000129565b92915050565b600060208284031215620001735762000172620000f0565b5b6000620001838482850162000143565b91505092915050565b600082825260208201905092915050565b7f4f72646572526567697374727920726571756972656400000000000000000000600082015250565b6000620001d56016836200018c565b9150620001e2826200019d565b602082019050919050565b600060208201905081810360008301526200020881620001c6565b9050919050565b610ffd806200021f6000396000f3fe608060405234801561001057600080fd5b506004361061009e5760003560e01c8063b371564b11610066578063b371564b14610183578063baca263e146101a1578063d07a623d146101d2578063d1923f3b146101ee578063e00d10341461020a5761009e565b806323675c47146100a35780632e557f88146100d457806392d15fc4146100f0578063aed0cad014610121578063b1282f5514610152575b600080fd5b6100bd60048036038101906100b89190610b44565b61023b565b6040516100cb929190610b99565b60405180910390f35b6100ee60048036038101906100e99190610bee565b610288565b005b61010a60048036038101906101059190610b44565b6104b3565b604051610118929190610b99565b60405180910390f35b61013b60048036038101906101369190610b44565b610500565b604051610149929190610b99565b60405180910390f35b61016c60048036038101906101679190610b44565b610524565b60405161017a929190610b99565b60405180910390f35b61018b610548565b6040516101989190610cad565b60405180910390f35b6101bb60048036038101906101b69190610b44565b61056c565b6040516101c9929190610b99565b60405180910390f35b6101ec60048036038101906101e79190610bee565b6105b9565b005b61020860048036038101906102039190610bee565b6107e4565b005b610224600480360381019061021f9190610b44565b610ae5565b604051610232929190610b99565b60405180910390f35b600080600060036000858152602001908152602001600020604051806040016040529081600082015481526020016001820154815250509050806000015181602001519250925050915091565b8160008060009054906101000a900473ffffffffffffffffffffffffffffffffffffffff1673ffffffffffffffffffffffffffffffffffffffff1663d6a9de51836040518263ffffffff1660e01b81526004016102e59190610cc8565b602060405180830381865afa158015610302573d6000803e3d6000fd5b505050506040513d601f19601f820116820180604052508101906103269190610d21565b90508073ffffffffffffffffffffffffffffffffffffffff163373ffffffffffffffffffffffffffffffffffffffff1614610396576040517f08c379a000000000000000000000000000000000000000000000000000000000815260040161038d90610dd1565b60405180910390fd5b6000801b83036103db576040517f08c379a00000000000000000000000000000000000000000000000000000000081526004016103d290610e3d565b60405180910390fd5b6000600260008681526020019081526020016000206001015414610434576040517f08c379a000000000000000000000000000000000000000000000000000000000815260040161042b90610ea9565b60405180910390fd5b604051806040016040528084815260200142815250600260008681526020019081526020016000206000820151816000015560208201518160010155905050837fca3df4830d7723abc1b695e55c74c6cfbd970ba40be5ea9bc32125606ffa977084426040516104a5929190610b99565b60405180910390a250505050565b600080600060026000858152602001908152602001600020604051806040016040529081600082015481526020016001820154815250509050806000015181602001519250925050915091565b60016020528060005260406000206000915090508060000154908060010154905082565b60026020528060005260406000206000915090508060000154908060010154905082565b60008054906101000a900473ffffffffffffffffffffffffffffffffffffffff1681565b600080600060016000858152602001908152602001600020604051806040016040529081600082015481526020016001820154815250509050806000015181602001519250925050915091565b8160008060009054906101000a900473ffffffffffffffffffffffffffffffffffffffff1673ffffffffffffffffffffffffffffffffffffffff16635bf608b8836040518263ffffffff1660e01b81526004016106169190610cc8565b602060405180830381865afa158015610633573d6000803e3d6000fd5b505050506040513d601f19601f820116820180604052508101906106579190610d21565b90508073ffffffffffffffffffffffffffffffffffffffff163373ffffffffffffffffffffffffffffffffffffffff16146106c7576040517f08c379a00000000000000000000000000000000000000000000000000000000081526004016106be90610f15565b60405180910390fd5b6000801b830361070c576040517f08c379a000000000000000000000000000000000000000000000000000000000815260040161070390610e3d565b60405180910390fd5b6000600360008681526020019081526020016000206001015414610765576040517f08c379a000000000000000000000000000000000000000000000000000000000815260040161075c90610ea9565b60405180910390fd5b604051806040016040528084815260200142815250600360008681526020019081526020016000206000820151816000015560208201518160010155905050837fbab7405e554d907d31baf53a1e57e1d6a04428dbe843a8e2b28c21dc61da133c84426040516107d6929190610b99565b60405180910390a250505050565b8160008060009054906101000a900473ffffffffffffffffffffffffffffffffffffffff1673ffffffffffffffffffffffffffffffffffffffff1663d6a9de51836040518263ffffffff1660e01b81526004016108419190610cc8565b602060405180830381865afa15801561085e573d6000803e3d6000fd5b505050506040513d601f19601f820116820180604052508101906108829190610d21565b905060008060009054906101000a900473ffffffffffffffffffffffffffffffffffffffff1673ffffffffffffffffffffffffffffffffffffffff16635bf608b8846040518263ffffffff1660e01b81526004016108e09190610cc8565b602060405180830381865afa1580156108fd573d6000803e3d6000fd5b505050506040513d601f19601f820116820180604052508101906109219190610d21565b90508173ffffffffffffffffffffffffffffffffffffffff163373ffffffffffffffffffffffffffffffffffffffff16148061098857508073ffffffffffffffffffffffffffffffffffffffff163373ffffffffffffffffffffffffffffffffffffffff16145b6109c7576040517f08c379a00000000000000000000000000000000000000000000000000000000081526004016109be90610fa7565b60405180910390fd5b6000801b8403610a0c576040517f08c379a0000000000000000000000000000000000000000000000000000000008152600401610a0390610e3d565b60405180910390fd5b6000600160008781526020019081526020016000206001015414610a65576040517f08c379a0000000000000000000000000000000000000000000000000000000008152600401610a5c90610ea9565b60405180910390fd5b604051806040016040528085815260200142815250600160008781526020019081526020016000206000820151816000015560208201518160010155905050847fa63698ae04e1d2402c4ade32167f02337e2b7fa4a4177f72c2797731f0b540d38542604051610ad6929190610b99565b60405180910390a25050505050565b60036020528060005260406000206000915090508060000154908060010154905082565b600080fd5b6000819050919050565b610b2181610b0e565b8114610b2c57600080fd5b50565b600081359050610b3e81610b18565b92915050565b600060208284031215610b5a57610b59610b09565b5b6000610b6884828501610b2f565b91505092915050565b6000819050919050565b610b8481610b71565b82525050565b610b9381610b0e565b82525050565b6000604082019050610bae6000830185610b7b565b610bbb6020830184610b8a565b9392505050565b610bcb81610b71565b8114610bd657600080fd5b50565b600081359050610be881610bc2565b92915050565b60008060408385031215610c0557610c04610b09565b5b6000610c1385828601610b2f565b9250506020610c2485828601610bd9565b9150509250929050565b600073ffffffffffffffffffffffffffffffffffffffff82169050919050565b6000819050919050565b6000610c73610c6e610c6984610c2e565b610c4e565b610c2e565b9050919050565b6000610c8582610c58565b9050919050565b6000610c9782610c7a565b9050919050565b610ca781610c8c565b82525050565b6000602082019050610cc26000830184610c9e565b92915050565b6000602082019050610cdd6000830184610b8a565b92915050565b6000610cee82610c2e565b9050919050565b610cfe81610ce3565b8114610d0957600080fd5b50565b600081519050610d1b81610cf5565b92915050565b600060208284031215610d3757610d36610b09565b5b6000610d4584828501610d0c565b91505092915050565b600082825260208201905092915050565b7f4f6e6c792073656c6c65722063616e206e6f746172697a6520736869706d656e60008201527f7400000000000000000000000000000000000000000000000000000000000000602082015250565b6000610dbb602183610d4e565b9150610dc682610d5f565b604082019050919050565b60006020820190508181036000830152610dea81610dae565b9050919050565b7f496e76616c696420686173680000000000000000000000000000000000000000600082015250565b6000610e27600c83610d4e565b9150610e3282610df1565b602082019050919050565b60006020820190508181036000830152610e5681610e1a565b9050919050565b7f416c7265616479206e6f746172697a6564000000000000000000000000000000600082015250565b6000610e93601183610d4e565b9150610e9e82610e5d565b602082019050919050565b60006020820190508181036000830152610ec281610e86565b9050919050565b7f4f6e6c792062757965722063616e206e6f746172697a652064656c6976657279600082015250565b6000610eff602083610d4e565b9150610f0a82610ec9565b602082019050919050565b60006020820190508181036000830152610f2e81610ef2565b9050919050565b7f4f6e6c792073656c6c6572206f722062757965722063616e206e6f746172697a60008201527f6500000000000000000000000000000000000000000000000000000000000000602082015250565b6000610f91602183610d4e565b9150610f9c82610f35565b604082019050919050565b60006020820190508181036000830152610fc081610f84565b905091905056fea264697066735822122084b2a34b7b8961d47fd353e66096cd69c057bf04d3e72b045b35e66f9bba23c864736f6c63430008130033",
  "immutableReferences": {},
  "source": "// SPDX-License-Identifier: MIT\r\npragma solidity ^0.8.19;\r\n\r\nimport \"./OrderRegistry.sol\";\r\n\r\ncontract Notarization {\r\n    struct Record {\r\n        bytes32 hash;\r\n        uint256 timestamp;\r\n    }\r\n\r\n    OrderRegistry public orderRegistry;\r\n\r\n    mapping(uint256 => Record) public purchaseNotarized;\r\n    mapping(uint256 => Record) public shipmentNotarized;\r\n    mapping(uint256 => Record) public deliveryNotarized;\r\n\r\n    event PurchaseNotarized(uint256 indexed orderId, bytes32 hash, uint256 timestamp);\r\n    event ShipmentNotarized(uint256 indexed orderId, bytes32 hash, uint256 timestamp);\n    event DeliveryNotarized(uint256 indexed orderId, bytes32 hash, uint256 timestamp);\n\n    modifier onlySellerOrBuyer(uint256 orderId) {\n        address seller = orderRegistry.getSeller(orderId);\n        address buyer = orderRegistry.getBuyer(orderId);\n        require(msg.sender == seller || msg.sender == buyer, \"Only seller or buyer can notarize\");\n        _;\n    }\n\n    modifier onlySeller(uint256 orderId) {\n        address seller = orderRegistry.getSeller(orderId);\n        require(msg.sender == seller, \"Only seller can notarize shipment\");\n        _;\n    }\n\n    modifier onlyBuyer(uint256 orderId) {\n        address buyer = orderRegistry.getBuyer(orderId);\n        require(msg.sender == buyer, \"Only buyer can notarize delivery\");\n        _;\n    }\n\n    constructor(address orderRegistryAddress) {\n        require(orderRegistryAddress != address(0), \"OrderRegistry required\");\n        orderRegistry = OrderRegistry(orderRegistryAddress);\n    }\n\r\n    function notarizePurchase(uint256 orderId, bytes32 hash) external onlySellerOrBuyer(orderId) {\r\n        require(hash != bytes32(0), \"Invalid hash\");\r\n        require(purchaseNotarized[orderId].timestamp == 0, \"Already notarized\");\r\n        purchaseNotarized[orderId] = Record(hash, block.timestamp);\r\n        emit PurchaseNotarized(orderId, hash, block.timestamp);\r\n    }\r\n\r\n    function notarizeShipment(uint256 orderId, bytes32 hash) external onlySeller(orderId) {\n        require(hash != bytes32(0), \"Invalid hash\");\n        require(shipmentNotarized[orderId].timestamp == 0, \"Already notarized\");\n        shipmentNotarized[orderId] = Record(hash, block.timestamp);\n        emit ShipmentNotarized(orderId, hash, block.timestamp);\n    }\n\n    function notarizeDelivery(uint256 orderId, bytes32 hash) external onlyBuyer(orderId) {\n        require(hash != bytes32(0), \"Invalid hash\");\n        require(deliveryNotarized[orderId].timestamp == 0, \"Already notarized\");\n        deliveryNotarized[orderId] = Record(hash, block.timestamp);\n        emit DeliveryNotarized(orderId, hash, block.timestamp);\n    }\n\r\n    function verifyPurchase(uint256 orderId) external view returns (bytes32 hash, uint256 timestamp) {\r\n        Record memory record = purchaseNotarized[orderId];\r\n        return (record.hash, record.timestamp);\r\n    }\r\n\r\n    function verifyShipment(uint256 orderId) external view returns (bytes32 hash, uint256 timestamp) {\r\n        Record memory record = shipmentNotarized[orderId];\r\n        return (record.hash, record.timestamp);\r\n    }\r\n\r\n    function verifyDelivery(uint256 orderId) external view returns (bytes32 hash, uint256 timestamp) {\r\n        Record memory record = deliveryNotarized[orderId];\r\n        return (record.hash, record.timestamp);\r\n    }\r\n}\r\n",
  "sourcePath": "C:\\Users\\07kkj\\OneDrive\\RP Y2S2\\C373 Distributed Ledger Technology Solutioning\\FA\\C373_Team-2_FA-1\\contracts\\Notarization.sol",
  "compiler": {
    "name": "solc",
    "version": "0.8.19+commit.7dd6d404.Emscripten.clang"
  },
  "schemaVersion": "3.4.16",
  "updatedAt": "2026-01-30T10:24:59.426Z",
  "devdoc": {
    "kind": "dev",
    "methods": {},
    "version": 1
  },
  "userdoc": {
    "kind": "user",
    "methods": {},
    "version": 1
  }
}