{
  "contractName": "Notarization",
  "abi": [
    {
      "inputs": [
        {
          "internalType": "address",
          "name": "orderRegistryAddress",
          "type": "address"
        }
      ],
      "stateMutability": "nonpayable",
      "type": "constructor"
    },
    {
      "anonymous": false,
      "inputs": [
        {
          "indexed": true,
          "internalType": "uint256",
          "name": "orderId",
          "type": "uint256"
        },
        {
          "indexed": false,
          "internalType": "bytes32",
          "name": "hash",
          "type": "bytes32"
        },
        {
          "indexed": false,
          "internalType": "uint256",
          "name": "timestamp",
          "type": "uint256"
        }
      ],
      "name": "DeliveryNotarized",
      "type": "event"
    },
    {
      "anonymous": false,
      "inputs": [
        {
          "indexed": true,
          "internalType": "uint256",
          "name": "orderId",
          "type": "uint256"
        },
        {
          "indexed": false,
          "internalType": "bytes32",
          "name": "hash",
          "type": "bytes32"
        },
        {
          "indexed": false,
          "internalType": "uint256",
          "name": "timestamp",
          "type": "uint256"
        }
      ],
      "name": "PurchaseNotarized",
      "type": "event"
    },
    {
      "anonymous": false,
      "inputs": [
        {
          "indexed": true,
          "internalType": "uint256",
          "name": "orderId",
          "type": "uint256"
        },
        {
          "indexed": false,
          "internalType": "bytes32",
          "name": "hash",
          "type": "bytes32"
        },
        {
          "indexed": false,
          "internalType": "uint256",
          "name": "timestamp",
          "type": "uint256"
        }
      ],
      "name": "ShipmentNotarized",
      "type": "event"
    },
    {
      "inputs": [
        {
          "internalType": "uint256",
          "name": "",
          "type": "uint256"
        }
      ],
      "name": "deliveryNotarized",
      "outputs": [
        {
          "internalType": "bytes32",
          "name": "hash",
          "type": "bytes32"
        },
        {
          "internalType": "uint256",
          "name": "timestamp",
          "type": "uint256"
        }
      ],
      "stateMutability": "view",
      "type": "function",
      "constant": true
    },
    {
      "inputs": [],
      "name": "orderRegistry",
      "outputs": [
        {
          "internalType": "contract OrderRegistry",
          "name": "",
          "type": "address"
        }
      ],
      "stateMutability": "view",
      "type": "function",
      "constant": true
    },
    {
      "inputs": [
        {
          "internalType": "uint256",
          "name": "",
          "type": "uint256"
        }
      ],
      "name": "purchaseNotarized",
      "outputs": [
        {
          "internalType": "bytes32",
          "name": "hash",
          "type": "bytes32"
        },
        {
          "internalType": "uint256",
          "name": "timestamp",
          "type": "uint256"
        }
      ],
      "stateMutability": "view",
      "type": "function",
      "constant": true
    },
    {
      "inputs": [
        {
          "internalType": "uint256",
          "name": "",
          "type": "uint256"
        }
      ],
      "name": "shipmentNotarized",
      "outputs": [
        {
          "internalType": "bytes32",
          "name": "hash",
          "type": "bytes32"
        },
        {
          "internalType": "uint256",
          "name": "timestamp",
          "type": "uint256"
        }
      ],
      "stateMutability": "view",
      "type": "function",
      "constant": true
    },
    {
      "inputs": [
        {
          "internalType": "uint256",
          "name": "orderId",
          "type": "uint256"
        },
        {
          "internalType": "bytes32",
          "name": "hash",
          "type": "bytes32"
        }
      ],
      "name": "notarizePurchase",
      "outputs": [],
      "stateMutability": "nonpayable",
      "type": "function"
    },
    {
      "inputs": [
        {
          "internalType": "uint256",
          "name": "orderId",
          "type": "uint256"
        },
        {
          "internalType": "bytes32",
          "name": "hash",
          "type": "bytes32"
        }
      ],
      "name": "notarizeShipment",
      "outputs": [],
      "stateMutability": "nonpayable",
      "type": "function"
    },
    {
      "inputs": [
        {
          "internalType": "uint256",
          "name": "orderId",
          "type": "uint256"
        },
        {
          "internalType": "bytes32",
          "name": "hash",
          "type": "bytes32"
        }
      ],
      "name": "notarizeDelivery",
      "outputs": [],
      "stateMutability": "nonpayable",
      "type": "function"
    },
    {
      "inputs": [
        {
          "internalType": "uint256",
          "name": "orderId",
          "type": "uint256"
        }
      ],
      "name": "verifyPurchase",
      "outputs": [
        {
          "internalType": "bytes32",
          "name": "hash",
          "type": "bytes32"
        },
        {
          "internalType": "uint256",
          "name": "timestamp",
          "type": "uint256"
        }
      ],
      "stateMutability": "view",
      "type": "function",
      "constant": true
    },
    {
      "inputs": [
        {
          "internalType": "uint256",
          "name": "orderId",
          "type": "uint256"
        }
      ],
      "name": "verifyShipment",
      "outputs": [
        {
          "internalType": "bytes32",
          "name": "hash",
          "type": "bytes32"
        },
        {
          "internalType": "uint256",
          "name": "timestamp",
          "type": "uint256"
        }
      ],
      "stateMutability": "view",
      "type": "function",
      "constant": true
    },
    {
      "inputs": [
        {
          "internalType": "uint256",
          "name": "orderId",
          "type": "uint256"
        }
      ],
      "name": "verifyDelivery",
      "outputs": [
        {
          "internalType": "bytes32",
          "name": "hash",
          "type": "bytes32"
        },
        {
          "internalType": "uint256",
          "name": "timestamp",
          "type": "uint256"
        }
      ],
      "stateMutability": "view",
      "type": "function",
      "constant": true
    }
  ],
  "bytecode": "0x60806040523480156200001157600080fd5b50604051620012ca380380620012ca83398181016040528101906200003791906200015a565b600073ffffffffffffffffffffffffffffffffffffffff168173ffffffffffffffffffffffffffffffffffffffff1603620000a9576040517f08c379a0000000000000000000000000000000000000000000000000000000008152600401620000a090620001ed565b60405180910390fd5b806000806101000a81548173ffffffffffffffffffffffffffffffffffffffff021916908373ffffffffffffffffffffffffffffffffffffffff160217905550506200020f565b600080fd5b600073ffffffffffffffffffffffffffffffffffffffff82169050919050565b60006200012282620000f5565b9050919050565b620001348162000115565b81146200014057600080fd5b50565b600081519050620001548162000129565b92915050565b600060208284031215620001735762000172620000f0565b5b6000620001838482850162000143565b91505092915050565b600082825260208201905092915050565b7f4f72646572526567697374727920726571756972656400000000000000000000600082015250565b6000620001d56016836200018c565b9150620001e2826200019d565b602082019050919050565b600060208201905081810360008301526200020881620001c6565b9050919050565b6110ab806200021f6000396000f3fe608060405234801561001057600080fd5b506004361061009e5760003560e01c8063b371564b11610066578063b371564b14610183578063baca263e146101a1578063d07a623d146101d2578063d1923f3b146101ee578063e00d10341461020a5761009e565b806323675c47146100a35780632e557f88146100d457806392d15fc4146100f0578063aed0cad014610121578063b1282f5514610152575b600080fd5b6100bd60048036038101906100b89190610cf0565b61023b565b6040516100cb929190610d45565b60405180910390f35b6100ee60048036038101906100e99190610d9a565b610288565b005b61010a60048036038101906101059190610cf0565b610589565b604051610118929190610d45565b60405180910390f35b61013b60048036038101906101369190610cf0565b6105d6565b604051610149929190610d45565b60405180910390f35b61016c60048036038101906101679190610cf0565b6105fa565b60405161017a929190610d45565b60405180910390f35b61018b61061e565b6040516101989190610e59565b60405180910390f35b6101bb60048036038101906101b69190610cf0565b610642565b6040516101c9929190610d45565b60405180910390f35b6101ec60048036038101906101e79190610d9a565b61068f565b005b61020860048036038101906102039190610d9a565b610990565b005b610224600480360381019061021f9190610cf0565b610c91565b604051610232929190610d45565b60405180910390f35b600080600060036000858152602001908152602001600020604051806040016040529081600082015481526020016001820154815250509050806000015181602001519250925050915091565b8160008060009054906101000a900473ffffffffffffffffffffffffffffffffffffffff1673ffffffffffffffffffffffffffffffffffffffff1663d6a9de51836040518263ffffffff1660e01b81526004016102e59190610e74565b602060405180830381865afa158015610302573d6000803e3d6000fd5b505050506040513d601f19601f820116820180604052508101906103269190610ecd565b905060008060009054906101000a900473ffffffffffffffffffffffffffffffffffffffff1673ffffffffffffffffffffffffffffffffffffffff16635bf608b8846040518263ffffffff1660e01b81526004016103849190610e74565b602060405180830381865afa1580156103a1573d6000803e3d6000fd5b505050506040513d601f19601f820116820180604052508101906103c59190610ecd565b90508173ffffffffffffffffffffffffffffffffffffffff163373ffffffffffffffffffffffffffffffffffffffff16148061042c57508073ffffffffffffffffffffffffffffffffffffffff163373ffffffffffffffffffffffffffffffffffffffff16145b61046b576040517f08c379a000000000000000000000000000000000000000000000000000000000815260040161046290610f7d565b60405180910390fd5b6000801b84036104b0576040517f08c379a00000000000000000000000000000000000000000000000000000000081526004016104a790610fe9565b60405180910390fd5b6000600260008781526020019081526020016000206001015414610509576040517f08c379a000000000000000000000000000000000000000000000000000000000815260040161050090611055565b60405180910390fd5b604051806040016040528085815260200142815250600260008781526020019081526020016000206000820151816000015560208201518160010155905050847fca3df4830d7723abc1b695e55c74c6cfbd970ba40be5ea9bc32125606ffa9770854260405161057a929190610d45565b60405180910390a25050505050565b600080600060026000858152602001908152602001600020604051806040016040529081600082015481526020016001820154815250509050806000015181602001519250925050915091565b60016020528060005260406000206000915090508060000154908060010154905082565b60026020528060005260406000206000915090508060000154908060010154905082565b60008054906101000a900473ffffffffffffffffffffffffffffffffffffffff1681565b600080600060016000858152602001908152602001600020604051806040016040529081600082015481526020016001820154815250509050806000015181602001519250925050915091565b8160008060009054906101000a900473ffffffffffffffffffffffffffffffffffffffff1673ffffffffffffffffffffffffffffffffffffffff1663d6a9de51836040518263ffffffff1660e01b81526004016106ec9190610e74565b602060405180830381865afa158015610709573d6000803e3d6000fd5b505050506040513d601f19601f8201168201806040525081019061072d9190610ecd565b905060008060009054906101000a900473ffffffffffffffffffffffffffffffffffffffff1673ffffffffffffffffffffffffffffffffffffffff16635bf608b8846040518263ffffffff1660e01b815260040161078b9190610e74565b602060405180830381865afa1580156107a8573d6000803e3d6000fd5b505050506040513d601f19601f820116820180604052508101906107cc9190610ecd565b90508173ffffffffffffffffffffffffffffffffffffffff163373ffffffffffffffffffffffffffffffffffffffff16148061083357508073ffffffffffffffffffffffffffffffffffffffff163373ffffffffffffffffffffffffffffffffffffffff16145b610872576040517f08c379a000000000000000000000000000000000000000000000000000000000815260040161086990610f7d565b60405180910390fd5b6000801b84036108b7576040517f08c379a00000000000000000000000000000000000000000000000000000000081526004016108ae90610fe9565b60405180910390fd5b6000600360008781526020019081526020016000206001015414610910576040517f08c379a000000000000000000000000000000000000000000000000000000000815260040161090790611055565b60405180910390fd5b604051806040016040528085815260200142815250600360008781526020019081526020016000206000820151816000015560208201518160010155905050847fbab7405e554d907d31baf53a1e57e1d6a04428dbe843a8e2b28c21dc61da133c8542604051610981929190610d45565b60405180910390a25050505050565b8160008060009054906101000a900473ffffffffffffffffffffffffffffffffffffffff1673ffffffffffffffffffffffffffffffffffffffff1663d6a9de51836040518263ffffffff1660e01b81526004016109ed9190610e74565b602060405180830381865afa158015610a0a573d6000803e3d6000fd5b505050506040513d601f19601f82011682018060405250810190610a2e9190610ecd565b905060008060009054906101000a900473ffffffffffffffffffffffffffffffffffffffff1673ffffffffffffffffffffffffffffffffffffffff16635bf608b8846040518263ffffffff1660e01b8152600401610a8c9190610e74565b602060405180830381865afa158015610aa9573d6000803e3d6000fd5b505050506040513d601f19601f82011682018060405250810190610acd9190610ecd565b90508173ffffffffffffffffffffffffffffffffffffffff163373ffffffffffffffffffffffffffffffffffffffff161480610b3457508073ffffffffffffffffffffffffffffffffffffffff163373ffffffffffffffffffffffffffffffffffffffff16145b610b73576040517f08c379a0000000000000000000000000000000000000000000000000000000008152600401610b6a90610f7d565b60405180910390fd5b6000801b8403610bb8576040517f08c379a0000000000000000000000000000000000000000000000000000000008152600401610baf90610fe9565b60405180910390fd5b6000600160008781526020019081526020016000206001015414610c11576040517f08c379a0000000000000000000000000000000000000000000000000000000008152600401610c0890611055565b60405180910390fd5b604051806040016040528085815260200142815250600160008781526020019081526020016000206000820151816000015560208201518160010155905050847fa63698ae04e1d2402c4ade32167f02337e2b7fa4a4177f72c2797731f0b540d38542604051610c82929190610d45565b60405180910390a25050505050565b60036020528060005260406000206000915090508060000154908060010154905082565b600080fd5b6000819050919050565b610ccd81610cba565b8114610cd857600080fd5b50565b600081359050610cea81610cc4565b92915050565b600060208284031215610d0657610d05610cb5565b5b6000610d1484828501610cdb565b91505092915050565b6000819050919050565b610d3081610d1d565b82525050565b610d3f81610cba565b82525050565b6000604082019050610d5a6000830185610d27565b610d676020830184610d36565b9392505050565b610d7781610d1d565b8114610d8257600080fd5b50565b600081359050610d9481610d6e565b92915050565b60008060408385031215610db157610db0610cb5565b5b6000610dbf85828601610cdb565b9250506020610dd085828601610d85565b9150509250929050565b600073ffffffffffffffffffffffffffffffffffffffff82169050919050565b6000819050919050565b6000610e1f610e1a610e1584610dda565b610dfa565b610dda565b9050919050565b6000610e3182610e04565b9050919050565b6000610e4382610e26565b9050919050565b610e5381610e38565b82525050565b6000602082019050610e6e6000830184610e4a565b92915050565b6000602082019050610e896000830184610d36565b92915050565b6000610e9a82610dda565b9050919050565b610eaa81610e8f565b8114610eb557600080fd5b50565b600081519050610ec781610ea1565b92915050565b600060208284031215610ee357610ee2610cb5565b5b6000610ef184828501610eb8565b91505092915050565b600082825260208201905092915050565b7f4f6e6c792073656c6c6572206f722062757965722063616e206e6f746172697a60008201527f6500000000000000000000000000000000000000000000000000000000000000602082015250565b6000610f67602183610efa565b9150610f7282610f0b565b604082019050919050565b60006020820190508181036000830152610f9681610f5a565b9050919050565b7f496e76616c696420686173680000000000000000000000000000000000000000600082015250565b6000610fd3600c83610efa565b9150610fde82610f9d565b602082019050919050565b6000602082019050818103600083015261100281610fc6565b9050919050565b7f416c7265616479206e6f746172697a6564000000000000000000000000000000600082015250565b600061103f601183610efa565b915061104a82611009565b602082019050919050565b6000602082019050818103600083015261106e81611032565b905091905056fea26469706673582212207828c862e9183967314f01d279e8e478ebce9e093aba09d19052c1b1aa2525bd64736f6c63430008130033",
  "immutableReferences": {},
  "source": "// SPDX-License-Identifier: MIT\npragma solidity ^0.8.19;\n\nimport \"./OrderRegistry.sol\";\n\ncontract Notarization {\n    struct Record {\n        bytes32 hash;\n        uint256 timestamp;\n    }\n\n    OrderRegistry public orderRegistry;\n\n    mapping(uint256 => Record) public purchaseNotarized;\n    mapping(uint256 => Record) public shipmentNotarized;\n    mapping(uint256 => Record) public deliveryNotarized;\n\n    event PurchaseNotarized(uint256 indexed orderId, bytes32 hash, uint256 timestamp);\n    event ShipmentNotarized(uint256 indexed orderId, bytes32 hash, uint256 timestamp);\n    event DeliveryNotarized(uint256 indexed orderId, bytes32 hash, uint256 timestamp);\n\n    modifier onlySellerOrBuyer(uint256 orderId) {\n        address seller = orderRegistry.getSeller(orderId);\n        address buyer = orderRegistry.getBuyer(orderId);\n        require(msg.sender == seller || msg.sender == buyer, \"Only seller or buyer can notarize\");\n        _;\n    }\n\n    constructor(address orderRegistryAddress) {\n        require(orderRegistryAddress != address(0), \"OrderRegistry required\");\n        orderRegistry = OrderRegistry(orderRegistryAddress);\n    }\n\n    function notarizePurchase(uint256 orderId, bytes32 hash) external onlySellerOrBuyer(orderId) {\n        require(hash != bytes32(0), \"Invalid hash\");\n        require(purchaseNotarized[orderId].timestamp == 0, \"Already notarized\");\n        purchaseNotarized[orderId] = Record(hash, block.timestamp);\n        emit PurchaseNotarized(orderId, hash, block.timestamp);\n    }\n\n    function notarizeShipment(uint256 orderId, bytes32 hash) external onlySellerOrBuyer(orderId) {\n        require(hash != bytes32(0), \"Invalid hash\");\n        require(shipmentNotarized[orderId].timestamp == 0, \"Already notarized\");\n        shipmentNotarized[orderId] = Record(hash, block.timestamp);\n        emit ShipmentNotarized(orderId, hash, block.timestamp);\n    }\n\n    function notarizeDelivery(uint256 orderId, bytes32 hash) external onlySellerOrBuyer(orderId) {\n        require(hash != bytes32(0), \"Invalid hash\");\n        require(deliveryNotarized[orderId].timestamp == 0, \"Already notarized\");\n        deliveryNotarized[orderId] = Record(hash, block.timestamp);\n        emit DeliveryNotarized(orderId, hash, block.timestamp);\n    }\n\n    function verifyPurchase(uint256 orderId) external view returns (bytes32 hash, uint256 timestamp) {\n        Record memory record = purchaseNotarized[orderId];\n        return (record.hash, record.timestamp);\n    }\n\n    function verifyShipment(uint256 orderId) external view returns (bytes32 hash, uint256 timestamp) {\n        Record memory record = shipmentNotarized[orderId];\n        return (record.hash, record.timestamp);\n    }\n\n    function verifyDelivery(uint256 orderId) external view returns (bytes32 hash, uint256 timestamp) {\n        Record memory record = deliveryNotarized[orderId];\n        return (record.hash, record.timestamp);\n    }\n}\n",
  "sourcePath": "C:\\Users\\24002690\\Downloads\\C373_Team-2_FA-1 (2)\\C373_Team-2_FA-1\\contracts\\Notarization.sol",
  "compiler": {
    "name": "solc",
    "version": "0.8.19+commit.7dd6d404.Emscripten.clang"
  },
  "schemaVersion": "3.4.16",
  "updatedAt": "2026-01-29T09:10:05.291Z",
  "networkType": "ethereum",
  "devdoc": {
    "kind": "dev",
    "methods": {},
    "version": 1
  },
  "userdoc": {
    "kind": "user",
    "methods": {},
    "version": 1
  }
}