{
  "contractName": "OrderRegistry",
  "abi": [
    {
      "inputs": [],
      "stateMutability": "nonpayable",
      "type": "constructor"
    },
    {
      "inputs": [],
      "name": "nextOrderId",
      "outputs": [
        {
          "internalType": "uint256",
          "name": "",
          "type": "uint256"
        }
      ],
      "stateMutability": "view",
      "type": "function",
      "constant": true
    },
    {
      "inputs": [
        {
          "internalType": "uint256",
          "name": "",
          "type": "uint256"
        }
      ],
      "name": "orders",
      "outputs": [
        {
          "internalType": "uint256",
          "name": "listingId",
          "type": "uint256"
        },
        {
          "internalType": "uint256",
          "name": "qty",
          "type": "uint256"
        },
        {
          "internalType": "address",
          "name": "buyer",
          "type": "address"
        },
        {
          "internalType": "address",
          "name": "seller",
          "type": "address"
        }
      ],
      "stateMutability": "view",
      "type": "function",
      "constant": true
    },
    {
      "inputs": [
        {
          "internalType": "uint256",
          "name": "listingId",
          "type": "uint256"
        },
        {
          "internalType": "address",
          "name": "buyer",
          "type": "address"
        },
        {
          "internalType": "address",
          "name": "seller",
          "type": "address"
        },
        {
          "internalType": "uint256",
          "name": "qty",
          "type": "uint256"
        }
      ],
      "name": "createOrder",
      "outputs": [
        {
          "internalType": "uint256",
          "name": "",
          "type": "uint256"
        }
      ],
      "stateMutability": "nonpayable",
      "type": "function"
    },
    {
      "inputs": [
        {
          "internalType": "uint256",
          "name": "orderId",
          "type": "uint256"
        }
      ],
      "name": "getBuyer",
      "outputs": [
        {
          "internalType": "address",
          "name": "",
          "type": "address"
        }
      ],
      "stateMutability": "view",
      "type": "function",
      "constant": true
    },
    {
      "inputs": [
        {
          "internalType": "uint256",
          "name": "orderId",
          "type": "uint256"
        }
      ],
      "name": "getSeller",
      "outputs": [
        {
          "internalType": "address",
          "name": "",
          "type": "address"
        }
      ],
      "stateMutability": "view",
      "type": "function",
      "constant": true
    },
    {
      "inputs": [
        {
          "internalType": "uint256",
          "name": "orderId",
          "type": "uint256"
        }
      ],
      "name": "getListingId",
      "outputs": [
        {
          "internalType": "uint256",
          "name": "",
          "type": "uint256"
        }
      ],
      "stateMutability": "view",
      "type": "function",
      "constant": true
    },
    {
      "inputs": [
        {
          "internalType": "uint256",
          "name": "orderId",
          "type": "uint256"
        }
      ],
      "name": "getQty",
      "outputs": [
        {
          "internalType": "uint256",
          "name": "",
          "type": "uint256"
        }
      ],
      "stateMutability": "view",
      "type": "function",
      "constant": true
    }
  ],
  "bytecode": "0x608060405234801561001057600080fd5b5060016000819055506106ce806100286000396000f3fe608060405234801561001057600080fd5b506004361061007d5760003560e01c8063bbebfbf81161005b578063bbebfbf814610103578063c0bea73f14610133578063cc85a55b14610163578063d6a9de51146101935761007d565b80632a58b330146100825780635bf608b8146100a0578063a85c38ef146100d0575b600080fd5b61008a6101c3565b6040516100979190610454565b60405180910390f35b6100ba60048036038101906100b591906104a0565b6101c9565b6040516100c7919061050e565b60405180910390f35b6100ea60048036038101906100e591906104a0565b610209565b6040516100fa9493929190610529565b60405180910390f35b61011d6004803603810190610118919061059a565b610279565b60405161012a9190610454565b60405180910390f35b61014d600480360381019061014891906104a0565b6103bb565b60405161015a9190610454565b60405180910390f35b61017d600480360381019061017891906104a0565b6103db565b60405161018a9190610454565b60405180910390f35b6101ad60048036038101906101a891906104a0565b6103fb565b6040516101ba919061050e565b60405180910390f35b60005481565b60006001600083815260200190815260200160002060020160009054906101000a900473ffffffffffffffffffffffffffffffffffffffff169050919050565b60016020528060005260406000206000915090508060000154908060010154908060020160009054906101000a900473ffffffffffffffffffffffffffffffffffffffff16908060030160009054906101000a900473ffffffffffffffffffffffffffffffffffffffff16905084565b600080821161028757600080fd5b60405180608001604052808681526020018381526020018573ffffffffffffffffffffffffffffffffffffffff1681526020018473ffffffffffffffffffffffffffffffffffffffff168152506001600080548152602001908152602001600020600082015181600001556020820151816001015560408201518160020160006101000a81548173ffffffffffffffffffffffffffffffffffffffff021916908373ffffffffffffffffffffffffffffffffffffffff16021790555060608201518160030160006101000a81548173ffffffffffffffffffffffffffffffffffffffff021916908373ffffffffffffffffffffffffffffffffffffffff160217905550905050600160005461039c9190610630565b60008190555060016000546103b19190610664565b9050949350505050565b600060016000838152602001908152602001600020600101549050919050565b600060016000838152602001908152602001600020600001549050919050565b60006001600083815260200190815260200160002060030160009054906101000a900473ffffffffffffffffffffffffffffffffffffffff169050919050565b6000819050919050565b61044e8161043b565b82525050565b60006020820190506104696000830184610445565b92915050565b600080fd5b61047d8161043b565b811461048857600080fd5b50565b60008135905061049a81610474565b92915050565b6000602082840312156104b6576104b561046f565b5b60006104c48482850161048b565b91505092915050565b600073ffffffffffffffffffffffffffffffffffffffff82169050919050565b60006104f8826104cd565b9050919050565b610508816104ed565b82525050565b600060208201905061052360008301846104ff565b92915050565b600060808201905061053e6000830187610445565b61054b6020830186610445565b61055860408301856104ff565b61056560608301846104ff565b95945050505050565b610577816104ed565b811461058257600080fd5b50565b6000813590506105948161056e565b92915050565b600080600080608085870312156105b4576105b361046f565b5b60006105c28782880161048b565b94505060206105d387828801610585565b93505060406105e487828801610585565b92505060606105f58782880161048b565b91505092959194509250565b7f4e487b7100000000000000000000000000000000000000000000000000000000600052601160045260246000fd5b600061063b8261043b565b91506106468361043b565b925082820190508082111561065e5761065d610601565b5b92915050565b600061066f8261043b565b915061067a8361043b565b925082820390508181111561069257610691610601565b5b9291505056fea26469706673582212208372f240db4cda9c1ffa0a88c7ce02f58769c4f3d65708656e21aacf0968e42564736f6c63430008130033",
  "immutableReferences": {},
  "source": "// SPDX-License-Identifier: MIT\r\npragma solidity ^0.8.19;\r\n\r\ncontract OrderRegistry {\r\n\r\n    struct Order {\n        uint256 listingId;\n        uint256 qty;\n        address buyer;\n        address seller;\n    }\n\r\n    uint256 public nextOrderId;\r\n    mapping(uint256 => Order) public orders;\r\n\r\n    constructor() {\r\n        nextOrderId = 1;\r\n    }\r\n\r\n    function createOrder(\n        uint256 listingId,\n        address buyer,\n        address seller,\n        uint256 qty\n    ) external returns (uint256) {\n        require(qty > 0);\n\n        orders[nextOrderId] = Order(\n            listingId,\n            qty,\n            buyer,\n            seller\n        );\n\r\n        nextOrderId = nextOrderId + 1;\r\n        return nextOrderId - 1;\r\n    }\r\n\r\n    function getBuyer(uint256 orderId) external view returns (address) {\n        return orders[orderId].buyer;\n    }\n\n    function getSeller(uint256 orderId) external view returns (address) {\n        return orders[orderId].seller;\n    }\n\n    function getListingId(uint256 orderId) external view returns (uint256) {\n        return orders[orderId].listingId;\n    }\n\n    function getQty(uint256 orderId) external view returns (uint256) {\n        return orders[orderId].qty;\n    }\n}\n",
  "sourcePath": "C:\\Users\\24002690\\Downloads\\C373_Team-2_FA-1 (2)\\C373_Team-2_FA-1\\contracts\\OrderRegistry.sol",
  "compiler": {
    "name": "solc",
    "version": "0.8.19+commit.7dd6d404.Emscripten.clang"
  },
  "schemaVersion": "3.4.16",
  "updatedAt": "2026-01-30T07:16:05.908Z",
  "networkType": "ethereum",
  "devdoc": {
    "kind": "dev",
    "methods": {},
    "version": 1
  },
  "userdoc": {
    "kind": "user",
    "methods": {},
    "version": 1
  }
}