{
  "contractName": "PaymentEscrow",
  "abi": [
    {
      "inputs": [
        {
          "internalType": "address",
          "name": "listingAddress",
          "type": "address"
        },
        {
          "internalType": "address",
          "name": "orderRegistryAddress",
          "type": "address"
        },
        {
          "internalType": "address",
          "name": "deliveryAddress",
          "type": "address"
        }
      ],
      "stateMutability": "nonpayable",
      "type": "constructor"
    },
    {
      "inputs": [],
      "name": "deliveryTracking",
      "outputs": [
        {
          "internalType": "contract DeliveryTracking",
          "name": "",
          "type": "address"
        }
      ],
      "stateMutability": "view",
      "type": "function",
      "constant": true
    },
    {
      "inputs": [
        {
          "internalType": "uint256",
          "name": "",
          "type": "uint256"
        }
      ],
      "name": "escrowAmount",
      "outputs": [
        {
          "internalType": "uint256",
          "name": "",
          "type": "uint256"
        }
      ],
      "stateMutability": "view",
      "type": "function",
      "constant": true
    },
    {
      "inputs": [],
      "name": "listingContract",
      "outputs": [
        {
          "internalType": "contract MarketplaceListing",
          "name": "",
          "type": "address"
        }
      ],
      "stateMutability": "view",
      "type": "function",
      "constant": true
    },
    {
      "inputs": [],
      "name": "orderRegistry",
      "outputs": [
        {
          "internalType": "contract OrderRegistry",
          "name": "",
          "type": "address"
        }
      ],
      "stateMutability": "view",
      "type": "function",
      "constant": true
    },
    {
      "inputs": [
        {
          "internalType": "uint256",
          "name": "listingId",
          "type": "uint256"
        },
        {
          "internalType": "uint256",
          "name": "qty",
          "type": "uint256"
        }
      ],
      "name": "pay",
      "outputs": [
        {
          "internalType": "uint256",
          "name": "",
          "type": "uint256"
        }
      ],
      "stateMutability": "payable",
      "type": "function",
      "payable": true
    },
    {
      "inputs": [
        {
          "internalType": "uint256",
          "name": "orderId",
          "type": "uint256"
        }
      ],
      "name": "release",
      "outputs": [],
      "stateMutability": "nonpayable",
      "type": "function"
    }
  ],
  "bytecode": "0x608060405234801561001057600080fd5b50604051610cc4380380610cc48339818101604052810190610032919061015f565b826000806101000a81548173ffffffffffffffffffffffffffffffffffffffff021916908373ffffffffffffffffffffffffffffffffffffffff16021790555081600160006101000a81548173ffffffffffffffffffffffffffffffffffffffff021916908373ffffffffffffffffffffffffffffffffffffffff16021790555080600260006101000a81548173ffffffffffffffffffffffffffffffffffffffff021916908373ffffffffffffffffffffffffffffffffffffffff1602179055505050506101b2565b600080fd5b600073ffffffffffffffffffffffffffffffffffffffff82169050919050565b600061012c82610101565b9050919050565b61013c81610121565b811461014757600080fd5b50565b60008151905061015981610133565b92915050565b600080600060608486031215610178576101776100fc565b5b60006101868682870161014a565b93505060206101978682870161014a565b92505060406101a88682870161014a565b9150509250925092565b610b03806101c16000396000f3fe6080604052600436106100555760003560e01c806337bdc99b1461005a5780635d19e56c14610083578063b371564b146100c0578063d5165327146100eb578063ef48eee614610116578063f856adb514610146575b600080fd5b34801561006657600080fd5b50610081600480360381019061007c919061068a565b610171565b005b34801561008f57600080fd5b506100aa60048036038101906100a5919061068a565b610399565b6040516100b791906106c6565b60405180910390f35b3480156100cc57600080fd5b506100d56103b1565b6040516100e29190610760565b60405180910390f35b3480156100f757600080fd5b506101006103d7565b60405161010d919061079c565b60405180910390f35b610130600480360381019061012b91906107b7565b6103fb565b60405161013d91906106c6565b60405180910390f35b34801561015257600080fd5b5061015b610629565b6040516101689190610818565b60405180910390f35b600260009054906101000a900473ffffffffffffffffffffffffffffffffffffffff1673ffffffffffffffffffffffffffffffffffffffff1663784547a7826040518263ffffffff1660e01b81526004016101cc91906106c6565b602060405180830381865afa1580156101e9573d6000803e3d6000fd5b505050506040513d601f19601f8201168201806040525081019061020d919061086b565b61021657600080fd5b6000600160009054906101000a900473ffffffffffffffffffffffffffffffffffffffff1673ffffffffffffffffffffffffffffffffffffffff1663d6a9de51836040518263ffffffff1660e01b815260040161027391906106c6565b602060405180830381865afa158015610290573d6000803e3d6000fd5b505050506040513d601f19601f820116820180604052508101906102b491906108d6565b90506000600360008481526020019081526020016000205490506000600360008581526020019081526020016000208190555060008273ffffffffffffffffffffffffffffffffffffffff168260405161030d90610934565b60006040518083038185875af1925050503d806000811461034a576040519150601f19603f3d011682016040523d82523d6000602084013e61034f565b606091505b5050905080610393576040517f08c379a000000000000000000000000000000000000000000000000000000000815260040161038a906109a6565b60405180910390fd5b50505050565b60036020528060005260406000206000915090505481565b600160009054906101000a900473ffffffffffffffffffffffffffffffffffffffff1681565b60008054906101000a900473ffffffffffffffffffffffffffffffffffffffff1681565b600080821161040957600080fd5b60008060009054906101000a900473ffffffffffffffffffffffffffffffffffffffff1673ffffffffffffffffffffffffffffffffffffffff1663e7572230856040518263ffffffff1660e01b815260040161046591906106c6565b602060405180830381865afa158015610482573d6000803e3d6000fd5b505050506040513d601f19601f820116820180604052508101906104a691906109db565b9050600083826104b69190610a37565b90508034146104c457600080fd5b6000600160009054906101000a900473ffffffffffffffffffffffffffffffffffffffff1673ffffffffffffffffffffffffffffffffffffffff1663bbebfbf8873360008054906101000a900473ffffffffffffffffffffffffffffffffffffffff1673ffffffffffffffffffffffffffffffffffffffff1663d6a9de518b6040518263ffffffff1660e01b815260040161055f91906106c6565b602060405180830381865afa15801561057c573d6000803e3d6000fd5b505050506040513d601f19601f820116820180604052508101906105a091906108d6565b896040518563ffffffff1660e01b81526004016105c09493929190610a88565b6020604051808303816000875af11580156105df573d6000803e3d6000fd5b505050506040513d601f19601f8201168201806040525081019061060391906109db565b905034600360008381526020019081526020016000208190555080935050505092915050565b600260009054906101000a900473ffffffffffffffffffffffffffffffffffffffff1681565b600080fd5b6000819050919050565b61066781610654565b811461067257600080fd5b50565b6000813590506106848161065e565b92915050565b6000602082840312156106a05761069f61064f565b5b60006106ae84828501610675565b91505092915050565b6106c081610654565b82525050565b60006020820190506106db60008301846106b7565b92915050565b600073ffffffffffffffffffffffffffffffffffffffff82169050919050565b6000819050919050565b600061072661072161071c846106e1565b610701565b6106e1565b9050919050565b60006107388261070b565b9050919050565b600061074a8261072d565b9050919050565b61075a8161073f565b82525050565b60006020820190506107756000830184610751565b92915050565b60006107868261072d565b9050919050565b6107968161077b565b82525050565b60006020820190506107b1600083018461078d565b92915050565b600080604083850312156107ce576107cd61064f565b5b60006107dc85828601610675565b92505060206107ed85828601610675565b9150509250929050565b60006108028261072d565b9050919050565b610812816107f7565b82525050565b600060208201905061082d6000830184610809565b92915050565b60008115159050919050565b61084881610833565b811461085357600080fd5b50565b6000815190506108658161083f565b92915050565b6000602082840312156108815761088061064f565b5b600061088f84828501610856565b91505092915050565b60006108a3826106e1565b9050919050565b6108b381610898565b81146108be57600080fd5b50565b6000815190506108d0816108aa565b92915050565b6000602082840312156108ec576108eb61064f565b5b60006108fa848285016108c1565b91505092915050565b600081905092915050565b50565b600061091e600083610903565b91506109298261090e565b600082019050919050565b600061093f82610911565b9150819050919050565b600082825260208201905092915050565b7f5061796d656e74457363726f773a207472616e73666572206661696c65640000600082015250565b6000610990601e83610949565b915061099b8261095a565b602082019050919050565b600060208201905081810360008301526109bf81610983565b9050919050565b6000815190506109d58161065e565b92915050565b6000602082840312156109f1576109f061064f565b5b60006109ff848285016109c6565b91505092915050565b7f4e487b7100000000000000000000000000000000000000000000000000000000600052601160045260246000fd5b6000610a4282610654565b9150610a4d83610654565b9250828202610a5b81610654565b91508282048414831517610a7257610a71610a08565b5b5092915050565b610a8281610898565b82525050565b6000608082019050610a9d60008301876106b7565b610aaa6020830186610a79565b610ab76040830185610a79565b610ac460608301846106b7565b9594505050505056fea2646970667358221220466074e752d4df085735e1098eed00a1b0ff2eff44991f4ec1d67ca2368972a064736f6c63430008130033",
  "immutableReferences": {},
  "source": "// SPDX-License-Identifier: MIT\r\npragma solidity ^0.8.19;\r\n\r\nimport \"./MarketplaceListing.sol\";\r\nimport \"./OrderRegistry.sol\";\r\nimport \"./DeliveryTracking.sol\";\r\n\r\ncontract PaymentEscrow {\r\n\r\n    MarketplaceListing public listingContract;\r\n    OrderRegistry public orderRegistry;\r\n    DeliveryTracking public deliveryTracking;\r\n\r\n    mapping(uint256 => uint256) public escrowAmount;\r\n\r\n    constructor(\r\n        address listingAddress,\r\n        address orderRegistryAddress,\r\n        address deliveryAddress\r\n    ) {\r\n        listingContract = MarketplaceListing(listingAddress);\r\n        orderRegistry = OrderRegistry(orderRegistryAddress);\r\n        deliveryTracking = DeliveryTracking(deliveryAddress);\r\n    }\r\n\r\n    function pay(uint256 listingId, uint256 qty) external payable returns (uint256) {\n        require(qty > 0);\n        uint256 priceWei = listingContract.getPrice(listingId);\n        uint256 total = priceWei * qty;\n        require(msg.value == total);\n\n        uint256 orderId = orderRegistry.createOrder(\n            listingId,\n            msg.sender,\n            listingContract.getSeller(listingId),\n            qty\n        );\n\r\n        escrowAmount[orderId] = msg.value;\r\n        return orderId;\r\n    }\r\n\r\n    function release(uint256 orderId) external {\r\n        require(deliveryTracking.isConfirmed(orderId));\r\n\r\n        address seller = orderRegistry.getSeller(orderId);\r\n        uint256 amount = escrowAmount[orderId];\r\n\r\n        escrowAmount[orderId] = 0;\n        (bool ok, ) = payable(seller).call{value: amount}(\"\");\n        require(ok, \"PaymentEscrow: transfer failed\");\n    }\n}\n",
  "sourcePath": "C:\\Users\\24002690\\Downloads\\C373_Team-2_FA-1 (2)\\C373_Team-2_FA-1\\contracts\\PaymentEscrow.sol",
  "compiler": {
    "name": "solc",
    "version": "0.8.19+commit.7dd6d404.Emscripten.clang"
  },
  "schemaVersion": "3.4.16",
  "updatedAt": "2026-01-29T06:14:57.191Z",
  "networkType": "ethereum",
  "devdoc": {
    "kind": "dev",
    "methods": {},
    "version": 1
  },
  "userdoc": {
    "kind": "user",
    "methods": {},
    "version": 1
  }
}