{
  "contractName": "PaymentEscrow",
  "abi": [
    {
      "inputs": [
        {
          "internalType": "address",
          "name": "listingAddress",
          "type": "address"
        },
        {
          "internalType": "address",
          "name": "orderRegistryAddress",
          "type": "address"
        },
        {
          "internalType": "address",
          "name": "deliveryAddress",
          "type": "address"
        }
      ],
      "stateMutability": "nonpayable",
      "type": "constructor"
    },
    {
      "anonymous": false,
      "inputs": [
        {
          "indexed": true,
          "internalType": "uint256",
          "name": "orderId",
          "type": "uint256"
        },
        {
          "indexed": true,
          "internalType": "address",
          "name": "buyer",
          "type": "address"
        },
        {
          "indexed": true,
          "internalType": "address",
          "name": "seller",
          "type": "address"
        },
        {
          "indexed": false,
          "internalType": "uint256",
          "name": "amountWei",
          "type": "uint256"
        }
      ],
      "name": "EscrowFunded",
      "type": "event"
    },
    {
      "anonymous": false,
      "inputs": [
        {
          "indexed": true,
          "internalType": "uint256",
          "name": "orderId",
          "type": "uint256"
        },
        {
          "indexed": true,
          "internalType": "address",
          "name": "seller",
          "type": "address"
        },
        {
          "indexed": false,
          "internalType": "uint256",
          "name": "amountWei",
          "type": "uint256"
        }
      ],
      "name": "PaymentReleased",
      "type": "event"
    },
    {
      "inputs": [],
      "name": "deliveryTracking",
      "outputs": [
        {
          "internalType": "contract DeliveryTracking",
          "name": "",
          "type": "address"
        }
      ],
      "stateMutability": "view",
      "type": "function",
      "constant": true
    },
    {
      "inputs": [
        {
          "internalType": "uint256",
          "name": "",
          "type": "uint256"
        }
      ],
      "name": "escrowAmount",
      "outputs": [
        {
          "internalType": "uint256",
          "name": "",
          "type": "uint256"
        }
      ],
      "stateMutability": "view",
      "type": "function",
      "constant": true
    },
    {
      "inputs": [],
      "name": "listingContract",
      "outputs": [
        {
          "internalType": "contract MarketplaceListing",
          "name": "",
          "type": "address"
        }
      ],
      "stateMutability": "view",
      "type": "function",
      "constant": true
    },
    {
      "inputs": [],
      "name": "orderRegistry",
      "outputs": [
        {
          "internalType": "contract OrderRegistry",
          "name": "",
          "type": "address"
        }
      ],
      "stateMutability": "view",
      "type": "function",
      "constant": true
    },
    {
      "inputs": [
        {
          "internalType": "uint256",
          "name": "listingId",
          "type": "uint256"
        },
        {
          "internalType": "uint256",
          "name": "qty",
          "type": "uint256"
        }
      ],
      "name": "pay",
      "outputs": [
        {
          "internalType": "uint256",
          "name": "",
          "type": "uint256"
        }
      ],
      "stateMutability": "payable",
      "type": "function",
      "payable": true
    },
    {
      "inputs": [
        {
          "internalType": "uint256",
          "name": "orderId",
          "type": "uint256"
        }
      ],
      "name": "release",
      "outputs": [],
      "stateMutability": "nonpayable",
      "type": "function"
    },
    {
      "inputs": [
        {
          "internalType": "uint256",
          "name": "orderId",
          "type": "uint256"
        }
      ],
      "name": "confirmAndRelease",
      "outputs": [],
      "stateMutability": "nonpayable",
      "type": "function"
    }
  ],
  "bytecode": "0x60806040523480156200001157600080fd5b50604051620012723803806200127283398181016040528101906200003791906200016c565b826000806101000a81548173ffffffffffffffffffffffffffffffffffffffff021916908373ffffffffffffffffffffffffffffffffffffffff16021790555081600160006101000a81548173ffffffffffffffffffffffffffffffffffffffff021916908373ffffffffffffffffffffffffffffffffffffffff16021790555080600260006101000a81548173ffffffffffffffffffffffffffffffffffffffff021916908373ffffffffffffffffffffffffffffffffffffffff160217905550505050620001c8565b600080fd5b600073ffffffffffffffffffffffffffffffffffffffff82169050919050565b6000620001348262000107565b9050919050565b620001468162000127565b81146200015257600080fd5b50565b60008151905062000166816200013b565b92915050565b60008060006060848603121562000188576200018762000102565b5b6000620001988682870162000155565b9350506020620001ab8682870162000155565b9250506040620001be8682870162000155565b9150509250925092565b61109a80620001d86000396000f3fe6080604052600436106100705760003560e01c8063d51653271161004e578063d516532714610106578063e307b69414610131578063ef48eee61461015a578063f856adb51461018a57610070565b806337bdc99b146100755780635d19e56c1461009e578063b371564b146100db575b600080fd5b34801561008157600080fd5b5061009c60048036038101906100979190610b8c565b6101b5565b005b3480156100aa57600080fd5b506100c560048036038101906100c09190610b8c565b61042c565b6040516100d29190610bc8565b60405180910390f35b3480156100e757600080fd5b506100f0610444565b6040516100fd9190610c62565b60405180910390f35b34801561011257600080fd5b5061011b61046a565b6040516101289190610c9e565b60405180910390f35b34801561013d57600080fd5b5061015860048036038101906101539190610b8c565b61048e565b005b610174600480360381019061016f9190610cb9565b6107fe565b6040516101819190610bc8565b60405180910390f35b34801561019657600080fd5b5061019f610b2b565b6040516101ac9190610d1a565b60405180910390f35b600260009054906101000a900473ffffffffffffffffffffffffffffffffffffffff1673ffffffffffffffffffffffffffffffffffffffff1663784547a7826040518263ffffffff1660e01b81526004016102109190610bc8565b602060405180830381865afa15801561022d573d6000803e3d6000fd5b505050506040513d601f19601f820116820180604052508101906102519190610d6d565b61025a57600080fd5b6000600160009054906101000a900473ffffffffffffffffffffffffffffffffffffffff1673ffffffffffffffffffffffffffffffffffffffff1663d6a9de51836040518263ffffffff1660e01b81526004016102b79190610bc8565b602060405180830381865afa1580156102d4573d6000803e3d6000fd5b505050506040513d601f19601f820116820180604052508101906102f89190610dd8565b90506000600360008481526020019081526020016000205490506000600360008581526020019081526020016000208190555060008273ffffffffffffffffffffffffffffffffffffffff168260405161035190610e36565b60006040518083038185875af1925050503d806000811461038e576040519150601f19603f3d011682016040523d82523d6000602084013e610393565b606091505b50509050806103d7576040517f08c379a00000000000000000000000000000000000000000000000000000000081526004016103ce90610ea8565b60405180910390fd5b8273ffffffffffffffffffffffffffffffffffffffff16847f21d71db5be59bb9fa133895586b7404307dd33fb93b16db09dc6f1d9d7d231b08460405161041e9190610bc8565b60405180910390a350505050565b60036020528060005260406000206000915090505481565b600160009054906101000a900473ffffffffffffffffffffffffffffffffffffffff1681565b60008054906101000a900473ffffffffffffffffffffffffffffffffffffffff1681565b6000600160009054906101000a900473ffffffffffffffffffffffffffffffffffffffff1673ffffffffffffffffffffffffffffffffffffffff16635bf608b8836040518263ffffffff1660e01b81526004016104eb9190610bc8565b602060405180830381865afa158015610508573d6000803e3d6000fd5b505050506040513d601f19601f8201168201806040525081019061052c9190610dd8565b90508073ffffffffffffffffffffffffffffffffffffffff163373ffffffffffffffffffffffffffffffffffffffff161461059c576040517f08c379a000000000000000000000000000000000000000000000000000000000815260040161059390610f14565b60405180910390fd5b600260009054906101000a900473ffffffffffffffffffffffffffffffffffffffff1673ffffffffffffffffffffffffffffffffffffffff16633a43424083836040518363ffffffff1660e01b81526004016105f9929190610f43565b600060405180830381600087803b15801561061357600080fd5b505af1158015610627573d6000803e3d6000fd5b505050506000600160009054906101000a900473ffffffffffffffffffffffffffffffffffffffff1673ffffffffffffffffffffffffffffffffffffffff1663d6a9de51846040518263ffffffff1660e01b81526004016106889190610bc8565b602060405180830381865afa1580156106a5573d6000803e3d6000fd5b505050506040513d601f19601f820116820180604052508101906106c99190610dd8565b90506000600360008581526020019081526020016000205490506000600360008681526020019081526020016000208190555060008273ffffffffffffffffffffffffffffffffffffffff168260405161072290610e36565b60006040518083038185875af1925050503d806000811461075f576040519150601f19603f3d011682016040523d82523d6000602084013e610764565b606091505b50509050806107a8576040517f08c379a000000000000000000000000000000000000000000000000000000000815260040161079f90610ea8565b60405180910390fd5b8273ffffffffffffffffffffffffffffffffffffffff16857f21d71db5be59bb9fa133895586b7404307dd33fb93b16db09dc6f1d9d7d231b0846040516107ef9190610bc8565b60405180910390a35050505050565b600080821161080c57600080fd5b60008060009054906101000a900473ffffffffffffffffffffffffffffffffffffffff1673ffffffffffffffffffffffffffffffffffffffff1663e7572230856040518263ffffffff1660e01b81526004016108689190610bc8565b602060405180830381865afa158015610885573d6000803e3d6000fd5b505050506040513d601f19601f820116820180604052508101906108a99190610f81565b9050600083826108b99190610fdd565b90508034146108c757600080fd5b6000600160009054906101000a900473ffffffffffffffffffffffffffffffffffffffff1673ffffffffffffffffffffffffffffffffffffffff1663bbebfbf8873360008054906101000a900473ffffffffffffffffffffffffffffffffffffffff1673ffffffffffffffffffffffffffffffffffffffff1663d6a9de518b6040518263ffffffff1660e01b81526004016109629190610bc8565b602060405180830381865afa15801561097f573d6000803e3d6000fd5b505050506040513d601f19601f820116820180604052508101906109a39190610dd8565b896040518563ffffffff1660e01b81526004016109c3949392919061101f565b6020604051808303816000875af11580156109e2573d6000803e3d6000fd5b505050506040513d601f19601f82011682018060405250810190610a069190610f81565b905034600360008381526020019081526020016000208190555060008054906101000a900473ffffffffffffffffffffffffffffffffffffffff1673ffffffffffffffffffffffffffffffffffffffff1663d6a9de51876040518263ffffffff1660e01b8152600401610a799190610bc8565b602060405180830381865afa158015610a96573d6000803e3d6000fd5b505050506040513d601f19601f82011682018060405250810190610aba9190610dd8565b73ffffffffffffffffffffffffffffffffffffffff163373ffffffffffffffffffffffffffffffffffffffff16827f1736617f8b9029b421ccc471ca8a99395f5d8a1cb348be9fcbfd64cceee7252f34604051610b179190610bc8565b60405180910390a480935050505092915050565b600260009054906101000a900473ffffffffffffffffffffffffffffffffffffffff1681565b600080fd5b6000819050919050565b610b6981610b56565b8114610b7457600080fd5b50565b600081359050610b8681610b60565b92915050565b600060208284031215610ba257610ba1610b51565b5b6000610bb084828501610b77565b91505092915050565b610bc281610b56565b82525050565b6000602082019050610bdd6000830184610bb9565b92915050565b600073ffffffffffffffffffffffffffffffffffffffff82169050919050565b6000819050919050565b6000610c28610c23610c1e84610be3565b610c03565b610be3565b9050919050565b6000610c3a82610c0d565b9050919050565b6000610c4c82610c2f565b9050919050565b610c5c81610c41565b82525050565b6000602082019050610c776000830184610c53565b92915050565b6000610c8882610c2f565b9050919050565b610c9881610c7d565b82525050565b6000602082019050610cb36000830184610c8f565b92915050565b60008060408385031215610cd057610ccf610b51565b5b6000610cde85828601610b77565b9250506020610cef85828601610b77565b9150509250929050565b6000610d0482610c2f565b9050919050565b610d1481610cf9565b82525050565b6000602082019050610d2f6000830184610d0b565b92915050565b60008115159050919050565b610d4a81610d35565b8114610d5557600080fd5b50565b600081519050610d6781610d41565b92915050565b600060208284031215610d8357610d82610b51565b5b6000610d9184828501610d58565b91505092915050565b6000610da582610be3565b9050919050565b610db581610d9a565b8114610dc057600080fd5b50565b600081519050610dd281610dac565b92915050565b600060208284031215610dee57610ded610b51565b5b6000610dfc84828501610dc3565b91505092915050565b600081905092915050565b50565b6000610e20600083610e05565b9150610e2b82610e10565b600082019050919050565b6000610e4182610e13565b9150819050919050565b600082825260208201905092915050565b7f5061796d656e74457363726f773a207472616e73666572206661696c65640000600082015250565b6000610e92601e83610e4b565b9150610e9d82610e5c565b602082019050919050565b60006020820190508181036000830152610ec181610e85565b9050919050565b7f5061796d656e74457363726f773a206275796572206f6e6c7900000000000000600082015250565b6000610efe601983610e4b565b9150610f0982610ec8565b602082019050919050565b60006020820190508181036000830152610f2d81610ef1565b9050919050565b610f3d81610d9a565b82525050565b6000604082019050610f586000830185610bb9565b610f656020830184610f34565b9392505050565b600081519050610f7b81610b60565b92915050565b600060208284031215610f9757610f96610b51565b5b6000610fa584828501610f6c565b91505092915050565b7f4e487b7100000000000000000000000000000000000000000000000000000000600052601160045260246000fd5b6000610fe882610b56565b9150610ff383610b56565b925082820261100181610b56565b9150828204841483151761101857611017610fae565b5b5092915050565b60006080820190506110346000830187610bb9565b6110416020830186610f34565b61104e6040830185610f34565b61105b6060830184610bb9565b9594505050505056fea2646970667358221220e789c32d5a95edb39e649f2ad91bd3e989974bec99f8024542dbb711646e5da364736f6c63430008130033",
  "immutableReferences": {},
  "source": "// SPDX-License-Identifier: MIT\r\npragma solidity ^0.8.19;\r\n\r\nimport \"./MarketplaceListing.sol\";\r\nimport \"./OrderRegistry.sol\";\r\nimport \"./DeliveryTracking.sol\";\r\n\r\ncontract PaymentEscrow {\n\r\n    MarketplaceListing public listingContract;\r\n    OrderRegistry public orderRegistry;\r\n    DeliveryTracking public deliveryTracking;\r\n\r\n    mapping(uint256 => uint256) public escrowAmount;\n\n    event PaymentReleased(uint256 indexed orderId, address indexed seller, uint256 amountWei);\n    event EscrowFunded(\n        uint256 indexed orderId,\n        address indexed buyer,\n        address indexed seller,\n        uint256 amountWei\n    );\n\n    constructor(\n        address listingAddress,\n        address orderRegistryAddress,\n        address deliveryAddress\n    ) {\n        listingContract = MarketplaceListing(listingAddress);\r\n        orderRegistry = OrderRegistry(orderRegistryAddress);\r\n        deliveryTracking = DeliveryTracking(deliveryAddress);\r\n    }\r\n\r\n    function pay(uint256 listingId, uint256 qty) external payable returns (uint256) {\n        require(qty > 0);\n        uint256 priceWei = listingContract.getPrice(listingId);\n        uint256 total = priceWei * qty;\n        require(msg.value == total);\n\n        uint256 orderId = orderRegistry.createOrder(\n            listingId,\n            msg.sender,\n            listingContract.getSeller(listingId),\n            qty\n        );\n\n        escrowAmount[orderId] = msg.value;\n        emit EscrowFunded(orderId, msg.sender, listingContract.getSeller(listingId), msg.value);\n        return orderId;\n    }\n\r\n    function release(uint256 orderId) external {\n        require(deliveryTracking.isConfirmed(orderId));\n\n        address seller = orderRegistry.getSeller(orderId);\n        uint256 amount = escrowAmount[orderId];\n\n        escrowAmount[orderId] = 0;\n        (bool ok, ) = payable(seller).call{value: amount}(\"\");\n        require(ok, \"PaymentEscrow: transfer failed\");\n        emit PaymentReleased(orderId, seller, amount);\n    }\n\n    function confirmAndRelease(uint256 orderId) external {\n        address buyer = orderRegistry.getBuyer(orderId);\n        require(msg.sender == buyer, \"PaymentEscrow: buyer only\");\n\n        deliveryTracking.confirmDeliveryByEscrow(orderId, buyer);\n\n        address seller = orderRegistry.getSeller(orderId);\n        uint256 amount = escrowAmount[orderId];\n\n        escrowAmount[orderId] = 0;\n        (bool ok, ) = payable(seller).call{value: amount}(\"\");\n        require(ok, \"PaymentEscrow: transfer failed\");\n        emit PaymentReleased(orderId, seller, amount);\n    }\n}\n",
  "sourcePath": "C:\\Users\\24002690\\Downloads\\C373_Team-2_FA-1 (2)\\C373_Team-2_FA-1\\contracts\\PaymentEscrow.sol",
  "compiler": {
    "name": "solc",
    "version": "0.8.19+commit.7dd6d404.Emscripten.clang"
  },
  "schemaVersion": "3.4.16",
  "updatedAt": "2026-01-29T12:55:43.439Z",
  "networkType": "ethereum",
  "devdoc": {
    "kind": "dev",
    "methods": {},
    "version": 1
  },
  "userdoc": {
    "kind": "user",
    "methods": {},
    "version": 1
  }
}