{
  "contractName": "SellerReputation",
  "abi": [
    {
      "inputs": [
        {
          "internalType": "address",
          "name": "orderRegistryAddress",
          "type": "address"
        }
      ],
      "stateMutability": "nonpayable",
      "type": "constructor"
    },
    {
      "anonymous": false,
      "inputs": [
        {
          "indexed": true,
          "internalType": "uint256",
          "name": "orderId",
          "type": "uint256"
        },
        {
          "indexed": true,
          "internalType": "uint256",
          "name": "listingId",
          "type": "uint256"
        },
        {
          "indexed": true,
          "internalType": "address",
          "name": "buyer",
          "type": "address"
        },
        {
          "indexed": false,
          "internalType": "address",
          "name": "seller",
          "type": "address"
        },
        {
          "indexed": false,
          "internalType": "uint8",
          "name": "rating",
          "type": "uint8"
        }
      ],
      "name": "OrderRated",
      "type": "event"
    },
    {
      "inputs": [
        {
          "internalType": "uint256",
          "name": "",
          "type": "uint256"
        }
      ],
      "name": "listingRatings",
      "outputs": [
        {
          "internalType": "uint256",
          "name": "totalRatings",
          "type": "uint256"
        },
        {
          "internalType": "uint256",
          "name": "sumRatings",
          "type": "uint256"
        }
      ],
      "stateMutability": "view",
      "type": "function"
    },
    {
      "inputs": [],
      "name": "orderRegistry",
      "outputs": [
        {
          "internalType": "contract OrderRegistry",
          "name": "",
          "type": "address"
        }
      ],
      "stateMutability": "view",
      "type": "function"
    },
    {
      "inputs": [
        {
          "internalType": "uint256",
          "name": "",
          "type": "uint256"
        }
      ],
      "name": "ratedOrder",
      "outputs": [
        {
          "internalType": "bool",
          "name": "",
          "type": "bool"
        }
      ],
      "stateMutability": "view",
      "type": "function"
    },
    {
      "inputs": [
        {
          "internalType": "address",
          "name": "",
          "type": "address"
        }
      ],
      "name": "reputations",
      "outputs": [
        {
          "internalType": "uint256",
          "name": "totalRatings",
          "type": "uint256"
        },
        {
          "internalType": "uint256",
          "name": "sumRatings",
          "type": "uint256"
        }
      ],
      "stateMutability": "view",
      "type": "function"
    },
    {
      "inputs": [
        {
          "internalType": "uint256",
          "name": "orderId",
          "type": "uint256"
        },
        {
          "internalType": "uint8",
          "name": "rating",
          "type": "uint8"
        }
      ],
      "name": "rateOrder",
      "outputs": [],
      "stateMutability": "nonpayable",
      "type": "function"
    },
    {
      "inputs": [
        {
          "internalType": "address",
          "name": "seller",
          "type": "address"
        }
      ],
      "name": "getAverageRating",
      "outputs": [
        {
          "internalType": "uint256",
          "name": "",
          "type": "uint256"
        }
      ],
      "stateMutability": "view",
      "type": "function"
    },
    {
      "inputs": [
        {
          "internalType": "uint256",
          "name": "listingId",
          "type": "uint256"
        }
      ],
      "name": "getListingAverage",
      "outputs": [
        {
          "internalType": "uint256",
          "name": "",
          "type": "uint256"
        }
      ],
      "stateMutability": "view",
      "type": "function"
    }
  ],
  "bytecode": "0x608060405234801561001057600080fd5b50604051610d05380380610d05833981810160405281019061003291906100db565b806000806101000a81548173ffffffffffffffffffffffffffffffffffffffff021916908373ffffffffffffffffffffffffffffffffffffffff16021790555050610108565b600080fd5b600073ffffffffffffffffffffffffffffffffffffffff82169050919050565b60006100a88261007d565b9050919050565b6100b88161009d565b81146100c357600080fd5b50565b6000815190506100d5816100af565b92915050565b6000602082840312156100f1576100f0610078565b5b60006100ff848285016100c6565b91505092915050565b610bee806101176000396000f3fe608060405234801561001057600080fd5b506004361061007d5760003560e01c8063914c6fd81161005b578063914c6fd814610114578063b371564b14610130578063b4009d021461014e578063c8b675221461017e5761007d565b806306fa15a71461008257806335a0f9c9146100b35780638de67a33146100e3575b600080fd5b61009c6004803603810190610097919061081e565b6101ae565b6040516100aa929190610864565b60405180910390f35b6100cd60048036038101906100c891906108b9565b6101d2565b6040516100da9190610901565b60405180910390f35b6100fd60048036038101906100f891906108b9565b6101f2565b60405161010b929190610864565b60405180910390f35b61012e60048036038101906101299190610955565b610216565b005b6101386106a3565b60405161014591906109f4565b60405180910390f35b610168600480360381019061016391906108b9565b6106c7565b6040516101759190610a0f565b60405180910390f35b6101986004803603810190610193919061081e565b61072b565b6040516101a59190610a0f565b60405180910390f35b60016020528060005260406000206000915090508060000154908060010154905082565b60036020528060005260406000206000915054906101000a900460ff1681565b60026020528060005260406000206000915090508060000154908060010154905082565b60018160ff16101561022757600080fd5b60058160ff16111561023857600080fd5b600015156003600084815260200190815260200160002060009054906101000a900460ff1615151461026957600080fd5b60008054906101000a900473ffffffffffffffffffffffffffffffffffffffff1673ffffffffffffffffffffffffffffffffffffffff16635bf608b8836040518263ffffffff1660e01b81526004016102c29190610a0f565b602060405180830381865afa1580156102df573d6000803e3d6000fd5b505050506040513d601f19601f820116820180604052508101906103039190610a3f565b73ffffffffffffffffffffffffffffffffffffffff163373ffffffffffffffffffffffffffffffffffffffff161461033a57600080fd5b60016003600084815260200190815260200160002060006101000a81548160ff02191690831515021790555060008060009054906101000a900473ffffffffffffffffffffffffffffffffffffffff1673ffffffffffffffffffffffffffffffffffffffff1663d6a9de51846040518263ffffffff1660e01b81526004016103c29190610a0f565b602060405180830381865afa1580156103df573d6000803e3d6000fd5b505050506040513d601f19601f820116820180604052508101906104039190610a3f565b905060018060008373ffffffffffffffffffffffffffffffffffffffff1673ffffffffffffffffffffffffffffffffffffffff168152602001908152602001600020600001546104539190610a9b565b600160008373ffffffffffffffffffffffffffffffffffffffff1673ffffffffffffffffffffffffffffffffffffffff168152602001908152602001600020600001819055508160ff16600160008373ffffffffffffffffffffffffffffffffffffffff1673ffffffffffffffffffffffffffffffffffffffff168152602001908152602001600020600101546104ea9190610a9b565b600160008373ffffffffffffffffffffffffffffffffffffffff1673ffffffffffffffffffffffffffffffffffffffff1681526020019081526020016000206001018190555060008060009054906101000a900473ffffffffffffffffffffffffffffffffffffffff1673ffffffffffffffffffffffffffffffffffffffff1663cc85a55b856040518263ffffffff1660e01b815260040161058c9190610a0f565b602060405180830381865afa1580156105a9573d6000803e3d6000fd5b505050506040513d601f19601f820116820180604052508101906105cd9190610ae4565b9050600160026000838152602001908152602001600020600001546105f29190610a9b565b60026000838152602001908152602001600020600001819055508260ff1660026000838152602001908152602001600020600101546106319190610a9b565b60026000838152602001908152602001600020600101819055503373ffffffffffffffffffffffffffffffffffffffff1681857ff123b1fd42de572f9421bfcf95b5c1955d7d5600edbcbee517ee5c7b37d547608587604051610695929190610b2f565b60405180910390a450505050565b60008054906101000a900473ffffffffffffffffffffffffffffffffffffffff1681565b60008060026000848152602001908152602001600020604051806040016040529081600082015481526020016001820154815250509050600081600001511161070f57600080fd5b806000015181602001516107239190610b87565b915050919050565b600080600160008473ffffffffffffffffffffffffffffffffffffffff1673ffffffffffffffffffffffffffffffffffffffff168152602001908152602001600020604051806040016040529081600082015481526020016001820154815250509050600081600001511161079f57600080fd5b806000015181602001516107b39190610b87565b915050919050565b600080fd5b600073ffffffffffffffffffffffffffffffffffffffff82169050919050565b60006107eb826107c0565b9050919050565b6107fb816107e0565b811461080657600080fd5b50565b600081359050610818816107f2565b92915050565b600060208284031215610834576108336107bb565b5b600061084284828501610809565b91505092915050565b6000819050919050565b61085e8161084b565b82525050565b60006040820190506108796000830185610855565b6108866020830184610855565b9392505050565b6108968161084b565b81146108a157600080fd5b50565b6000813590506108b38161088d565b92915050565b6000602082840312156108cf576108ce6107bb565b5b60006108dd848285016108a4565b91505092915050565b60008115159050919050565b6108fb816108e6565b82525050565b600060208201905061091660008301846108f2565b92915050565b600060ff82169050919050565b6109328161091c565b811461093d57600080fd5b50565b60008135905061094f81610929565b92915050565b6000806040838503121561096c5761096b6107bb565b5b600061097a858286016108a4565b925050602061098b85828601610940565b9150509250929050565b6000819050919050565b60006109ba6109b56109b0846107c0565b610995565b6107c0565b9050919050565b60006109cc8261099f565b9050919050565b60006109de826109c1565b9050919050565b6109ee816109d3565b82525050565b6000602082019050610a0960008301846109e5565b92915050565b6000602082019050610a246000830184610855565b92915050565b600081519050610a39816107f2565b92915050565b600060208284031215610a5557610a546107bb565b5b6000610a6384828501610a2a565b91505092915050565b7f4e487b7100000000000000000000000000000000000000000000000000000000600052601160045260246000fd5b6000610aa68261084b565b9150610ab18361084b565b9250828201905080821115610ac957610ac8610a6c565b5b92915050565b600081519050610ade8161088d565b92915050565b600060208284031215610afa57610af96107bb565b5b6000610b0884828501610acf565b91505092915050565b610b1a816107e0565b82525050565b610b298161091c565b82525050565b6000604082019050610b446000830185610b11565b610b516020830184610b20565b9392505050565b7f4e487b7100000000000000000000000000000000000000000000000000000000600052601260045260246000fd5b6000610b928261084b565b9150610b9d8361084b565b925082610bad57610bac610b58565b5b82820490509291505056fea2646970667358221220fe1f27d59d15dda64012eaa64f57a9a156d8bd4b727b26e7f56615d5c14e077964736f6c63430008130033",
  "immutableReferences": {},
  "source": "// SPDX-License-Identifier: MIT\r\npragma solidity ^0.8.19;\r\n\r\nimport \"./OrderRegistry.sol\";\r\n\r\ncontract SellerReputation {\r\n\r\n    struct Reputation {\r\n        uint256 totalRatings;\r\n        uint256 sumRatings;\r\n    }\r\n\r\n    struct ListingRating {\r\n        uint256 totalRatings;\r\n        uint256 sumRatings;\r\n    }\r\n\r\n    OrderRegistry public orderRegistry;\n    mapping(address => Reputation) public reputations;\n    mapping(uint256 => ListingRating) public listingRatings;\n    mapping(uint256 => bool) public ratedOrder;\n\n    event OrderRated(\n        uint256 indexed orderId,\n        uint256 indexed listingId,\n        address indexed buyer,\n        address seller,\n        uint8 rating\n    );\n\n    constructor(address orderRegistryAddress) {\n        orderRegistry = OrderRegistry(orderRegistryAddress);\n    }\n\r\n    function rateOrder(\r\n        uint256 orderId,\r\n        uint8 rating\r\n    ) external {\r\n        require(rating >= 1);\r\n        require(rating <= 5);\r\n        require(ratedOrder[orderId] == false);\r\n        require(msg.sender == orderRegistry.getBuyer(orderId));\r\n\r\n        ratedOrder[orderId] = true;\r\n\r\n        address seller = orderRegistry.getSeller(orderId);\r\n        reputations[seller].totalRatings =\r\n            reputations[seller].totalRatings + 1;\r\n\r\n        reputations[seller].sumRatings =\r\n            reputations[seller].sumRatings + rating;\r\n\r\n        uint256 listingId = orderRegistry.getListingId(orderId);\n        listingRatings[listingId].totalRatings =\n            listingRatings[listingId].totalRatings + 1;\n\n        listingRatings[listingId].sumRatings =\n            listingRatings[listingId].sumRatings + rating;\n\n        emit OrderRated(orderId, listingId, msg.sender, seller, rating);\n    }\n\r\n    function getAverageRating(address seller) external view returns (uint256) {\r\n        Reputation memory R = reputations[seller];\r\n        require(R.totalRatings > 0);\r\n        return R.sumRatings / R.totalRatings;\r\n    }\r\n\r\n    function getListingAverage(uint256 listingId) external view returns (uint256) {\r\n        ListingRating memory L = listingRatings[listingId];\r\n        require(L.totalRatings > 0);\r\n        return L.sumRatings / L.totalRatings;\r\n    }\r\n}\r\n",
  "sourcePath": "C:\\Users\\07kkj\\OneDrive\\RP Y2S2\\C373 Distributed Ledger Technology Solutioning\\FA\\C373_Team-2_FA-1\\contracts\\SellerReputation.sol",
  "compiler": {
    "name": "solc",
    "version": "0.8.19+commit.7dd6d404.Emscripten.clang"
  },
  "schemaVersion": "3.4.16",
  "updatedAt": "2026-01-30T10:24:59.458Z",
  "devdoc": {
    "kind": "dev",
    "methods": {},
    "version": 1
  },
  "userdoc": {
    "kind": "user",
    "methods": {},
    "version": 1
  }
}