{
  "contractName": "SellerReputation",
  "abi": [
    {
      "inputs": [
        {
          "internalType": "address",
          "name": "orderRegistryAddress",
          "type": "address"
        }
      ],
      "stateMutability": "nonpayable",
      "type": "constructor"
    },
    {
      "inputs": [
        {
          "internalType": "uint256",
          "name": "",
          "type": "uint256"
        }
      ],
      "name": "listingRatings",
      "outputs": [
        {
          "internalType": "uint256",
          "name": "totalRatings",
          "type": "uint256"
        },
        {
          "internalType": "uint256",
          "name": "sumRatings",
          "type": "uint256"
        }
      ],
      "stateMutability": "view",
      "type": "function",
      "constant": true
    },
    {
      "inputs": [],
      "name": "orderRegistry",
      "outputs": [
        {
          "internalType": "contract OrderRegistry",
          "name": "",
          "type": "address"
        }
      ],
      "stateMutability": "view",
      "type": "function",
      "constant": true
    },
    {
      "inputs": [
        {
          "internalType": "uint256",
          "name": "",
          "type": "uint256"
        }
      ],
      "name": "ratedOrder",
      "outputs": [
        {
          "internalType": "bool",
          "name": "",
          "type": "bool"
        }
      ],
      "stateMutability": "view",
      "type": "function",
      "constant": true
    },
    {
      "inputs": [
        {
          "internalType": "address",
          "name": "",
          "type": "address"
        }
      ],
      "name": "reputations",
      "outputs": [
        {
          "internalType": "uint256",
          "name": "totalRatings",
          "type": "uint256"
        },
        {
          "internalType": "uint256",
          "name": "sumRatings",
          "type": "uint256"
        }
      ],
      "stateMutability": "view",
      "type": "function",
      "constant": true
    },
    {
      "inputs": [
        {
          "internalType": "uint256",
          "name": "orderId",
          "type": "uint256"
        },
        {
          "internalType": "uint8",
          "name": "rating",
          "type": "uint8"
        }
      ],
      "name": "rateOrder",
      "outputs": [],
      "stateMutability": "nonpayable",
      "type": "function"
    },
    {
      "inputs": [
        {
          "internalType": "address",
          "name": "seller",
          "type": "address"
        }
      ],
      "name": "getAverageRating",
      "outputs": [
        {
          "internalType": "uint256",
          "name": "",
          "type": "uint256"
        }
      ],
      "stateMutability": "view",
      "type": "function",
      "constant": true
    },
    {
      "inputs": [
        {
          "internalType": "uint256",
          "name": "listingId",
          "type": "uint256"
        }
      ],
      "name": "getListingAverage",
      "outputs": [
        {
          "internalType": "uint256",
          "name": "",
          "type": "uint256"
        }
      ],
      "stateMutability": "view",
      "type": "function",
      "constant": true
    }
  ],
  "bytecode": "0x608060405234801561001057600080fd5b50604051610c6c380380610c6c833981810160405281019061003291906100db565b806000806101000a81548173ffffffffffffffffffffffffffffffffffffffff021916908373ffffffffffffffffffffffffffffffffffffffff16021790555050610108565b600080fd5b600073ffffffffffffffffffffffffffffffffffffffff82169050919050565b60006100a88261007d565b9050919050565b6100b88161009d565b81146100c357600080fd5b50565b6000815190506100d5816100af565b92915050565b6000602082840312156100f1576100f0610078565b5b60006100ff848285016100c6565b91505092915050565b610b55806101176000396000f3fe608060405234801561001057600080fd5b506004361061007d5760003560e01c8063914c6fd81161005b578063914c6fd814610114578063b371564b14610130578063b4009d021461014e578063c8b675221461017e5761007d565b806306fa15a71461008257806335a0f9c9146100b35780638de67a33146100e3575b600080fd5b61009c600480360381019061009791906107cc565b6101ae565b6040516100aa929190610812565b60405180910390f35b6100cd60048036038101906100c89190610867565b6101d2565b6040516100da91906108af565b60405180910390f35b6100fd60048036038101906100f89190610867565b6101f2565b60405161010b929190610812565b60405180910390f35b61012e60048036038101906101299190610903565b610216565b005b610138610651565b60405161014591906109a2565b60405180910390f35b61016860048036038101906101639190610867565b610675565b60405161017591906109bd565b60405180910390f35b610198600480360381019061019391906107cc565b6106d9565b6040516101a591906109bd565b60405180910390f35b60016020528060005260406000206000915090508060000154908060010154905082565b60036020528060005260406000206000915054906101000a900460ff1681565b60026020528060005260406000206000915090508060000154908060010154905082565b60018160ff16101561022757600080fd5b60058160ff16111561023857600080fd5b600015156003600084815260200190815260200160002060009054906101000a900460ff1615151461026957600080fd5b60008054906101000a900473ffffffffffffffffffffffffffffffffffffffff1673ffffffffffffffffffffffffffffffffffffffff16635bf608b8836040518263ffffffff1660e01b81526004016102c291906109bd565b602060405180830381865afa1580156102df573d6000803e3d6000fd5b505050506040513d601f19601f8201168201806040525081019061030391906109ed565b73ffffffffffffffffffffffffffffffffffffffff163373ffffffffffffffffffffffffffffffffffffffff161461033a57600080fd5b60016003600084815260200190815260200160002060006101000a81548160ff02191690831515021790555060008060009054906101000a900473ffffffffffffffffffffffffffffffffffffffff1673ffffffffffffffffffffffffffffffffffffffff1663d6a9de51846040518263ffffffff1660e01b81526004016103c291906109bd565b602060405180830381865afa1580156103df573d6000803e3d6000fd5b505050506040513d601f19601f8201168201806040525081019061040391906109ed565b905060018060008373ffffffffffffffffffffffffffffffffffffffff1673ffffffffffffffffffffffffffffffffffffffff168152602001908152602001600020600001546104539190610a49565b600160008373ffffffffffffffffffffffffffffffffffffffff1673ffffffffffffffffffffffffffffffffffffffff168152602001908152602001600020600001819055508160ff16600160008373ffffffffffffffffffffffffffffffffffffffff1673ffffffffffffffffffffffffffffffffffffffff168152602001908152602001600020600101546104ea9190610a49565b600160008373ffffffffffffffffffffffffffffffffffffffff1673ffffffffffffffffffffffffffffffffffffffff1681526020019081526020016000206001018190555060008060009054906101000a900473ffffffffffffffffffffffffffffffffffffffff1673ffffffffffffffffffffffffffffffffffffffff1663cc85a55b856040518263ffffffff1660e01b815260040161058c91906109bd565b602060405180830381865afa1580156105a9573d6000803e3d6000fd5b505050506040513d601f19601f820116820180604052508101906105cd9190610a92565b9050600160026000838152602001908152602001600020600001546105f29190610a49565b60026000838152602001908152602001600020600001819055508260ff1660026000838152602001908152602001600020600101546106319190610a49565b600260008381526020019081526020016000206001018190555050505050565b60008054906101000a900473ffffffffffffffffffffffffffffffffffffffff1681565b6000806002600084815260200190815260200160002060405180604001604052908160008201548152602001600182015481525050905060008160000151116106bd57600080fd5b806000015181602001516106d19190610aee565b915050919050565b600080600160008473ffffffffffffffffffffffffffffffffffffffff1673ffffffffffffffffffffffffffffffffffffffff168152602001908152602001600020604051806040016040529081600082015481526020016001820154815250509050600081600001511161074d57600080fd5b806000015181602001516107619190610aee565b915050919050565b600080fd5b600073ffffffffffffffffffffffffffffffffffffffff82169050919050565b60006107998261076e565b9050919050565b6107a98161078e565b81146107b457600080fd5b50565b6000813590506107c6816107a0565b92915050565b6000602082840312156107e2576107e1610769565b5b60006107f0848285016107b7565b91505092915050565b6000819050919050565b61080c816107f9565b82525050565b60006040820190506108276000830185610803565b6108346020830184610803565b9392505050565b610844816107f9565b811461084f57600080fd5b50565b6000813590506108618161083b565b92915050565b60006020828403121561087d5761087c610769565b5b600061088b84828501610852565b91505092915050565b60008115159050919050565b6108a981610894565b82525050565b60006020820190506108c460008301846108a0565b92915050565b600060ff82169050919050565b6108e0816108ca565b81146108eb57600080fd5b50565b6000813590506108fd816108d7565b92915050565b6000806040838503121561091a57610919610769565b5b600061092885828601610852565b9250506020610939858286016108ee565b9150509250929050565b6000819050919050565b600061096861096361095e8461076e565b610943565b61076e565b9050919050565b600061097a8261094d565b9050919050565b600061098c8261096f565b9050919050565b61099c81610981565b82525050565b60006020820190506109b76000830184610993565b92915050565b60006020820190506109d26000830184610803565b92915050565b6000815190506109e7816107a0565b92915050565b600060208284031215610a0357610a02610769565b5b6000610a11848285016109d8565b91505092915050565b7f4e487b7100000000000000000000000000000000000000000000000000000000600052601160045260246000fd5b6000610a54826107f9565b9150610a5f836107f9565b9250828201905080821115610a7757610a76610a1a565b5b92915050565b600081519050610a8c8161083b565b92915050565b600060208284031215610aa857610aa7610769565b5b6000610ab684828501610a7d565b91505092915050565b7f4e487b7100000000000000000000000000000000000000000000000000000000600052601260045260246000fd5b6000610af9826107f9565b9150610b04836107f9565b925082610b1457610b13610abf565b5b82820490509291505056fea2646970667358221220baba940d20d1ba64f9d1e40d0ec2d67413c1ba4ddc416fff2935a8e894b010b864736f6c63430008130033",
  "immutableReferences": {},
  "source": "// SPDX-License-Identifier: MIT\r\npragma solidity ^0.8.19;\r\n\r\nimport \"./OrderRegistry.sol\";\n\ncontract SellerReputation {\n\n    struct Reputation {\n        uint256 totalRatings;\n        uint256 sumRatings;\n    }\n\n    struct ListingRating {\n        uint256 totalRatings;\n        uint256 sumRatings;\n    }\n\n    OrderRegistry public orderRegistry;\n    mapping(address => Reputation) public reputations;\n    mapping(uint256 => ListingRating) public listingRatings;\n    mapping(uint256 => bool) public ratedOrder;\n\n    constructor(address orderRegistryAddress) {\n        orderRegistry = OrderRegistry(orderRegistryAddress);\n    }\n\n    function rateOrder(\n        uint256 orderId,\n        uint8 rating\n    ) external {\n        require(rating >= 1);\n        require(rating <= 5);\n        require(ratedOrder[orderId] == false);\n        require(msg.sender == orderRegistry.getBuyer(orderId));\n\n        ratedOrder[orderId] = true;\n\n        address seller = orderRegistry.getSeller(orderId);\n        reputations[seller].totalRatings =\n            reputations[seller].totalRatings + 1;\n\n        reputations[seller].sumRatings =\n            reputations[seller].sumRatings + rating;\n\n        uint256 listingId = orderRegistry.getListingId(orderId);\n        listingRatings[listingId].totalRatings =\n            listingRatings[listingId].totalRatings + 1;\n\n        listingRatings[listingId].sumRatings =\n            listingRatings[listingId].sumRatings + rating;\n    }\n\r\n    function getAverageRating(address seller) external view returns (uint256) {\n        Reputation memory R = reputations[seller];\n        require(R.totalRatings > 0);\n        return R.sumRatings / R.totalRatings;\n    }\n\n    function getListingAverage(uint256 listingId) external view returns (uint256) {\n        ListingRating memory L = listingRatings[listingId];\n        require(L.totalRatings > 0);\n        return L.sumRatings / L.totalRatings;\n    }\n}\n",
  "sourcePath": "C:\\Users\\24002690\\Downloads\\C373_Team-2_FA-1 (2)\\C373_Team-2_FA-1\\contracts\\SellerReputation.sol",
  "compiler": {
    "name": "solc",
    "version": "0.8.19+commit.7dd6d404.Emscripten.clang"
  },
  "schemaVersion": "3.4.16",
  "updatedAt": "2026-01-29T09:10:05.056Z",
  "networkType": "ethereum",
  "devdoc": {
    "kind": "dev",
    "methods": {},
    "version": 1
  },
  "userdoc": {
    "kind": "user",
    "methods": {},
    "version": 1
  }
}