{
  "contractName": "SellerReputation",
  "abi": [
    {
      "anonymous": false,
      "inputs": [
        {
          "indexed": true,
          "internalType": "address",
          "name": "escrow",
          "type": "address"
        }
      ],
      "name": "EscrowContractSet",
      "type": "event"
    },
    {
      "anonymous": false,
      "inputs": [
        {
          "indexed": true,
          "internalType": "uint256",
          "name": "orderId",
          "type": "uint256"
        },
        {
          "indexed": true,
          "internalType": "address",
          "name": "seller",
          "type": "address"
        },
        {
          "indexed": true,
          "internalType": "address",
          "name": "buyer",
          "type": "address"
        },
        {
          "indexed": false,
          "internalType": "uint8",
          "name": "stars",
          "type": "uint8"
        },
        {
          "indexed": false,
          "internalType": "string",
          "name": "comment",
          "type": "string"
        }
      ],
      "name": "SellerRated",
      "type": "event"
    },
    {
      "inputs": [],
      "name": "escrowContract",
      "outputs": [
        {
          "internalType": "address",
          "name": "",
          "type": "address"
        }
      ],
      "stateMutability": "view",
      "type": "function",
      "constant": true
    },
    {
      "inputs": [
        {
          "internalType": "uint256",
          "name": "",
          "type": "uint256"
        }
      ],
      "name": "orderRated",
      "outputs": [
        {
          "internalType": "bool",
          "name": "",
          "type": "bool"
        }
      ],
      "stateMutability": "view",
      "type": "function",
      "constant": true
    },
    {
      "inputs": [
        {
          "internalType": "address",
          "name": "",
          "type": "address"
        }
      ],
      "name": "ratingCount",
      "outputs": [
        {
          "internalType": "uint256",
          "name": "",
          "type": "uint256"
        }
      ],
      "stateMutability": "view",
      "type": "function",
      "constant": true
    },
    {
      "inputs": [
        {
          "internalType": "address",
          "name": "",
          "type": "address"
        }
      ],
      "name": "totalStars",
      "outputs": [
        {
          "internalType": "uint256",
          "name": "",
          "type": "uint256"
        }
      ],
      "stateMutability": "view",
      "type": "function",
      "constant": true
    },
    {
      "inputs": [
        {
          "internalType": "address",
          "name": "_escrow",
          "type": "address"
        }
      ],
      "name": "setEscrowContract",
      "outputs": [],
      "stateMutability": "nonpayable",
      "type": "function"
    },
    {
      "inputs": [
        {
          "internalType": "address",
          "name": "seller",
          "type": "address"
        }
      ],
      "name": "getAverageRating",
      "outputs": [
        {
          "internalType": "uint256",
          "name": "avgTimes100",
          "type": "uint256"
        }
      ],
      "stateMutability": "view",
      "type": "function",
      "constant": true
    },
    {
      "inputs": [
        {
          "internalType": "uint256",
          "name": "orderId",
          "type": "uint256"
        },
        {
          "internalType": "address",
          "name": "seller",
          "type": "address"
        },
        {
          "internalType": "address",
          "name": "buyer",
          "type": "address"
        },
        {
          "internalType": "uint8",
          "name": "stars",
          "type": "uint8"
        },
        {
          "internalType": "string",
          "name": "comment",
          "type": "string"
        }
      ],
      "name": "recordRating",
      "outputs": [],
      "stateMutability": "nonpayable",
      "type": "function"
    }
  ],
  "bytecode": "0x608060405234801561001057600080fd5b50610ed8806100206000396000f3fe608060405234801561001057600080fd5b506004361061007d5760003560e01c8063be65a6781161005b578063be65a678146100fe578063c8b675221461012e578063e42a96e71461015e578063f42375b51461017c5761007d565b806310ceba4b146100825780632404165e1461009e57806350c3706a146100ce575b600080fd5b61009c600480360381019061009791906108f8565b610198565b005b6100b860048036038101906100b39190610992565b6104d5565b6040516100c591906109ce565b60405180910390f35b6100e860048036038101906100e391906109e9565b6104ed565b6040516100f59190610a31565b60405180910390f35b61011860048036038101906101139190610992565b61050d565b60405161012591906109ce565b60405180910390f35b61014860048036038101906101439190610992565b610525565b60405161015591906109ce565b60405180910390f35b610166610614565b6040516101739190610a5b565b60405180910390f35b61019660048036038101906101919190610992565b610638565b005b60008054906101000a900473ffffffffffffffffffffffffffffffffffffffff1673ffffffffffffffffffffffffffffffffffffffff163373ffffffffffffffffffffffffffffffffffffffff1614610226576040517f08c379a000000000000000000000000000000000000000000000000000000000815260040161021d90610ad3565b60405180910390fd5b6003600087815260200190815260200160002060009054906101000a900460ff1615610287576040517f08c379a000000000000000000000000000000000000000000000000000000000815260040161027e90610b3f565b60405180910390fd5b60018360ff161015801561029f575060058360ff1611155b6102de576040517f08c379a00000000000000000000000000000000000000000000000000000000081526004016102d590610bab565b60405180910390fd5b600073ffffffffffffffffffffffffffffffffffffffff168573ffffffffffffffffffffffffffffffffffffffff16141580156103485750600073ffffffffffffffffffffffffffffffffffffffff168473ffffffffffffffffffffffffffffffffffffffff1614155b610387576040517f08c379a000000000000000000000000000000000000000000000000000000000815260040161037e90610c17565b60405180910390fd5b60016003600088815260200190815260200160002060006101000a81548160ff0219169083151502179055508260ff16600160008773ffffffffffffffffffffffffffffffffffffffff1673ffffffffffffffffffffffffffffffffffffffff16815260200190815260200160002060008282546104059190610c66565b925050819055506001600260008773ffffffffffffffffffffffffffffffffffffffff1673ffffffffffffffffffffffffffffffffffffffff168152602001908152602001600020600082825461045c9190610c66565b925050819055508373ffffffffffffffffffffffffffffffffffffffff168573ffffffffffffffffffffffffffffffffffffffff16877fa2d10235f439d37e261e1dfbdfc3755014031d5e11338d3cfe0dcc327ad8780c8686866040516104c593929190610cf6565b60405180910390a4505050505050565b60026020528060005260406000206000915090505481565b60036020528060005260406000206000915054906101000a900460ff1681565b60016020528060005260406000206000915090505481565b600080600260008473ffffffffffffffffffffffffffffffffffffffff1673ffffffffffffffffffffffffffffffffffffffff1681526020019081526020016000205403610576576000905061060f565b600260008373ffffffffffffffffffffffffffffffffffffffff1673ffffffffffffffffffffffffffffffffffffffff168152602001908152602001600020546064600160008573ffffffffffffffffffffffffffffffffffffffff1673ffffffffffffffffffffffffffffffffffffffff168152602001908152602001600020546106029190610d28565b61060c9190610d99565b90505b919050565b60008054906101000a900473ffffffffffffffffffffffffffffffffffffffff1681565b600073ffffffffffffffffffffffffffffffffffffffff1660008054906101000a900473ffffffffffffffffffffffffffffffffffffffff1673ffffffffffffffffffffffffffffffffffffffff16146106c7576040517f08c379a00000000000000000000000000000000000000000000000000000000081526004016106be90610e16565b60405180910390fd5b600073ffffffffffffffffffffffffffffffffffffffff168173ffffffffffffffffffffffffffffffffffffffff1603610736576040517f08c379a000000000000000000000000000000000000000000000000000000000815260040161072d90610e82565b60405180910390fd5b806000806101000a81548173ffffffffffffffffffffffffffffffffffffffff021916908373ffffffffffffffffffffffffffffffffffffffff1602179055508073ffffffffffffffffffffffffffffffffffffffff167fded808e17a47bf48d1a08e83e02563c8ff7f91d526f96d395bbce60d720d9d2960405160405180910390a250565b600080fd5b600080fd5b6000819050919050565b6107d9816107c6565b81146107e457600080fd5b50565b6000813590506107f6816107d0565b92915050565b600073ffffffffffffffffffffffffffffffffffffffff82169050919050565b6000610827826107fc565b9050919050565b6108378161081c565b811461084257600080fd5b50565b6000813590506108548161082e565b92915050565b600060ff82169050919050565b6108708161085a565b811461087b57600080fd5b50565b60008135905061088d81610867565b92915050565b600080fd5b600080fd5b600080fd5b60008083601f8401126108b8576108b7610893565b5b8235905067ffffffffffffffff8111156108d5576108d4610898565b5b6020830191508360018202830111156108f1576108f061089d565b5b9250929050565b60008060008060008060a08789031215610915576109146107bc565b5b600061092389828a016107e7565b965050602061093489828a01610845565b955050604061094589828a01610845565b945050606061095689828a0161087e565b935050608087013567ffffffffffffffff811115610977576109766107c1565b5b61098389828a016108a2565b92509250509295509295509295565b6000602082840312156109a8576109a76107bc565b5b60006109b684828501610845565b91505092915050565b6109c8816107c6565b82525050565b60006020820190506109e360008301846109bf565b92915050565b6000602082840312156109ff576109fe6107bc565b5b6000610a0d848285016107e7565b91505092915050565b60008115159050919050565b610a2b81610a16565b82525050565b6000602082019050610a466000830184610a22565b92915050565b610a558161081c565b82525050565b6000602082019050610a706000830184610a4c565b92915050565b600082825260208201905092915050565b7f4f6e6c7920657363726f772063616e2072617465000000000000000000000000600082015250565b6000610abd601483610a76565b9150610ac882610a87565b602082019050919050565b60006020820190508181036000830152610aec81610ab0565b9050919050565b7f4f7264657220616c726561647920726174656400000000000000000000000000600082015250565b6000610b29601383610a76565b9150610b3482610af3565b602082019050919050565b60006020820190508181036000830152610b5881610b1c565b9050919050565b7f5374617273206d75737420626520312d35000000000000000000000000000000600082015250565b6000610b95601183610a76565b9150610ba082610b5f565b602082019050919050565b60006020820190508181036000830152610bc481610b88565b9050919050565b7f496e76616c696420706172746965730000000000000000000000000000000000600082015250565b6000610c01600f83610a76565b9150610c0c82610bcb565b602082019050919050565b60006020820190508181036000830152610c3081610bf4565b9050919050565b7f4e487b7100000000000000000000000000000000000000000000000000000000600052601160045260246000fd5b6000610c71826107c6565b9150610c7c836107c6565b9250828201905080821115610c9457610c93610c37565b5b92915050565b610ca38161085a565b82525050565b82818337600083830152505050565b6000601f19601f8301169050919050565b6000610cd58385610a76565b9350610ce2838584610ca9565b610ceb83610cb8565b840190509392505050565b6000604082019050610d0b6000830186610c9a565b8181036020830152610d1e818486610cc9565b9050949350505050565b6000610d33826107c6565b9150610d3e836107c6565b9250828202610d4c816107c6565b91508282048414831517610d6357610d62610c37565b5b5092915050565b7f4e487b7100000000000000000000000000000000000000000000000000000000600052601260045260246000fd5b6000610da4826107c6565b9150610daf836107c6565b925082610dbf57610dbe610d6a565b5b828204905092915050565b7f457363726f7720616c7265616479207365740000000000000000000000000000600082015250565b6000610e00601283610a76565b9150610e0b82610dca565b602082019050919050565b60006020820190508181036000830152610e2f81610df3565b9050919050565b7f496e76616c696420657363726f77000000000000000000000000000000000000600082015250565b6000610e6c600e83610a76565b9150610e7782610e36565b602082019050919050565b60006020820190508181036000830152610e9b81610e5f565b905091905056fea264697066735822122055ef709a3e8956a486e6ee6d347e47e6eae60fb8d77d0eb3b26a879d7d9f99d664736f6c63430008130033",
  "immutableReferences": {},
  "source": "// SPDX-License-Identifier: MIT\r\npragma solidity ^0.8.19;\r\n\r\ncontract SellerReputation {\r\n    address public escrowContract;\r\n\r\n    // seller => totalStars accumulated\r\n    mapping(address => uint256) public totalStars;\r\n    // seller => number of ratings received\r\n    mapping(address => uint256) public ratingCount;\r\n\r\n    // Prevent the same order being rated twice\r\n    mapping(uint256 => bool) public orderRated;\r\n\r\n    event EscrowContractSet(address indexed escrow);\r\n    event SellerRated(uint256 indexed orderId, address indexed seller, address indexed buyer, uint8 stars, string comment);\r\n\r\n    modifier onlyEscrow() {\r\n        require(msg.sender == escrowContract, \"Only escrow can rate\");\r\n        _;\r\n    }\r\n\r\n    // Set escrow contract once\r\n    function setEscrowContract(address _escrow) external {\r\n        require(escrowContract == address(0), \"Escrow already set\");\r\n        require(_escrow != address(0), \"Invalid escrow\");\r\n        escrowContract = _escrow;\r\n        emit EscrowContractSet(_escrow);\r\n    }\r\n\r\n    function getAverageRating(address seller) external view returns (uint256 avgTimes100) {\r\n        if (ratingCount[seller] == 0) return 0;\r\n        return (totalStars[seller] * 100) / ratingCount[seller];\r\n    }\r\n\r\n    // Called by escrow contract only after successful payment release\r\n    function recordRating(\r\n        uint256 orderId,\r\n        address seller,\r\n        address buyer,\r\n        uint8 stars,\r\n        string calldata comment\r\n    ) external onlyEscrow {\r\n        require(!orderRated[orderId], \"Order already rated\");\r\n        require(stars >= 1 && stars <= 5, \"Stars must be 1-5\");\r\n        require(seller != address(0) && buyer != address(0), \"Invalid parties\");\r\n\r\n        orderRated[orderId] = true;\r\n        totalStars[seller] += stars;\r\n        ratingCount[seller] += 1;\r\n\r\n        emit SellerRated(orderId, seller, buyer, stars, comment);\r\n    }\r\n}\r\n",
  "sourcePath": "C:\\Users\\24009059\\OneDrive - Republic Polytechnic\\Desktop\\C373 FA FINAL\\C373_Team-2_FA\\contracts\\SellerReputation.sol",
  "compiler": {
    "name": "solc",
    "version": "0.8.19+commit.7dd6d404.Emscripten.clang"
  },
  "schemaVersion": "3.4.16",
  "updatedAt": "2026-01-23T02:42:27.486Z",
  "networkType": "ethereum",
  "devdoc": {
    "kind": "dev",
    "methods": {},
    "version": 1
  },
  "userdoc": {
    "kind": "user",
    "methods": {},
    "version": 1
  }
}